:020000040000FA
:1080000038C3002095BF0000B714020081BF0000F4
:1080100081BF000081BF000081BF000081BF000060
:1080200000000000000000000000000055C100003A
:1080300081BF000000000000E5C0000081BF00001B
:108040005DC300005DC300005DC300005DC30000B0
:108050005DC300005DC300005DC300005DC30000A0
:108060005DC300005DC300005DC300005DC3000090
:108070005DC300005DC300005DC300005DC3000080
:108080005DC300005DC300005DC300005DC3000070
:108090005DC300005DC300005DC300005DC3000060
:1080A0005DC300005DC300005DC300005DC3000050
:1080B0005DC300005DC300005DC300005DC3000040
:1080C0005DC300005DC300005DC300005DC3000030
:1080D0005DC300005DC300005DC300005DC3000020
:1080E0005DC300005DC300005DC300005DC3000010
:1080F0005DC300005DC300005DC300005DC3000000
:108100005DC300005DC300005DC300005DC30000EF
:108110005DC300005DC300005DC300005DC30000DF
:108120005DC300005DC300005DC300005DC30000CF
:108130005DC300005DC300005DC300005DC30000BF
:108140005DC300005DC300005DC300005DC30000AF
:108150005DC30000FFFFFFFF53B94AB9002908BF04
:1081600000281CBF4FF0FF314FF0FF3000F00CB87B
:10817000ADF1080C6DE904CE00F008F8DDF804E07C
:10818000DDE9022304B07047704700BF2DE9F047D6
:1081900086468C460846089E154674461946002BAE
:1081A00040F0C1808542B2FA82F245D94AB1C2F1AB
:1081B000200300FA02FC954094402EFA03F343EAB0
:1081C0000C0C4FEA154EA8B2230CBCFBFEF80EFBBC
:1081D00018CC08FB00F943EA0C43994528D9EB1861
:1081E00008F1FF3704D2994502D9A8F102072B44C0
:1081F000A3EB0903A4B2B3FBFEFC0EFB1C330CFB88
:1082000000F044EA0344A04214D92C190CF1FF33C6
:1082100004D2A04202D9ACF102032C44241A43EA4E
:1082200007401EB1D440002334607360BDE8F0877E
:108230004746DDE76346F1E792BB431B01214FEA66
:10824000154EAFB2200CB3FBFEFC0EFB1C330CFB37
:1082500007F840EA0343984561D9EB180CF1FF3069
:1082600004D2984502D9ACF102002B44A3EB0803D9
:10827000A4B2B3FBFEFC0EFB1C330CFB07F744EA75
:108280000344A7424DD92C190CF1FF3304D2A74265
:1082900002D9ACF102032C44E41B43EA0040C0E7DE
:1082A000C2F120039540944020FA03F12EFA03F323
:1082B0004FEA154E9040AFB20343B1FBFEFC0EFBFC
:1082C0001C10190C0CFB07F841EA0041884522D923
:1082D00069180CF1FF3004D2884502D9ACF10200D4
:1082E0002944A1EB08019BB2B1FBFEFC0EFB1C1163
:1082F0000CFB07F743EA01439F420ED9EB180CF140
:10830000FF3104D29F4202D9ACF102012B44DB1BA6
:1083100041EA004193E76046E3E76146F7E76046DC
:10832000A4E76346B8E7834206D916B90021084698
:108330007CE7C6E900E0F9E7B3FA83F78FB9834237
:1083400001D3724508D8BEEB020460EB03030120A1
:108350009C461EB9002169E73846FAE7C6E9004C99
:10836000F8E7C7F1200CBB400EFA07F522FA0CF42F
:108370002EFA0CF1BA401C4320FA0CF3B8404FEA35
:10838000144901431FFA84FEB3FBF9F809FB1830C6
:108390000B0C08FB0EFA43EA00439A4540D9E31858
:1083A00008F1FF3004D29A4502D9A8F10200234413
:1083B000A3EB0A0389B2B3FBF9F809FB183308FBF6
:1083C0000EFE41EA03418E452CD9611808F1FF33B6
:1083D00004D28E4502D9A8F10203214443EA0040A9
:1083E000A1EB0E01A0FB02984145CE46434602D3C5
:1083F00006D14D4504D20138B9EB020E68EB0403F7
:10840000002EA7D0B5EB0E0261EB030101FA0CFCC4
:1084100022FA07F3F9404CEA0303C6E9003199E771
:108420004046C5E74346D9E710F8012B11F8013B58
:10843000012A28BF9A42F7D0D01A7047034611F894
:10844000012B03F8012B002AF9D17047034613F8DA
:10845000012B002AFBD1181A0138704700000000D8
:108460002DE9F04F89B005461646049105938368BF
:1084700006AA5B689847002832DBDDE9064A204BF4
:108480004FF0FF39A4FB03B203FB0A2303935846C2
:1084900019A3D3E900230399FFF75EFEDFF8648098
:1084A000039BD94578EB030307461CD312A3D3E9FA
:1084B0000023A6FB04B406FB0A4458462146FFF7F6
:1084C0004BFED94578EB040403460CD38742AA68D7
:1084D0000CD3059928460091146804993A46A047A0
:1084E00009B0BDE8F08F6FF08500F9E76FF0150077
:1084F000F6E700BFAFF3008000CA9A3B000000001F
:10850000002D3101FFC99A3BF0B5644D8BB0D5F811
:108510006831996811F001011AD140F6034009AAA7
:1085200005F002FB0446002840F0B5800998C368B6
:108530001B785BB905F1D403D3E8AF2F02F0090231
:10854000D3E8EF1FC3E8E42F002CF9D10DF0A4FD10
:10855000002141F2030009AA05F0E6FA04460028CA
:1085600040F09980099B4E4EDA68D2F80100D2F8AB
:10857000051003C618460DF08FFD214641F201009B
:1085800009AA05F0D1FA0446002840F08480099831
:10859000C3685A7885F870205A88A5F872201A792D
:1085A00085F87120B3F80720A5F87420B3F80530DA
:1085B000A5F876300DF070FD214641F2020009AABF
:1085C00005F0B2FA0446002865D1099FFA68531CE9
:1085D0004132344618685968083303C4934226462A
:1085E000F7D138460DF058FD07F05AF90446002837
:1085F00051D195F88A3013F0200318D1294A2A491D
:10860000CDE901320093022219F0F7F895F87C3099
:1086100013F040034CD1254A1846CDE901322249D6
:108620000122009319F0E9F86FF0120433E00721FA
:1086300040F6334005F02EFA0646002800F042814D
:1086400007210C300DF034FE452303700623C0F8DB
:1086500002408471447004712246C370314640F672
:10866000334005F061FA0446A8B9012140F63140D3
:1086700005F010FA0646002800F0248101210C3094
:108680001AF0EDFF2246314640F6314005F04CFA33
:1086900004460028BAD020460BB0F0BD0080002070
:1086A00078800020767502001C530200A475020039
:1086B000002142F2030009AA05F036FA0446002818
:1086C000E9D1099BAE4EDA68D2F80100D2F8051064
:1086D00003C618460DF0E0FC214642F2020009AA4A
:1086E00005F022FA04460028D5D1099CE368B3F8C6
:1086F000012091B249B1D97839B1A5F80421DA78CD
:10870000114606F128001CF05DF920460DF0C4FC6E
:1087100095F87C6016F0200618D1022140F66D40D5
:1087200005F0B8F90446002800F0CC8002210C3096
:108730000DF0BEFD0123214603704670324640F61F
:108740006D4005F0F1F904460028A4D195F89C305D
:108750001F0712D5002142F21C0009AA05F0E4F916
:108760000446002897D10998C368D3F80120D3F8AC
:108770000530C5E938230DF08FFC95F8D8309E06FA
:1087800024D50DF1220108A805F040FA044600287E
:1087900081D1042142F2240005F07CF9064600282C
:1087A00000F0908004210C300DF082FDBDF82030E7
:1087B00022460380BDF822303146438042F2240035
:1087C00005F0B2F9044600287FF465AF95F8D8307B
:1087D0005C0610D5002142F22A0009AA05F0A4F98E
:1087E000044600287FF457AF0998C3685B7885F882
:1087F00020310DF051FC082142F2010005F04AF948
:10880000044600285ED008210C300DF051FD95F88B
:10881000D81040F2022311F0400F08BF0323024694
:1088200088074CBF43F02C0043F00C008B0695F8F2
:10883000D93048BF40F0400013F0090F95F8A2303E
:1088400018BF40F4006003F00603CF0748BF40F0B4
:108850001000062B08BF40F4C070002118F0E4FFA0
:108860002146002242F2010005F05EF9044600288C
:108870007FF411AF95F87C30B5F804119E0624D42E
:10888000C9B941F2050009AA05F04EF904460028CD
:108890007FF401AFB5F80431099C4BB9E368B3F834
:1088A0000120A5F804219A88364811461CF08AF860
:1088B00020460DF0F1FB082140F6014005F0EAF8F2
:1088C000044680B96FF06804E5E60029F3D12E4B29
:1088D0000122CDE901032D490346009018F08DFFD8
:1088E0006FF00404D7E608210C300DF0E1FC95F898
:1088F000D8300246D9073BD44FF00051244818F035
:1089000093FF2146002240F6014005F00DF9044690
:1089100000287FF4C0AE014609AA4FF6014005F0D9
:1089200003F900283CD01B4BCDE9014323460094BA
:1089300002221846154918F060FF19F0F9F80446AC
:1089400000287FF4A8AE08F05BF9044600287FF405
:10895000A2AE114BDA79002A40F09E800F4B032221
:10896000CDE9010309490346009018F046FF92E65D
:1089700001A1D1E90001C2E7908800020080002037
:10898000D880002008810020C87502001C53020016
:1089900010880002EB75020000800020BF76020004
:1089A000099D4149EC68B4F80130032B96BF3F4A5A
:1089B0003F4A52F82320CDE903233E4B0322029382
:1089C00000231846CDE9003318F017FFB4F8013042
:1089D000B4F80320022B3AD1052A38D8364B53F885
:1089E0002230CDE90332354B0322029300232E4976
:1089F0001846CDE9003318F000FFD4F80910637968
:108A00000791B4F80710032B0691A1794FF00004E9
:108A100096BF2B4A264A52F82320CDE90431294B30
:108A2000214920460392029303222346CDE90044C4
:108A300018F0E3FE28460DF02FFB21464FF60240CA
:108A400009AA05F071F8054618B11F4B6CE7184BE1
:108A5000C7E709981D4CC368B3F80130A4F8C130CA
:108A60000DF01AFB94F8C1305B077FF566AF29461D
:108A70004FF6034009AA05F057F828B1144B0095AA
:108A8000CDE901532B4653E70998C3685B7884F816
:108A9000C0300DF001FB50E7082103F1D40018F0BD
:108AA00095FE05F053FEF6E51C5302002C5902001A
:108AB000CA7302000F7602001459020028760200E1
:108AC00004590200407602006D760200008000200A
:108AD00096760200000000002DE9F04F87B00546B1
:108AE00017461E460391836804AA5B6898470028CE
:108AF00031DBDDE9044AA7FB04B307FB0A371AA3FD
:108B0000D3E900234FF0FF3958463946FFF724FBDD
:108B1000DFF85C80D94578EB070302901ED312A3DF
:108B2000D3E90023A6FB04B406FB0A4458462146B9
:108B3000FFF712FBD94578EB040403460ED30299E4
:108B4000AA6899420DD3BDF84010284600911468D8
:108B5000DDE90221A04707B0BDE8F08F6FF0850086
:108B6000F9E76FF01500F6E700CA9A3B0000000035
:108B7000FFC99A3B014B1878704700BFC09A00208C
:108B800008B5044816F0C3FFBDE8084001201BF0FB
:108B900011B800BF4660020008B521B1BDE8084029
:108BA000054816F0B4BF054816F0B1FFBDE808400F
:108BB00001201AF0FCBF00BF606002007C60020070
:108BC000CB0710B506D500F00104204602F096FC54
:108BD000014B1C7010BD00BFC09A0020002302464C
:108BE00010B519460548FFF73BFC044618B101468D
:108BF000034816F08CFF204610BD00BF285002002D
:108C00008760020010B10248FFF7E8BF0148FBE7A8
:108C100080841E0040420F0030B52F4889B016F006
:108C200076FF10F0F3F9014638B12C4816F06FFFCB
:108C30004FF0FF34204609B030BD294810F020FA2B
:108C4000044628B905F008FE014640B12548EDE785
:108C50000146254816F05BFF21462448E6E72448F4
:108C600016F055FF17F0C7FE224802F03DFC014602
:108C700008B12148DAE7214D03AC0FCD0FC42B68B2
:108C80000222236001231E49009303A81D4B06F016
:108C9000B5FC044610B101461B48C7E71B4816F057
:108CA00036FF1B4D28461BF002FE20B929681948E3
:108CB00016F02DFFBEE7214623462846164AFFF749
:108CC000CFFB014608B11548F2E700214FF4004000
:108CD00015F046FDF9E700BF9F600200D160020079
:108CE000C18B000028610200EC6002000B610200F1
:108CF00048610200708100205F610200C0540200E0
:108D0000D0550200C85502007D610200A361020037
:108D100028500200C561020040420F008760020037
:108D200010B5094C0A44914200D110BD11F8013B25
:108D300058400309E35C0001C0B243401809205CBD
:108D40001B01DBB25840EEE7F36102002DE9F04F62
:108D500091B0009302F004030293C2F3C203013303
:108D6000840705460E46DDF868900392059340F0AF
:108D7000E181041D30B1072909D86FF01B0011B043
:108D8000BDE8F08F01F00706341DC6F10806009B10
:108D90004FF000084FF0040A591E4FF0FF334746CA
:108DA0000193C3465346CDF810800DB1009A22605E
:108DB0000598002800F3D7809548009A824203D393
:108DC00094488242C0F0CF80039AA4EB050E92072C
:108DD0004FEA9E0040F1DE804FF0000CCCE07A2894
:108DE0005DD84B280ED8472859D829282DD82528B2
:108DF00052D054D820287AD02338D0F1000B4BEB36
:108E0000000B74E04C382E2849D8DFE800F0704899
:108E1000484848484848484848484B4848484848CF
:108E200048484859484B4B595959704B6D48704800
:108E3000184B18484883804B48484B488000002016
:108E40004FF0000B4FF0040A38E001222A38C0B27C
:108E500002FA00F010EA0E0F49D110F0625C2FD137
:108E600010EA020B43D06046013C5444B4FBFAF4D0
:108E70000AFB04F4002D60D0A3EB050CA444664566
:108E8000FFF47BAF002867D1042B48D159F8043B8D
:108E90002360042304342AE0019A013A01924FF03E
:108EA000000B24E011F8010C6C2835D1002011F8DA
:108EB000023C83466C2BC5D14FF0080A5346D3E7DA
:108EC00009F1070929F00709073424F00704F9E834
:108ED00002AB35B106982044B0423FF64EAFC4E92C
:108EE00000AB4FF0000B08344FF0080A534611F85E
:108EF000010F002800F0AA80BBF1000F7FF46FAFD4
:108F00002528F4D14FF0010B019B013301934FF061
:108F1000040AEBE7584693E700208346A4E7082BB2
:108F200040F08B8009F1070929F00709F9E80223CD
:108F3000C4E9002308230834D9E768B9042B02D117
:108F400009F10409A5E7082B77D109F1070929F0F0
:108F5000070909F10809EDE7059A013A059259F860
:108F6000042B009221E7039A900744D54FF0010C9F
:108F7000A4EB050E4FEA9E00BEF5007F1BD32649E9
:108F800040F27B22254817F012F840F27B2122485C
:108F900017F006F80F2F10D8002D41D007F140022E
:108FA0000DEB020C019A0CF8200C0CF8102C049814
:108FB000013004901EE00F2F08D917494FF420729A
:108FC000164816F0F4FF4FF42071E0E7D5B107F131
:108FD00040020DEB020E019AC0B20EF8200C0EF802
:108FE000102CBCF1000FE2D060F07F000EF8200CD6
:108FF00008F101080137C5F108024FF6DA7E0434A2
:10900000069274E7BCF1000F0AD00136F2E700BF08
:10901000944E02000CA002000362020031620200C2
:10902000029802360028E5D10098CDE90631FFF715
:109030000DFADDE906310644DCE7404940F2C5227D
:109040003F4816F0B4FF40F2C521A0E7631BB3F51B
:10905000806F08D3394940F2D122394816F0A7FF72
:1090600040F2D12193E71DB9A6F10804E01886E685
:10907000029A9B0828602B709DF81030C2B1EB70EB
:1090800085F80280B8F1000F05D0002208A8C5F1CC
:10909000010C97420ED14FF0000AC5F101030DF10A
:1090A000200901930DF1300B574512D1601B66E684
:1090B0006B70E5E710F8013B190608D504EB0C0EC0
:1090C000764503F07F03FFF458AE04F8013B01320C
:1090D000DFE7B8F1000F03D099F90020002A17DB71
:1090E000029BD3B11AF80B2004F8012B0022019B3C
:1090F000981820448642FFF440AE99F80000009989
:1091000004F8010B204603921BF082FE039A1444DC
:109110000AF1010A09F10109C6E799F8002055F89A
:1091200022300093029B009845F82230FFF78EF919
:10913000421CDCE76FF00D0021E600BF0362020075
:1091400031620200014B1860704700BF7881002037
:1091500080B505460E461746984615F02DFB03468A
:109160001BF08EFE0446DFF81890424649F80030A6
:1091700039463046A84754F8090002F085FF00BF81
:109180000800000070B589B306680122304616F069
:1091900005FD01460446304616F0C8FCC30708D456
:1091A0001349AF22134816F002FFAF21104816F002
:1091B000F7FE2146304616F0CFFC2518294600223E
:1091C000304616F0B3FC2D1AAC4206D00849B7223F
:1091D000084816F0ECFEB721E8E72146304616F0C5
:1091E000C1FC2146BDE8704016F0FDBD70BD00BF5A
:1091F0005A620200316202002DE9F8430F46066808
:109200001446B2684B1EB2F5004F34BF042108214A
:109210003B4010D0C7F1000909EA0709494503F1AD
:10922000FF3028BF494618420CD11F46BCB9002563
:109230002846BDE8F8838F420FD82146BDE8F843A1
:1092400016F013BE2C492D484FF4A27216F0AFFE53
:109250004FF4A271284816F0A3FE9946E6E7B2EB58
:10926000D40FE4D9E319591A104616F0A1FC0146AF
:10927000304616F0F7FC80460028D8D0B36809EBDA
:10928000C005B3F5004F34BF042308231D44354403
:109290007B1E1D44B5FBF7F57D43A5EB090529466B
:1092A000304616F07BFC2C44073424F00704A41B42
:1092B000804507464FEAE40408D20246414630465C
:1092C00016F00AFD4146304616F04BFD3946304651
:1092D00016F042FC3844844208D2394630462246D1
:1092E00016F0FAFC2146304616F03BFD01223946C5
:1092F000304616F037FC9BE75A62020031620200EA
:10930000B2F5802F2DE9F0410CD2042A20D83D4936
:109310004FF4F9723C4816F04AFE4FF4F97139489F
:1093200016F03EFE0823D21ACC1D114424F0070487
:1093300021F00701091B17294FEAD1060AD8314944
:1093400040F2FB12304816F032FE40F2FB11E6E725
:109350000423E8E70027046031463046A660E76052
:1093600016F02FFC0121421D8046304616F020FCED
:109370009200D51DED082844B0423AD8B8F1FF3F1D
:109380003946A2F1100204F11000B8BF3A461BF0B2
:1093900066FD2A463946204616F0FCFB3B463A4617
:1093A0003946204616F0CDFBA6EB05082046394687
:1093B000012216F0D7FB4246294616F0EBFB2B465E
:1093C0003A462946204616F0BCFB3146204616F0A8
:1093D000E1FB43463A463146204616F0B2FB3146A1
:1093E0002046012216F0BEFB2946BDE8F04116F0EA
:1093F000B8BC04494FF40372034816F0D8FD4FF48B
:1094000003718CE75A620200316202002DE9F84FC5
:109410000446A38B08461907164612D4022803F007
:10942000070162D1204616F052FD88B101380428A8
:1094300000F22581DFE810F0590023017E00C8000A
:10944000F50001280CBF43F0100143F02001A18377
:1094500004F1140013F0D8F9002800F0AB8086F373
:109460001188BFF36F8FBDE8F88F03F00702501F1C
:1094700001281ED80020062A2768C4E9000014D15C
:109480003A4603E0E08B0130E0831268002AF9D10C
:1094900023F0070343F002022046A28316F017FDD3
:1094A00090B342F02002A2832EE023F007039AB289
:1094B000F2E7042A33D123F007039AB22046A283AD
:1094C00016F005FD10B142F02002A283A38B03F039
:1094D0000709894540F0DC80A18BCA0640F1228152
:1094E00021F01003A38301F00701D4F81880A38BA7
:1094F000B8F1000FB9DA0022276823F00703C4E9A6
:10950000002243F00103A383A38B03F007098945DD
:1095100040F0BF80002FDFD00025AA4640E08649FA
:1095200040F21B12854816F042FD40F21B118248A2
:1095300016F036FD41B180494FF4AB727F4816F00A
:1095400036FD4FF4AB71F2E7236843B97A4940F234
:1095500057127A4816F02BFD40F25711E7E72369BE
:109560001D6845B974494FF4AD72744816F01FFD7B
:109570004FF4AD71DBE70F4688464FF00609A38B29
:1095800023F0070343F006039BB2A383A268002ADB
:1095900040F08180002F40F08180002D9CD0BA46A1
:1095A00043F0080304F1140B5846A38313F02CF97D
:1095B000002875D1624940F23112604816F0F7FC7C
:1095C00040F231115E48B3E7022908D05A4940F20F
:1095D0005D125A4816F0EBFC40F25D11A7E7E78BED
:1095E00047B155494FF4AF72544816F0E0FC4FF4C0
:1095F000AF719CE723695D6845B94F4940F261123C
:109600004E4816F0D4FC40F2611190E7A38BB846A7
:1096100023F0070343F004039BB24FF00409A38334
:10962000B4E7012908D044494FF4B272434816F018
:10963000BEFC4FF4B2717AE7236843B93E4940F269
:1096400065123E4816F0B3FC40F265116FE72369DE
:109650009D6845B938494FF4B472384816F0A7FCF4
:109660004FF4B47163E70027A38BB84623F00703D8
:1096700043F005039BB24FF00509A38386E72E490B
:1096800040F26B122D4816F092FC40F26B114EE73F
:10969000002700257AE74FF0010A81E792467FE72D
:1096A00086F31188BFF36F8FBAF1000F17D14FBB4C
:1096B00015B120462349A8474FF02003EFF3118648
:1096C00083F31288BFF36F8F584613F08FF808BBEF
:1096D0001B498822194816F06AFC882172E7A168A4
:1096E0000029E4D00E680029E1D043464A462046CE
:1096F000D1F804A0D0471EB1336831461E46F2E7C8
:109700003346FAE7394643464A4620463F6816F054
:109710000AFCCCE7584613F085F8A38B23F0080326
:10972000A383D9E68B067FF593AE21F02003A383B4
:1097300001F0070176E600BF7B62020031620200A1
:109740009D62020049970000F8B504460D4600F1FD
:1097500014064FF02003EFF3118783F31288BFF351
:109760006F8F304613F042F840B90A490A48882200
:1097700016F01DFC8821074816F012FC304613F045
:1097800051F8A5613A462046BDE8F8400121FFF7AF
:109790003DBE00BF9D620200316202002DE9F0472C
:1097A00004460F4616F0AFFB051E5EDB04F11409FC
:1097B0004FF02003EFF3118A83F31288BFF36F8F0A
:1097C000484613F013F8804638B9334988223348A5
:1097D00016F0EDFB882130483CE0484613F022F8B3
:1097E0004FF6FF72E38BA68B934206F007063FD03D
:1097F000022E10D135460133E383484613F004F8B6
:1098000000283BD1244940F23112244816F0CFFB06
:1098100040F23111DFE7062E13D8DFE806F0092CFD
:109820001212090409006FF085054FF00008E4E703
:1098300000233B6063687BB9C4E900777EB135469D
:10984000F3E7174915484FF4E47216F0B0FB4FF4F4
:10985000E471134816F0A4FB1F606760EEE7524600
:1098600002212046FFF7D2FD35462846BDE8F087A5
:109870006FF00A05D9E76FF00405D6E78AF311887F
:10988000BFF36F8FB8F1000FEFD000233246394697
:10989000204616F048FBE8E79D62020031620200B4
:1098A0007B62020008B54268034602F00302022A06
:1098B00081600AD0032A4FF0000103D0012A0AD1A7
:1098C000596006E01868596008BD186800225A609F
:1098D00050B90020F8E706490648452216F067FB14
:1098E0004521034816F05CFB15F0C0FCF1E700BF12
:1098F000CA620200316202002DE9F7430F460646B4
:109900000821C06A16F0FDFB80463C68DFF84890ED
:10991000241A3C6004EA0905AC4203D8002003B0D5
:10992000BDE8F08308236A462146304616F04DFB19
:109930000028F4D16946304616F0EDFB40B1BDF881
:109940000230BDF8042005EA090513441D443C60BB
:10995000A4EB0804E0E700BF0000FFFF2DE9F0479B
:1099600004468EB000F1140738461AF0F2FFA06AE0
:109970008368DB6898470346E06230B9904A0090FC
:10998000CDE9010201228F490FE0A06A8368DB68FC
:1099900098470368013B1F2B0FD98B4B0293002381
:1099A00001221846CDE90033864916F09BFB6FF083
:1099B000150528460EB0BDE8F087A06A21680BAAFD
:1099C00019F062FF08B1814BE8E7A5892DB10C9B26
:1099D000B5FBF3F203FB12550DB17D4BDEE7E389D6
:1099E000012B05D87B4B0095CDE901532B46C9E7E8
:1099F000E36A069593F804904FF0FF334FF0FF327F
:109A0000384612F0ABFF0821E06A16F07AFBA84650
:109A10000646E3891FFA85FA534508D8E38943458A
:109A200023D1384612F028FF6FF02C05C1E7A18939
:109A30002B04891B13FA81F14A460823204606911C
:109A400016F011FB78B1204606A916F0CCFA08F101
:109A5000010808234A46204606991FFA88F816F09E
:109A600002FB0028DAD00135D3E753450BD1069924
:109A700008234A462046891B16F0F5FA18B92046F5
:109A800006A916F0B0FA204606A9FFF735FF0546ED
:109A900018B1384612F0F0FE8BE7069B4FEA1348E8
:109AA0004FEA08486360C4F80880D4E9011399427A
:109AB0000FD30823204607AA16F087FA0546002888
:109AC000E7D107AB13F8012B914543D10135082DA0
:109AD000F8D1636820461B0C1B0406A9069316F0F8
:109AE00082FA4A462046A389069916F0BCFA051E5A
:109AF000CFDB636800F082804FF6FF7906EB030846
:109B0000A3891FFA88F29B1B9A42CDF818803DD397
:109B1000314B0322029300232A491846CDE9003332
:109B200016F0E0FA2046616816F0C2FA05460028F1
:109B3000AFD16368294AA18913400B44A3EB4603C4
:109B4000636013402046A36016F0C9FB0546002D54
:109B500070D09EE7204607A916F0DDFA626810B9BA
:109B6000921B6260A1E7BDF82050BDF81E10E06AAC
:109B7000C4F80880294416F0C4FA40449042A0601A
:109B8000EED1002DECD06FF01C0590E0082341468B
:109B9000204609AA16F019FA054600287FF479AF85
:109BA000204609A916F0B7FA38B1BDF824304B4564
:109BB00003D1BDF82830002B7FD0B044A0E700BF10
:109BC000016302009C530200236302004063020011
:109BD000586302006C630200C96302000000FFFFCB
:109BE0004A4620465B1A16F03EFA051EFFF651AFB4
:109BF00008D0E26AA36812681344A360D4E9013173
:109C00008B42EDD86168A38901EB46029A429ED14E
:109C1000DFF8D480A26801EA08039A4297D0204670
:109C200016F046FA054600287FF433AF636803EA6E
:109C30000803A360A389A288A3EB46039A4232D00B
:109C4000384612F019FE012300252374A389284603
:109C50000493E38903220393244BCDE90055029337
:109C600023492B4616F03EFA636828469AB21B0C2D
:109C70000393204B0492CDE9015303222B461C4948
:109C8000009516F02FFAA36828469AB21B0C03938E
:109C9000194B0492CDE9015303222B461449009538
:109CA00016F020FA85E6204616F002FB05463846F7
:109CB00012F0E2FD002DC6D07BE6104B03222846B1
:109CC000CDE901530A492B46009516F00BFA63685B
:109CD00020461B0C1B0406A9069316F084F92046A7
:109CE000069916F0E5F931E70000FFFF8F630200E7
:109CF0009C530200A6630200B8630200F0630200F6
:109D00002DE9F04F1D46037C0446894690468DB0F0
:109D100073B9674A1846CDE90132664901220093BA
:109D200016F0E0F96FF00C0630460DB0BDE8F08F8C
:109D3000C26A0821104616F0E4F982462946104608
:109D400016F0DFF9A3890746A3EB8A03AB42C0F004
:109D5000AB801DB1B8F1000F00F0A68063680793D7
:109D6000204608AA07A9DDF81CB016F00CFA064632
:109D70000028D9D1BDF820304B4505D06268079B3B
:109D80009A42EDD1E5B9CFE7204608A916F0C3F90C
:109D90000028F3D0BDF82200BDF8243075B1AB42E5
:109DA0000ED14FEA1B41090401442B46424620468E
:109DB00016F026F9002803DC0646B5E7002BB3D0E1
:109DC000002F3ED104F1140305934FF0FF324FF002
:109DD000FF3304F1140012F0C1FDDFF8DCB0E389B9
:109DE0009E425ED0D4E90123F9188A422CD3ADF803
:109DF0002A30FF230AA88DF82E30ADF82890ADF850
:109E00002C5016F027F92B464246A168204616F042
:109E100004FA29468246E06A16F073F9A268024401
:109E2000A260BAF1000F07D120460AA916F02FFA56
:109E3000002814BF8246AA46059812F01DFD56461A
:109E400072E75744BFB2BDE70821E06A16F059F93E
:109E50004FF6FF730021ADF828308DF82E30A3891E
:109E6000ADF82C10111802EA0B021A44101A6060A7
:109E70000AA8ADF82A1016F0EDF80AA9204616F047
:109E800006FA2046211D16F0AEF86368204603EA64
:109E90000B03A36016F023FA82460028CCD10136CA
:109EA0009DE76FF01B0AC7E76FF015063CE700BFA0
:109EB000ED6202009C5302000000FFFF2DE9F04715
:109EC0001E46037C88B004460F469046BDF840907D
:109ED0006BB92F4A1846CDE901322E490122009371
:109EE00016F000F96FF00C0008B0BDE8F08708210B
:109EF000C06A16F006F9A389A3EB4003B34243D32B
:109F00000025D4F804A0CDF814A04D455146DDF845
:109F100014A009D9636853451ED1BDF81830BB425F
:109F20001AD06FF00100DFE7204606AA05A916F057
:109F30002AF90028D8D1BDF81830BB4206D12046F6
:109F400006A916F0E8F808B10135ADB26268059BC4
:109F50009A42DAD15146E0E7BDF81C30002BE0D040
:109F6000A945DED8BDF81A00090CB3424FEA0141F9
:109F700028BF334601444246204616F026F8002802
:109F8000B2D1BDF81C00AFE76FF01500ACE700BF21
:109F9000ED6202009C5302001FB5034660B9114AEE
:109FA0000090CDE901021049012216F070FA6FF01D
:109FB000150005B05DF804FB83685BB90B4A1846D1
:109FC000CDE9013208490122009316F060FA6FF0E2
:109FD0000400EEE71B681BB105B05DF804EB184701
:109FE0001846E6E70C640200A45302001D64020058
:109FF0001FB5034660B9114A0090CDE9010210492E
:10A00000012216F044FA6FF0150005B05DF804FB6C
:10A0100083685BB90B4A1846CDE901320849012231
:10A02000009316F034FA6FF00400EEE75B681BB1A2
:10A0300005B05DF804EB18471846E6E70C6402002B
:10A04000A45302001D64020030B585B008B101B10F
:10A050006AB9134B01220293002312491846CDE935
:10A06000003316F014FA6FF0150005B030BD8468A7
:10A070000CB1E56865B90C4B012202930023094934
:10A080001846CDE9003316F002FA6FF00400ECE751
:10A0900041F8040BE36805B0BDE83040184700BF45
:10A0A0003B640200A45302001D6402001FB5044675
:10A0B00060B9194B0090CDE901030122034617490D
:10A0C00016F0E5F96FF0150004B010BD03685BB938
:10A0D000134A1846CDE9013210490122009316F0C7
:10A0E000D6F96FF00100EFE79A680AB1126962B918
:10A0F0000C4B01220293002308491846CDE9003396
:10A1000016F0C5F96FF00400DEE741681846904785
:10A110000028D9D12060D7E767640200A453020069
:10A12000786402001D64020030B51346044685B011
:10A1300060B9194B0090CDE901030122034617498C
:10A1400016F0A5F96FF0150005B030BD006858B9DC
:10A15000134B0090CDE90103012203460F4916F08D
:10A1600096F96FF00100EFE782680AB1956865B96A
:10A170000C4B01220293002308491846CDE9003315
:10A1800016F085F96FF00400DEE70A46AC46616818
:10A1900005B0BDE83040604767640200A453020088
:10A1A000786402001D640200034A13680BB9526808
:10A1B00013600020704700BF7C81002030B50C4642
:10A1C0000E4985B00291D0F8AC110546CDE90031B9
:10A1D00000F1E0014FF0FF33204611F0B3FB50B91E
:10A1E000012384F86430D5F8A83123B1204605B0A6
:10A1F000BDE83040184705B030BD00BF9F050200E4
:10A2000038B50C461146054616F0CBF9034638B969
:10A210002846044916F0C5F903460020236038BDDE
:10A220000120FBE7C99C02002DE9F04F0123814684
:10A230000569466885B005F55B77D7E8EF2F002AFA
:10A2400003D1C7E8E13F0029F7D10CBF1A4600222D
:10A2500040F0B180B368B16A05F5E4781C1F104680
:10A2600016F024FA84425FD8013A00F09E80B2FAD8
:10A2700082F24FF00044D44072682046073222F048
:10A280000302C5F86022B16A16F010FAC5F864023C
:10A29000B36A40466343033323F0030302EB4302F4
:10A2A000230103EB4403093323F0030303EBC4034B
:10A2B000C5F858221A440832C5F854227368C5F804
:10A2C0005C42C5F850323D4BC5E9A963316800F0E6
:10A2D000DFF9044630BBD9F804A0D9F81090DAE9C8
:10A2E000073409F5307B012B584608BF103C13F0AA
:10A2F000A3F80023DAF8240031494FF4806201EB1F
:10A30000802100935846234613F0ACF809F52C70D1
:10A310002C4912F01FFFDAF8140083685C682CB92E
:10A320006FF05704002139E0013298E74B46264A86
:10A33000DAF81810A04704460028F3D1DAF8140020
:10A3400083681B69002BEBD00122DAF818109847BC
:10A3500004460028E6D11D4B2846C5F8A8311C4B01
:10A36000C5F8AC311B4B0393D5F810320293D5F8E6
:10A370000832CDE90083D5F86832B26AD5F868139F
:10A3800000F04EF904460028CCD105F1E00011F0B0
:10A3900073FC0028C5F870030ADB0221384616F06A
:10A3A00035F9204605B0BDE8F08F6FF00B04B9E732
:10A3B0006FF01504B6E76FF07704F2E7F5050200D9
:10A3C000B89B0020DB050200CF050200D9A30000E6
:10A3D000830702003D06020013B5044640B1002386
:10A3E0000122CDE90032074BD0E9091211F05EFAE3
:10A3F000A36E1B6823B1E06E02B0BDE810401847A1
:10A4000002B010BDC99C020013B50446084621697C
:10A4100001F55B71D1E8AF1F022910D193B1A0B152
:10A420000121CDE900311346D0E9091211F03EFABD
:10A43000074B984208BF6FF00B0002B010BD6FF0E1
:10A440000F00FAE76FF04C00F7E76FF00100F4E758
:10A450002EF8FFFF2DE9F74388461546066906F5F5
:10A460005B73D3E8AF3F022B5FD1136823B96FF062
:10A47000150003B0BDE8F0831B78002BF7D0D6F8A9
:10A480006893B9F1000F33D106F5D8774FF0FF325A
:10A490004FF0FF33384612F061FA30462A6801A9BE
:10A4A000FFF7AEFE019C1CB9384616F0ADF8DEE7AA
:10A4B00005F10803A3666B6984F86490E366E463BE
:10A4C00060B1384616F0A0F821463046236E2A685F
:10A4D000FFF774FE0020C8F80040CAE72022296870
:10A4E00004F140001AF022FC384616F08DF8F1E72E
:10A4F00030460F4916F055F804460028B7D005F14C
:10A50000080383666B69C063C366002380F8643008
:10A510002022296840301AF009FC224601213046E9
:10A5200000F060F80028D5D0A1E76FF00F00A0E799
:10A53000C99C020010B50C46006900F55B73D3E8B6
:10A54000AF3F022B0FD189B10A4900F52C7012F0F0
:10A5500001FF20461AF018F87022002120461AF058
:10A560007EFC002010BD6FF00F00FBE76FF00100D4
:10A57000F8E700BF489400202DE9F04F05460E464D
:10A5800090460027D0F8B0A085B0AAF5AE74214659
:10A590003046FDF749FFE0B9114BA4F1400B02939F
:10A5A000DAF810303246CDE9008329464FF0FF3308
:10A5B0005846AAF5CE7911F0C5F960B97023012289
:10A5C00003FB079383F86420DAF80C300BB158468C
:10A5D0009847703417B105B0BDE8F08F0127D6E772
:10A5E000B10702001FB5144690B18AB1012912D1FA
:10A5F0000A4B00F1E0010293D0F8AC3140320193F4
:10A600004FF0FF332046009311F09CF904B010BDC9
:10A610006FF01500FAE70020F8E700BFB10702006D
:10A620002DE9F04387B00E46DDE90E811446DDE9E1
:10A6300010251F4630B329B3DFF850C000F1E00900
:10A64000002D08BF65469EB9CDE9034400F5CE74E0
:10A65000204605961AF012F903ABCDE900432A46CD
:10A660003B464146484611F02DFB07B0BDE8F0835C
:10A67000002241460E9248462A4607B0BDE8F04304
:10A6800011F04CBC6FF01500EFE700BF79A500009A
:10A69000F0B50E46044689B000286FD0012302466B
:10A6A000C3630023D0F89810364F403040F80C7C3C
:10A6B00042F8301FCDE901334FF0FF330093C36DF3
:10A6C00019F047FC304A06AB92E8030083E8030028
:10A6D000184610F0FDFF0546D8B904F1340010F01B
:10A6E000D9FF0546A8B93946284805AA19F013FC30
:10A6F000054670B9059B9A6872B10C33D4F8940082
:10A70000C4F8A03016F085F8C4F8D40030B96FF062
:10A710000B05284609B0F0BD0346EFE7D4F89400D6
:10A7200016F077F8C4F8D8000028F0D0D4F88C30B0
:10A73000D4F8A010C4F8A8300423C4F8AC30C4F88E
:10A74000C4300223A362124BB4F89420D4F8D4701E
:10A75000C4F8B810C4F8D010D4F89010236204F1F3
:10A76000A403A4F8B020C4F8A470C4F8C010A4F8DE
:10A77000C820C4F8BC00A661E362CAE76FF0150503
:10A78000C7E700BFA2640200D4540200AC64020018
:10A790000C5602002DE9F84FDFF8F0A03C4F81463F
:10A7A000AAEB07039F2B88460AD93A4940F22512A3
:10A7B000394815F0FCFB40F22511364815F0F0FB46
:10A7C000364816F068F8064680BB3C4605464FF012
:10A7D000010B544523D92F494FF499722E4815F097
:10A7E000E6FB4FF49971E8E7237B73B12368DB68DC
:10A7F0000BB12046984723681B6943B9636804225C
:10A800002046196800F0F2F801361034E1E72046DE
:10A8100098470028F2D00BFA06F31D43F4E7E3D380
:10A82000B9F1000F02D04FF0010A0DB9BDE8F88F61
:10A83000A94695FAA5F4B4FA84F40AFA04F32601B9
:10A8400007EB04146FEA030B25EA0305237B5BB1D6
:10A85000BB591B69A3B93E4473680422204619689A
:10A8600009EA0B0900F0C2F8002DE2D1B8F1000F9F
:10A8700004D04FF4A470002113F072FF4D46D4E7CA
:10A88000204698470028EFD1E5E700BF4454020076
:10A8900034540200B4640200316202007894002053
:10A8A000014B53F8200070473856020008B50346A4
:10A8B00008462BB1044A136000F0E6FA002008BDF8
:10A8C0006FF01500FBE700BFA88100200023054AB8
:10A8D0004FF400411370044A04481360044A1360A3
:10A8E000FFF7E4BFC19A0020709400209308020093
:10A8F0007494002070B5114D2978E9B90120FFF753
:10A9000049FF0F4C0F4EB44213D90F490F484FF473
:10A91000CA7215F04CFB4FF4CA710B4815F040FB9E
:10A9200063685B791BB1236820469B6898471034A5
:10A93000E9E7F5D301232B7070BD00BFC19A002059
:10A940003454020044540200B46402003162020034
:10A9500010B50446064815F09EFF3CB1054BD3E800
:10A96000EF1F0139C3E8E21F002AF8D110BD00BF74
:10A97000709400207494002070B5104B05461B683D
:10A9800098470F4C0F4EA860B44214D90E490F4897
:10A9900040F2D11215F00BFB40F2D1110A4815F02C
:10A9A000FFFA63685B7923B12368294620461B6858
:10A9B00098471034E8E7F4D370BD00BFA8810020A9
:10A9C0003454020044540200B464020031620200B4
:10A9D000044A054B9B1AB1EBD30F34BF52F8310038
:10A9E00000207047E4520200345402000E4B10B5B0
:10A9F000C31A1B110133DBB240B90C490C48DF22EA
:10AA000015F0D5FADF21094815F0CAFA4468237118
:10AA100043689A7101224368196043685A71BDE81E
:10AA2000104015F056BF00BF3454020012650200FA
:10AA3000316202002DE9F04F85B002AF0446D7E93C
:10AA40000EA90E46934698463D6BBAF1000F16D0FC
:10AA5000C7F80490CDF800901021534600207A6B7F
:10AA6000FEF774F9011E0BDA1F494FF495721F4867
:10AA700015F09DFA4FF495711B4815F091FA514667
:10AA80001B4A04F007040BF0070BE40044EA8B14A4
:10AA900002EA4122144344EA055417350D4425F0D7
:10AAA0000705ADEB050D02ADBAF1000F12D0CDF8E0
:10AAB000009053467A6B05F11000FEF747F9002825
:10AAC00008DA09494FF4A272084815F070FA4FF4F9
:10AAD000A271D1E7434622463146284615F0FCFED6
:10AAE0000C37BD46BDE8F08F5365020031620200AD
:10AAF00000FE0F000EB403B503AB53F8042B014660
:10AB00000448019301F0ACFE02B05DF804EB03B021
:10AB1000704700BF0B090200CA0605D48B064CBF64
:10AB200002490349FFF7E6BF704700BFC89C020017
:10AB3000C79C02002DE9F04F89B09B46DDE91493D4
:10AB40009DF84C700593169B04460D46179E069281
:10AB50000493002F00F09380042F0AD9984940F203
:10AB6000BF12984815F023FA40F2BF11944815F02F
:10AB700017FA06F00803079315F0ACFE06F0020A78
:10AB8000024600284AD020468F49FFF7B3FF80468F
:10AB9000BAF1000F08D016F0440F41D12A462046E2
:10ABA0008A49FFF7A7FF804406F0010353B1884BA1
:10ABB000204653F82720874B8749002A08BF1A46AA
:10ABC000FFF798FF06F00803002B55D0834B204673
:10ABD00053F827208249FFF78DFF0546069B2BB1CE
:10ABE0001A4620467F49FFF785FF0544BBF1000F59
:10ABF00005D05A4620467C49FFF77CFF0544454472
:10AC0000B9F1000F4CD1049B002B60D1F30700F188
:10AC1000D18031462046FFF77FFFC5E08046B7E789
:10AC2000724B18680028BED0714B4FF47A7E1B68B7
:10AC30004FF46162B5FBF3F5B5FBF0F300FB135580
:10AC40000EFB05F5B3FBF2FAB5FBF0FC3C2102FB71
:10AC50001A3200FB1C55B2FBF1F30EFB05F5B5FBF8
:10AC6000F0F501FB132220460092CDE901C55246C2
:10AC70006049FFF73FFF96E706F00805AEE7BBF136
:10AC8000010F08D1B9F1000F1BD1049B002B00F07C
:10AC90008B8000251BE0B9F1000FF6D0564811E07B
:10ACA00056484B462246564914F085FE00280BDADA
:10ACB000434940F21922434815F079F940F219212D
:10ACC00054E74E483D46ECE7049B002B69D0DFF883
:10ACD0003491DFF834A1DDF810803146B8F1100F5F
:10ACE000204628BF4FF010084FF0000BFFF714FF6D
:10ACF0005D4542DC059B514620461A78FFF7FAFE77
:10AD00004FF0010B1BF0070F03D149462046FFF718
:10AD1000F1FED84538D9059B5146204613F80B2043
:10AD2000FFF7E8FE0BF1010BBBF1100FEAD14FF07A
:10AD3000000B20463549FFF7DDFE5A46059B2046AD
:10AD40009A5CA2F120015F2928BF2E223049FFF72B
:10AD5000D1FE0BF1010BBBF1100F1AD01BF0070F46
:10AD600003D149462046FFF7C5FED8455A46E5D8E7
:10AD700049462046FFF7BEFEEBE749462046FFF76F
:10AD8000B9FE0BF1010BB3E720462249FFF7B2FEF3
:10AD9000C8E7059B43440593049BB3EB0803049366
:10ADA00099D1002F7FF432AF204609B0BDE8F04FB3
:10ADB00015F0D4BD2046074A0749FFF79BFE28E758
:10ADC0008465020031620200B3650200B7650200CB
:10ADD000485602007F6502000E7502005C560200B4
:10ADE000DC650200E2650200E66502008094002056
:10ADF0007C940020C0650200270902000B090200B4
:10AE000061C80000939C0200EB650200F16502003E
:10AE1000F3650200919C02002DE9F0410F884B6818
:10AE200005460C4690468E6886B0C7F382175BB124
:10AE3000144A9B1A43F3CF01002920DB2078C0F38A
:10AE4000C200FFF7C5FD0346214651F8102B60886C
:10AE5000C2F34A22002A01EB020408BF00210022AB
:10AE6000C0F30B10CDE90408CDE9021428463146A1
:10AE700001970092FFF75EFE06B0BDE8F081002367
:10AE8000E2E700BFE452020000210123064A90429B
:10AE900006D8064A01B901231360054B18607047B4
:10AEA000012140085B00F2E740420F007C94002043
:10AEB00080940020F8B50D460446064F4618B4426B
:10AEC00001D12846F8BD14F8011BBB6801485B6836
:10AED0009847F4E7B04F020010B543681C68084873
:10AEE00019F0E5FC40B9074907489A2215F05FF8C8
:10AEF0009A21044815F054F823685B685C6010BD23
:10AF0000B04F02001666020031620200014B03607E
:10AF100000207047A456020070B5114B0D461C6806
:10AF2000DCB1104B196800238B4202DB6FF001008B
:10AF300070BD224612F8106B864202D014460133CF
:10AF4000F2E7E06810B96FF01200F1E719F0AFFC1A
:10AF50000028F8D000202C60EAE76FF00C00E7E74B
:10AF6000F08100201C57020070B588B005460C46E1
:10AF7000C0B269461646FFF7CFFF00281BDB0098DA
:10AF8000C8B143682268029383680195CDE903360E
:10AF90000023CDE906230593C56815F009FD6DB1C1
:10AFA0002846084901AA18F073FC079808B9059BC0
:10AFB000236008B070BD6FF01500FAE76FF0120063
:10AFC000F7E700BFB30902002DE9F0410F4B05463A
:10AFD0001C680E461746ACB14FF0FF324FF0FF33FE
:10AFE0000B4811F0BBFC63683246D3F80880294651
:10AFF0003B462046C0470446054811F03DFC20462C
:10B00000BDE8F0816FF00104F9E700BFB0940020C3
:10B010005086002000230360044B5A6812B9C3E92C
:10B020000000704710605860704700BFB494002063
:10B03000014B1860704700BFB0940020002330B56A
:10B0400085B00546CDE9023301904FF0FF334FF054
:10B05000FF320B4811F082FC0A4B1C684CB92846A1
:10B0600000F0F6F80446064811F006FC204605B04C
:10B0700030BD636820461B6801A998472468EDE746
:10B0800050860020B49400201FB5CDE90101039241
:10B090004FF0FF334FF0FF32094811F05FFC094BCE
:10B0A0001C682CB9064811F0E7FB204604B010BD1F
:10B0B000636820461B6801A998472468F1E700BF30
:10B0C00050860020B49400200022024BC3E90022E5
:10B0D000704700BFB49400207FB50BAB059303937A
:10B0E000054B0122029300231846CDE90033FFF7F8
:10B0F000A1FC07B05DF804FB6E6602000022024B63
:10B10000C3E90022FFF7E0BFBC9400202DE9F7431C
:10B1100007460C4609B100230B600026234DDFF8DB
:10B1200090904D4520D923492348942214F03FFFA5
:10B130009421204814F034FFD5F800803846414669
:10B1400001AA15F05FFC50B116B954B92E4606E0BD
:10B1500000224046316815F055FC0028F5D1143521
:10B16000DFE7019B2360F1E7E6D3144B1D68C5B10F
:10B1700055F8148C3846414601AA143D15F042FC9E
:10B1800050B116B954B92E4606E000224046316847
:10B1900015F038FC0028F5D16D69E8E7019B2360C4
:10B1A000F1E7304603B0BDE8F08300BF445402002D
:10B1B000BC5402009366020031620200BC9400207D
:10B1C0002DE9F04188B0DDF8388004460D4616467A
:10B1D0001F460790B8F1000F07D0D8F80010F1B95A
:10B1E000D8F804E0BEF1000F22D1204607A9FFF7EE
:10B1F0008DFFC8B1D0F808803B46324629460798F3
:10B20000C04788B1104BCDE90340029300230122CF
:10B210001846CDE900330D49FFF75EFF04E007AAA9
:10B2200015F0F0FB0028DBD1002008B0BDE8F0816C
:10B23000D8F8083032460E9329463B46F446079824
:10B2400008B0BDE8F04160476E6602001454020089
:10B25000F8B5064600251C4C1C4FBC421BD91C49A6
:10B260001C48F42214F0A3FEF421194814F098FEAF
:10B270002EB9E3685BB9284605461434EDE7002291
:10B280003146206815F0BEFB0028F2D1F3E798475D
:10B29000002DF0D1F0E7EBD30F4B1C6894B1143CB8
:10B2A0001EB9E3684BB96469F8E7002231462068AB
:10B2B00015F0A8FB0028F4D1F5E79847002D08BF4A
:10B2C0000546F0E72846F8BD44540200BC5402008D
:10B2D0009366020031620200BC94002038B50C4D28
:10B2E0004FF0FF334FF0FF320A4811F037FB2B7855
:10B2F0003BB9FFF703FF00F06DF8044610B90123D6
:10B300002B700024034811F0B7FA204638BD00BF67
:10B31000C39A0020508600202DE9F0470646894652
:10B32000048FDFF8ACA0013498B0A4B200F1080794
:10B33000651EADB2B5F5004F47D04A23294605AA90
:10B34000384615F09DF804F57F543F34A4B280468A
:10B350002146012338460DF10B0215F091F8B8F1A2
:10B36000000F014610DC002810DC338FAB4209D1FE
:10B3700032466B1E22F8383F4FF400410223384614
:10B38000FEF7BEFC2C46D3E7002808DC29463846E9
:10B3900015F072F82146384615F06EF8E5E708F129
:10B3A00060030DEB03080023524608F84C3C05A847
:10B3B000CDF8009003AB0397ADF81040FFF700FF06
:10B3C0000028DFD018B0BDE8F0870020FAE700BF02
:10B3D000750A02007FB50123694605200193FFF736
:10B3E0009BFD044660BB052002AA01A9FFF7BCFD36
:10B3F000044610B110F10C0F22D10399B1F5803F32
:10B4000023D200231846009A9468084484421AD331
:10B410000133082BF9D10E4DA982EB8253682846DF
:10B42000AB60D368EB6315F0BDFB044640B9094E31
:10B4300028466E60FFF7EEFD28466E60FFF7F8FDC8
:10B44000204604B070BD9BB2E5E76FF02004F7E73B
:10B45000C4940020B48100204B1E59425941014B35
:10B4600019707047C59A002008B5012BBDF8081067
:10B470000CD171B90A4B1B680BB9012008BD1078BB
:10B48000012809D800F001009847F6E76FF00C009A
:10B49000F4E76FF00600F1E76FF01200EEE700BF8F
:10B4A000049500202DE9FF411F460D4B05465868C5
:10B4B0000C46164680B1D1F80C808047094B3246C5
:10B4C00018700123CDE90183BDF82830214600938F
:10B4D00028463B4617F0E3FB04B0BDE8F08100BF0F
:10B4E00004950020C49A002020B1034B02681A6022
:10B4F00042685A60002070470495002000B50E4B4A
:10B5000089B01B788DF807009BB10021182202A892
:10B5100019F0A5FC094B002003930DF107030493D8
:10B52000012302A9ADF8143008F0A6F909B05DF8BE
:10B5300004FB6FF00C00F9E7C59A0020CC5602001E
:10B540000449431E0F3013F8012F8A5C83421A709E
:10B55000F9D17047CC660200F0B50746264E8DB093
:10B5600001AD0C460FCE0FC50FCE0FC596E80700F4
:10B5700085E807003846002F39D0002C39D0381F15
:10B580000246214610344B780D781B0443EA0563CC
:10B59000CD7804312B4311F8025C8C4243EA052339
:10B5A00042F8043FEFD10421144C8A07036916D1F5
:10B5B000C3F30742A55C1A0EA25C42EA0562C3F31C
:10B5C0000725655DDBB2E35C42EA054242EA0322FD
:10B5D00021F0030330336B4453F82C3C534050F8B4
:10B5E000042F013153402C290361DED101200DB01D
:10B5F000F0BD2046FBE700BFDC540200CC66020031
:10B600002DE9F04F002703689DB002934368DFF8EF
:10B61000BCA103938368DDE902460493C3680593E4
:10B620000369DDE904BE0693436907938369DDE995
:10B63000062C0893C36998460993089B0093CD593B
:10B640000CAB2DBA5AF8049BDD514FEAF223A94402
:10B6500083EAB213009D83EA72634B4425EA020534
:10B6600002EA0C0985EA09052B44434486EA0B05E6
:10B670004FEA743888EAB408254006EA0B0985EADF
:10B68000090588EAB4580437A844402F03EB0E0597
:10B690004344DE46DDF8008040F088804FF0100A19
:10B6A0004B490A9151460AF1010A0DF1700E0AF058
:10B6B0000F070EEB870757F8407C01F00F094FEAA0
:10B6C000B748019788EAF71801F10E0707F00F074E
:10B6D0000EEB870757F8407C09314FEAF74E8EEAA8
:10B6E000774ECDF82CE001F00F010DF1700E0EEB4E
:10B6F00081010EEB890959F840EC51F8401CBAF170
:10B70000400F7144DDF804E088EADE08DDF82CE043
:10B7100041448EEA972E714405EA02084FEAF52E5D
:10B720002CEA050787EA08078EEAB51EDDF82880AF
:10B730008EEA756E774458F804EF49F8401C774458
:10B740000F4400994FEA733E394484EA0607CDF866
:10B7500028808EEAB30E07EA030704EA06088EEA99
:10B76000B35E87EA080777440F4401EB0B0ECDF870
:10B7700000C0B34622D102993944016003991944AB
:10B78000049B416023448360059B3344C360069B54
:10B7900073440361079B2B444361089B13448361FB
:10B7A000099B6344C3611DB0BDE8F08FB346CDF87B
:10B7B00000C0264694461C462A4640E79446264644
:10B7C0002A461C4675463B466CE700BF9057020070
:10B7D000CC57020010B50446C8B17022002115F004
:10B7E0000FFA0B4B0B4A0C49C4E900230B4B0C48D6
:10B7F000C4E902130B4BC4E9040301200A4BA36103
:10B8000003F17453A3F52303A3F69243E36110BD40
:10B8100085AE67BB67E6096A72F36E3C3AF54FA5E1
:10B820007F520E518C68059BABD9831F70B50646BD
:10B830000D4686B0002938D000248B68012205937C
:10B840004B68204604930B681B4903931B4BCDE9BF
:10B8500000440293234615F01AFE6B6901220593FA
:10B860002B6920460493EB6813490393144B00940F
:10B87000CDE90143234615F00AFEEB69012203934B
:10B88000104B2046CDE901430B492346009415F0A7
:10B89000FEFDAB69012203930B4B2046CDE901432A
:10B8A00005492346009415F0F2FD2946304606B0BE
:10B8B000BDE8704010F062BBFC530200CC67020090
:10B8C000FB6702002A6802003968020030BFFFF7F8
:10B8D000FDBF00BF114B124A2DE9F041D518013DC3
:10B8E000B5FBF3F5DFF83C805D430F4B074608EBF3
:10B8F0000304013CB4FBF3F403FB04540E1B304679
:10B900000A4919F085FA701942460021083E19F0DB
:10B91000A6FA7E6704F10800BDE8F081010000008E
:10B92000000000000800000004000000BC540200F9
:10B93000044B99685869884203D003494FF08052FC
:10B940000A607047509A002004ED00E0F0B5002432
:10B95000494B85B00293074623460E4601222046F6
:10B96000CDE90044454915F0ADFD454B9B6ADD0628
:10B9700070D5444B2046CDE90143012223463F497F
:10B98000009415F09FFD11203D4B9B6A1C070AD5C2
:10B990003D4B01220293002338491846CDE900337C
:10B9A00015F090FD1220364DAB6A99071FD5002483
:10B9B000364B0122029320462346CDE900442F490D
:10B9C00015F080FD6B6BAA6A12060FD50393304BFE
:10B9D0000122CDE90143204623462849009415F071
:10B9E00071FD1FB1AB6A23F08003AB621320244BBF
:10B9F0009B6ADB070AD5274B0122029300231F49CC
:10BA00001846CDE9003315F05DFD14201C4B9B6AF0
:10BA10009F060AD5204B012202930023174918469E
:10BA2000CDE9003315F04EFD1520154B9A6AD50669
:10BA300002D49A6A94070FD59B6AD9060CD5174988
:10BA4000174840F2631214F0B2FA40F2631113483F
:10BA500014F0A6FA102097E7094B9A6A920642BFA3
:10BA60005A6A22F400525A629A6A42F0FF029A62BB
:10BA70000023337005B0F0BD67680200FC5302007C
:10BA800000ED00E07D680200B0680200C3680200BB
:10BA9000DB680200F1680200106902003F690200E1
:10BAA00031620200F0B50024434B85B00293074693
:10BAB00023460E4601222046CDE900443F4915F0B9
:10BAC00001FD3F4B9B6ADB0465D53E4B2046CDE92B
:10BAD0000143012223463949009415F0F3FC172055
:10BAE000374B9B6A1D050AD5374B01220293002371
:10BAF00032491846CDE9003315F0E4FC1820304DEA
:10BB0000AB6A9C051FD50024304B012220460293CE
:10BB1000CDE900442346294915F0D4FCAB6BAA6A51
:10BB200010040FD503932A4B0122CDE9014320468F
:10BB300023462249009415F0C5FC1FB1AB6A23F4DB
:10BB40000043AB6219201E4B9B6A59050AD5214B55
:10BB500001220293002319491846CDE9003315F05C
:10BB6000B1FC1A20164A936A13F4807315D01A4B4D
:10BB700001220293002311491846CDE9003315F044
:10BB8000A1FC1B200E4A936A43F47F439362002377
:10BB9000337005B0F0BD1620A2E7926A9204F1D589
:10BBA0000E4A1846CDE9013204490122009315F0EE
:10BBB00089FC1C20E6E700BF71690200FC5302000B
:10BBC00000ED00E087690200B06802009869020099
:10BBD000B1690200C6690200E16902001069020051
:10BBE0001FB500243E4B3F490293012223462046C5
:10BBF000CDE9004415F066FC3B4B9B6A99016DD57D
:10BC00003A4B2046CDE901430122234635490094B1
:10BC100015F058FC1E20344B9B6ADA010AD5344BD0
:10BC20000122029300232F491846CDE9003315F075
:10BC300049FC1F202C4B9B6ADB020AD52D4B0122AD
:10BC40000293002327491846CDE9003315F03AFC4A
:10BC50000220254B9B6A1C030AD5274B0122029325
:10BC6000002320491846CDE9003315F02BFC212094
:10BC70001D4B9B6A59030AD5204B012202930023D6
:10BC800018491846CDE9003315F01CFC2220164B4C
:10BC90009B6A9A030AD51A4B012202930023114989
:10BCA0001846CDE9003315F00DFC23200E4B9B6A9E
:10BCB000DB030AD5134B01220293002309491846DE
:10BCC000CDE9003315F0FEFB2420074A936A6FEAA2
:10BCD00003436FEA1343936204B010BD1D209AE73B
:10BCE000F9690200FC53020000ED00E0116A020055
:10BCF000246A02003E6A0200686A0200866A020044
:10BD0000AB6A0200C56A02002DE9F047884B054680
:10BD1000D3F804A088461646002390B0CAF308075B
:10BD200083F31188BFF36F8F02F07F43B3F17F4F2E
:10BD30000AD080494FF48B627F4814F038F94FF4F1
:10BD40008B617C4814F02CF912F00104F1D15006FB
:10BD500004D411070ED44FF001090EE0774B0122F5
:10BD6000CDE90143204623467549009415F0AAFB0E
:10BD7000720700D545464FF00009002DD9D04FF08D
:10BD80000008FB1E8DF81F80092B00F2B780DFE84A
:10BD900003F005ABAF96B5B5B5B5B5B3694B0122A8
:10BDA000CDE90183002366491846614FCDF8008034
:10BDB00015F088FB8DF81F80FE6A16F0020605D08C
:10BDC000614BCDE90183CDF8008006E0FB6A002BD2
:10BDD0000ADA5E4B0096CDE9016300230122184682
:10BDE000574915F06FFB3BE0FB6A5B0073D5584B7E
:10BDF0000122CDE90163304633465149009615F0E2
:10BE000061FB7B69AA6943F480737B61BFF34F8F49
:10BE1000BFF36F8F7B6932F8022C23F480737B6150
:10BE2000BFF34F8FBFF36F8F4DF602739A420AD064
:10BE3000BB6ADBB2002B34D001200DF11F01FFF7EC
:10BE400085FD04460CE02B6801220393414B3046EC
:10BE5000CDE901633A493346009615F033FB2C686F
:10BE60009DF81F30D3B908AA05F1200613462868AB
:10BE70006968083503C3B5421A46F7D10F9BB9F17B
:10BE8000000F4FD0C3F3080222B96FEA53236FEAC1
:10BE900043230F93204608A9FFF7C8FC10B0BDE864
:10BEA000F087BB6A13F47F4F05D001200DF11F010D
:10BEB000FFF7F8FDC5E7BB6AB3F5803F02D3FFF794
:10BEC0008FFEBEE71B4940F22A321B4814F06FF880
:10BED00040F22A3135E7174940F22E32164814F065
:10BEE00066F840F22E312CE700200DF11F01A6E785
:10BEF00000200DF11F01DBE7174B62E7174A1AF428
:10BF0000F87F174B18BF1346103FCDE90337154B89
:10BF10000122029300230A491846CDE9003315F0A7
:10BF2000D1FA9DE723F4FF7323F00103B1E700BFCB
:10BF300000ED00E03F690200316202001E6B02006A
:10BF4000FC530200416B0200586B0200796B020047
:10BF5000876B0200A66B0200C26B0200056B020039
:10BF6000F06A0200E66B0200044B5A6942F01002CC
:10BF70005A615A6942F480625A61704700ED00E0EC
:10BF8000EFF30880EFF3098101B57246FFF7BCFEBD
:10BF900001BD00BF002080F31488BFF36F8F002025
:10BFA00080F30A8880F30B8800F03AFE00200E49E7
:10BFB0000860BFF34F8F0D4880F3088800F03EF80B
:10BFC000202080F311880A484FF40061401880F364
:10BFD0000988EFF314800221084380F31488BFF32B
:10BFE0006F8F00F01DF9000094ED00E038C30020D1
:10BFF000F8B10020BFF34F8F0549064BCA6802F421
:10C00000E0621343CB60BFF34F8F00BFFDE700BF7B
:10C0100000ED00E00400FA05002318460649D1F8B7
:10C020009020C2F30722934200DB7047C1F898309A
:10C03000C1F8A0000133F6E700ED00E010B572B6DC
:10C04000002484F31388FFF7E7FF23464FF0FF3007
:10C050000C4A03F120010133102B42F82100F8D1E2
:10C0600000234FF0FF30074A03F160010133102B2A
:10C0700042F82100F8D162B6BFF34F8FBFF36F8F44
:10C0800010BD00BF00E100E0084B9B6883420BD16C
:10C09000EFF3058343B1064B5A6842F080525A6071
:10C0A0005A6A22F400425A6212F08CBB509A002065
:10C0B00000ED00E06FF00A01084A9368D96708496B
:10C0C00098674B6843F080534B60002383F31188DB
:10C0D000BFF36F8F9368D86F704700BF509A0020EE
:10C0E00000ED00E018498A6882F881E04FF03000E6
:10C0F0001044EFF3098C80E8F01F202080F31288B1
:10C10000BFF36F8F114F4FF000664A698A603E603F
:10C110004FF07404141920680D4C206092F981E0EE
:10C12000906F0023936780F3118802F1300090E84C
:10C13000F01F8CF3098802F1000004B515F0D8F95E
:10C14000BDE8044070470000509A002004ED00E074
:10C150000C9500201EF0040F0CBFEFF30880EFF3E6
:10C160000980816911F8021C0229FFD001B515F080
:10C170009EF901BD40B2002807DB01234109034AB3
:10C1800000F01F00834042F82130704700E100E0DA
:10C1900040B200280CDB01220649430900F01F00D1
:10C1A0008240203341F82320BFF34F8FBFF36F8FBE
:10C1B000704700BF00E100E0054B420953F8222020
:10C1C000012300F01F0003FA00F01040704700BF89
:10C1D00000E100E00131072908B508D90D490E48F2
:10C1E000582213F0E4FE58210A4813F0D9FE40B259
:10C1F0000028ACBF00F16040084B4FEA4111C9B2C2
:10C20000ABBF00F5614000F00F0080F80013195437
:10C2100008BD00BFF96B02003162020014ED00E0BE
:10C220000B4A08B50B4B22F07F029A60BFF34F8F89
:10C23000BFF36F8FD3F8882022F47002C3F88820F0
:10C240000FF050FF12F072FB00F07CF80FF094FF3B
:10C250000080000000ED00E042F8203C009B0D490A
:10C2600042F81C3C019B21F0010142F8183C029B62
:10C2700042F8081C42F8143C4FF0807342F8043C2A
:10C28000002383674FF43C43203A0265C0F88030B6
:10C29000704700BF519100000A4B446F98600A4BF1
:10C2A0001C60436E83F30B88104681F309880021DC
:10C2B00063B681F31188BFF36F8F00220023FCF770
:10C2C00047FF00BF509A00200C9500200149102222
:10C2D0000A60704710ED00E072B6404080F31188AC
:10C2E000BFF36F8F01B500F025FB00280AD0BFF324
:10C2F0004F8F30BF00BF00BF00BF00BF00BF00BFF7
:10C3000000BF00BFBDE8014062B6BFF36F8F70474A
:10C3100072B6494081F3118801B500F00BFB00288B
:10C320000AD0BFF34F8F20BF00BF00BF00BF00BFC8
:10C3300000BF00BF00BF00BFBDE8014080F311880F
:10C3400062B67047002320210348C2180133452BF1
:10C3500082F80013F9D1704700E100E001B5EFF376
:10C360000580A0F110004FEAC0000449014409C94A
:10C370009847BDE8014002490847000064500200A8
:10C3800031B900001FB5094C094A2346012109486B
:10C3900000F018F900230393074B0121E41A01A8C8
:10C3A0000193029400F028F904B010BD00000720AA
:10C3B00000800020905802005088002010B50C7AB0
:10C3C0000B6804F01F0223F01F031A43CB686409B3
:10C3D00023F01F03054943EA440343F00103C1F876
:10C3E0009800C1F89C20C1F8A03010BD00ED00E01D
:10C3F00007281FB504460FD9094B03900293002369
:10C4000001221846CDE90033064915F07EF86FF099
:10C410001504204604B010BDFFF7D0FFF9E700BFB8
:10C42000346C0200DC5302002DE9F04F89461446BB
:10C4300006464FF00008544D89B0C8452DDAD6F8AD
:10C4400004A0BAF1000F4AD0BAF11F0F17D91AF0A1
:10C450001F0F14D1D6F800B01BF01F0F0FD1584694
:10C4600015F04AF807460AEB0B00013815F044F8BE
:10C47000874216D06FF01507444B039702E0444BF8
:10C48000CDF80C800293002301221846CDE9003339
:10C49000404915F03AF86FF01504204609B0BDE8A0
:10C4A000F08F17F1160FE7D0BC42E5DDC5F89870A4
:10C4B000D5F89C10C5F89870D5F8A03021F01F0170
:10C4C00043F01F0BD6E900321A44994202F1FF3AB9
:10C4D0001DD1D34507D13146F8B215F026F808F141
:10C4E00001080C36A9E73146C5F89870D5F89C309C
:10C4F00022F01F0203F01F031343C5F89C30E0B283
:10C5000015F013F810F1160FC5D0441CE7E7C5F875
:10C510009870D5F8A020013B23F01F0302F01F0202
:10C520001343D3453146E0B2C5F8A030E8D014F04B
:10C53000FCFF10F1160FAED0C5F89870D5F89C200E
:10C540009DF818300BF1FF3B62F304038DF81830AF
:10C55000D5F8A0309DF818205B0863F347128DF8DA
:10C560001820D6E900321344049323F01F035B44E0
:10C57000A3EB0A03013023F01F0304A9C0B2079301
:10C58000FFF736FFBEE700BF00ED00E07D6C020064
:10C590005A6C0200DC5302000522044BC3F89420BD
:10C5A000BFF34F8FBFF36F8F704700BF00ED00E008
:10C5B000BFF35F8F0022024BC3F89420704700BF87
:10C5C00000ED00E010B5094C2278FFF72DFF207038
:10C5D00016300AD10649074840F26D1213F0E7FC05
:10C5E00040F26D11024813F0DBFC10BDC69A00202A
:10C5F000A06C0200316202002DE9F74F2E4D8A46F1
:10C6000006464FF00008AB462C4FD04502DB03B086
:10C61000BDE8F08FD6F80490B9F1000F47D031682B
:10C620000846019114F068FF0199044609EB0100E6
:10C63000013814F061FF84424FF01402204B10D0F7
:10C6400002FB08F36FF015024BF803201D491E484A
:10C6500040F27D1213F0ABFC40F27D11194813F04B
:10C660009FFC14F1160F2C60F0D01978A142EDDD7B
:10C6700002FB08B0C7F89840C7F89840D7F89C402C
:10C6800000F10801007B64F304000871D7F8A000F2
:10C690000C79400860F347140C71D7F89C1021F016
:10C6A0001F016960D7F8A01021F01F01296108F16E
:10C6B000010814350C36A8E71095002000ED00E0C5
:10C6C000C69A0020A06C020031620200F0B5514D04
:10C6D0008BB02C68082C0AD94F494FF4D2724F48BE
:10C6E00013F065FC4FF4D2714B4813F059FC002055
:10C6F000FFF75EFF4A4B4B4AC3F8C02084421BD170
:10C70000494D05A82C70FEF701FC00240646474F52
:10C71000A64218D1FFF740FF414BD3F89030C3F346
:10C720000723082B73D03C4940F213223B4813F0F7
:10C730003EFC40F21321D7E7696801EB0011FFF7D7
:10C740003DFE0130DAE7059A210102EB0413D3F82C
:10C750000CC00CEA0700B0F5001F1FD0B0F5800F29
:10C7600035D0B0F5801F3FD1586852589B68CDE94D
:10C7700006022122013B20F01F010B4423F01F037E
:10C780008DF820200993287806A9FFF731FE0028AC
:10C7900034DB2B78013401332B70B9E758685258D9
:10C7A0009B68CDE906024122013B20F01F010B44AA
:10C7B00023F01F031CF0010F8DF820200993E2D015
:10C7C00015497022154813F0F2FB70218CE7586868
:10C7D0009B685258013B20F01F010B44CDE9060233
:10C7E00023F01F030222CBE7114B01220293002307
:10C7F00010491846CDE9003314F087FE06494FF47E
:10C80000E772064813F0D3FB4FF4E7716CE70020A2
:10C810000BB0F0BD9C580200A06C02003162020017
:10C8200000ED00E0AAFF4400C69A00200000F0FFDF
:10C83000CF6C0200DC53020008B5024B1B6898471E
:10C84000002008BD24950020034B044A186093780B
:10C8500043F002039370704724950020F481002078
:10C86000F0B587B007460E461446002110226846F0
:10C870001D4618F0F4FA02238DF80230054B2A46C3
:10C8800021466846CDE90476019312F039FE07B0DF
:10C89000F0BD00BF5D15020008B5044813F037F97C
:10C8A000404080F311884FF0020002DF006D02006B
:10C8B00008B50649064821F00701C1F1005202F50A
:10C8C000E022FCF71DFD002008BD00BF0BE90020A1
:10C8D0002895002007B50DF1070017F0E7F9114B77
:10C8E00098421CD14FF480620F4B1049C3F8B82511
:10C8F0004FF40062C3F83C259DF807000CF070FF70
:10C900000B499DF807000CF057FF01209DF80730F8
:10C9100098400CF045FF002003B05DF804FB6FF079
:10C920000B00F9E70000AD0B00A002402CA0024074
:10C9300028A10240052370B5144D154E2C78013402
:10C94000B4FBF3F303EB8303E41A17F01CF9114A69
:10C95000137823B156F82430C01A072813D90E4B88
:10C96000D3F8141141B10021C3F81411D3F81431D4
:10C970002C700CB9012313702C7817F004F946F8C9
:10C980002400012070BD0020FCE700BFC89A0020F1
:10C9900034950020C79A00200050004048B1054B54
:10C9A000054A1B68B3FBF2F35843044B43F0010301
:10C9B000184770479C83002040420F00C05502007A
:10C9C0007FB50BAB05930393054B01220293002324
:10C9D0001846CDE90033FEF72DF807B05DF804FBEB
:10C9E000226D020070B586B005A80DF023F9304B1A
:10C9F000984259D10BF0C6FF041E0FDA9DF81400BF
:10CA00000DF01EF92B4B0122029300232A491846F0
:10CA1000CDE900330394FFF7D3FF42E040F607036C
:10CA2000264D8DF81540AE68ADF816307468059B3C
:10CA300014B96FF05704E5E708212846204AA047BB
:10CA4000041EDFDB3369002BF3D0012208212846C6
:10CA50009847041ED6DB01209DF8143098400CF056
:10CA60009FFE9DF817609DF814500F2E9DF815003D
:10CA70000AD91449144840F2F31213F098FA40F21C
:10CA8000F311104813F08CFA0BF0A8FD014628466C
:10CA90000CF0A6FE0D4BB60045F000459D51002C54
:10CAA000B0D1204606B070BD6FF01204AAE700BFF7
:10CAB0000000AD0B226D020024540200C44F02009E
:10CAC00051CB00004A6D02003162020080A1024099
:10CAD00070B5049EC6F30744F5B2C6F30726304688
:10CAE0000BF066FD0F2C01460AD91449144840F298
:10CAF000ED1213F05CFA40F2ED11104813F050FA09
:10CB000028460CF081FE002201200E4BA400E4B266
:10CB10001A51A8400CF04AFE30460BF051FF28464F
:10CB20000DF08EF8084B984207D00849044875224A
:10CB300013F03DFA75210548E0E770BD4A6D02002B
:10CB40003162020080A002400000AD0B7C6D02004B
:10CB50002DE9F743144683681B6943B92A492B48DA
:10CB6000CB2213F024FACB21274813F019FA002224
:10CB7000984706460028F1D1C4F3072840460BF039
:10CB800045FDB4F1805F07465FFA84F94FEA14650A
:10CB900009D31F4940F2F3121C4813F008FA40F27F
:10CBA000F3111B48E1E740460BF018FD01464846EB
:10CBB0000CF03EFE174BAD005E5140460BF0F8FC0A
:10CBC000C4F307450F2D014608D9114940F2ED1273
:10CBD0000E4813F0ECF940F2ED11E2E70E4BAD0018
:10CBE00049F00042EDB25A5148460CF0E5FD0B4BBE
:10CBF00007F13202009340463346019452000BF095
:10CC0000D1FD03B0BDE8F0837C6D0200316202000B
:10CC10004A6D020080A1024080A00240D1CA0000FB
:10CC200017F035B807B501AA17F018F840B10A494E
:10CC300016220A4813F0BBF91621074813F0B0F981
:10CC4000019B33B104491722044813F0B0F91721AE
:10CC5000F3E703B05DF804FBBC6D02003162020033
:10CC6000F8B5144BD3F83021D3F83431072A1CD14E
:10CC7000023B032B02D8104AD35CB3B10126002437
:10CC80004FF050270D4D0520C7F81866C5F814461B
:10CC900016F0FFFF3046C5F8146616F0FAFFC5F827
:10CCA0001446C7F818460020F8BD0022034BC3F80D
:10CCB0001426F8E700F00720F66D0200005000404F
:10CCC0000E4B402928BF402170B51D460C4C46181C
:10CCD000B04203F1020304D1002305F811300748E4
:10CCE00070BD02781209A25C03F8022C10F8012B27
:10CCF00002F00F02A25C03F8012CE9E7E79A00209A
:10CD0000726E020030B503788BB0044607AD032B7A
:10CD100021D8DFE803F0021A1C1E12492846FBF74F
:10CD20008DFB059563781E210493A3780E4A039327
:10CD3000E3780E4802932379019363790093A379F2
:10CD400012F04CFB09480BB030BD0949E6E7094930
:10CD5000E4E70949E2E70A212846084A12F03EFBC7
:10CD6000DFE700BF2D6E02004F6E0200C99A00205F
:10CD7000346E02003B6E0200456E020071890200B3
:10CD80002DE9F041044617469846264E86B0D6E86F
:10CD9000AF3FD90725D558B9234B0122CDE901036F
:10CDA00022490346009014F046FC6FF0010019E0A0
:10CDB00005A913F04BFE1E490246204617F0A4FFBA
:10CDC00003460028F1D1D6E8AF2FC2F3C004120702
:10CDD0000BD5184A1549CDE901020090022214F042
:10CDE0002AFC002006B0BDE8F081A6F1D405072298
:10CDF00029464046B84706280FD80F4B0122CDE9F7
:10CE00000143204623460949009414F014FC46F8D7
:10CE1000D44CEC71C5F80340E3E70723B0FBF3F013
:10CE2000E871DEE7D48000208A6E020064530200BD
:10CE3000426E0200AB6E0200CF6E02002DE9F0419F
:10CE400088B0DDF838809C795D791E79DF7893F8B9
:10CE500002C093F801E01B78B8F1000F0ED0CDE9C5
:10CE60000638CDE904CE1346CDE90267CDE9004589
:10CE7000084A12F0B3FA08B0BDE8F081CDE905E345
:10CE8000CDE9037C1346CDE90156034A009412F024
:10CE9000A5FAF0E7F46E0200186F02001FB5FEF766
:10CEA0001DFA044650B1074B039002930023012260
:10CEB0001846CDE90033044914F0BDFB204604B008
:10CEC00010BD00BF396F02006453020070B5044604
:10CED0001E4615468CB0A2B129B10A4602A804210B
:10CEE00012F09AFD02A900912B462246242103A8A4
:10CEF000FFF7A4FF3146109A03A8FEF765F80CB0BF
:10CF000070BD03462421044A03A812F067FA0028E2
:10CF1000F0DA6FF01500F2E75E6F02001FB50C4B00
:10CF20000C48DA79C2EBC202009200221146FFF7E8
:10CF3000CDFF50B1084B0390029300230122184605
:10CF4000CDE90033054914F076FB05B05DF804FB2C
:10CF500000800020426E0200646F020064530200F1
:10CF600030B5044615468DB092B129B10A4602A8E3
:10CF7000042112F051FD02A900912B4622462421E2
:10CF800003A8FFF75BFF03A813F038FD0DB030BD19
:10CF900003462421044A03A812F020FA0028F2DAFA
:10CFA0006FF01500F2E700BF5E6F020007B5009357
:10CFB00013460A4601460348FFF788FF03B05DF8B1
:10CFC00004FB00BFE18602000A4601460148FFF764
:10CFD000C7BF00BFE186020007B5009313460A46AB
:10CFE00001460348FFF772FF03B05DF804FB00BF82
:10CFF000DB86020007B5009313460A460146034844
:10D00000FFF764FF03B05DF804FB00BFB4850200C6
:10D0100007B500220346009103481146FFF756FF6B
:10D0200003B05DF804FB00BFAC85020008B5024800
:10D0300010F08AF9002008BD048200202DE9FF418C
:10D040001C4DD5E8AF3F13F0010F2F4630D015F837
:10D05000CD6CA5F1D408CEB901F0A4FF044668B1A7
:10D06000154B0122CDE90163304633461349009642
:10D0700014F0E1FA204604B0BDE8F08198F80760AA
:10D0800026B901F0F5FF04460028E9D1D5E8AF3F05
:10D090005A0701D401F05AFBD7E8EF3F23F480325E
:10D0A000C7E8E12F0029F7D1DB0301D5FFF7BEFF69
:10D0B0000024DFE7D48000207F6F02006453020069
:10D0C00007B5009313460A4601460348FFF7FEFEE4
:10D0D00003B05DF804FB00BFFF8B02000A46014667
:10D0E0000148FFF73DBF00BFFF8B020030B50024B1
:10D0F000094D0A4B85B028460293039410F09CF921
:10D1000002AB284600934FF4A3620A23044910F0AF
:10D11000A9F9204605B030BDC88B0020B26F0200CF
:10D12000B89F00200146014810F09ABAC88B002031
:10D13000037830B5012B13D0022B27D07BB90A46D8
:10D14000184B03F1100453F8045BA34242F8045B4C
:10D15000F9D11B78137043884B731B0A8B7330BD56
:10D160000A46104B03F1100453F8045BA34242F843
:10D17000045BF9D11B7813704368C3F307224B7328
:10D180001B0CCB731B0A8A730B74E8E700F11003C6
:10D1900050F8042B984241F8042BF9D103780B7016
:10D1A000DDE700BFBB6F020038B50546012D104614
:10D1B00019460CD0032D16D0052D14D00C490D485E
:10D1C0003D2212F0F4FE3D21094812F0E9FE0A4822
:10D1D00016F017FA044620B101210C3008F0FCFFCC
:10D1E0002576204638BD02460B460448F0E700BFCE
:10D1F000CC6F0200316202007C870020E0860020B4
:10D200000246002070B50B460A49D1E8EF4FC1E84D
:10D21000E50F002DF9D124B9BDE870400120FFF7DA
:10D22000C3BF01212082217604F10C0008F0D4FF55
:10D23000204670BD4081002070B504460F2C0D467D
:10D240001046194605D80D2C0DD9BDE87040FFF7E2
:10D25000D7BF132C07D10C4816F0D3F9044638B9C0
:10D260000024204670BD02460B4645B10748F3E74F
:10D2700001210C3008F0B0FF01232376F1E70120F3
:10D28000BDE87040FFF790BF188800204887002055
:10D2900038B5C368B3F801401B786BB90F2120463D
:10D2A00003F0DAF8054640B9084B1A8822B96FEA4C
:10D2B00004506FEA1050188038BD012102F0DEFFE3
:10D2C0002846BDE8384002F0B1BF00BFA09A002058
:10D2D00010B5084C0146052294F86F0003F000FBDE
:10D2E00038B994F86F000422BDE81040024903F0F9
:10D2F000F7BA10BD00800020136E02001FB5C3688E
:10D3000002221B7806490393064B0293002318461A
:10D31000CDE9003314F071FA05B05DF804FB00BFED
:10D320001C530200037002001FB501460B4808F0B1
:10D33000F7FD0B490B4817F0ACFB00280ADA0A4B43
:10D3400003900293002301221846CDE900330749D8
:10D3500014F053FA05B05DF804FB00BF44810020CF
:10D3600050820020F88C00202B7002001C53020019
:10D370001FB501210C3008F081FF037801220393CF
:10D38000054B0649029300231846CDE9003314F0FB
:10D3900034FA05B05DF804FB487002001C5302002B
:10D3A0001FB5C36801211C88204603F055F80346C9
:10D3B00050B9084A0849CDE90102039401220090BE
:10D3C00014F01BFA04B010BD04B0BDE8104002F028
:10D3D0002DBF00BF6A7002001C5302001FB5C36856
:10D3E0000121B3F80140204603F036F8034650B956
:10D3F000074A0849CDE9010203940122009014F084
:10D40000FCF904B010BD04B0BDE8104002F00EBF3E
:10D410006A7002001C530200F0B5C56885B02E7812
:10D420008EB9B5F801700F21384603F015F804469F
:10D4300058B90B4B0122CDE901030A490346039772
:10D44000009014F0DAF905B0F0BDEB7831460373C3
:10D4500002F014FF204605B0BDE8F04002F0E6BE41
:10D460008E7002001C53020030B50446084687B097
:10D4700002EBC303934212D1058AC0682946FFF725
:10D480001FFC164BCDE904500293002302221846DC
:10D49000CDE900331249039414F0AFF914E01146BA
:10D4A00011F8085BA54216D1038A517899420DD92B
:10D4B000CDE903340B4B012202930023084918469F
:10D4C000CDE9003314F099F907B030BD536807B0C7
:10D4D000BDE8304018470A46CCE700BFD6700200CE
:10D4E0001C530200B470020070B54A4886B008F0C0
:10D4F0006BFD044600285FD0027E012A5ED0032A1D
:10D5000040F08580038A032B07D80393424B029394
:10D5100000230122CDE9003359E004210C3008F04A
:10D52000ADFEFF23428806886376238AC6F30B008C
:10D530009A4260830FD0CDE90332384B0122029327
:10D54000002337491846CDE9003314F056F9204638
:10D5500008F0A2FD1BE00F2102F07EFF054658B93E
:10D56000638B012203932F4B2D49CDE90103034621
:10D57000009014F042F9EAE702F0ACFF2146607631
:10D58000320B284602F0DCFC284602F04FFE264B08
:10D59000D3F8443183B12549254817F07AFA002899
:10D5A0000ADA244B03900293002301221846CDE9A6
:10D5B00000331B4914F021F906B070BD038A012B1A
:10D5C00008D803931C4B02930023CDE9003318467F
:10D5D0001349CEE702210C3008F050FE05460078D2
:10D5E00014F0C9F883070BD440F69B221349144862
:10D5F00012F0DDFC404080F311884FF0030002DFA1
:10D60000062321460F4A2878FFF72EFF9FE70E4B8F
:10D6100003927CE744810020F87002001971020037
:10D620001C5302003D710200008000205082002047
:10D63000F88C00202B7002005F7102007B710200E9
:10D640003162020064590200AF71020010B501217D
:10D6500004460C3008F012FE2146BDE810400A23B3
:10D66000014A0078FFF700BF945902007FB5C568F2
:10D670000121B5F80160304602F0EEFE044658B9CB
:10D68000104B0122CDE901030F4903460396009098
:10D6900014F0B3F804B070BD2B783BB9D5F8033063
:10D6A000C0F8B530D5F80730C0F8B9304FF4805124
:10D6B000201D14F08BF8204604B0BDE8704002F045
:10D6C000B5BD00BF6A7002001C5302002DE9F04195
:10D6D000064688B0907A0F46144608F02FFB3D4D61
:10D6E000854214D0A47A204608F028FB3A4BCDE9B5
:10D6F00005050293002302221846CDE90364CDE913
:10D700000033364914F079F808B0BDE8F0812046BE
:10D7100008F01CFB4FF00C08314D08FB005043880B
:10D72000B34212D0204608F011FB08FB005043889A
:10D730000222CDE903632B4B2849029300231846AC
:10D74000CDE9003314F059F8DEE7274ED6F8400152
:10D7500020B108F0A1FC0023C6F84031204608F0B3
:10D76000F5FA0C2606FB005043689BB197B920469A
:10D7700008F0ECFA012106FB00504268D2E90003F0
:10D78000127A03F01F06B1405B09E2B100EB83009F
:10D7900014F01CF8204608F0D9FA0C2606FB0050BD
:10D7A0008368002BB0D0204608F0D0FA70432F5485
:10D7B000204608F0CBFA06FB0055A86808B0BDE883
:10D7C000F0410FF067BAC94300EB830014F024F86E
:10D7D000E0E700BFE4870020C37102001C53020091
:10D7E00048950020F87102000080002038B504211F
:10D7F00004460C3008F042FD457801782246408806
:10D80000FFF764FF25B1BDE8384002480FF042BA87
:10D8100038BD00BF2881002030B50446032185B003
:10D820000C3008F02BFDE3680578197840F6354395
:10D83000B0F8010098420CD10B4B039102930023E6
:10D8400002221846CDE90033084913F0D6FF05B08F
:10D8500030BD2246FFF73AFF002DF8D0044805B04E
:10D86000BDE830400FF016BA2B7202001C530200C4
:10D870002881002001222DE9F047C768008A3B7803
:10D8800086B002EB830181427ED90393414BCDE9FF
:10D8900004100293002340491846CDE9003313F0E9
:10D8A000ACFF06B0BDE8F0873C4B0122CDE9010397
:10D8B00039490346CDF80CA0009013F09EFF0135C6
:10D8C0003B789D42EDDA07EB8503B3F801A00F2109
:10D8D0005046B3F8036002F0BFFD04460028E3D0D1
:10D8E00000F1280A2EB34FF02003EFF3118283F3E7
:10D8F0001288BFF36F8FE3696BB1013BE36182F381
:10D900001188BFF36F8F204602F0A0FA013E0FF09E
:10D91000C1F9B6B2E6E763697BB982F31188BFF358
:10D920006F8F01221846CDE901391B49009313F08E
:10D9300064FF204602F07AFCC1E7A06919688342BF
:10D94000616108BFA16182F31188BFF36F8F4FF04F
:10D950002002EFF3118182F31288BFF36F8FDA6830
:10D96000E261C3F80C80C3F80080626A4AB9C4E976
:10D97000083381F31188BFF36F8F50460FF0E4FC3A
:10D98000C1E713606362F4E70025DFF81490A8464E
:10D9900096E700BF617202001C5302008B72020006
:10D9A000A772020070B5C5680121B5F8016086B0A4
:10D9B000304602F051FD044658B92B4B0122CDE907
:10D9C00001032A4903460396009013F016FF06B0A0
:10D9D00070BD2B78061D1A2B19D1C378012B2AD1C3
:10D9E0004FF48061304613F0F1FE42050FD4D4F8B5
:10D9F000A83020460493D4F8B03004A9059303F06E
:10DA000065FA204606B0BDE8704002F00FBC2B78E6
:10DA10008BB9B5F80330A4F8A630B5F80530A4F8F2
:10DA2000AC30B5F80730A4F8AE306FF480713046F2
:10DA300013F0F2FE14E0D6E8AF3FDB05F5D52B7806
:10DA4000202BF2D194F8B430002BEED0013B84F8B7
:10DA5000B4304FF42032002304F160000FF062FE76
:10DA6000204602F0C3FDCCE76A7002001C5302009E
:10DA700010B5C1E900239DF808300C460B7208F080
:10DA800065F90C22024B02FB00335C6010BD00BF45
:10DA9000489500202DE9F0474FF0FF3206464FF041
:10DAA000FF331D480F4615F0ACFD044650B91B4925
:10DAB0001B4840F2031212F07AFA40F203111748A1
:10DAC00012F06EFA4FF0000800F10C0A01215046E6
:10DAD00008F082FB204684F8188008F037F94FF0F0
