:020000040000FA
:10000000F80B0020690600000D070000B156000043
:10001000D1560000F1560000315700001157000082
:10002000000000000000000000000000F5250000B6
:100030000D070000000000000D0700000D07000084
:100040000D0700000D07000000000000EB3000006D
:10005000000000000D07000000000000000000008C
:100060000D0700000D0700000D0700000D07000040
:100070000D0700000D0700000D0700000D07000030
:100080000D0700000D070000000000000000000048
:100090000D0700000D070000000000000000000038
:1000A0000D0700000D0700000D0700000D07000000
:1000B0000D0700000D0700000D0700000D070000F0
:1000C0000D0700000D0700000D0700000D070000E0
:1000D0000D070000000000000D07000000000000F8
:1000E0000D070000000000000D0700000D070000D4
:1000F000000000000D070000000000000D070000D8
:100100000000000000000000000000000D070000DB
:100110000D070000000000000D0700000D070000A3
:10012000000000000D0700000000000000000000BB
:1001300000000000000000000000000000000000BF
:1001400000000000000000000000000000000000AF
:100150000D07000000015F5F00000000FE0B0000C3
:10016000852600008006000000000000000000005E
:10017000000000000000000000000000401200200D
:100180000000000001015F5F030100001F0100008B
:1001900099040000000000000000000001000000C1
:1001A000010000000000000000000000000000004E
:1001B0000000000070000000385B000080000000BC
:1001C000000F000001000000E502000001015F5F78
:1001D000040100001F0100000106000000000000F3
:1001E000000000000000000001000000000000000E
:1001F000000000000000000000000000435B000061
:10020000400000000507000001000000ED040000B0
:1002200038B50025054C29462046D4F80024C4F8EA
:10023000045405F0E6FAC4F8005438BD200C002040
:1002400013B511460022CDE9002242680346302A48
:1002500004683ED194F82C20022A18D01AB900F074
:1002600041F902B010BD1E482468D0F80404013AD8
:10027000CDE90040072A2FD8DFE802F004090D126B
:10028000171C21266A46184600F029F9E9E71846A6
:1002900000F013F9E5E76A46184600F011F9E0E7C7
:1002A0006A46184600F006F9DBE76A46184600F091
:1002B0000AF9D6E76A46184600F008F9D1E76A4617
:1002C000184600F006F9CCE76A46184600F004F933
:1002D000C7E76FF08000C4E76FF08500C1E700BF9B
:1002E000200C00202DE9F04F056804469FB0002D3A
:1002F00040F0AA802022294602A805F082FA12AF17
:10030000202229460AA805F07CFA302229463846E0
:1003100005F077FAE26904F11C039846B2B10426AD
:10032000E26A04F12C03EAB10425EEB96FF083060A
:1003300030461FB0BDE8F08F002EF1D053F8041DF9
:100340003246013E0029F7D01646E9E70326F5E7D5
:10035000002DEAD053F8041D2A46013D0029F7D0AC
:100360001546E2E70325F5E730233A4600216068A9
:1003700005F084FA3028D9D14FF00109CDE9027097
:10038000334F0DF1080A04F1100B4E45D7F8001455
:100390001CD10DF128094B46002008EB850EC645FF
:1003A00033D108B1C7F80014A3683146C7F8043444
:1003B0000AAA2B4602A8FFF743FF00270646BD42C4
:1003C00009F1080938D1FFF72BFFB1E75BF8043FCB
:1003D000C1F58062D81C20F00300904204D9FFF7D9
:1003E0001FFF6FF08C06A3E70844CA19C7F8000482
:1003F00049466068019205F041FA019ACAF80C007A
:1004000009F101094AF8082FBFE758F804CFC1F5F0
:10041000806A0CF1030222F00302524503F1080343
:1004200005D8781843E9020C11440120B7E70028E9
:10043000D5D0C7F80014D2E7394659E902236068DD
:1004400005F031FA0137BAE76FF0850670E700BFB3
:10045000200C002008B528220021024805F0D1F91F
:10046000002008BD2810002010B5044C0F222046A3
:10047000034905F0A1F9204610BD00BF511000202E
:100480000406000008B50121024803F0C7F9002066
:1004900008BD00BF5010002008B5FFF7DBFF40B9D2
:1004A000FFF7E2FFFFF7EEFF18B9BDE8084003F0E1
:1004B00023BA08BD6FF0850070476FF08500704764
:1004C0006FF0850070476FF0850070476FF0850012
:1004D00070476FF0850070476FF0850070476FF0D0
:1004E00085007047D1E9000103F0E6B9F0B5036873
:1004F0000546B3F57D7FA7B007D040F2F5329342B1
:1005000007D06FF0850027B0F0BD01F0EFFB0020B1
:10051000F9E700243C22214607A8CDE90244CDE9B1
:100520000444069405F06DF93C22214617A8169460
:1005300005F067F9EA69019405F11C0302B304268A
:10054000EA6A05F12C033AB30424731E012B52D836
:10055000012C50D80423002168680DEB030205F03C
:100560008DF904281AD06FF08000CCE7002EE7D078
:1005700053F8041D3246013E0029F7D01646DFE746
:100580000326F5E7002CE0D053F8041D2246013C79
:100590000029F7D01446D8E70324F5E7022E16D138
:1005A0006E69402E29D806AF33463A460121686865
:1005B00005F064F98642D6D1CDE9027602A944B9A4
:1005C0002246019801F086FD044620469BE7002163
:1005D000F5E72B6A402BC6D816AACDE9042301986B
:1005E00004AA01F077FDDDE90423044600216868D0
:1005F00005F059F9E9E7012085E76FF0890082E706
:10060000002070474D62656420544C5320332E35D2
:100610002E3200000000000000000000000000007A
:10062000D42E000001000000407C0000801000205B
:100630004A000000407C0000200C00200000000068
:10064000407C0000000C002000000000A8110020E9
:10065000C2050000200C002018010000000C002042
:100660000800000002F0B2BB08B572B61E4A1F4B6C
:100670009A601F4B83F309881E4B83F30A8883F328
:100680000B881D4B16A1D1E90001C3E9000100F060
:100690005DF81A4B1A498B4212D30020194B1A49A4
:1006A0008B4218D302F02AFF186850F8224058688D
:1006B00040F82240013298688242F5D30C33EAE7D1
:1006C0000022F8E71C6844F8220001325C68A2426C
:1006D000F8D30833E4E70022F8E700BFAFF3008067
:1006E000A5EDF5FEA5EDF5FE0000000000ED00E033
:1006F000F80B002000040020F80B00202806000062
:100700004C0600004C06000064060000EFF3088071
:10071000EFF309812DE9F00F6B46724600F004F902
:1007200008B0FFF79FFFFEE74FF47F03D3F83021B7
:10073000D3F83431072A05D1023B032B02D8024AF1
:10074000D05C704700207047BE310000694A08B590
:10075000D2F8D03043F00203C2F8D030FFF7E4FF04
:1007600058B1654BD3F8202A3AB90D21C3F8201AA5
:100770000121C3F81C19C3F81C290022D30003F57A
:100780007F03D3F80013013107D0D3F800130132EF
:10079000D3F80433202A0B60F0D1FFF7C5FF0028FF
:1007A00040F0A080FFF7C0FF40B1544B544AC3F85B
:1007B00030254FF050230122C3F858254FF47F0312
:1007C000D3F83021D3F83431072A09D1023B032B67
:1007D00006D84C4AD35C1BB100224B4BC3F84C25C6
:1007E000FFF7A2FF50B14FF05023D3F80024D107F8
:1007F00042BF0022C3F81421C3F818214FF47F032D
:10080000D3F83021D3F83431072A09D14FF05023DF
:10081000D3F80024D20744BF6FF00102C3F80024CC
:10082000FFF782FF18B16522334BC3F80C274FF452
:100830007F03D3F83021D3F83431072A16D1324B55
:10084000D3F82034002B11DA4FF050230322C3F8E1
:10085000182501229A60D3F80421002AFBD0002237
:10086000C3F804210122DA60C3F818254FF47F038E
:10087000D3F83021D3F83431072A23D1023B032B9C
:1008800002D8224AD35CEBB17E221B4B1B49C3F832
:100890000C27C3F83C297F231D4AC2F818310023D6
:1008A000C1F8043EC1F8083E01F54821C1F81031F5
:1008B000C2F82431C2F82C3102F5FF1202F5805241
:1008C000C2F8A0320B4AD2F88C3043F44063C2F82D
:1008D0008C30104A104B1168C3F84415D269C3F824
:1008E0004C2508BD2922044BC3F80C270322C3F86A
:1008F0003C2757E700ED00E0004000500090035017
:100900004400EFBEBA31000000200350B6310000B1
:10091000002000500080FF00006000507C22014950
:1009200004F04ABFDC18002038B51D46364B374C62
:100930005B68C3F308032360EFF30383C4E901207A
:100940006365C2F3801302F00C020C2AE16036D119
:100950000BB9EFF3898120222D48216104F02CFF8F
:1009600025B1202229462B4804F026FF264B9A6AFF
:10097000A265D96AE165986B206602F40040606662
:10098000586BA06602F08000E0669A62D962D3F8E4
:10099000E42021482267D3F8E810616702F04001A3
:1009A000A167C3F8E4200E2101F026FA2268D31EC5
:1009B000042B1CD8DFE803F0090F1215180013B937
:1009C000EFF38881C7E70146C5E70C211348BDE86E
:1009D000384001F011BA12211148F8E70B211148F3
:1009E000F5E70D211048F2E70E211048EFE70F2A36
:1009F00098BF1421BDE8384089BF25210C480D4817
:100A0000103A01F0A5BB00BF00ED00E0DC180020AB
:100A1000F018002010190020C2310000D031000071
:100A2000DC310000EE310000F93100000632000038
:100A300014320000283200002DE9F34106460F462B
:100A40000C4DD5F82C80C04710F00104FBD139467D
:100A500030466B69984740B9C047C307FCD42B6A3E
:100A6000019302B0BDE8F0411847204602B0BDE84E
:100A7000F08100BF5032000010B5094C0020A3687F
:100A80009847236902209847A46A4FF4E131012076
:100A9000A0472346BDE8104001211520184700BF9C
:100AA00050320000064B82B01868002382B262F315
:100AB0000F03000C60F31F43184602B0704700BFDD
:100AC00098320000014B1869704700BF8810002061
:100AD000014B5869704700BF8810002010B5044CC6
:100AE000204600F0B5FE002084F8240010BD00BFB1
:100AF0008810002038B50C4D0C4695F8243013B9F9
:100B00004FF0FF3038BD0A460146284600F024FF6A
:100B1000064B984205D00B3B9842F1D100206C6106
:100B2000F0E76FF00100EDE7881000200B00AD0B3F
:100B3000F0B51B4E054696F824300C4691B01BB913
:100B40004FF0FF3011B0F0BD00F06043B3F1005F33
:100B500021D100230A460146304600F007FC114B24
:100B600098421AD00B3B9842EAD1346111E0A71B9E
:100B7000402F28BF4027A9193A46684604F01CFEBA
:100B800039466846FFF7D4FF0028DBD14036B4422F
:100B9000EDD80020D6E70026F9E76FF00100D1E795
:100BA000881000200B00AD0BC3B2012B30B540F014
:100BB000A2804DF6C023994276D028D8B1F5615F66
:100BC00075D011D8B1F5965F73D008D8B1F5966F8E
:100BD00071D0B1F5166F71D06FF0070063E0B1F519
:100BE000165FF9D14B4B33E047F61223994268D098
:100BF00007D8B1F5964F67D0B1F5E14FECD1464B30
:100C000026E0B1F5164FE7D14FF41D0320E0434B2A
:100C100099425BD011D8B1F5E13F5AD007D8B1F570
:100C2000614F59D0B1F5963FD6D13D4B10E0B1F5AB
:100C3000613FD1D14FF06C730AE0B1F5612F4ED016
:100C4000384B99424ED0B1F5E12FC5D14FF0E86352
:100C500010F4E06F52D110F4404403D0B4F5804F4B
:100C60004FD11024304900F44052B2F5805F8D8B93
:100C70003BD0B2F5005F3BD0002A45D110F44030A4
:100C800003D0B0F5403F42D101204A7622432A43A7
:100C90000876024300200B628C768D830968C1F8C8
:100CA0002435C1F86C2530BD4FF46503D0E71F4BE8
:100CB000CEE71F4BCCE74FF49E23C9E74FF41D232B
:100CC000C6E74FF40003C3E71A4BC1E74FF0806358
:100CD000BEE74FF0EB73BBE74FF46B03B8E74FF0A1
:100CE0007063B5E74FF08053B2E700250E22C5E7E9
:100CF0004FF48075FAE76FF00300D4E76FF0080057
:100D0000D1E76FF00A00CEE76FF00900CBE76FF094
:100D10000B00C8E70050270000C0750090D003000A
:100D200000903A0140420F008810002000F03A0085
:100D300000B0130000A04E0010B58EB02822002194
:100D400004A804F05EFD4FF0FF33CDE90033CDE998
:100D500002334FF0EB7368460A930723104C8DF86B
:100D60003530D4E9021201F065F801460022204630
:100D700000F04EFA0B4B98420ED1DDE90B01002337
:100D80000A9AA061226201221846C4E90433A183B1
:100D900084F824200EB010BD6FF00100FAE700BF08
:100DA000881000200000AD0B036803F01F025B09F0
:100DB000026004D0012B034818BF0020704702488E
:100DC000704700BF002884500025845030B5154678
:100DD000D0F8002285B022F02002C0F80022114A8B
:100DE0000C46C0F8082301F075F8002104F14C030B
:100DF000A1602161D3E8EF0F20F47F0020F4704060
:100E0000C3E8E20F002AF5D11022684604F0F9FC8D
:100E1000042368468DF800300195D4E90013984703
:100E200005B030BD10020A00044B054A1B68B3FB35
:100E3000F2F35843034B43F001031847841000209A
:100E400040420F00A032000007B5019001A8FFF753
:100E5000ABFF019B00EB8300D0F80022034B134053
:100E6000C0F8003203B05DF804FB00BFF0F0FCFFF7
:100E70002DE9F04F804690F804A05020664F0E46B2
:100E800000FB0A70416885B049B113F0020304D039
:100E9000836B002B00F0B2800123009300E00091EF
:100EA0004FF0500909FB0A73DB6CD90600F1A680EC
:100EB0004FF0010BB3180293029BB34200F0A780DE
:100EC00006F06043039398F80450D8F8004009FBFB
:100ED00005739A6B9AB9039BB3F1005F40F0998058
:100EE000019200F073FD09FB0572D16C204601F000
:100EF000010100F0BDFF28B900F070FDE3E7012318
:100F00000193EEE7516C33460029BCBFD4F84C1571
:100F10005164019A42B109FB05713078D1E90E2381
:100F2000D054D1E90E3213441BB1C4F84435C4F88F
:100F300048B50022C4F82021D4F82011C4F8582163
:100F4000D4F85811C4F85021D4F850210822C4F81C
:100F50000025009AE2B14FF48003C4F80433C4F8CA
:100F600008B000F03BFD502303FB0A7251680029D2
:100F70004BD1D26C120748D503FB0A734C33D3E82C
:100F8000EF1F21F00801C3E8E21F002A36D0F6E780
:100F9000C4F808B0019300F021FD09FB0572D16C83
:100FA000019B01F001012046019300F061FF84469E
:100FB000019BD4F84C05D4F84425BCF1000F0DD1A9
:100FC0009342F0D005EB850507EB0515D1B100F094
:100FD000FDFC2946204600F0C2FFC2E705EB85056F
:100FE000934207EB0515F1D10028EFD100F0EEFC9C
:100FF0002946204600F0B3FF00F0F0FC074805B09A
:10100000BDE8F08FC4F80CB0E1E7013654E70448BE
:10101000F5E70448F3E700BF581900200800AD0BBE
:101020000000AD0B0400AD0B07B5019001A8FFF760
:10103000BBFE019B00EB8300D0F80022044B134061
:1010400043F00303C0F8003203B05DF804FB00BFB7
:10105000F0F0FCFF07B5019001A8FFF7A5FE019B8A
:1010600000EB8300D0F80022044B134043F002034E
:10107000C0F8003203B05DF804FB00BFF0F0FCFFE5
:101080002DE9F3470C4694F83330054690F8048078
:101090000968002B36D150235A4F03FB0873DE6CCE
:1010A00046F00072DA644A1C0AD001A80191FFF7E9
:1010B0007BFE0123019A934083600846FFF7B4FF4B
:1010C0006068431C01D0FFF7BFFE94F82C30012B61
:1010D00018D1502303FB0873E06846F02066421CD9
:1010E000DE6401D0FFF7B0FEA668731C0AD001A829
:1010F0000196FFF759FE0123019A93408360304621
:10110000FFF792FF94F832703FB950223D4B02FB3B
:101110000833DA6C42F08072DA6494F82C6094F848
:101120002D0094F82E90228E2B68D4F828A03243FC
:1011300040EA09000243D4F80CC0D4E9018EC3F898
:1011400024A5C3F86C254FB9012EC3F80C15C3F8BC
:10115000148504BFC3F808E5C3F810C5D3F86825A3
:1011600003F26457012A08BFDA60D3F86425012A24
:101170000FD1082149F64046C3F800155A603B6874
:10118000A3BB2B68D3F88024C3F880240022C3F8C3
:10119000002500212B6894F83520C3F81011D3F8EE
:1011A0001001C3F82011D3F82001C3F82411D3F89B
:1011B0002401C3F84411D3F84401C3F85811D3F8FB
:1011C000581143F307335201002BD2B214DB0E49FE
:1011D000C81880F800230122580903F01F0302FAFF
:1011E00003F341F8203002B0BDE8F0870120FFF79B
:1011F0001BFE013EC3D1C4E7044903F00F03CA54E8
:10120000F1E700BF5819002000E100E014ED00E014
:101210002DE9F3479046502290F804904E4C02FB83
:1012200009FA04EB0A070D4697F84810064600290C
:101230007ED109EB890004EB001004F0E2FA2B697F
:10124000AA6944F80A306B69BB6302B1013A5023C2
:1012500003FB0943DA632A6A042A81BFEA699A61B7
:101260000022DA6195F83430B8F1000F34D083F001
:1012700001073F0233B1502303FB0943DA6C42F00C
:101280000102DA64502303FB09440123C4F80480FB
:1012900084F848303468D4F84C21FAB929463046ED
:1012A000FFF7EEFE0822002334688DF80730C4F8FB
:1012B00000250DF10702C4F84425C4F84835012380
:1012C0000A25A360E360D4F858319BBB0120FFF7E7
:1012D000ABFD013DF7D125E04746CBE708224FF0B3
:1012E0006409C4F800256360D4F84431F3B9D4F834
:1012F0002431DBB90A20FFF797FDB9F10109F3D1D9
:101300004B460022C4F84C21D4F84C11C4F81021EB
:10131000D4F81011C4F84421D4F84411C4F80025BD
:10132000002BBBD10D4802B0BDE8F0870123E8E7F0
:101330000B48F8E70023C4F820319845D4F8202161
:10134000C4F80035074B08BF00231F433368064825
:10135000C3F80473E7E700BF581900200100AD0B84
:101360000500AD0B10020A000000AD0B2DE9F0479F
:1013700084460F469E4616460579002A51D04FF006
:10138000500ADFF8AC80D0F800900AFB058ADAF842
:10139000044074B96BB9DAF82C50002D43D1CAF867
:1013A0002C20FFF765FD0446CAF82C502046BDE806
:1013B000F0871EF0030F07D0734632463946BDE86A
:1013C000F0476046FFF754BD07F06043B3F1005F9C
:1013D0004FF0500414D104FB058400F0F7FAE26AE0
:1013E0001AB1144C00F0FAFAE0E7C4E90A7605EB0A
:1013F0008505484608EB051100F0BCFD0E4CF1E7F1
:1014000004FB0584A36B83B100F0E0FAE36A002BD0
:10141000E7D1E36C012243F00203C4E90A76E364F6
:10142000E5E7064CC2E7034CC0E7054CBEE700BF4A
:10143000581900200B00AD0B0000AD0B0600AD0BE2
:101440000A00AD0B2DE9F84350230679284D0468B6
:1014500003FB0653D4F80473DA6AC4F8087322B99C
:101460002448C4F80473BDE8F88306EB860005F150
:101470004C024FEA001802EB0012D2E8EFCF4CF01A
:10148000080CC2E8E0CF0028F7D10122E26031B3B6
:10149000D96C01EA02094946204600F0E9FC00281F
:1014A000FAD000F093FAB9F1000F1CD1D4F8203132
:1014B00053B10123E360D4F85831002BFBD0204610
:1014C00005EB080100F04BFD00F088FA0023C4F89A
:1014D0002031D4F82021502202FB0655EB62064849
:1014E000C4F80473BFE7D4F85831002BE7D1EBE719
:1014F000581900200500AD0B0000AD0B2DE9F0419F
:1015000007793D4E07EB87031B0103F14C05046887
:101510003544D5E8EF2F42F48050C5E8EC0FBCF11C
:10152000000FF6D1D00462D44A0705D5502202FB41
:1015300007629269002A5CD0304AC4F80823082266
:10154000C4F800250022C4F81021D4F81001C4F812
:101550004C21D4F84C01C4F844210803D4F84421A8
:101560008A0302F4804200F400504903024301F46C
:1015700000410A43D5E8EF1F1143C5E8E01F0028EA
:10158000F8D14FF0500808FB0768D8F80820BAB91E
:10159000D8F8042062B9D5E8EF3F23F47F0323F4A1
:1015A0007043C5E8E23F002AF5D11548BDE8F08157
:1015B000F018032100F069FCD8F80830002BEAD0BD
:1015C000502303FB0763DB6CDB0401D40D48EDE71C
:1015D000D4F84C310BB901232360502303FB07637C
:1015E0005B68002BF2D0054BC4F80433EEE70648E5
:1015F000DCE70648DAE700BF5819002010020A00AD
:101600000200AD0B0000AD0B0B00AD0B0800AD0BE5
:101610002DE9F74F056801F06043D5F804A3B3F155
:10162000005F90F8049088461746C5F808A340F07C
:101630008B805023464E03FB09639A6852B15B6866
:10164000002B6CD1D5F81021002A68D0C5F81031D4
:10165000D5F81031502404FB0964E269C4E902871B
:10166000002A3ED009EB890B4FEA0B1397420193F6
:1016700006EB0B1B23D200263A46A1694046C4E97B
:10168000026604F099F8E269A069D21BC119E2610F
:1016900004F05CF8636863B158463A46414600F08E
:1016A00005FCE36C980404D5324659462846FFF7FA
:1016B0008DFB2848C5F804A303B0BDE8F08FA169ED
:1016C000404604F079F8E36963620023E361D5F8EA
:1016D0000433590717D56368ABB10621584600F0AB
:1016E000D4FB502303FB0963586ADA689968DB6C02
:1016F000121A0144C5F83415C5F83825DA04D8D5CE
:1017000001232B60D5E7144B019A1344D3E8EF1F54
:1017100041F40021C3E8E21F002AE2D0F6E750239B
:1017200003FB096633698BB9F36CC5F834855B0438
:10173000C6E90487C5F83875BBD5D5F8003243F043
:101740002003C5F80032B4E70448B3E70448B1E722
:10175000581900200000AD0BA41900200A00AD0BA1
:101760000B00AD0B50232DE9F041354D90F804806E
:10177000046803FB0853DB6CD4F8000203F48223F3
:10178000B3F5805F5AD1D4F80463C4F8086309B98B
:10179000830648D4D4F8003223F02003C4F8003282
:1017A0004FF4842308EB8801090101F14C072F4411
:1017B000D7E8EF0F1843C7E8EC0FBCF1000FF7D1E3
:1017C00022B9502303FB08535B68A3BB1D4BC4F82D
:1017D000083301236360D4F84431002BFBD050233D
:1017E00003FB0853DA6C12F400421FD1DA61204681
:1017F00000F070FB502303FB08550023AB602B6106
:10180000D7E8EF3F23F47F0323F47043C7E8E23FB8
:10181000002AF5D126F4202626F404760A48C4F8D6
:101820000463BDE8F0814FF48033BBE720462944D0
:1018300000F062FBDBE701236360EFE70348F0E7BA
:101840005819002010020A000000AD0B0500AD0B76
:101850002DE9F04103682E4A0579C3F8082343F3C4
:101860000733002B04460DDB01215A0903F01F0347
:10187000994002F12003274A42F82310BFF34F8F0B
:10188000BFF36F8F012220461146FFF76BFF012146
:101890002046FFF7D7FD2368227950241E49D3F84C
:1018A0000C0504FB0212D46CD3F81485E201D3F8C2
:1018B0000865D3F8107509D54FF0FF32C3F80C2531
:1018C000C3F81425C3F80825C3F81025A20115D5BF
:1018D000431C01D0FFF7BEFBB8F1FF3F02D04046EA
:1018E000FFF7B8FB200109D57A1C02D03846FFF774
:1018F000B1FB731C02D03046FFF7ACFB5023002233
:1019000003FB0513DA6483F848205A60BDE8F081D0
:1019100010034A0000E100E05819002010B55024DF
:101920000279094B04FB02335B684BB90368D3F8B7
:1019300010213AB111B1D3F83C350B60034810BD0A
:101940000348FCE70348FAE7581900200000AD0BF4
:101950000800AD0B0B00AD0BF7B505461646FFF7BB
:1019600057FE164B0446984222D1032128462F7970
:10197000FFF7C4FD124B984201D0A0421BD1502268
:10198000104B02FB07335B6893B90C4C284601A946
:10199000FFF7C4FFA042F9D1019BB34207D3012254
:1019A0002846114603B0BDE8F040FFF7DBBE064C09
:1019B000204603B0F0BD0446FAE700BF0000AD0BBF
:1019C0000B00AD0B581900200800AD0B72B6024A8F
:1019D0001368013313607047A8190020034A136885
:1019E000013B136003B962B6704700BFA81900201D
:1019F000003A18BF0122003918BF0121036889008D
:101A0000074841EA4201186359605A6842F00102EE
:101A10005A60BFF34F8FBFF36F8F0020704700BF36
:101A200004AAFF000722024BC3F80423704700BF3B
:101A300000300050084BD3F80001D3F804210038DF
:101A400018BF01200AB140F00200D3F808310BB1F1
:101A500040F00400704700BF003000500022074BE8
:101A6000C3F80021D3F80011C3F80421D3F80411FE
:101A7000C3F80821D3F80831704700BF0030005088
:101A800000231720094A03F5C0710133402B42F8A7
:101A90002100F8D100231720044A03F5E071013337
:101AA000402B42F82100F8D1704700BF00300050B1
:101AB00010B59DF80840800B43EA0423064C890BBF
:101AC00043EA0213884200D910BDC2B202F5C072C7
:101AD00044F822300130F5E70030005010B59DF891
:101AE000084000F1604043EA042301F16041074CE3
:101AF000400B490B43EA0213884200D910BDC2B221
:101B000002F5E07244F822300130F5E70030005071
:101B1000C0F30D03C3F58043B3FA83F3C3F11B0392
:101B2000064AC0F38730DBB240F4807043F4807320
:101B3000C2F80005C2F80435704700BF00300050FD
:101B40004303014818447047FF1FF81F044B090264
:101B500041F0300100F5007043F82010704700BFDD
:101B600000300050034B090200F5007043F82010CC
:101B7000704700BF0030005008B5FFF75BFF044B13
:101B8000202118600348BDE8084000F035B900BFC7
:101B9000EC1F0020A63200000422014903F00CBE15
:101BA000EC1F002008B501F07CFA68B901F0DAFEFC
:101BB00058B9074AD36823F008031B041B0C43F0F1
:101BC000BF6343F40033D36008BD45F22350FBE705
:101BD00000ED00E008B500F06FF8BFF34F8F054946
:101BE000054BCA6802F4E0621343CB60BFF34F8F2A
:101BF00000BFFDE700ED00E00400FA05024B1860AD
:101C0000024B002019607047F41F0020F01F0020D5
:101C100013B5274C426923685A6282699A62C26985
:101C2000DA62026A1A63426A5A63826A9A63C26A11
:101C3000DA63026B1A64426B5A60826B9A60C26B01
:101C4000DA60026C1A61426C5A61826C9A61C26CF1
:101C5000DA61026D1A62826D5A65C26D9A65026F11
:101C6000DA65026E1A66826E5A66426F9A66EFF302
:101C700088825A64EFF389829A644268DA64EFF3E7
:101C800094821A65026801A81A67FFF785FF236826
:101C9000019ADA6601221A70064B1C686408640017
:101CA000204621462246234603F05FFE02B010BDC7
:101CB000F41F0020F01F002000B5A1B001A8FEF71E
:101CC0002DFE029B63B15B060AD4019B23F0020345
:101CD000052B05D1044B1B6813B101A8FFF798FF32
:101CE00021B05DF804FB00BFF01F0020BFF34F8F51
:101CF0000549064BCA6802F4E0621343CB60BFF3A8
:101D00004F8F00BFFDE700BF00ED00E00400FA05C3
:101D1000F8B543680C2B26D14B68042B23D14FF028
:101D2000FF3304680E6821683360E1B1A268D2B164
:101D30000623012001F00DF9A8B961680B4BD3E926
:101D4000005CA9420AD3A26865448F18AF4205D847
:101D5000206803F031FD00203060F8BD0130042818
:101D600003F10803EBD10220F7E700BFC8320000FF
:101D7000436870B50C2B32D14B68042B2FD14FF038
:101D8000FF3306680C683068236050BB72685509E1
:101D900003D0012D1CD14FF6FF7302F01F02D34078
:101DA000D90719D5B168072916D88B23CB40DB0793
:101DB00012D57DB1012D16D10D4B03EB8203D3F863
:101DC000002222F0E04242EA0172C3F8002200231E
:101DD000236070BD074BF0E74FF0FF33F8E70220B8
:101DE000F7E70320F5E70023803253F82230FFDEC7
:101DF0000028845000258450FEF71EBE0120704745
:101E00006FF003007047002382B00193019802B085
:101E100070476FF003007047002382B00193019870
:101E200002B07047022814BF6FF003000020704713
:101E3000FEF77EBE30B501EB8202914200D130BD8B
:101E400051F8044B04F07F037F2B4FEA144408BF82
:101E50004FF0FF33032CF0D8DFE804F0020406084B
:101E60000360EAE74360E8E78360E6E7C360E4E72E
:101E70000346D0F8580130B931B9D3F82001003801
:101E800018BF012070470120704730B504460D4649
:101E900085B010220021684603F0B3FCD4E900139A
:101EA00068468DF80050984705B030BD7FB50446B0
:101EB0000E46154600211022684603F0A2FC0123BD
:101EC00068468DF80030CDE90165D4E900139847E4
:101ED00004B070BD10B50446FFF778FDD4F8583152
:101EE00033B1D4F8043313F4800308BFC4F80035C9
:101EF000BDE81040FFF772BD70B50D4604460522DF
:101F0000AA21D0F83C65A86903F07BFC0522AB69E7
:101F1000C4F83435C4F838250022C4F81021D4F8A8
:101F200010110121E162D4F810110029FBD0C4F88E
:101F30004C21D4F84C11C4F81021D4F81021D4F855
:101F40003C259642EA6109D15A1E043312F8011F5A
:101F5000AA2903D19A42F9D10023EB6170BDD0F8D0
:101F6000583133B1CB6CC3F30032DB0458BFC0F837
:101F70000025704770B5CE6C0D4606F00101044691
:101F8000FFF776FF38B94FF4800346F00406EE649D
:101F9000C4F8043370BDD5E90A365AB1296CEA6B2E
:101FA000761A964228BF164619443246A86B03F0AB
:101FB00003FCAB6B4FF0FF326A641BB1C4F84435CD
:101FC000C4F848650023C4F82031D4F82021C4F8AF
:101FD0005831D4F85821C4F85031D4F8503108237E
:101FE000C4F800354FF48003C4F804330123A36020
:101FF000D0E74B6830B513F01F052DD102680C688F
:102000001068C0F30720844226D25068556094605F
:102010000C7C23F01F0304F001041C438B7CDB00C9
:1020200003F018031C434B7C5B0003F006032343BF
:10203000D3608B68013B23F01F04CB685B0003F087
:102040000E03234343F0010313615060BFF34F8F2E
:10205000BFF36F8F284630BD0120FCE703680020E6
:102060005A68C9B258609960D86018615A60704760
:1020700070B50546002403681E68C6F30726B442FF
:1020800001D1002070BD21462846FFF7E7FF01344B
:10209000F5E780037047800300F57F503F307047BD
:1020A000002070473F2070474FF48040704700F594
:1020B0007F40C03040037047402070477F2070470A
:1020C0004FF40050704700207047002070470020F8
:1020D000704770470346012B084670B5114607D07C
:1020E000032B09D0002B31D1BDE87040FFF710BEA3
:1020F000BDE87040FFF73CBE4368082B01D00220CA
:1021000070BD5468042CFAD14FF0FF33056816688F
:10211000296833600029F2D06B68002BEFD02623AA
:102120007422012000F015FF0028E8D12246232365
:102130000120696800F00DFF04460028DFD1D5E9D1
:102140000001FFF75BFD30602046D9E70320D7E7A9
:1021500030B50C46154685B038B139B1FFF74CFEA5
:10216000041E03DA204605B030BD044640F60D23B8
:10217000ADF80E3009230B4901A805F00F028A5C67
:102180002D091A54013B012BF7D147F630030C21DE
:10219000ADF80430FFF730FE0028B4BF0446241821
:1021A000E0E700BFE832000008B5154B83F30A886A
:1021B000144800F061FF00BBFFF7F4FCE8B9FFF73B
:1021C00082FFD0B9FFF781FF98B9FFF782FF00F0D7
:1021D000BFFE35210C48FFF70FFE00F005FC212162
:1021E0000A48FFF709FE00F039FA00F093FE0020DC
:1021F00008BDFFF76CFF0028E7D000F0E7FDEEE731
:1022000000040020AC190020F83200002D3300003B
:102210002DE9F04F93B00093574B8146D3F800B0AF
:102220000BB2002B0D461646C1F30268C1F3024AF9
:1022300004DA6FF0800013B0BDE8F08F8B42C3600A
:1022400001D10020F7E708EB0A03042BF1D8CC0FEB
:1022500064014FEAC80731463A46DBF8080044F00B
:10226000020300F076FE01460028E2D1202202A8F7
:1022700003F0C7FA3A46314602A84FEACA0603F00D
:102280009BFA32460099DBF8080044F0060300F0A0
:1022900060FE07460028CCD1014620220AA803F0A0
:1022A000B0FA324600990AA802AE03F085FA334626
:1022B0000137B84514D91A46BC460DE0D2F808E0FB
:1022C000D16818687144884203D259680844864529
:1022D000AFD30CF1010C0832C445EFD10833E7E766
:1022E00015F0006F18BF202409F1180707EB8808C4
:1022F00044F00203474513D1202C26D1002D02DBE8
:10230000C5F3C0456C0109F128050AAE05EB8A0A40
:1023100044F0060455451AD1009BC9F87C3090E77B
:102320007268DBF8080056F8081B019300F011FEF4
:1023300000287FF47EAF56F8042C019B47F8042F49
:1023400056F8082C38633A62D4E70024DBE7726859
:10235000234656F8081BDBF8080000F0FAFD0028B9
:102360007FF467AF56F8043C45F8043F56F8083C44
:1023700028642B63CEE700BFB01900202DE9F0419F
:102380001F461A4B0D461646D3F8008000F0DCFEBF
:10239000044608B900F01AFDE368002B01DA00F0EA
:1023A00015FD032D01D900F011FD04EB8504E5694D
:1023B000E36CED1A16D006233A463146D8F80800E9
:1023C00000F0C7FD08B100F001FDBD4228BF3D4649
:1023D000E36CE16B2A461944304603F0EDF9E36CF7
:1023E0002B44E3642846BDE8F08100BFB01900200B
:1023F0002DE9F0411D461A4B0F461646D3F80080D2
:1024000000F0A2FE044608B900F0E0FCE368002BEF
:1024100001DA00F0DBFC032F01D900F0D7FC04EB5C
:102420008704E36AE26E9B1AAB4201D200F0CEFC55
:1024300002232A463146D8F8080000F08AFD08B188
:1024400000F0C4FCE36EE06D2A463146184403F008
:10245000B3F9E36E00202B44E366BDE8F08100BFD2
:10246000B01900202DE9F04105464FF001080E4E4D
:102470000E4B37685C681CB928463760BDE8F081B0
:102480002268936813F400700CD1A369012B09D062
:10249000D368346023B19847002801DA00F096FC35
:1024A000C4F81880246AE6E7B0190020B4190020A7
:1024B00038B5044610B96FF0800038BD8368002B32
:1024C000F9D01A68002AF6D05D68002DF3D00B4BC6
:1024D000E861A8691D6020B92B68DB6853B9012346
:1024E000AB61A36804F10C001B681B6998470123CA
:1024F0002360E2E798470028F1DADCE7B019002012
:102500004268024B08461A60704700BFB0190020AD
:10251000002330B505680446AA68C0E9063312F402
:10252000406F85B01CD012F4006202D000F07EF93A
:102530000246A96A2B6968460B44073123F007035A
:1025400021F00701CDE9021300930023054901930F
:10255000EB6800F069FA684600F0D9FD024B1C6098
:1025600005B030BD65240000B019002001F00C0357
:1025700070B50C2B0CBF154605464A060C461ED5F9
:102580008B0658BF2835AB6913F8026C84F008033A
:10259000C3F3C003C6F38012934201D000F016FCCF
:1025A00016F0A00F1CD176B1032E15D032461C2197
:1025B0000D48FFF7CDFD6FF083032B600AE000F0BC
:1025C00005FC2026E2E700F005FB0446014607482B
:1025D00000F099FD204670BD284600F00BFAF9E79F
:1025E00032461F210248E4E74E330000F80B00207A
:1025F0006A330000EFF308807146EFF30982EFF3CE
:102600000B830CB406B4FFF7B1FF8646009900F0C7
:10261000080001F00801401A02DC12DB04B0704728
:102620001EF020031CBF2DE9F00FBDF1080D0A4C70
:10263000254626462746A046A146A246A34630B4D4
:10264000704704B030BC1EF020031CBF1DF1080D04
:10265000BDE8F00F04B07047A5EDF5FE084BDA6851
:1026600082F07F4282F47F0242F48042DA600022EC
:102670001A765A76DA76DA77602283F82220704763
:1026800000ED00E0009A0A4B9A420FD101229043DC
:10269000014602460346044605460646074680466E
:1026A000814682468346844686460447FEE700000C
:1026B000A5EDF5FE2DE9F041044618B943F6DA30F0
:1026C000BDE8F0810029F9D08368002513F4406F3C
:1026D00014BF012300234FF0140843F00203104EEF
:1026E0000B6000F13007236AAB4201D80020E7E716
:1026F000A369E26907EB830308FB02330C226A43F8
:1027000099188968090709D59B58B342D6D1306812
:1027100020B10121C0F30730FFF718FA0135E2E7D5
:10272000B410002070B5324C86B03248FFF7A0FCE0
:10273000236801255A1C01932F4B2260DA681B691C
:102740004FF44076039300232A4801A9029204958E
:10275000ADF814608DF81630FFF74BFC18B143F656
:10276000DA3006B070BD23688DF816005A1C01934C
:10277000224B20480293224B01A9CDE90335226068
:10278000ADF81460FFF735FC0028E8D123688DF818
:1027900016005A1C01931B4B164802931A4B01A9B1
:1027A000CDE903352260ADF81460FFF722FC002864
:1027B000D5D123688DF816005A1C0193134B0D4890
:1027C0000293134B01A903930223049340F20113D4
:1027D0002260ADF81430FFF70CFC04460028BED18F
:1027E0002A4629460348FFF703F92046B9E700BF08
:1027F000BC190020B0100020B4330000E03300000A
:10280000605B00002006000020060000000C002095
:10281000200C0020014B1868704700BFB433000043
:10282000014B1B6818687047B4330000014B1B68EC
:1028300058687047B4330000054B03EB8000D0F8B4
:10284000003223F0E04343F04053C0F800327047B9
:10285000002584500020034BD8765A6A42F4702237
:102860005A62704700ED00E00349044BCA6800203B
:1028700092B21343CB60704700ED00E00800FA0508
:10288000074A084B11680020C3F84415D269C3F801
:102890004C250222C3F84025C3F84825704700BFE5
:1028A0000080FF000060005000224FF0FF300D4B11
:1028B00002F1A0010132102A43F82100F8D1D3F827
:1028C0008022002022F00802C3F88022D3F8802260
:1028D000D3F8802222F40072C3F88022D3F8803229
:1028E000704700BF00E100E008B5FFF79BF8082241
:1028F000024BC3F880211A60002008BD00E100E00F
:10290000064BD3F8D02022F00102C3F8D020D3F830
:10291000D02042F00202C3F8D020704700ED00E062
:1029200037B50124FFF7ACF8134D2246052347F6CF
:10293000FF7100200094FFF7BBF8224607234FF0F9
:1029400000500E490094FFF7C9F8D5E901010723AB
:1029500000220094FFF7ACF8072300220849094839
:102960000094FFF7BBF82969E8680139FFF7D0F850
:10297000002003B030BD00BFB4330000FF7F002053
:10298000FFFF07200080002038B50024134D0021F0
:1029900015F8010B0134FFF7E5F8292CF7D10021D8
:1029A00001240F4A0846C2F88014C2F88444C2F8D1
:1029B000C014C2F8C444C2F8C814C2F8CC44FFF72B
:1029C0003BFF2046FFF738FF064B0846C3F800459B
:1029D0004FF48073C2F8403438BD00BF8933000023
:1029E00000300050001000500122014B1A60704767
:1029F000C019002010B50446094B22891868616887
:102A00000623806800F0A5FA28B9064B1B68012B45
:102A100001D100F087F86FF08603236010BD00BF7E
:102A2000B0190020C01900202DE9F84305461E46C4
:102A30000068134B9046AA68A0F1080440E90233ED
:102A4000503890420F4601D200F0C0F9A4F1480975
:102A500048220021484602F0D4FE002344E907330F
:102A600044F8143C4FF0807344F8043C6FF00203C8
:102A700044E9036744F8208CC5E90093BDE8F88376
:102A8000A5EDF5FE30B5094C024661680023084605
:102A900040B105686D68954205D11BB182686060E0
:102AA0009A60816030BD03468068F1E7441A0020D7
:102AB00038B504462AB10B689B68DB0512D50020A7
:102AC00038BD0B4B1D680DB900F080F900222B6852
:102AD00099692C338A4203D053F8040FA04204D1E1
:102AE0009142ECD16FF0FC00EAE70132F2E700BF5F
:102AF000B019002070B504460E461546002130225C
:102B00000C3002F07EFE064B20461B68A660636018
:102B1000656100F001FA00232061236070BD00BFF1
:102B2000B0190020044B1B681BB11B680BB158681F
:102B300070474FF0FF307047B0190020064B10B5BA
:102B40001C680CB900F042F923689B6813F4406FCD
:102B500014BF0120002010BDB01900202DE9F8435A
:102B6000904607460C46FFF7E9FF024624B96FF08E
:102B700080042046BDE8F8836300F8D5144B04F0C8
:102B80001F0153F82150002DF1D02B6829465868B9
:102B9000FFF78EFFB0B9C4F30721284600F0C2FA50
:102BA00004460028E3D1EFF3108972B600F0C1F9B2
:102BB000064689F3108840B142462946FFF79AFF3E
:102BC0003E60D6E76FF08104D3E76FF08204D0E770
:102BD000C41900202DE9F04100F0AAF90023134E9A
:102BE000134F73607B6000F0E5F8DFF848803046F3
:102BF00000F022F80446A8B139468023424600F08E
:102C00007FF80546204600F0D2FA206804F108015A
:102C1000FFF750FD08B100F0D9F829462046FFF72C
:102C200077FCE4E7BDE8F04100F071B9B419002089
:102C3000441A0020C4190020F8B5054608B900F070
:102C4000C5F82A4E346814F1290F4CD8284B19685E
:102C500004F128038B4246D2236AA26903EB4303A3
:102C60000C321344606AE269024402EB82021344AC
:102C70009B00E31801D2994201D200F0A7F8236823
:102C80001C4A1B0C1B04934201D000F09FF82388C0
:102C9000B3F5817F01D300F099F86368002B01DA66
:102CA00000F094F8144A176807F124031360134ADC
:102CB0001268934201D900F089F8236AA26903EBF4
:102CC00043030C32616A1344E2693C600A4402EB3C
:102CD00082021344326802EB83026B6832603B620B
:102CE0006F603846F8BD0027FBE700BFC410002026
:102CF000D033000000005F5FC0100020CC33000024
:102D00002DE9F74F0F4690460646009300B109B9EA
:102D100000F05CF8D6F800A0DAF818200AF13003C9
:102D200003EB820BDAF81C40204B1D6854B10C22D7
:102D300002FB04541C601E4B1B689C4201D900F02E
:102D400045F82C4625464FF00009DAF81C204A4584
:102D500000D91CB9002003B0BDE8F08F142303FB99
:102D600009B20023C5E900269268AB60930516D529
:102D7000B8F1000F02D0009B802B03D0019200F02D
:102D800025F8019A12F0E00FD0B202D158F82020B5
:102D90001AB1019000F01AF8019848F820507A68AA
:102DA00009F10109AA607D600C35CEE7BC10002056
:102DB000C833000008B5FFF72DFD034B9860FFF7FF
:102DC0002FFD80F3888808BD00ED02E0FEF702BF0A
:102DD0008230012808B506D8FFF7B0FE18B9BDE863
:102DE0000840FFF7F3BF08BDF8B506460D4600F0F2
:102DF000ABF9044608B9FFF7E9FFA7680FB9FFF779
:102E0000E5FFE368991C20D05A1C21D1A5B315F128
:102E1000820F13D102232360EFF3108672B6294686
:102E20002046FFF76DFB054686F310882368022BCA
:102E300024D1204600F086F82846F8BD15F1830F0E
:102E4000EAD0FFF7C3FF0025E6E702232360FAE795
:102E5000002BF6DB204600F09BF93B689B689B0546
:102E600001D50223236015F1810FD5D16369002BB1
:102E7000D2DBFFF7ABFFCFE73546F4E70023236053
:102E8000DAE708B5FEF7A6FE6FF0830008BD2DE96E
:102E9000F3410E46174698460546FFF74FFE00F0F1
:102EA00067F92946024601A8FFF758FE044660B9B3
:102EB00043463A4631460198FFF7AAF9044640B125
:102EC0006B0002D5019800F03DF8204602B0BDE845
:102ED000F0810198FFF7ECFA0446F6E740F20110A2
:102EE000704770B50546FFF729FE06462846FFF7EE
:102EF000C9FD044608B9002070BD01463246284687
:102F0000FFF7D6FD0028F6D12368D868F4E76FF004
:102F10000200704700DF70474FF480507047B0F5F3
:102F2000805F03D1EFF30B8080387047002070473B
:102F30007047EFF30B8000F1800383F30B88704739
:102F400000207047EFF30B83803B83F30B887047BF
:102F500070472DE9F0410E461546002A4AD0C407B5
:102F60004BD480F00204C4F34004A40003F0060232
:102F7000062A4AD144F0010422462946304602F08E
:102F8000F3FAB8BB46E800F205EB0608100E120291
:102F900008F1FF3747E800F34FEA136166D51B02DB
:102FA00064D5884262D046E800F547E800F7FFF7AD
:102FB00077F82D0E85424FEA176734D3FFF772F882
:102FC000874230D82846FFF766F82246C6F101014D
:102FD0000144304602F0C8FA002847D00135AF421C
:102FE00018D83846FFF755F82246A8EB000102F042
:102FF000BBFAD8B30020BDE8F081EFF39484A400BD
:1030000004F0040444F01204B0E7990731D544F009
:103010000804B1E72846FFF73CF80646FFF744F8F6
:1030200022460146D5E7FFF747F885421ED3FFF752
:1030300045F887421AD82846FEF782FD2246C6F197
:1030400001010144304602F08FFA78B10135AF42F8
:1030500003D83846FFF72BF8C6E72846FFF727F8CE
:103060000646FFF72DF822460146EBE76FF07F009A
:10307000C1E74CF2DA20BEE710B50446FFF740FC8A
:10308000FFF74EFC10B143F6DA3010BDFFF77CFCC1
:103090000028F8D1FFF746FB0028F4D10223236073
:1030A000F3E708B5FFF7D6FB10B143F6DA3008BDF9
:1030B000FFF7DAFB0028F8D1FFF7E2FB0028F4D194
:1030C00062B6FDF7D9FCFFF7EFFB0028EDD1FFF763
:1030D0000BFC0028EBD0E8E708B5FEF74DFDFEF746
:1030E000BDFCBDE80840FFF771BEEFF30880EFF3C9
:1030F00009812DE9F00F6B467246FDF715FC08B00B
:10310000FFF7EAFFFEE704460D46A5462847036899
:10311000283383F30988836883F30B88BFF36F8FA9
:103120004068704703689A68DB6812F4806F05D1C5
:103130008B422CBF00206FF0FA0070478B420CBF0F
:1031400000206FF0FA00704710B5FFF7E8FE044664
:10315000FFF7F6FE50B9FFF7E5FCA3685B681B6854
:103160005B68834218BF0024204610BD0024FBE7A3
:1031700038B5054648B100F01BF8B5EBD07F0446E2
:1031800001D0FFF723FE204638BDFFF7CBFCF4E764
:10319000002310B500F1280252F8041F19B1C16FC5
:1031A000146C19444C600833202BF5D110BD7047C6
:1031B0004FF0FF30704700000001010100000100E6
:1031C0000000464154414C204552524F523A200093
:1031D000486172644661756C740D0A004D656D4DF1
:1031E000616E616765206661756C740D0A004275D9
:1031F000734661756C740D0A0055736167654661AD
:10320000756C740D0A005365637572654661756C63
:10321000740D0A00526573657276656420457863A3
:10322000657074696F6E2000506C6174666F726DAA
:103230002065787465726E616C20696E7465727257
:1032400075707420284952516E293A200000000000
:10325000A50A0000FD1D0000390D0000DD0A000078
:10326000251E0000311E0000F50A0000011E0000AE
:10327000C50A0000D10A0000A90B0000071E0000CB
:10328000131E0000191E0000210000000B000200A8
:10329000200001000A0003000302020200000000F7
:1032A0000338FDD87047506C6174666F726D2045AD
:1032B0007863657074696F6E3A205350552046618B
:1032C000756C740D0A0000000002FF002C00000065
:1032D0005004FF00100000003001FF000800000053
:1032E000200CFF0004000000303132333435363713
:1032F00038394142434445461B5B313B33346D5BB7
:10330000536563205468726561645D20536563751D
:10331000726520696D61676520696E697469616CA9
:10332000697A696E67211B5B306D0D0A001B5B318A
:103330003B33346D426F6F74696E672054462D4D78
:103340002076322E302E301B5B306D0D0A00556E0C
:103350006B6E6F776E2053504D205356432072652D
:10336000717565737465643A2000556E6B6E6F7786
:103370006E20535643206E756D62657220726571C2
:103380007565737465643A2000000405080B0C0A27
:103390000E0F101114151718191A1B1C1D1E1F20B3
:1033A0002122232426282A2B2D3033343637394244
:1033B000428100000080000000800000FFFF0F003D
:1033C000007C0000008000002C120020141200205D
:0433D00010020000E7
:1033E000009A204B9A4208D110B502F02DFA02F053
:1033F00059F906BC96460C46744702F069FA009AE1
:10340000184B9A4208D110B502F02AFA02F04AF994
:1034100006BC96460C46744702F05AFA0CB4029A5F
:10342000104B9A420CD14FF0004319430CBC10B51D
:1034300000F09EF802F036F906BC96460C4674473A
:1034400002F046FA009A074B9A4202D106490868F0
:10345000744702F03DFA009A024B9A4200D1744739
:1034600002F036FAA5EDF5FE801000200348044B6B
:10347000834202D0034B03B118477047A8110020C4
:10348000A8110020000000000548064B1B1AD90FA8
:1034900001EBA301491002D0034B03B11847704759
:1034A000A8110020A81100200000000010B5064C53
:1034B000237843B9FFF7DAFF044B13B10448AFF3A5
:1034C00000800123237010BDC01800200000000000
:1034D000585B000008B5044B1BB104490448AFF326
:1034E0000080BDE80840CFE700000000C4180020BD
:1034F000585B0000A3F5803A704700BF174B002BC4
:1035000008BF134B9D46FFF7F5FF00218B460F4682
:103510001348144A121A02F074F90E4B002B00D013
:1035200098470D4B002B00D0984700200021040045
:103530000D000D48002802D00C48AFF3008002F0C7
:103540008BF820002900FEF72FFE02F071F800BF73
:10355000000008000000000000000000F80B002040
:10356000A8110020B028002000000000000000008A
:103570002DE9F84304460D4616461F46EFF3058332
:10358000C3F308030BB1FFF721FCDFF834903B468F
:10359000204632462946D9F80080FFF778FCD9F852
:1035A00000300446984506D0DB6901461869BDE83D
:1035B000F843FFF719BCFFF70BFC2046BDE8F88382
:1035C000B019002001680E4A0346914215D1C16925
:1035D000A2F11022A2F1EF1291420ED18268012ACB
:1035E0000BD8C26812B101698A4206D0586928B165
:1035F0009B691B1A5842584170470120704700BF11
:1036000055AA00FF0D4B70B59E68A6B13046FFF776
:10361000D9FF044678B9F3686BB935690DB920460E
:1036200070BD2846FFF7CEFF28B9EB68B34202D140
:103630002E462D69F2E70124F1E700BF4C1A002065
:103640002DE9F041394E3468F368D4B1B468C4B19F
:10365000002861D000295FD001FB00F5B5FBF0F038
:10366000884259D1291D57D8AA070DD025F0030249
:1036700004321C4603E0616891424FD2A469002CD9
:10368000F9D12046BDE8F0812A46F2E7891A2329BC
:1036900004F12007D4E9050C1AD80123A360A0B1D6
:1036A000C0F818C0A36903B158610023C4E9053309
:1036B0003369DB0702D5FFF7A5FFA0BB2A4600212F
:1036C00038463C4602F09DF8DBE7C6F80CC0E9E757
:1036D00002F1200804EB08032039C3E9011E216927
:1036E000DFF84CE0DC60196144F808E0AEF1102E20
:1036F000AEF1EF1EC3F81CE001B1CB60C3E9050CCD
:1037000040B18361996901B14B6101212361C4E931
:103710000121CAE7F360F5E70024B2E7D4F808E036
:10372000BEF1000FB2D0012001F082FF4C1A002040
:1037300055AA00FFF8B5054600283AD0364E336842
:10374000002B36D0B268002A33D0834203D8726887
:103750001344984202D3012001F06AFFA0F1200433
:103760002046FFF72FFF0028F5D155F8183C012B14
:10377000F1D145F8180C55E90570DFB1BB68CBB93C
:1037800055F81C2C7B68203213447B60386100B1F3
:10379000C76020220021204602F033F8386908B1C2
:1037A00083682BB333699B0703D5FFF72BFF0028F2
:1037B000D1D1F8BD40B3836833BB4268636813441A
:1037C000203363600369D4E90521236192B9B9B953
:1037D000426981696261A161A2B19461A26902B189
:1037E000546103B1DC602022002102F00AF8D9E71D
:1037F0003C46E2E79161A1690029E9D04A61E7E727
:10380000F160F8E7F460E9E7F36845F8083C03B1D4
:103810005C61F460C6E700BF4C1A002038B50D4665
:10382000142200210446124801F0EBFF114912480E
:1038300000F02CF8232D1AD914F003031FBF043D08
:10384000ED18C3F10403E4182A460021204601F0D4
:10385000D8FF074B094AC3E900459C602260A2F1EA
:103860001022203DA2F1EF126560E261DC6038BDFC
:103870004C1A0020353700004136000055AA00FFE1
:10388000014B1B68184700BFC8100020024B18608E
:10389000024B002019607047CC100020C810002097
:1038A00010B50A46044619B1024B00211B6898471F
:1038B00010BD00BFD0100020054B0A46197819B181
:1038C0000146181D02F03EB86FF08800704700BF37
:1038D000601A002010B5074C00F032F8204602F0C4
:1038E00042F8201F0821FFF7DBFFBDE8104002F07F
:1038F00026B800BF641A002070B50C4D2B787BB938
:1039000002F01BF8044670B90126281D6E7002F003
:1039100017F8044638B900F00BF8044618B92E70B1
:103920000024204670BDFFF7D5FFFAE7601A00209B
:103930000122024B002083F880257047681A00207E
:10394000F8B5074C2025264601272046276201F0BE
:10395000E3FF013D04F12C04F7D186F88055F8BD52
:10396000681A002010B50C4C236813B10B4B1B6870
:103970002BB900F093FC30B90122084B1A600123E7
:103980002360002010BD0138072801D9044810BD6C
:10399000044B53F8200010BDFC1F0020F81F00202E
:1039A000FE8FFFFFBC590000144B2DE9F0430028A7
:1039B00014BF04461C46124F236883B0BB4219D083
:1039C00016460D4620464FF4147104F1040900F028
:1039D00047F804F58E78484600F0CEF8404600F0EF
:1039E00019FA2B464A4640460649009600F034FB39
:1039F00008B92760002003B0BDE8F0830020002054
:103A0000A5BCC95AFD3B000070B50D4C1D460028F1
:103A100014BF064626460B4B306882B098420DD143
:103A200006F58E70002633460096144600F03EFBE5
:103A3000002818BF34462C6002B070BD0248FBE776
:103A400000200020A5BCC95AE88FFFFF38B131B172
:103A5000002201440346013081421A70FAD17047B6
:103A600038B131B1002201440346013088421A7056
:103A7000FAD170472DE9F043202B1D4606468846B3
:103A800091468BB026D8DBB202AF8DF80480B046E9
:103A900058F8041B8DF8053021B9404601F026F98D
:103AA000044640B9012302224046336001A901F0D7
:103AB00031F9044638B138462021FFF7D1FF2046BE
:103AC0000BB0BDE8F0832A464946404601F022F992
:103AD0000446F0E702AF1946104600233A4601F0CB
:103AE0009FFA04460028E6D12023B9461D46CCE7BC
:103AF0002DE9F041D0F8F830A6B0002BD8BF02AEC7
:103B000031DD05460027D0F80C4102AEA4F10108D2
:103B10009022D5F8FC403146D0F8000101AB019766
:103B2000B8FA88F8A0474FEA5818044620B9019B14
:103B300053B9B8F1000F16D030469021FFF790FF2F
:103B4000204626B0BDE8F081014632462846FFF700
:103B500091FF58B9D5F80431019A1344C5F80431DE
:103B6000B8F1000FE8D16FF03C04E5E704462046C9
:103B700026B0BDE8F08100BF70B5002504461422D0
:103B800004F588762946C0F8F850FC3001F039FE7B
:103B900008222946304601F034FE144B30461B689B
:103BA0009847204640F8045B01F086F8104B3046F9
:103BB0001B689847C8B9D4F8F830AB420FDC03EB68
:103BC000830204EB82022021C2F800010120C2E935
:103BD000421008490133C2F8FC10C4F8F830064B13
:103BE0003046BDE870401B68184770BDF0100020DB
:103BF000EC100020B54B0000E81000202DE9F04744
:103C0000202A88B07AD83F4B00F5887904461B6893
:103C100048461746884698470546F8B940F20116C7
:103C2000D4F8F830002B65D02046FFF761FF054639
:103C300038B9D4F8F830002B14DC013EF2D16FF023
:103C40003B056E4620213046FFF70AFF2E4B4846C3
:103C50001B689847002818BF6FF01D05284608B05C
:103C6000BDE8F087D4E94132934203D3D4F80C2164
:103C7000012A02D0013ED7D1E1E71F2BFAD96E46C7
:103C800001462022304604F1040A01F0BAFD314613
:103C9000504601F069F805460028D3D1504601F09E
:103CA0001FF8504601F008F82946504601F01EF86A
:103CB00005460028C6D150462022314601F02AF898
:103CC00005460028BED1034632462021304601F089
:103CD000A7F905460028B5D1D4F8F8303A46002BAC
:103CE000C8BF002340463146C8BFC4F8043101F0C4
:103CF00063FDA7E76FF03F056E46A3E76FF03B0556
:103D0000ACE700BFEC100020E810002070B590B0C8
:103D100000287AD03E4C0D464022362106462046E9
:103D200001F06FFD40225C21A01801F06AFD2B1DFF
:103D3000A34203D904F144039D4252D32B68226865
:103D4000534023602B68226C534023646B68626885
:103D5000534063606B68626C53406364AB68A268F5
:103D60005340A360AB68A26C5340A364EB68E26865
:103D70005340E360EB68E26C5340E3642B692269D3
:103D800053402361226D2B695340236562696B693F
:103D9000534063616B69626D53406365AB69A269AF
:103DA0005340A361AB69A26D5340A365EB69E2691F
:103DB0005340E361EB69E26D5340E3650021304617
:103DC00000F094FF044628B940223046104900F024
:103DD000A1FF044640216846FFF742FE204610B08E
:103DE00070BD631E04F13F01013D1F3415F8010F42
:103DF00013F8012F42401A7011F8012F2878A342BE
:103E000082EA00020A70F1D1D8E76FF07304E5E7A7
:103E10005022002010B54FF49A720021044601F0A0
:103E2000F0FC42F21072044BC4F8202104F59670A5
:103E30001B68BDE810401847F01000202DE9F04F36
:103E400004468846914695B0002900F0A780002AD4
:103E50000CBF0126022600238DF80C30002C00F048
:103E60009F80DFF844A104AF0AF1400B00212046F7
:103E700000F03CFF034648B1384620210193FFF78C
:103E8000EFFD019B184615B0BDE8F08F402251466A
:103E9000204600F03FFF03460028EDD104F1F40571
:103EA00020222946204600F035FF03460028E3D1B2
:103EB0000122204603A900F02DFF03460028DBD194
:103EC000022E62D020460CA900F04EFF03460028C7
:103ED000D2D10146204600F009FF03460028CBD18D
:103EE00040225946204600F015FF03460028C3D162
:103EF000202220460CA900F00DFF03460028BBD16C
:103F00003946204600F030FF03460028B4D1394638
:103F10002046FFF7FBFE03460028ADD120222946AC
:103F2000204600F0F7FE03460028A5D120460CA944
:103F300000F01AFF034600289ED10146204600F0FB
:103F4000D5FE0346002897D140225946204600F06E
:103F5000E1FE034600288FD1202220460CA900F064
:103F6000D9FE0346002887D12946204600F0FCFEF2
:103F70000346002880D19DF80C200132D2B2B24213
:103F80008DF80C20FFF472AF76E74A464146204692
:103F900000F0C0FE0346002894D06DE701265AE7E2
:103FA0006FF0730304AF67E7502200202DE9F04162
:103FB0000446884615461F46D0F81801E0B013B1F4
:103FC00000EB40004008B5F5807F3ED82844B0F5AE
:103FD000C07F3AD84FF4C0720021684601F011FC4E
:103FE0006946D4F82431D4F81821D4F82801984728
:103FF00070BBD4F8186157B1D4E9493072080DEBA1
:104000000601984720BBD4F8183106EB5306B8F1E7
:10401000000F00D08DB9324669462046FFF70EFFEB
:10402000054610B90123C4F8143131466846FFF73C
:1040300017FD284660B0BDE8F0810DEB0600414653
:104040002A462E4401F0B8FBE5E76FF00405F0E7DF
:104050006FF00805EDE700BF2DE9F047044604F1D5
:10406000F4050F4691461E46DDF8208000F024FE40
:1040700029462046FFF74AFE08B1BDE8F0872846EA
:104080002022012101F0BDFBD4F81831C4F82471BD
:10409000C4F8289113B92023C4F818314246314698
:1040A0002046BDE8F0470123FFF780BFB2F5806FDF
:1040B00000F295802DE9F04F89B09A46129BB3F536
:1040C000807F00F29080D0F82431164604460F46D7
:1040D0004BB3D0F81C31012B05D0D0F81421D0F807
:1040E00020319A421FDD514600232046129AFFF7E5
:1040F0005DFF014698B900231293002E5ED0DFF8D1
:10410000EC9009F1400B0021204600F0EFFD202E3D
:104110003546014628BF202504F1F40890B1084631
:1041200009B0BDE8F08FBAF1000FE6D0129B002B6A
:10413000E1D051461A462046FFF780FE014600288E
:10414000DBD0ECE749464022204600F0E3FD014683
:104150000028E4D141462022204600F0DBFD014644
:104160000028DCD16946204600F0FEFD014600280B
:10417000D5D1204600F0BAFD01460028CFD15946DE
:104180004022204600F0C6FD01460028C7D16946FE
:104190002022204600F0BEFD01460028BFD1414646
:1041A000204600F0E1FD01460028B8D138462A46F5
:1041B000414601F001FB761B2F44A4D15146204615
:1041C000129AFFF73BFE01460028A8D10846D4F812
:1041D00014310133C4F8143109B0BDE8F08F6FF029
:1041E0000201084670476FF0040198E75022002052
:1041F000002130B58DB0282202A8019101F001FB09
:1042000002A800F035FF044610B120460DB030BDC5
:104210001B4D4FF0FF31286800F032F960BB194B9D
:10422000D3F8340E10F0010017D100F059F9F8B9A5
:10423000154A02A901A800F0AFFC0446012000F0D5
:104240004FF988B9286800F023F90028DDD00F481D
:1042500000F0ACF920460DB030BD2868052400F010
:1042600017F90028D1D0F2E7094800F09FF9E9E7F3
:10427000084800F09BF9DBE7074800F097F9CEE724
:10428000D410002000608450D0220020345A000056
:10429000145A0000F4590000DC59000030B583B016
:1042A00000F036F878B900F055F890B9144BC3F81F
:1042B0000C0AFFF79DFF0446F8B9124D2B6863B155
:1042C000204603B030BD032400F072F8204603B04E
:1042D00030BD0424204603B030BD02460146FFF73E
:1042E00063FB50B96822084901ABFFF78DFB20B989
:1042F0002046064B2B6003B030BD0524E0E700BF2D
:1043000000508450F0240020F42400205AEA5A5A25
:1043100000207047430504D54FF0FF32034BC3F82C
:104320000821024BC3F8080A704700BF00508450B0
:10433000014BC3F8040A70470050845008B100F0E4
:1043400071B84FF47500704708B100F04FB84FF4E2
:104350007500704710B5114800F07EF800B110BD2F
:104360000F4800F079F80028F9D10E4C204600F0F3
:1043700073F80028F3D10C4B0C481C6000F06CF86B
:1043800001460028EBD100F02DF8044608B1204684
:1043900010BD00F087F82046FAE700BFE4100020C7
:1043A000E0100020DC100020D4100020D8100020E5
:1043B00008B5084800F05AF8074800F057F80748D1
:1043C00000F054F8064800F051F8BDE8084000F04D
:1043D0000BB800BFE4100020E0100020DC1000202B
:1043E000D810002000207047704700BF10B402466C
:1043F0000B4C01E0134207D1D4F8003A13F480705B
:10440000F8D0012042F4807229B1054BD3F8044161
:104410000C60C3F80841024BC3F8082A10BC70476F
:10442000005084500246084901E01A4207D1D1F8F1
:10443000003A13F48070F8D0012042F48072024BED
:10444000C3F8082A704700BF0050845001F07EB9BD
:104450000A46002101F0D5B908B5034B02681B6874
:1044600010689847002008BD1011002008B5034BC4
:1044700002685B6810689847002008BD1011002092
:10448000024B02689B681068184700BF101100209B
:1044900008B5034B0268DB6810689847002008BD28
:1044A0001011002070B5094C094D2069AB68984780
:1044B00018B1084B08485B6898470021074AEB6829
:1044C00011602069BDE87040184700BFFC10002053
:1044D00010110020F41000204C5A00005C25002030
:1044E000F8B51A4D1A4E0446B26828699047E8B9E3
:1044F000184F3B684CB1A3B1012B19D0013B3B6075
:104500002869F36898470020F8BD43B90121124A91
:10451000C2F800151149D1F81029002AFBD1013346
:104520003B60F368286998470020F8BD0C48F8BD47
:104530000A4AD2F81039002BFBD1074A6FF07E40AF
:10454000C2F80035FFF7F4FE3B68D7E7FC10002007
:10455000101100205C250020004084500050845041
:10456000E98FFFFF014B1B68184700BF10110020A7
:10457000014B9B68184700BF10110020014BDB68FE
:10458000184700BF10110020BFF34F8F0549064B9D
:10459000CA6802F4E0621343CB60BFF34F8F00BFE1
:1045A000FDE700BF00ED00E00400FA0530B44FF075
:1045B000FE3200250B4B0C4C0C494968C3F8002413
:1045C000C3F80424C3F80824C3F80C24C3F8102447
:1045D000C3F81424C3F81824C3F81C24C4F80055E5
:1045E00030BC08470050845000408450F410002034
:1045F00010B5044650B1636813F0685F05D0064AF1
:10460000934202D000236260236010BD034B044834
:104610005B689847EFE700BF2C5F5CA9F4100020AF
:104620006C5A0000C8B143680D4A934213D013F08E
:10463000685F0ED0012350E8002F194640E8001CA7
:104640009CF0000FF7D1012AF5D0BFF35F8F002057
:10465000704704487047044870476FF4E040704763
:104660002C5F5CA9E98FFFFFEA8FFFFF034680B153
:10467000426809498A420AD012F0685F05D0BFF348
:104680005F8F002210461A60704704487047044844
:1046900070476FF4E04070472C5F5CA9E98FFFFF23
:1046A000EA8FFFFF10B5044620B10023034A2360C0
:1046B000626010BD0248FFF779FFF6E73A00003A62
:1046C000945A00002DE9F041002873D00C460029CF
:1046D00070D01D46002B6DD007461AB10122002371
:1046E0002A6003602B68002B5FD02946204600F02B
:1046F00079FD804600285AD12146286800F058FDEF
:104700008046002853D12868082867D0042867D03D
:10471000A0F10200B0FA80F040090121314EC6F844
:10472000C411C6F84011C6F8C411636AC6F8303126
:10473000D6F830219342F6D10023C6F82C314FF041
:10474000FF33C6F808316FF01B03C6F80031C6F816
:104750000C01D6F8040A40F48060FFF7E9FD0A2353
:10476000C6F83831069B012B29D023691E4AA2FBCB
:1047700003231B09626A404602FB03F303EB430376
:10478000184ADB039B09C2F8D8310123C2F82C3147
:104790003B682A6823F07F4343EA02633B602A6850
:1047A00043EA02233B60BDE8F081DFF840804046E9
:1047B000BDE8F081DFF838804046BDE8F0814FF475
:1047C0007F03D3F80C2C013206D0D3F80C3C064AF8
:1047D000A2FB03231B09CDE71623CBE703209CE7AD
:1047E00002209AE700508450ABAAAAAA310CF1002B
:1047F000350CF10058B34B1EB3F5047F27D230B50A
:104800004FF0000ECD00744671464B0901F01F0CAD
:1048100050F82330BCF11F0F23FA0CF306D003F03D
:10482000010319B901211C468E46EEE79C4201F1B5
:10483000010106D01C464FF0010EA942E5D100202F
:1048400030BD0EF1010E9645F7D1024830BD01484A
:10485000704700BF360CF100C0B32DE9F0434C1E89
:10486000B4F5047F1DD2E3B1DAB100252E46A84687
:104870002C46CF0003F1FF394FEA541C04F01F0E01
:1048800050F82C10BEF11F0F21FA0EFC0CD00CF0CA
:10489000010C4CB90126E04634463546ECE7964219
:1048A00016D90C48BDE8F083AB420BD0C44508BF15
:1048B0000136A945F3D001350134BC42DCD10020DA
:1048C000BDE8F0830125E0462E46F5E70148704734
:1048D0001D46F1E7370CF1002DE9F04F8FB082460D
:1048E000DDE919460D46002E6ED1096904911C6060
:1048F000002318990B60002A00F02881994B6A6AFE
:10490000D3F83811D3F830319A4269D10A2967D1E6
:104910009AF80330069304F1080305930423049ADC
:104920000393914B8F4CA3FB023B4FEA9B0B0BEB8A
:104930004B0BA2EB4B0B189B049E1E60002E00F04D
:10494000E580002700F05EFC0797BAF1000F00F049
:10495000D0804FF00109DDF81480002D00F0C980EF
:10496000069B002B3ED0284606A900F03BFC002801
:104970003AD07E4B984220D0069B082B00F0E08076
:1049800000225B000693294606AB50460092FFF7D3
:1049900099FE774B984200F0CF8070B9DAF800208A
:1049A000130A03F47F03134323F07F43CAF8003054
:1049B000039B013B0393BED10020039000F022FC37
:1049C00003980FB0BDE8F08F4FF47F01D1F80C0CC5
:1049D00001300CBF4FF40471D1F80C1C049186E730
:1049E0006448EAE76248C4E72946069800F0E0FB1D
:1049F0000028BED1069B082B00F0A480042B00F0F9
:104A0000A380A3F10203B3FA83F35B09C4F8C49152
:104A1000C4F84091C4F8C4916A6AC4F83021D4F84B
:104A200030118A42F6D10022C4F82C214FF0FF3217
:104A3000C4F808216FF01B02C4F80021C4F80C313F
:104A4000D4F8040A40F48060FFF772FC0A23C4F82B
:104A500038312B69444AA2FB0313696A1B0901FB25
:104A600003F303EB4303DB039B09C4F8D831C4F819
:104A70002C910698DAF8003023F07F41030243EAD4
:104A800000630B43CAF8003007A800F081FB079BC6
:104A9000354A03F01A0303437FF46EAFA2FB0632DC
:104AA000D4F81431B7EB920F0893D4F81831099366
:104AB000D4F81C310A93D4F820310B93D4F8243164
:104AC0000C93D4F828310D9302D1BBF1000F12D111
:104AD0004046182208A9183EFFF7B8FC08F118084C
:104AE00001379EB100F08EFB00230793002D7FF469
:104AF00037AF21483DE740465A4608A9A6EB0B06CA
:104B0000FFF7A4FCD8440137002EEBD1049F059E8B
:104B10006A6939463046FFF76DFEAA6940B94FF41D
:104B2000806339463046FFF797FE00283FF444AFD4
:104B30000023189A13601CE72B6A002B3FF43DAF4B
:104B40000E483AE7032361E702235FE70122294683
:104B50005046009606ABFFF7B5FD00283FF4DBAEEC
:104B60002BE700BF00508450ABAAAAAA020CF100A8
:104B7000310CF100300CF100350CF100320CF10079
:104B800010B4DDE9013401940024DDF80CC0CDE956
:104B900002C410BCFFF7A0BE30B51546012487B093
:104BA00005AB00930022CDE9015404ABFFF794FE5E
:104BB00007B030BDF0B587B0002967D01E46002B86
:104BC00064D01446002A61D0324F0D4638684FF049
:104BD000FF31FFF755FC00283DD12F4BD3F8340EA1
:104BE00010F0010015D04FF0FF354FF408712B483D
:104BF000FEF72CFF04212A48FEF728FF2948282128
:104C0000FEF724FF3868FFF743FC40BB284607B097
:104C1000F0BDFFF765FC002834D1224800F028FAE7
:104C200070B91E4A0346029205AA019204AA039093
:104C300000921C4902461A48FFF7A2FF0346A0B1A2
:104C40004FF0FF350120FFF74BFC0028CDD0164870
:104C5000FFF7ACFCC9E71548FFF7A8FCBDE714480F
:104C6000FFF7A4FC284607B0F0BD28461D46059B6B
:104C700022469C4228BF1A46049932600831FFF749
:104C8000E5FBDFE70B48FFF791FCC6E74FF0FF3588
:104C9000BCE700BFD4100020006084509C25002099
:104CA0007025002074250020145A0000DC590000F3
:104CB000B85A0000F459000010B5044628B1204647
:104CC000BDE81040F421FFF7C3BB0448FFF76EFCBA
:104CD0002046BDE81040F421FFF7BABBD05A0000CF
:104CE00010B1F421FEF7B2BE704700BF08B521B184
:104CF000012908D06FF0360008BD012100F058F8F6
:104D00000028F7D108BD022100F052F80028F9D0A0
:104D1000F0E700BF30B505468818B0F5801F0B4698
:104D20001446A1B001D8802A0CD9B3F5801F17D939
:104D300022461946284600F07DF8044684B92046EC
:104D400021B030BD6846FFF781FB22466946284600
:104D500000F070F8802104466846FFF779FBEDE724
:104D60006FF03604EBE700BF70B5E8B10E46D9B17D
:104D7000044600F031F80546B0B92368012B0BD08A
:104D8000022B01D0284670BD1C22304604F10801D8
:104D9000FFF75CFB284670BD2022304604F1080175
:104DA000FFF754FB284670BD6FF03605EAE700BFF9
:104DB00078B138B50D46F0210446FFF749FB402392
:104DC00020462560E36500F061FA003818BF012035
:104DD00038BD0120704700BFF0B5056EA5B0044690
:104DE00004AEE5B9002301270193304667602946E8
:104DF00002AA009300F018FA10B1012025B0F0BD0E
:104E00002A46204602A900F069FA0028F5D120467A
:104E100000F06CFB0028F0D1206625B0F0BD802D9D
:104E20002A46304628BF802204F16401FFF70EFBBA
:104E3000256ED7E7002800F0AE802DE9F04F14462C
:104E4000A5B0002A3DD00F46002949D0B2F5803FD9
:104E50000546006E20D34FF6FF7805F1640AEB6D2E
:104E60001A1AB2FBF3F103FB1122002A65D1834227
:104E7000B9464FF6FF7672D0B6FBF3FB03FB0BFB94
:104E8000BBF1000F30D1002E45D1A4F57F44FF3C8B
:104E9000B4F5803F4744E2D2EA6D161AB6FBF2F34E
:104EA00002FB1366A64228BF2646002E75D1824219
:104EB00000F08D80B4FBF2F602FB06F62EB9002C52
:104EC00079D1002025B0BDE8F08F00233146384667
:104ED000CDE9003302AA00F0A7F9002800F0958080
:104EE000012025B0BDE8F08F002359464846CDE9A2
:104EF000003302AA00F098F90028F1D15A4628465A
:104F000002A900F0EBF90028EAD1A6EB0B06286E07
:104F1000D944002EB9D019304946324605EB8000FD
:104F2000FFF794FAA4F57F44286EFF3C3044B4F5B3
:104F3000803F4744286692D2AEE7424528BF4246AA
:104F4000164639465044FFF781FA286EEB6D30441F
:104F5000834207EB06092866A8EB06068CD1802B56
:104F600028BF802351461A4604A8FFF76FFA002392
:104F7000E96D02AACDE9003304A800F055F9002834
:104F8000AED12846EA6D02A900F0A8F90028A7D101
:104F9000EB6D286670E70120704705F16403394620
:104FA00032461844FFF752FA286EEA6D3044A41BCB
:104FB000374428667BE72B6E2246193305EB8300C6
:104FC0003946FFF743FA2B6E23442B6679E7802A94
:104FD00028BF802205F1640104A8FFF737FA0023F7
:104FE000E96D04A8CDE9003302AA00F01DF90028FC
:104FF0007FF476AF2846EA6D02A900F06FF9002829
:105000007FF46EAFEA6D286654E73246284602A95F
:1050100000F064F900287FF463AF3744A41B4EE727
:10502000F8B51C460546114816460F46FFF744FEE4
:1050300021460E48FFF75AFE044620B10B48FFF701
:105040004FFE2046F8BD3A4629460848FFF762FE63
:1050500004460028F2D131460448FFF785FE044695
:105060000248FFF73DFE2046F8BD00BFBC270020E8
:105070001C2370B582B001A90546019300F032F8F7
:10508000044638B9019B1C2B07D0144C1C21284620
:10509000FFF7DEF9204602B070BDD5E90112131EFC
:1050A00018BF0123003918BF0121012628689B0081
:1050B000EA6843EA4103002818BF43F00103EE61A8
:1050C0002AB9C5E90834002BE4D1054CDEE72046B7
:1050D00043F00803C5E9083402B070BD370CF00096
:1050E0000E0CF000034618B111B10A681C2A01D059
:1050F000012070474FF47F02D2F8101C01310CBF21
:1051000040F2DC51D2F8101C4FF47F020160D2F85B
:10511000141C01310CBF40F2DC51D2F8141C4FF4C6
:105120007F024160D2F8181C01310CBF40F63401F7
:10513000D2F8181C4FF47F028160D2F81C1C013198
:105140000CBF40F63401D2F81C1C4FF47F02C16042
:10515000D2F8001C01310CBF9021D2F8001C4FF492
:105160007F020161D2F8041C01310CBF5121D2F839
:10517000041C4FF47F024161D2F8081C0020013169
:105180000CBF40F23732D2F8082C9A61704700BF4A
:10519000014608B54FF48060FFF7D6F80022034BB4
:1051A000C3F8C821C3F82C2108BD00BF00508450AB
:1051B0000138072805D8DFE800F0100E040A0404BF
:1051C000040607487047CB6800204B6270478B6825
:1051D00000204B6270474B68F6E70B68F4E700BFAE
:1051E000310CF1000B6802E0082B0B6006D8026A54
:1051F00013424FEA4303F7D000207047004870473E
:10520000310CF100002310B5064C4FF48060C4F857
:105210002C31C4F8C431FFF77DF84FF0FF33C4F8E8
:10522000083110BD005084502DE9F041002482B0B7
:1052300015461E4601220DF107030746DDF82480BE
:105240008DF8074000F08CF9D0B99DF8073004467E
:105250002F602B71B8F1000F0ED04EB102460899A5
:1052600030460DF1070300F07BF948B99DF807308F
:10527000C8F8006088F80430204602B0BDE8F0812C
:105280004FF47504204602B0BDE8F081D8B108B5EE
:105290000368012B04D0022B0FD043B10B4808BD8B
:1052A00020220B490830FFF7D1F8002008BD142256
:1052B00008490830FFF7CAF8F7E720220649083006
:1052C000FFF7C4F8F1E74FF4730070470100F300F3
:1052D000E05A0000205B0000005B00002DE9F04771
:1052E000002900F0EB800446002800F0EB80036802
:1052F00088469146002B00F0B580013B012B00F25F
:10530000C9804FF0FF3171484FF0020AFFF7B8F83B
:10531000002840F0B1800020FFF7E2F8074600289F
:1053200040F0B4806A4DD5F81069002EFBD14FF0E3
:10533000FF30FEF7EFFFD5F8040A20F40060FEF717
:10534000F7FF01230722C5F81838C5F82038C5F83B
:105350000029C5F8C437C5F8A466A36CC5F8CC37D6
:10536000E36CC5F8D037C5F8C0A723685BB1013B33
:10537000012B18D8636AC5F85C36236AC5F858361D
:10538000E369C5F85436A269514BC3F850266269E7
:10539000C3F84C262269C3F84826E268C3F84426BD
:1053A000A268C3F84026B9F1000F56D063684FF4E5
:1053B0000060012B04BF464AC2F8843698F80430D6
:1053C000D8F80010424A5B0003F00203C2F80C3B1D
:1053D000C2F8281CC2F82C9CFEF7B0FF07462368D1
:1053E00063B1013B012B19D8394BD3F85C266262BB
:1053F000D3F858262262D3F85436E361344BD3F8FD
:105400005026A261D3F84C266261D3F84826226167
:10541000D3F84426E260D3F84036A360002201218D
:105420002B4BD3F8CC07A064D3F8D007E064C3F8C3
:10543000C417C3F88426C3F8C827C3F81828C3F8CC
:105440002028AFBB0120FFF74BF868BB1F48FFF7D0
:105450001FF818BB3846BDE8F08704221C4BC3F880
:10546000C827BCE74FF0FF3118484FF0010AFFF79B
:1054700007F800283FF44FAF1648FFF797F80020D1
:10548000FFF72EF8074600283FF44CAF1248FFF70D
:105490008DF847E7114F3846BDE8F0871048FFF711
:1054A00085F83846BDE8F0870E48FFF77FF8CDE76E
:1054B000102104F10800FEF7CBFFC3E70A4F38467E
:1054C000BDE8F0874FF47307C4E700BFE410002085
:1054D00000508450DC590000F45900000100F30032
:1054E000345A0000145A00000300F300A0B303462E
:1054F00070B4D0E90240D3E9041226BA05BA0CBA56
:1055000010BAC3E90440D3E90612986A09BAC3E99C
:10551000026512BA996100BAD3E9084125BA0CBAFA
:10552000C3E90725D3E90B12C3E9094009BAD86BCF
:1055300012BAD962D3E90D4125BAC3E90C250CBAD8
:1055400000BAD3E9101209BA12BAC3E90E401964BD
:1055500000205A6470BC70474FF47300704700BF5E
:1055600000201870704700BF431810B501D21F2AE1
:1055700001D9002010BD013902F014030144102BA1
:1055800080EA01043CD009DC8BB1042BF1D11F2C43
:1055900040E840F315D941E840F10EE0142BE8D182
:1055A0001F2C40E8C0F30CD941E8C0F105E01F2CE6
:1055B00040E800F305D941E800F11C460B468C4257
:1055C000D7D122F01402013A0A2AD2D801A151F807
:1055D00022F000BF235600001D5600000F560000A9
:1055E000735500007355000073550000735500009B
:1055F0002956000023560000175600000F560000E1
:105600001F2C40E880F3DCD941E880F1D5E713F4A2
:10561000001FAFD1ADE713F4801FFAE75B02A9D5F5
:10562000A7E713F4002FF4E713F4802FF1E700BF8E
:1056300008B5074B044613B10021AFF30080054BBA
:105640001868836A03B19847204600F029F800BF24
:1056500000000000345B000070B50D4D00260D4CBD
:10566000641BA410A64209D10B4D00260B4C00F080
:1056700099F9641BA410A64205D170BD55F8043BEE
:1056800001369847EEE755F8043B01369847F2E7B4
:10569000A0110020A0110020A0110020A4110020C2
:1056A000FEE700BF002383F300887047FDF78EBB41
:1056B000EFF30880EFF309812DE9F00F6B46724696
:1056C000FBF732F908B0FFF7F1FFFEE7FDF77EBB0D
:1056D000EFF30880EFF309812DE9F00F6B46724676
:1056E000FBF722F908B0FFF7F1FFFEE7FDF76EBB0D
:1056F000EFF30880EFF309812DE9F00F6B46724656
:10570000FBF712F908B0FFF7F1FFFEE7FDF75EBB0C
:10571000EFF30880EFF309812DE9F00F6B46724635
:10572000FBF702F908B0FFF7F1FFFEE7FDF74EBB0C
:10573000EFF30880EFF309812DE9F00F6B46724615
:10574000FBF7F2F808B0FFF7F1FFFEE7814270B413
:105750000546144602D370BC00F02EB882182144CE
:105760003CB141EA020313F003030FD1E018032810
:1057700012D86FF00300A3084343002019441A44D1
:105780002344984210D1284670BC704711F8013D5F
:10579000013C02F8013DE3E7581850F8046C9818F2
:1057A00040F8046C043BE1E70C1A14F8016C141A7D
:1057B00004F8016C0130E4E770B504463AB141EAFF
:1057C000040313F003030CD1D518032D0FD822F0D6
:1057D00003031C441944002302F0030293420CD13A
:1057E00070BD11F8013B013A04F8013BE6E7CD1A20
:1057F0002E68E51A2E60043BE6E75D5CE554013354
:10580000ECE7F0B5044662B922F00303234402F04A
:1058100003021A44934214D1F0BD04F8011B013A6B
:10582000F1E7A307F9D115460B0443EA01630B43E3
:1058300043EA01231619032DE6D9771B3B60043D8B
:10584000F9E703F8011BE5E708B5EFF30583C3F3B8
:1058500008030BB1FDF7BAFABDE80840FDF73EBBFF
:1058600010B50446EFF30583C3F308030BB1FDF74E
:10587000ADFA2046BDE81040FDF733BB2DE9F041FD
:1058800004460D4616461F46EFF30583C3F308038F
:105890000BB1FDF79BFA3B46324629462046BDE850
:1058A000F041FCF76BBD2DE9F04104460D4616466C
:1058B0001F46EFF30583C3F308030BB1FDF786FA28
:1058C0003B46324629462046BDE8F041FCF790BDF4
:1058D00008B5EFF30583C3F308030BB1FDF776FAC0
:1058E000BDE80840FDF7CDBA00207047704710B5FD
:1058F000044608B1FDF7D4FF2046BDE81040FDF78F
:10590000BFBF10B50446406A10B1A16AFFF7EFFFB0
:105910000020C4E9090010BD38B50446FFF7F1FFC7
:10592000236A2C22012B0CBF05466FF0960500213F
:105930002046FFF766FF284638BD002070477047B5
:105940000020704713B5002001AB1446FEF75CF849
:1059500030B9019BA34218BF6FF0930002B010BD95
:105960006FF09200FAE7002070472DE9E04F2746DC
:10597000A046A146A246A346A446A2B02DEC000A2A
:1059800084F3008825462646A447EFF3148515F0D6
:10599000080F18BFB0EE400A3DEC000A22B0BDE887
:1059A000E08F0000F8B500BFF8BC08BC9E46704709
:1059B000F8B500BFF8BC08BC9E467047FF8FFFFFDC
:1059C000FF8FFFFFFE8FFFFFFE8FFFFFFD8FFFFFAB
:1059D000FC8FFFFFFC8FFFFFFB8FFFFF4661696CB1
:1059E00020746F2061637175697265206D757465CF
:1059F000780A00004661696C20746F20696E6372DA
:105A00006561736520504D20636F756E7465720A11
:105A1000000000004661696C20746F206465637249
:105A20006561736520504D20636F756E7465720AF1
:105A3000000000004661696C20746F2072656C651F
:105A4000617365206D757465780A0000436F756C2D
:105A500064206E6F74206C6F636B20706F7765725B
:105A60002073617665206D75746578006D75746559
:105A7000785F667265652063616C6C656420776928
:105A80007468204E554C4C20706172616D65746570
:105A90007200000043616E277420696E6974696149
:105AA0006C697A65206D757465782C207761732038
:105AB0004E554C4C0D0A00004661696C20746F20F5
:105AC000756E6C6F636B206D757465780A000000ED
:105AD0000A637478206973204E554C4C0A0000000C
:105AE00067E6096A85AE67BB72F36E3C3AF54FA56F
