:020000040000FA
:1080000000D7002011C3000069260200FDC2000055
:10801000FDC20000FDC20000FDC20000FDC2000064
:10802000000000000000000000000000D1C40000BB
:10803000FDC200000000000061C40000FDC200009D
:10804000B9C60000B9C60000B9C60000B9C6000034
:10805000B9C60000B9C60000B9C60000B9C6000024
:10806000B9C60000B9C60000B9C60000B9C6000014
:10807000B9C60000B9C60000B9C60000B9C6000004
:10808000B9C60000B9C60000B9C60000B9C60000F4
:10809000B9C60000B9C60000B9C60000B9C60000E4
:1080A000B9C60000B9C60000B9C60000B9C60000D4
:1080B000B9C60000B9C60000B9C60000B9C60000C4
:1080C000B9C60000B9C60000B9C60000B9C60000B4
:1080D000B9C60000B9C60000B9C60000B9C60000A4
:1080E000B9C60000B9C60000B9C60000B9C6000094
:1080F000B9C60000B9C60000B9C60000B9C6000084
:10810000B9C60000B9C60000B9C60000B9C6000073
:10811000B9C60000B9C60000B9C60000B9C6000063
:10812000B9C60000B9C60000B9C60000B9C6000053
:10813000B9C60000B9C60000B9C60000B9C6000043
:10814000B9C60000B9C60000B9C60000B9C6000033
:10815000B9C60000FFFFFFFF53B94AB9002908BFA5
:1081600000281CBF4FF0FF314FF0FF3000F00CB87B
:10817000ADF1080C6DE904CE00F008F8DDF804E07C
:10818000DDE9022304B07047704700BF2DE9F047D6
:1081900086468C460846089E154674461946002BAE
:1081A00040F0C1808542B2FA82F245D94AB1C2F1AB
:1081B000200300FA02FC954094402EFA03F343EAB0
:1081C0000C0C4FEA154EA8B2230CBCFBFEF80EFBBC
:1081D00018CC08FB00F943EA0C43994528D9EB1861
:1081E00008F1FF3704D2994502D9A8F102072B44C0
:1081F000A3EB0903A4B2B3FBFEFC0EFB1C330CFB88
:1082000000F044EA0344A04214D92C190CF1FF33C6
:1082100004D2A04202D9ACF102032C44241A43EA4E
:1082200007401EB1D440002334607360BDE8F0877E
:108230004746DDE76346F1E792BB431B01214FEA66
:10824000154EAFB2200CB3FBFEFC0EFB1C330CFB37
:1082500007F840EA0343984561D9EB180CF1FF3069
:1082600004D2984502D9ACF102002B44A3EB0803D9
:10827000A4B2B3FBFEFC0EFB1C330CFB07F744EA75
:108280000344A7424DD92C190CF1FF3304D2A74265
:1082900002D9ACF102032C44E41B43EA0040C0E7DE
:1082A000C2F120039540944020FA03F12EFA03F323
:1082B0004FEA154E9040AFB20343B1FBFEFC0EFBFC
:1082C0001C10190C0CFB07F841EA0041884522D923
:1082D00069180CF1FF3004D2884502D9ACF10200D4
:1082E0002944A1EB08019BB2B1FBFEFC0EFB1C1163
:1082F0000CFB07F743EA01439F420ED9EB180CF140
:10830000FF3104D29F4202D9ACF102012B44DB1BA6
:1083100041EA004193E76046E3E76146F7E76046DC
:10832000A4E76346B8E7834206D916B90021084698
:108330007CE7C6E900E0F9E7B3FA83F78FB9834237
:1083400001D3724508D8BEEB020460EB03030120A1
:108350009C461EB9002169E73846FAE7C6E9004C99
:10836000F8E7C7F1200CBB400EFA07F522FA0CF42F
:108370002EFA0CF1BA401C4320FA0CF3B8404FEA35
:10838000144901431FFA84FEB3FBF9F809FB1830C6
:108390000B0C08FB0EFA43EA00439A4540D9E31858
:1083A00008F1FF3004D29A4502D9A8F10200234413
:1083B000A3EB0A0389B2B3FBF9F809FB183308FBF6
:1083C0000EFE41EA03418E452CD9611808F1FF33B6
:1083D00004D28E4502D9A8F10203214443EA0040A9
:1083E000A1EB0E01A0FB02984145CE46434602D3C5
:1083F00006D14D4504D20138B9EB020E68EB0403F7
:10840000002EA7D0B5EB0E0261EB030101FA0CFCC4
:1084100022FA07F3F9404CEA0303C6E9003199E771
:108420004046C5E74346D9E710F8012B11F8013B58
:10843000012A28BF9A42F7D0D01A7047034611F894
:10844000012B03F8012B002AF9D17047034613F8DA
:10845000012B002AFBD1181A0138704700000000D8
:108460002DE9F04F054689B00E4600681CF0D7FF95
:1084700038B92B683048196809B0BDE8F04F18F0DA
:1084800039B9D5E900730293AB890593BB680299AA
:1084900038465B6806AA9847011E1CDBDDE9064BDF
:1084A000264B4FF0FF3AA4FB031203FB0B2303936D
:1084B00008461FA3D3E9002304910399FFF74CFE5C
:1084C000049BDFF87C909A45039B804679EB03037D
:1084D00009D26FF085012B681A481A6809B0BDE807
:1084E000F04F18F007B9A6FB044306FB0B3610A3A8
:1084F000D3E9002331462046FFF72EFEA24579EB53
:1085000006060346E5D38045BA6802D26FF015012E
:10851000E1E7059938460091146802994246A04760
:1085200001460028D7D109B0BDE8F08FAFF3008035
:1085300000CA9A3B0000000096730200002D310132
:10854000FFC99A3BB97302002DE9F04F85B08F4DFA
:1085500000AFD5F86431996811F001012DD140F6D2
:10856000034007F10C0205F07FFF0446002840F0AD
:108570000881FC68E846E36888B06A461E78844B48
:108580004FF404515361834B8348C2E906360423F8
:1085900042F8103F1AF084F9C5465EB905F1D403DC
:1085A000D3E8AF2F02F00902D3E8EF1FC3E8E02FB2
:1085B0000028F9D1204611F0CBFA002141F2030046
:1085C00007F10C0205F050FF0446002840F0D98066
:1085D000FB68E9467B60DB6888B09B466A461BF80F
:1085E000011B3B604FF0040A6C48DFF8A481C2E92C
:1085F0000601C2F814804FF4045142F810AF6648E7
:108600001AF04EF93B68DBF80410D3F80100644E11
:10861000CD4603C6786811F09BFA214641F201006D
:1086200007F10C0205F020FF0446002840F0A98065
:10863000FB6888B0D3F80CB06A469BF800107B60EA
:108640005848C2F81480C2E906014FF40451524858
:1086500042F810AF1AF024F99BF801207B6885F8E6
:108660007020BBF802201846A5F872209BF8042061
:10867000CD4685F87120BBF80720A5F87420BBF81B
:108680000520A5F8762011F063FA214641F2020098
:1086900007F10C0205F0E8FE0446002871D1FB68E2
:1086A00088B0D3F80CB07B605C466A4614F8011BB6
:1086B0003D48C2F81480C2E906014FF4045136481F
:1086C00042F810AF1AF0ECF8CD467B680BF1410B85
:1086D000324620686168083403C25C451646F7D10B
:1086E000184611F035FA08F017F80446002848D16A
:1086F00095F88A30990610D402212C4A26481AF09F
:10870000B4F895F87C305A0654D40121284A2248FE
:108710001AF0ABF86FF0120433E0072140F6334053
:1087200005F038FE0646002800F0E48107210C30F1
:108730001BF027FC452303700623C0F80240847118
:10874000447004712246C370314640F6334005F050
:108750008BFE0446A8B9012140F6314005F01AFE0F
:108760000646002800F0C68101210C301BF018FCE1
:108770002246314640F6314005F076FE0446002898
:10878000BFD020461437BD46BDE8F08F00800020E2
:10879000CC8D0200D99302002C660200BC9302002B
:1087A00078800020A493020083930200DE8D0200F3
:1087B0000C8E0200002142F2030007F10C0205F0CA
:1087C00053FE04460028DCD1D7F80CB0E946DBF8AC
:1087D0000C3088B09A466A461AF8011B7B60042365
:1087E000CB48C2F81480C2E9060142F8103F4FF4AA
:1087F0000451C8481AF054F87B68DAF80410D3F82A
:108800000100C54ECD4603C6584611F0A1F92146D8
:1088100042F2020007F10C0205F026FE0446002891
:10882000AFD1D7F80CA088B0DAF80C406A462378AC
:10883000DFF8E8B2C2F81480C2E906B304234FF4AB
:10884000045142F8103FB3481AF02AF8B4F8012056
:10885000CD4693B2D3B1E178C1B1A5F804218AB075
:108860006A46E178C2E907130523AD484FF4245165
:10887000C2E9050B42F8103FA6481AF011F8CD46A0
:10888000E278114606F128001CF033FF504611F043
:108890005FF995F87C6016F0200619D1022140F6A8
:1088A0006D4005F077FD0446002800F02381022189
:1088B0000C301BF066FB01232146037046703246E4
:1088C00040F66D4005F0D0FD044600287FF459AF16
:1088D00095F89C301B0729D5002142F21C0007F1B6
:1088E0000C0205F0C1FD044600287FF44AAFFE6883
:1088F000E946D6F80CA088B054466A4614F8013B05
:108900008849C2F81480C2E906130423814842F85A
:10891000103F4FF4045119F0C3FFDAF801206368E7
:10892000CD463046C5E9382311F012F995F8D83014
:108930009E0624D507F10A0107F1080005F040FE64
:10894000044600287FF41DAF042142F2240005F004
:1089500021FD0646002800F0CD8004210C301BF0DC
:1089600010FB3B89224603807B893146438042F2DB
:10897000240005F079FD044600287FF402AF95F845
:10898000D8305C0624D5002142F22A0007F10C02FF
:1089900005F06AFD044600287FF4F3AEFC68E94662
:1089A000E66888B06A4673785F495A4851615F4902
:1089B000C2E9061304234FF4045142F8103F19F0A2
:1089C0006FFF7378CD46204685F8203111F0C0F84E
:1089D000082142F2010005F0DDFC0446002800F009
:1089E000898008210C301BF0CCFA95F8D81040F2A1
:1089F000022311F0400F08BF0323024688074CBF33
:108A000043F02C0043F00C008B0695F8D93048BF9A
:108A100040F0400013F0090F95F8A23018BF40F461
:108A2000006003F00603CE0748BF40F01000062B9D
:108A300008BF40F4C070002119F03DFF214600221C
:108A400042F2010005F010FD044600287FF499AEC3
:108A500095F87C30B5F8041198064ED4002942D11F
:108A600041F2050007F10C0205F0FEFC0446002867
:108A70007FF487AEFC686E46D4F80C9088B06A46E6
:108A800099F80030C2F81480DFF8A4804FF4045144
:108A9000C2E9068304231F4842F8103F19F000FF83
:108AA000B5F80431B546DBB9B9F801308AB0A5F89C
:108AB00004316A46B9F8049099B21E4BC2E9079195
:108AC000C2E9053805234FF42451124842F8103FFB
:108AD00019F0E6FEB54618484A4649461CF009FE1C
:108AE000204611F035F8082140F6014005F052FC0F
:108AF000044628BB6FF0680443E60029F3D1012146
:108B00000E4A044819F0B1FE6FF0040439E600BFC4
:108B1000699302002C660200D88000204C9302006A
:108B2000308E02002F930200538E02000A9302003F
:108B3000F09202006E8E020008810020958E0200E5
:108B400008210C301BF01DFA95F8D8300246D907E1
:108B50002BD44FF00051604819F0ADFE21460022A1
:108B600040F6014005F080FC044600287FF409AE81
:108B7000014607F10C024FF6014005F075FCC0B14B
:108B8000564A0221564819F070FE1AF004F80446BD
:108B900000287FF4F6AD09F06FF9044600287FF451
:108BA000F0AD06F0A5FC0446EBE549A1D1E90001D2
:108BB000D2E7FB686D46DC688AB0B4F80130032B5D
:108BC00096BF484A484952F823106A46D3614FF489
:108BD000007346481384464BC2E9050142F8103F32
:108BE0004FF413513E4819F05BFEB4F80120AD4636
:108BF000022AB4F8033049D1052B47D83D4A52F830
:108C000023106D468AB06A46D3614FF400733A4828
:108C10001384374BC2E9050142F8103F4FF413515A
:108C20002F4819F03DFEAD466379A679032B98BF16
:108C3000324AB4F80750D4F809006C468CB094BF9F
:108C400052F8231028496A46C2E907364FF40073E8
:108C5000DFF8ACC093852B4BC2E905C1C2E90950CE
:108C60004FF4735142F8103F1D4819F019FEA54604
:108C7000F86810F06DFF00214FF6024007F10C027A
:108C800005F0F2FB044618B11F4A7AE71649B8E727
:108C9000F8681E4DC368B3F80130A5F8C13010F074
:108CA00057FF95F8C1305B077FF56FAF21464FF650
:108CB000034007F10C0205F0D7FB08B1144A60E746
:108CC000F868C3685B7885F8C03010F041FF5CE756
:108CD000908800020080002010880002B88E0200F8
:108CE0002C660200546C0200B68A0200DC8E020080
:108CF000040000013C6C0200F58E02002C6C0200A6
:108D00000D8F0200070000013A8F02000080002052
:108D1000638F020008B5044817F0ECFCBDE808407A
:108D200001201BF00FBC00BFD672020070B50646D2
:108D300088B030B10146114808B0BDE8704017F066
:108D4000D9BC0F4D0F4803AC17F0D4FC18F03CFF12
:108D50000FCD0FC42B680C492360022233460096C6
:108D600003A807F079FB014620B1084817F0C2FCC0
:108D700008B070BD064817F0BDFCF9E7F0720200BC
:108D8000B0670200107302006469020027730200DA
:108D90004D73020008B521B1BDE80840054817F041
:108DA000A9BC054817F0A6FCBDE8084001201BF04F
:108DB000C6BB00BF6F7302008B730200012B08B5A6
:108DC00010D1137843B109480949FFF749FB094815
:108DD00017F090FC012008BD04480749FFF740FB4D
:108DE0000648F5E76FF00C00F5E700BF5469020094
:108DF00000943577E473020000CA9A3BF7730200CF
:108E0000012B08B510D1137843B109480949FFF780
:108E100027FB094817F06EFC012008BD04480749EC
:108E2000FFF71EFB0648F5E76FF00C00F5E700BF03
:108E300044690200009435770C74020000CA9A3B22
:108E40001F74020010B51D4817F054FC13F0CEF843
:108E5000014628B11A4817F04DFC4FF0FF300AE0E8
:108E6000184C20461CF0DBFA30B91748216817F07F
:108E700041FC6FF0120010BD144C20461CF0CFFADC
:108E80000028F2D012491348FFF7EAFA10491248B5
:108E9000FFF7E6FA114806F04FFB044610B1014611
:108EA0000F48D8E7013404F00101002013F0BEF8A8
:108EB00000214FF4481016F077FDF3E734740200F8
:108EC0005874020060630200967302004C63020053
:108ED00000CA9A3B54690200446902002D8D0000CB
:108EE000F072020010B5094C0A44914200D110BD45
:108EF00011F8013B58400309E35C0001C0B2434054
:108F00001809205C1B01DBB25840EEE7A474020094
:108F10002DE9F04F91B0009302F004030293C2F3E5
:108F2000C2030133840705460E46DDF868900392BC
:108F3000059340F0BB81041D30B1072909D86FF0BB
:108F40001B0011B0BDE8F08F01F00706341DC6F11B
:108F50000806009B4FF000084FF0040A591E4FF01E
:108F6000FF3347460193C3465346CDF810800DB1F9
:108F7000009A22600598002800F3E8809848009A3B
:108F8000824203D397488242C0F0E080039AA4EB68
:108F9000050E92074FEA9E0000F103810F2F00F2A9
:108FA000B180002D00F0058107F140020DEB020CAD
:108FB000019A0CF8200C0CF8102C04980130049045
:108FC000E7E07A285DD84B280ED8472859D82928B9
:108FD0002DD8252852D054D820287AD02338D0F143
:108FE000000B4BEB000B74E04C382E2849D8DFE81F
:108FF00000F07048484848484848484848484B4866
:109000004848484848484859484B4B595959704B6B
:109010006D487048184B184848827F4B48484B4869
:109020007F0000204FF0000B4FF0040A38E00122CF
:109030002A38C0B202FA00F010EA0E0F49D110F03F
:10904000625C2FD110EA020B43D06046013C5444CD
:10905000B4FBFAF40AFB04F4002D61D0A3EB050C79
:10906000A4446645FFF46BAF002868D1042B47D1B8
:1090700059F8043B2360042304342AE0019A013A9E
:1090800001924FF0000B24E011F8010C6C2834D150
:10909000002011F8023C83466C2BC5D14FF0080A22
:1090A0005346D3E709F1070929F00709073424F0EB
:1090B0000704F9E802AB35B106982044B0423FF608
:1090C0003EAFC4E900AB4FF0000B08344FF0080A84
:1090D000534611F8010F002878D0BBF1000F7FF440
:1090E00070AF2528F5D14FF0010B019B013301939F
:1090F0004FF0040AECE7584694E700208346A5E7C2
:10910000082B02D06FF015001BE709F1070929F0C1
:109110000709F9E80223C4E9002308230834D8E743
:1091200068B9042B02D109F10409A4E7082BE9D19D
:1091300009F1070929F0070909F10809EDE7059A7E
:10914000013A059259F8042B009210E7039A900710
:1091500020D54FF0010CA4EB050E4FEA9E00BEF5A2
:10916000007FCFD20F2FCDD8F5B107F140020DEB24
:10917000020E019AC0B20EF8200C0EF8102CBCF1B1
:10918000000F3FF41AAF60F07F000EF8200C08F1DA
:1091900001080137C5F108024FF6DA7E0434069261
:1091A00097E74FF0000CDAE7BCF1000F01D0013671
:1091B000EFE7029802360028EBD10098CDE906319E
:1091C000FFF744F9DDE906310644E2E7631BB3F536
:1091D000806F97D245B9A6F10804E018B1E600BF48
:1091E000D461020098D00200029A9B0828602B707C
:1091F0009DF81030C2B1EB7085F80280B8F1000F15
:1092000005D0002208A8C5F1010C97420ED14FF0FD
:10921000000AC5F101030DF1200901930DF1300B96
:10922000574512D1601B8CE66B70E5E710F8013BE7
:10923000190608D504EB0C0E764503F07F03FFF406
:109240007EAE04F8013B0132DFE7B8F1000F03D036
:1092500099F90020002A17DB029BD3B11AF80B20E2
:1092600004F8012B0022019B981820448642FFF449
:1092700066AE99F80000009904F8010B20460392AD
:109280001CF066FF039A14440AF1010A09F101096E
:10929000C6E799F8002055F822300093029B009809
:1092A00045F82230FFF7D2F8421CDCE76FF00D00E2
:1092B00047E600BF2DE9F04F95B000AFBB61BB6F33
:1092C0000446C3F3C0038A4690F802B07A623B6159
:1092D00041B9457800780BEB80002044554517D8FC
:1092E000A0EB040AE3787B61BBF1000F02D0BB6FF7
:1092F000D80716D47B6953BB7B6A1BB15146204605
:10930000BA699847554628465437BD46BDE8F08FA0
:10931000461C3046FFF79AF8013030440AF1010A42
:10932000DCE7237862683B629B00FB603B6AFA6182
:1093300004EB83097B6A002B40F0FF80C8460026BF
:10934000554609EB0B0AD04551D1D94413E0BB6F08
:109350009907D1D5237899463B629B00FB606368EF
:1093600004EB8909FB617B6A002B7AD15546BBF17E
:10937000000F4FD15E46BB6F13F0050F0CBF4FF0CF
:10938000020B4FF0010B7B6909EB430ABB6F03F043
:1093900002037B62D145B6D019F8021B19F8013CD3
:1093A00054F82380AB4B984502D3AB4B984538D348
:1093B0003B69002B42D0F86917F0FCF800283DD03B
:1093C000E8468AB06A46A54B5361FB69C2E906319B
:1093D0004FF400731384A24B42F8103F00234FF464
:1093E0001251A04801F070FD023DC546D2E718F8C1
:1093F000013B54F82300FFF729F8FB6F01303BB124
:10940000D7F880309E423EBFFB6F23F8160001362E
:10941000054498E7BB6F13F004061CBF7E6AD9446D
:10942000A9E73B6923B1F86917F0C4F80028C7D150
:10943000BB6FDA0705D4A5EB0B05ABE77B6A002B06
:10944000A8D04046FFF702F8FB6F43B1D7F8803051
:109450009E423FBFFA6F431C22F816300136054486
:1094600098E7BBF1000F6ED0BB6F13F004066DD010
:10947000D846002607F140005A4649461CF068FECF
:109480007B69D9445B007B607B6909EB4303BB606C
:10949000BB6F03F002033B60BB684B4558D1B96F0B
:1094A0006378B86F890748BF002106EB030258BFF5
:1094B0004FEA5801C507D2B200F19A8010F0040FAC
:1094C00014BF40460020FB616270A070E17020462E
:1094D000BA69F9687B6A9847051EFFF614AF3B6AC4
:1094E00041462370FB69BA6963707B6984F802B0F6
:1094F000E37007F140007B6A9847B0F10008C0F2C2
:10950000A480FB68AAEB0B01C91A7B684846C91AFC
:10951000BA697B6A98470028C0F299804FF0000B27
:10952000A84408EB000507F1300AB34562D30021D7
:10953000BA6908467B6A9847E5E65E464FF0000840
:1095400007F1300098E75E46D84699E7B04697E7BE
:1095500019F8021B3F4B19F8015C54F8250098429A
:1095600002D33D4B98421DD33B6923B1F86917F0F4
:1095700021F8002890D13B68FBB908F1280307F1D6
:10958000280208F1010003EB020C07F1500308F177
:10959000020853FA80F00CF8101C5FFA88F800F803
:1095A000105C79E73B692BB1F86917F003F80028E4
:1095B0007FF472AFBB6FDB0709D506F1280307F113
:1095C0002802711C9E1806F8205CCEB264E7BB6FBF
:1095D00058077FF561AF08F1280307F1280208F169
:1095E000010103EB020808F8105C5FFA81F853E709
:1095F000002068E71BF80A3054F8239087F82F30D2
:10960000FB6FFBB133F81B800121BA697B6A07F15C
:109610002F00984700281ADB0544B8F1000F06D147
:109620004846FEF713FF00F101081FFA88F841468B
:109630004846BA697B6A9847002808DB05440BF165
:10964000010B72E7D7F87C80DEE745465BE605460E
:1096500059E600BFD461020098D00200B474020041
:10966000040000017C660200014B1860704700BFD7
:109670007881002080B505460E461746984616F0BC
:10968000ADF903461CF09CFD0446DFF818904246F5
:1096900049F8003039463046A84754F8090002F02E
:1096A000B1FE00BF080000002DE9F047058B04461D
:1096B0002807904611D4022905F0070540F0CD8017
:1096C000204617F0D3FA78B10138218B042811D83D
:1096D000DFE800F0C3106D85950001290CBF45F04F
:1096E000100545F02005258388F31188BFF36F8F9F
:1096F000BDE8F08701F0070AAA4500F0A680002720
:10970000B9463E46A368002B00F0BD8041F0080139
:10971000218388F31188BFF36F8FA168002900F0BF
:10972000BB800D68002900F0B780334652462046C2
:10973000D1F80480C047002D76D02B6829461D46FD
:10974000F0E701F007035A1F012A1BD8002221F07D
:109750000701062B276889B2C4E9002209D13B46DC
:1097600003E0628B013262831B68002BF9D141F068
:1097700002012046218317F079FA00287BD041F0BE
:10978000200177E0042B0AD121F0070189B220469D
:10979000218317F06BFA10B141F020012183218B56
:1097A00001F0070AAA4550D00027B946AAE7236965
:1097B00021F0070141F00601062DD3F80090218326
:1097C0002DD1B9F1000F40D041F00801218388F379
:1097D0001188BFF36F8F20463949C84729E021F02F
:1097E0000701236941F0040189B2042DD3F80490E4
:1097F0002183E6D000274FF0040A3E4682E721F09D
:109800000701236941F0050189B2052DD3F80890BD
:109810002183D6D000274FF0050A3E4672E7002785
:109820004FF0060A3E466DE72B4687E7B9F1000F79
:10983000D1D14FF02003EFF3118883F31288BFF3E7
:109840006F8F238B23F008032383258BEA062ED505
:1098500025F01003238305F007056669218B002E90
:10986000BFF66FAF00232768C4E9003321F007017A
:1098700041F001012183218B4FF0000901F0070A1B
:10988000AA457FF43FAF002F9BD041F00801218310
:1098900088F31188BFF36F8F002FC7D03D6839461A
:1098A00033465246204617F00DFA2F46F4E7AB0632
:1098B0007FF51AAF25F02003238305F00705FFE6A7
:1098C000F10C02002DE9F0418389056800AFE846FC
:1098D0000E0C8AB0090C04466A4603FB0155360497
:1098E00013620523114951611149C2E9061542F875
:1098F000103F00234FF424510E4801F0E5FAC5460D
:10990000A06AA289836829469B68984750B9E26A91
:1099100031462046A389127917F044FD002818BF6C
:109920006FF00500BD46BDE8F08100BF687502001C
:109930002B770200A46602002DE9F04782B06C4646
:1099400000AF88B080460D464B886A461C4951617D
:109950001C49C2E90613042342F8103F00234FF4C8
:109960000451194801F0B0FA0821A546D8F82C0096
:1099700017F03DFD81462C68DFF850A0241A2C60BA
:1099800004EA0A06B44204D800200837BD46BDE800
:10999000F08708233A462146404617F0B3FC0028DA
:1099A000F3D13946404617F02CFD30B17B88BA8898
:1099B00006EA0A0613441E442C60A4EB0904E1E7FE
:1099C0008975020016770200A46602000000FFFFFE
:1099D000F0B583B06E4600AF88B004464FF6FF7511
:1099E0006A4683880F4951610F49C2E9061304236F
:1099F00042F8103F4FF4045100230C4801F064FA80
:109A00000023BB80A368B54638467B803D80BD718E
:109A100017F0BFFC3946204617F0AFFD0C37BD46A6
:109A2000F0BD00BFB0750200FB760200A466020024
:109A30002DE9F04F95B0044600AF0821C06A17F039
:109A4000D6FC0546636820461B0C1B0407F10C017D
:109A5000FB6017F065FCFB68A68907F118021E443D
:109A6000761B0823314620463E6117F04BFC021E50
:109A7000C0F2C780E36A07F118021979002312F8CF
:109A8000010B814240F0AA800133082BF7D1A36873
:109A900062682B449A4280F099802046F968FFF76B
:109AA00011FF0246ADE07B8B360C36041E443E614E
:109AB00007F12002204607F11001D7F810B017F087
:109AC000D8FC0246002840F09C80204607F1200187
:109AD00017F097FC18B97B689B45E9D1D7E7636815
:109AE0007B6107F12802204607F114017E6917F017
:109AF000C0FC0246002840F084803A8D3B8C9A429C
:109B00003BD062687B699A42EBD15E45E3D1BB8C66
:109B1000002BE0D06E468AB0398C6A46136205236A
:109B20003A4850613A48C2E9060142F8103F002322
:109B30004FF42451374801F0C7F94FEA1B43B7F8F7
:109B400022801B049844A368B54607F120007B845B
:109B500017F01FFCE36AB7F824A01E68764206F0EF
:109B60002006BAF1000F10D1204607F1200117F0AE
:109B700004FD02460028AED043E0204607F128014C
:109B800017F03FFC0028BCD0BFE75645B14628BFC0
:109B9000D14607F130024B464146204617F0B2FB52
:109BA000024670BB4B46A16807F13002204617F011
:109BB000AAFC49460246E06A17F019FCA368034470
:109BC000A360F2B9AAEB090AC844CAE72046FFF726
:109BD000FFFE024600283FF460AF12E0731B2046F0
:109BE00007F118017B6017F026FC00287FF45BAFBB
:109BF000204607F11001FFF79FFE024600283FF4C0
:109C000057AF10465437BD46BDE8F08FCD75020002
:109C10000F770200A46602002DE9F04704468AB0DF
:109C200000F1140738461BF0C6FCA06A8368DB68A5
:109C30009847E06250B9864A0121864817F07DFBBB
:109C40006FF0150528460AB0BDE8F087A06A836862
:109C5000DB6898470368013B1F2B01D97E4AEBE77D
:109C6000A06A216807AA1AF012FB08B17B4AE3E751
:109C7000A5892DB1089BB5FBF3F203FB12550DB17D
:109C8000774AD9E7E389012B01D8764AD4E7E36A1A
:109C9000029593F804904FF0FF334FF0FF323846AF
:109CA00014F004FF0821E06A17F0A1FBA84606465D
:109CB000E3891FFA85FA534508D8E389434523D140
:109CC000384615F007F86FF02C05BBE7A1892B0487
:109CD000891B13FA81F14A4608232046029117F0A6
:109CE00061FB78B1204602A917F01AFB08F10108C0
:109CF00008234A46204602991FFA88F817F052FBBB
:109D00000028DAD00135D3E753450BD10299082357
:109D10004A462046891B17F045FB18B9204602A980
:109D200017F0FEFA204602A9FFF706FE054618B115
:109D3000384614F0CFFF85E7029B4FEA13484FEAFD
:109D400008486360C4F80880D4E9011399420FD32E
:109D50000823204603AA17F0D5FA05460028E7D1C4
:109D600003AB13F8012B91453DD10135082DF8D1F6
:109D7000636820461B0C1B0402A9029317F0D0FA5B
:109D80004A462046A389029917F00CFB051ECFDB3B
:109D900063687BD04FF6FF7906EB0308A3891FFAAF
:109DA00088F29B1B9A42CDF8088038D303212E4AB3
:109DB000284817F0C2FA20466168FFF783FD054680
:109DC0000028B5D16368294AA18913400B44A3EB4D
:109DD0004603636013402046A360FFF729FE054653
:109DE000002D6FD0A4E7204603A917F00AFB626894
:109DF00010B9921B6260A7E7BDF81050BDF80E10B5
:109E0000E06AC4F80880294417F0F1FA404490420F
:109E1000A060EED1002DECD06FF01C057DE0082392
:109E20004146204605AA17F06DFA054600287FF442
:109E30007FAF204605A917F0E4FA38B1BDF8143019
:109E40004B4503D1BDF81830002B6CD0B044A5E7CA
:109E5000F7750200A4660200197602003676020049
:109E60004E76020062760200BF7602000000FFFF1D
:109E70004A4620465B1A17F095FA051EFFF658AFC2
:109E800008D0E26AA36812681344A360D4E90131E0
:109E90008B42EDD86168A38901EB46029A429FD1BB
:109EA000DFF8A880A26801EA08039A4298D0204609
:109EB000FFF708FD054600287FF43AAF636803EA20
:109EC0000803A360A389A288A3EB46039A4220D08B
:109ED000384614F0FFFE0123A2892374E38903218D
:109EE00000921B481B4A17F001FE63689AB2009269
:109EF0000321194A16481B0C17F0F8FDA3689AB203
:109F000000920321154A12481B0C17F0EFFD0025A3
:109F100098E62046FFF75CFD0546384614F0DAFE69
:109F2000002DD8D08EE60E4A0321094817F005FA15
:109F3000636820461B0C1B0402A9029317F0F0F97A
:109F400020460299FFF7BEFC49E700BF0000FFFF73
:109F5000A4660200857602009C760200AE760200BE
:109F6000E67602002DE9F04F1D46037C0446894643
:109F7000904689B053B90121644A654817F0DDF96C
:109F80006FF00C06304609B0BDE8F08FC26A0821B8
:109F9000104617F02CFA82462946104617F027FA89
:109FA000A3890746A3EB8A03AB42C0F0AB801DB187
:109FB000B8F1000F00F0A68063680393204604AA5E
:109FC00003A9DDF80CB017F054FA06460028D9D1E1
:109FD000BDF810304B4505D06268039B9A42EDD125
:109FE000E5B9CFE7204604A917F00BFA0028F3D013
:109FF000BDF81200BDF8143075B1AB420ED14FEA76
:10A000001B41090401442B464246204617F097F9AC
:10A01000002803DC0646B5E7002BB3D0002F3ED165
:10A0200004F1140301934FF0FF324FF0FF3304F1BA
:10A03000140014F03BFDDFF8DCB0E3899E425ED0F3
:10A04000D4E90123F9188A422CD3ADF81A30FF2342
:10A0500006A88DF81E30ADF81890ADF81C5017F01A
:10A0600098F92B464246A168204617F04CFA29463B
:10A070008246E06A17F0BBF9A2680244A260BAF116
:10A08000000F07D1204606A917F077FA002814BF61
:10A090008246AA46019814F01DFE564672E75744C0
:10A0A000BFB2BDE70821E06A17F0A1F94FF6FF73D0
:10A0B0000021ADF818308DF81E30A389ADF81C10C2
:10A0C000111802EA0B021A44101A606006A8ADF8D3
:10A0D0001A1017F05EF906A9204617F04EFA20462E
:10A0E000211D17F01DF96368204603EA0B03A360E6
:10A0F000FFF79EFC82460028CCD101369DE76FF029
:10A100001B0AC7E76FF015063CE700BFE3750200C6
:10A11000A46602000000FFFF2DE9FF471E46037CF6
:10A1200004460F469046BDF830904BB92C480121AB
:10A130002C4A17F002F96FF00C0004B0BDE8F0876C
:10A140000821C06A17F053F9A389A3EB4003B34277
:10A1500043D30025D4F804A0CDF804A04D455146C2
:10A16000DDF804A009D9636853451ED1BDF8083055
:10A17000BB421AD06FF00100DFE7204602AA01A916
:10A1800017F077F90028D8D1BDF80830BB4206D1C6
:10A19000204602A917F035F908B10135ADB2626861
:10A1A000019B9A42DAD15146E0E7BDF80C30002B12
:10A1B000E0D0A945DED8BDF80A00090CB3424FEA49
:10A1C000014128BF334601444246204617F09AF821
:10A1D0000028B2D1BDF80C00AFE76FF01500ACE776
:10A1E000A4660200E375020010B530B90B480C49B3
:10A1F00017F0DFF96FF0150010BD836833B9074819
:10A20000084917F0D6F96FF00400F5E71B6813B1A1
:10A21000BDE8104018471846EEE700BFAC660200E4
:10A22000497702005A77020010B530B90B480C4943
:10A2300017F0BFF96FF0150010BD836833B90748F8
:10A24000084917F0B6F96FF00400F5E75B6813B141
:10A25000BDE8104018471846EEE700BFAC660200A4
:10A26000497702005A7702002DE9F8430C4616465A
:10A27000054600AF08B101B142B91D481D4917F0AC
:10A2800098F96FF01500BD46BDE8F883D0F8088056
:10A29000B8F1000F02D0D8F80C3033B91448164981
:10A2A00017F087F96FF00400EDE71368134AE946E9
:10A2B0008AB0002B08BF13466A4611495161114903
:10A2C000C2E9061340F2013313840F4B42F8103FEA
:10A2D00000234FF41451064800F0F6FD214641F8E2
:10A2E000045BCD4632462846D8F80C309847CAE77A
:10A2F000AC660200787702005A7702002ACD02008D
:10A30000A4770200E77702000400000110B50446BC
:10A3100030B91048104917F04CF96FF0150010BD16
:10A32000006830B90B480D4917F043F96FF0010090
:10A33000F5E783680BB11B6933B90648084917F084
:10A3400038F96FF00400EAE7616898470028E6D121
:10A350002060E4E7AC660200BD770200CE77020021
:10A360005A77020070B51346044630B910481149B7
:10A3700017F01FF96FF0150070BD006830B90C4878
:10A380000D4917F016F96FF00100F5E782680AB180
:10A39000956835B90648094917F00BF96FF00400C4
:10A3A000EAE70A46AC466168BDE87040604700BF16
:10A3B000AC660200BD770200CE7702005A77020039
:10A3C000034A13680BB9526813600020704700BF3E
:10A3D0007C81002030B50C460E4985B00291D0F842
:10A3E000AC110546CDE9003100F1E0014FF0FF333B
:10A3F000204613F0B5FD50B9012384F86430D5F838
:10A40000A83123B1204605B0BDE83040184705B05B
:10A4100030BD00BFAB16020038B50C4611460546EC
:10A4200017F045F9034638B92846044917F03FF9B3
:10A4300003460020236038BD0120FBE72ACD02003F
:10A440002DE9F04F012381460569466885B005F581
:10A450005B77D7E8EF2F002A03D1C7E8E13F002957
:10A46000F7D10CBF1A46002240F0B180B368B16A40
:10A4700005F5E4781C1F104617F09EF984425FD85A
:10A48000013A00F09E80B2FA82F24FF00044D440CC
:10A4900072682046073222F00302C5F86022B16AD2
:10A4A00017F08AF9C5F86402B36A40466343033380
:10A4B00023F0030302EB4302230103EB44030933BC
:10A4C00023F0030303EBC403C5F858221A440832EF
:10A4D000C5F854227368C5F85C42C5F850323D4B4C
:10A4E000C5E9A963316800F0DFF9044630BBD9F84B
:10A4F00004A0D9F81090DAE9073409F5307B012B74
:10A50000584608BF103C1BF0D4F90023DAF82400A9
:10A5100031494FF4806201EB802100935846234675
:10A5200014F04AFE09F52C702C491BF068F9DAF892
:10A53000140083685C682CB96FF05704002139E07F
:10A54000013298E74B46264ADAF81810A04704462D
:10A550000028F3D1DAF8140083681B69002BEBD0D4
:10A560000122DAF81810984704460028E6D11D4B5E
:10A570002846C5F8A8311C4BC5F8AC311B4B0393DA
:10A58000D5F810320293D5F80832CDE90083D5F81A
:10A590006832B26AD5F8681300F04EF90446002814
:10A5A000CCD105F1E00013F089FD0028C5F8700357
:10A5B0000ADB0221384617F0AFF8204605B0BDE8A7
:10A5C000F08F6FF00B04B9E76FF01504B6E76FF08A
:10A5D0007704F2E70117020080A40020E7160200CA
:10A5E000DB160200F1A500008F18020049170200D7
:10A5F00013B5044640B100230122CDE90032074BD8
:10A60000D0E9091213F060FCA36E1B6823B1E06E61
:10A6100002B0BDE81040184702B010BD2ACD0200BC
:10A6200013B504460846216901F55B71D1E8AF1FF7
:10A63000022910D193B1A0B10121CDE90031134617
:10A64000D0E9091213F040FC074B984208BF6FF0A5
:10A650000B0002B010BD6FF00F00FAE76FF04C0076
:10A66000F7E76FF00100F4E72EF8FFFF2DE9F7435D
:10A6700088461546066906F55B73D3E8AF3F022BA3
:10A680005FD1136823B96FF0150003B0BDE8F08304
:10A690001B78002BF7D0D6F86893B9F1000F33D1AF
:10A6A00006F5D8774FF0FF324FF0FF33384614F0FD
:10A6B000FDF930462A6801A9FFF7AEFE019C1CB9DE
:10A6C000384617F027F8DEE705F10803A3666B6943
:10A6D00084F86490E366E46360B1384617F01AF8D2
:10A6E00021463046236E2A68FFF774FE0020C8F822
:10A6F0000040CAE72022296804F140001BF0B6FCA4
:10A70000384617F007F8F1E730460F4916F0CFFF4B
:10A7100004460028B7D005F1080383666B69C0635F
:10A72000C366002380F864302022296840301BF083
:10A730009DFC22460121304600F060F80028D5D06B
:10A74000A1E76FF00F00A0E72ACD020010B50C467C
:10A75000006900F55B73D3E8AF3F022B0FD189B1DD
:10A760000A4900F52C701BF088F820461AF0C2FB4D
:10A770007022002120461BF012FD002010BD6FF05A
:10A780000F00FBE76FF00100F8E700BF9098002092
:10A790002DE9F04F05460E4690460027D0F8B0A0B0
:10A7A00085B0AAF5AE7421463046FDF73DFEE0B90E
:10A7B000114BA4F1400B0293DAF810303246CDE988
:10A7C000008329464FF0FF335846AAF5CE7913F09F
:10A7D000C7FB60B97023012203FB079383F8642051
:10A7E000DAF80C300BB158469847703417B105B001
:10A7F000BDE8F08F0127D6E7BD1802001FB514464B
:10A8000090B18AB1012912D10A4B00F1E001029303
:10A81000D0F8AC31403201934FF0FF332046009323
:10A8200013F09EFB04B010BD6FF01500FAE7002096
:10A83000F8E700BFBD1802002DE9F04387B00E46CF
:10A84000DDE90E811446DDE910251F4630B329B33A
:10A85000DFF850C000F1E009002D08BF65469EB941
:10A86000CDE9034400F5CE74204605961AF067FD45
:10A8700003ABCDE900432A463B464146484613F028
:10A8800043FC07B0BDE8F083002241460E924846E3
:10A890002A4607B0BDE8F04313F062BD6FF0150023
:10A8A000EFE700BF91A70000F0B50E46044689B05F
:10A8B00000286FD001230246C3630023D0F898100C
:10A8C000364F403040F80C7C42F8301FCDE9013360
:10A8D0004FF0FF330093C36D19F0F1FF304A06AB20
:10A8E00092E8030083E80300184613F0FFF90546D9
:10A8F000D8B904F1340013F0DBF90546A8B939469C
:10A90000284805AA19F0B7FF054670B9059B9A6853
:10A9100072B10C33D4F89400C4F8A03016F0FFFFE5
:10A92000C4F8D40030B96FF00B05284609B0F0BD6B
:10A930000346EFE7D4F8940016F0F1FFC4F8D8000E
:10A940000028F0D0D4F88C30D4F8A010C4F8A83087
:10A950000423C4F8AC30C4F8C4300223A362124B01
:10A96000B4F89420D4F8D470C4F8B810C4F8D01057
:10A97000D4F89010236204F1A403A4F8B020C4F822
:10A98000A470C4F8C010A4F8C820C4F8BC00A66124
:10A99000E362CAE76FF01505C7E700BF167802004B
:10A9A000C467020020780200A06902002DE9F04788
:10A9B000044607464FF00109DFF8508014B93846C5
:10A9C000BDE8F08794FAA4F5B5FA85F509FA05F320
:10A9D0002E0108EB05156FEA030A24EA03042B7B1A
:10A9E000002BEBD058F806301B694BB9464473680E
:10A9F00004222846196807EA0A0700F051FADDE741
:10AA0000284698470028D9D1F0E700BF2467020004
:10AA100030B5002289B00F490F481BF05FF90022C2
:10AA200000230024CDE906230E230C4DCDE9033489
:10AA30004FF440722846CDE90144094B094900947E
:10AA400013F082FF084928461AF0A2FD204609B0FB
:10AA500030BD00BF6DAA000010900020808B002048
:10AA600045AD000080A8002028780200014814F0BD
:10AA7000DFB900BF748600202DE9F04780461F48EB
:10AA80000F4616F09EFF0646002830D000252846C7
:10AA9000BDE8F087237B73B12368DB680BB12046E8
:10AAA000984723681B69D3B9636804222046196854
:10AAB00000F0F6F9013610344C45EBD3B8F1000F35
:10AAC000E5D0002DE2D02846FFF770FF0546002FA5
:10AAD000F7D000214FF4A47014F066FFF1E7204690
:10AAE00098470028E0D00AFA06F31D43E2E705463E
:10AAF0004FF0010A024CDFF80C90DDE7C898002007
:10AB00002467020034670200014B53F820007047AD
:10AB1000E069020008B5034608462BB1044A1360F9
:10AB200000F072FC002008BD6FF01500FBE700BFCD
:10AB3000A881002010B5044C237813B9034814F001
:10AB400077F90123237010BD349F00207486002004
:10AB500010B50446064816F034FF3CB1054BD3E867
:10AB6000EF1F0139C3E8E21F002AF8D110BD00BF72
:10AB7000C0980020C498002000200146034BD3E871
:10AB8000EF0FC3E8E21F002AF9D17047C0980020F8
:10AB900070B5FFF7F1FF0546074C084EB44200D3ED
:10ABA00070BD63685B792BB123685B6813B129467C
:10ABB000204698471034F1E724670200346702000A
:10ABC00010B5044C0449204616F041FA034B1C60B2
:10ABD00010BD00BF74850020CC690200B898002029
:10ABE00008B50023074A4FF400411370064A07488E
:10ABF0001360074A1360FFF78DFFBDE80840FFF7B9
:10AC0000DFBF00BF359F0020C0980020BF190200A1
:10AC1000C4980020014600220023014816F038BAEB
:10AC200074850020014816F0D1BA00BF7485002059
:10AC3000024B0146186816F01BBB00BFB8980020F5
:10AC4000014816F051BB00BF7485002070B5264B3B
:10AC50001878002847D0FFF7E5FF054670B1234B71
:10AC6000D3E8EF1F0139C3E8E21F002AF8D1204CD6
:10AC7000204EB4422DD32846FFF7DAFF1E4B1F4C5F
:10AC80001B68002B19DD1AF0E2FF4FF47A72A0FB6B
:10AC9000020302FB0131C30B43EA4143D4E9002024
:10ACA0009B1A40F2E9324FEAD13161EB0001934245
:10ACB00071F1000101D3FFF76BFFD4E9003213F506
:10ACC0007A7342F10002C4E90032BDE87040FFF738
:10ACD000B7BF63685B7923B12368294620461B68A8
:10ACE00098471034C5E770BD349F0020C4980020F9
:10ACF0002467020034670200C098002008900020FA
:10AD000070B50D4D297861B90120FFF7B5FE0B4CE8
:10AD10000B4EB44206D3FFF799FF0028FBD1012365
:10AD20002B7070BD63685B791BB1236820469B68FC
:10AD300098471034EDE700BF359F002024670200DC
:10AD40003467020000212DE9F0470846FFF794FE22
:10AD5000044658B340F267684FF000091BF030FA20
:10AD60001B4B1C4A1B58136033B11B4B1B68092B30
:10AD700002DD1A4814F05CF80025194FDFF85CA0DA
:10AD800044B12046FFF712FE044618B94FF0FF38D1
:10AD90004FF0FF39FFF75AFF064628B9B5B94246CA
:10ADA0004B46504614F06AF83546E9E74FF0FF3855
:10ADB0004FF0FF39D2E72B689B691BB10022284670
:10ADC000114698471035BD42F5D3E8E7054DFAE73F
:10ADD00008000000BC980020C49800207486002061
:10ADE000346702002467020013B5184816F0E9FD25
:10ADF000174B1B787BB14FF02003EFF3118483F3E3
:10AE00001288BFF36F8FFFF721FF84F31188BFF320
:10AE10006F8F02B010BD0F4B1B68002BF9D050B9DB
:10AE2000002200230C48CDE900234FF40042002308
:10AE300014F0B8FFEDE70928EBD107481AF05AFFE4
:10AE4000064802B0BDE8104013F0F2BFC4980020DD
:10AE5000359F0020BC9800201090002074860020B0
:10AE600010B5064B04461B6898472146A06004486D
:10AE700016F08CF9BDE81040FFF7B6BFA88100209E
:10AE800074850020044A054B9B1AB1EBD30F34BFE5
:10AE900052F8310000207047F46502002467020078
:10AEA000084B10B4C31A44681B1101332371436863
:10AEB0009A7101224368196043685A7110BCFFF708
:10AEC00039BE00BF246702002DE9F04F8FB0C1F3F7
:10AED0004A2804AF0D469146B8607B600C0DB8F16E
:10AEE000000F63D000264FF0040B4FF00A0A07F161
:10AEF0001403C7F80C80C7E907667E620193CDF89A
:10AF000008B0CDF800A007F11C0332464846F968A6
:10AF1000FEF7D0F9B0F5006F03461CD36C468AB03B
:10AF2000D9F8041004AB26481A46C3E9050140F2DB
:10AF3000FF71D9614FF400711984224B42F8103F20
:10AF40004FF4125133462048FFF7BEFFA5462C3779
:10AF5000BD46BDE8F08FC0F30A0804F1170018449D
:10AF600020F0070080083B60FFF754FE68F353258C
:10AF7000044690B13B6800F11001C7E9083607F1BB
:10AF80001403F961CDE900A3CDF808B048460F4A93
:10AF9000F96807F11C03FEF78DF968F353252A467B
:10AFA00020467B68B96816F03EFDD0E704F1170033
:10AFB00020F007008008FFF72DFE0446EDE700BFF4
:10AFC0003D78020004000001B4660200FB19020093
:10AFD0002DE9F04F87B00446DDE9105ADDE912692A
:10AFE0000F4693469846A6B310213346524600209A
:10AFF000CDF80090CDF81490FDF78AFF014605F1D9
:10B0000017000844144B04F007040BF0070BE4008E
:10B0100020F0070003EA412344EA8B1480081C4314
:10B020000391FFF7F7FD44EA0554054640B13EB1F0
:10B03000334652460399CDF800901030FDF768FF73
:10B04000434622463946284607B0BDE8F04F16F081
:10B05000EABC3146D3E700BF00FE0F000EB403B5D3
:10B0600003AB53F8042B01460448019301F0DCFDC7
:10B0700002B05DF804EB03B0704700BF391B02005B
:10B08000CA0605D48B064CBF02490349FFF7E6BF49
:10B09000704700BF29CD020028CD02002DE9F04FF6
:10B0A00089B09B46DDE916769DF84C300446049342
:10B0B000DDE914930593049B0D460692002B00F0E6
:10B0C000878006F00803079316F095FC06F0020A45
:10B0D000024600284BD020468549FFF7BFFF804637
:10B0E000BAF1000F08D016F0440F42D12A4620468C
:10B0F0008049FFF7B3FF804406F001035BB17E4B4C
:10B10000049A204653F822207C4B7D49002A08BF30
:10B110001A46FFF7A3FF06F00803002B55D0794B22
:10B12000049A204653F822207749FFF797FF0546F7
:10B13000069B2BB11A4620467449FFF78FFF054442
:10B14000BBF1000F05D05A4620467149FFF786FF34
:10B1500005444544B9F1000F49D1002F4FD1F30701
:10B1600000F1C08031462046FFF78AFFB4E08046F8
:10B17000B6E7684B18680028BDD0674B4FF47A7E5D
:10B180001B684FF46162B5FBF3F5B5FBF0F300FB10
:10B1900013550EFB05F5B3FBF2FAB5FBF0FC3C21B1
:10B1A00002FB1A3200FB1C55B2FBF1F30EFB05F556
:10B1B000B5FBF0F501FB132220460092CDE901C555
:10B1C00052465649FFF74AFF95E706F00805AFE7F4
:10B1D000BBF1010F06D1B9F1000F64D1002F7BD074
:10B1E00000250CE0B9F1000FF8D04D485CE04D4867
:10B1F0004B4622464C4915F0ACF9002F68D0DFF8D9
:10B200002C91DFF82CA1102F31462046B8464FF084
:10B21000000B28BF4FF01008FFF732FF5D4545DCFB
:10B22000059B514620461A78FFF718FF4FF0010B97
:10B230001BF0070F03D149462046FFF70FFFD84503
:10B240003BD9059B5146204613F80B20FFF706FF1C
:10B250000BF1010BBBF1100FEAD14FF0000B2046B0
:10B260003449FFF7FBFE5A46059B20469A5CA2F143
:10B2700020015F2928BF2E222F49FFF7EFFE0BF197
:10B28000010BBBF1100F1DD01BF0070F03D1494676
:10B290002046FFF7E3FED8455A46E5D84946204602
:10B2A000FFF7DCFEEBE71F48049DA1E74946204677
:10B2B000FFF7D4FE0BF1010BB0E720461F49FFF763
:10B2C000CDFEC5E7059BB7EB0807434405939AD12C
:10B2D000049B002B7FF443AF204609B0BDE8F04F3C
:10B2E00016F01DBC2046054A0549FFF7B7FE39E7B1
:10B2F0008178020085780200F06902007C78020003
:10B300005BC00200046A0200AA780200B078020062
:10B31000B4780200D0980020CC9800208E780200EB
:10B32000671B0200391B020029CC0000F4CC02008C
:10B33000B9780200BF7802003ECF0200F2CC0200D2
:10B340002DE9F0410F884B6805460C4690468E6803
:10B3500086B0C7F382175BB1144A9B1A43F3CF013F
:10B36000002920DB2078C0F3C200FFF78BFD0346E5
:10B37000214651F8102B6088C2F34A22002A01EBC3
:10B38000020408BF00210022C0F30B10CDE904081D
:10B39000CDE902142846314601970092FFF77EFE60
:10B3A00006B0BDE8F0810023E2E700BFF4650200CB
:10B3B00042F20F7373B58B4228BF0B4605680446F3
:10B3C000052168460D4A14F0D7FD064663682846F5
:10B3D0000B225B680A4916F095FB636832466946A2
:10B3E00028465B6816F08EFB63681B2228465B6864
:10B3F000044916F087FB02B070BD00BFFCC5020017
:10B40000DD780200C178020000210123064A904243
:10B4100006D8064A01B901231360054B186070472E
:10B42000012140085B00F2E740420F00CC98002069
:10B43000D09800200122014B1A707047369F0020DF
:10B44000014B002019607047E89800200122024B50
:10B4500002481A7016F063BB379F0020346A02005E
:10B460000148FFF7A5BF00BF346A020010B5064BC4
:10B470000C461868FFF748FB2146BDE8104003461C
:10B480000F220248184700BFE8980020346A0200E3
:10B4900010B9074B18707047064B1B781BB141F26F
:10B4A000883019F0B7BFA420002114F07DBA00BF86
:10B4B000369F0020379F00202DE9F84380460E4636
:10B4C0000424DFF870901C4F99F8005095B913F0E0
:10B4D00007F828463246414612F088FF054613F029
:10B4E00009F8E5B101233B7099F8003073B9304693
:10B4F000BDE8F88332464146002012F077FF05464A
:10B50000EFE72046651EFFF7C3FF2C46002012F030
:10B51000DDFF0028EBD03B78002BF2D1E7E73B784A
:10B52000002BE4D0013C2046FFF7B2FF3B78002B14
:10B53000CAD1DCE7379F0020369F0020014B036013
:10B5400000207047446A020070B5114B0D461C681C
:10B55000DCB1104B196800238B4202DB6FF0010055
:10B5600070BD224612F8106B864202D01446013399
:10B57000F2E7E06810B96FF01200F1E719F04FFF41
:10B580000028F8D000202C60EAE76FF00C00E7E715
:10B59000C0810020446A020070B588B005460C46A0
:10B5A000C0B269461646FFF7CFFF00281BDB0098A4
:10B5B000C8B143682268029383680195CDE90336D8
:10B5C0000023CDE906230593C56816F0DAFA6DB1BC
:10B5D0002846084901AA18F05EFE079808B9059B9D
:10B5E000236008B070BD6FF01500FAE76FF012002D
:10B5F000F7E700BF851B02002DE9F0410F4B054620
:10B600001C680E461746ACB14FF0FF324FF0FF33C7
:10B610000B4813F04BFA63683246D3F8088029468A
:10B620003B462046C0470446054813F053FB2046DE
:10B63000BDE8F0816FF00104F9E700BFEC9800204D
:10B640003486002000230360044B5A6812B9C3E912
:10B650000000704710605860704700BFF0980020ED
:10B66000014B1860704700BFEC980020002330B5F4
:10B6700085B00546CDE9023301904FF0FF334FF01E
:10B68000FF320B4813F012FA0A4B1C684CB92846DB
:10B6900000F0F4F80446064813F01CFB204605B001
:10B6A00030BD636820461B6801A998472468EDE710
:10B6B00034860020F09800201FB5CDE901010392E7
:10B6C0004FF0FF334FF0FF32094813F0EFF9094B09
:10B6D0001C682CB9064813F0FDFA204604B010BDD2
:10B6E000636820461B6801A998472468F1E700BFFA
:10B6F00034860020F09800200022024BC3E900228B
:10B70000704700BFF09800200022024BC3E90022DE
:10B71000FFF7F2BFF89800202DE9F74307460C46E3
:10B7200009B100230B6000261E4DDFF87C904D45CB
:10B730000FD31E4B1D6885B355F8148C384641460F
:10B7400001AA143D16F047FA10B3D6B914BB2E4621
:10B750001EE0D5F800803846414601AA16F03BFAB3
:10B7600050B116B954B92E4606E000224046316861
:10B7700016F031FA0028F5D11435D8E7019B236083
:10B78000F1E700224046316816F025FA0028DDD1A5
:10B790006D69D0E7019B2360D9E7304603B0BDE86F
:10B7A000F08300BF34670200AC670200F898002005
:10B7B0002DE9F04784B002AFD7F8289004460D4633
:10B7C000164698467860B9F1000F07D0D9F80010F6
:10B7D00039BBD9F804A0BAF1000F29D12046391D90
:10B7E000FFF79AFF10B343462946D0F80890324637
:10B7F0007868C8476D46034630B38AB002AA4FF452
:10B80000007319491384194BC2E90514D06142F839
:10B81000103F00234FF411511548FFF755FBAD467B
:10B8200004E03A1D16F0D7F90028D2D1002007E035
:10B83000D9F8083032460093294643467868D04705
:10B840000837BD46BDE8F0878AB002AA09495161B0
:10B850000949C2E9061440F201311184034942F852
:10B86000101F4FF41451D7E71979020004000001AA
:10B87000046702003E79020058790200F8B50646D6
:10B880000025174C174FBC4208D3174B1C682CB32C
:10B89000143CB6B9E368E3B96469F8E72EB9E36824
:10B8A0005BB9284605461434EDE70022314620688E
:10B8B00016F091F90028F2D1F3E79847002DF0D166
:10B8C000F0E700223146206816F085F90028E1D122
:10B8D000E2E79847002D08BF0546DDE72846F8BD9A
:10B8E00034670200AC670200F898002038B50C4DB0
:10B8F0004FF0FF334FF0FF320A4813F0D7F82B78A0
:10B900003BB9FFF701FF00F087F8044610B90123A7
:10B910002B700024034813F0DDF9204638BD00BF2A
:10B92000489F0020348600202DE9F04706468946CE
:10B93000048FDFF8ACA0013498B0A4B200F108077E
:10B94000651EADB2B5F5004F47D04A23294605AA7A
:10B95000384615F027FE04F57F543F34A4B28046E4
:10B960002146012338460DF10B0215F01BFEB8F1FC
:10B97000000F014610DC002810DC338FAB4209D1E8
:10B9800032466B1E22F8383F4FF4004102233846FE
:10B99000FEF7E8FA2C46D3E7002808DC29463846AB
:10B9A00015F0FCFD2146384615F0F8FDE5E708F1F5
:10B9B00060030DEB03080023524608F84C3C05A831
:10B9C000CDF8009003AB0397ADF81040FFF7F0FE01
:10B9D0000028DFD018B0BDE8F0870020FAE700BFEC
:10B9E000471C020080B500AF88B06A46074B536120
:10B9F000074B9361032342F8103F00234FF4C851D3
:10BA00000448FFF761FA0020BD4680BD727902004C
:10BA100082790200046702007FB501236946052090
:10BA20000193FFF791FD044660BB052002AA01A91E
:10BA3000FFF7B2FD044610B110F10C0F22D10399AB
:10BA4000B1F5803F23D200231846009A9468084439
:10BA500084421AD30133082BF9D10E4DA982EB820F
:10BA600053682846AB60D368EB6316F084F904464C
:10BA700040B9094E28466E60FFF7E4FD28466E6027
:10BA8000FFF7EEFD204604B070BD9BB2E5E76FF016
:10BA90002004F7E700990020AC8100200449431EF0
:10BAA0000F3013F8012F8A5C83421A70F9D1704766
:10BAB0009C790200F0B50746264E8DB001AD0C46CC
:10BAC0000FCE0FC50FCE0FC596E8070085E807001B
:10BAD0003846002F39D0002C39D0381F0246214675
:10BAE00010344B780D781B0443EA0563CD7804319C
:10BAF0002B4311F8025C8C4243EA052342F8043FD1
:10BB0000EFD10421144C8A07036916D1C3F307420D
:10BB1000A55C1A0EA25C42EA0562C3F30725655DC7
:10BB2000DBB2E35C42EA054242EA032221F003036E
:10BB300030336B4453F82C3C534050F8042F013100
:10BB400053402C290361DED101200DB0F0BD204609
:10BB5000FBE700BFCC6702009C7902002DE9F04FA3
:10BB6000002703689DB002934368DFF8BCA10393EC
:10BB70008368DDE902460493C36805930369DDE940
:10BB800004BE0693436907938369DDE9062C089395
:10BB9000C36998460993089B0093CD590CAB2DBA05
:10BBA0005AF8049BDD514FEAF223A94483EAB21309
:10BBB000009D83EA72634B4425EA020502EA0C0900
:10BBC00085EA09052B44434486EA0B054FEA74389D
:10BBD00088EAB408254006EA0B0985EA090588EADF
:10BBE000B4580437A844402F03EB0E054344DE4607
:10BBF000DDF8008040F088804FF0100A4B490A9130
:10BC000051460AF1010A0DF1700E0AF00F070EEB12
:10BC1000870757F8407C01F00F094FEAB7480197B2
:10BC200088EAF71801F10E0707F00F070EEB8707F8
:10BC300057F8407C09314FEAF74E8EEA774ECDF83F
:10BC40002CE001F00F010DF1700E0EEB81010EEBF7
:10BC5000890959F840EC51F8401CBAF1400F714481
:10BC6000DDF804E088EADE08DDF82CE041448EEAE5
:10BC7000972E714405EA02084FEAF52E2CEA0507D3
:10BC800087EA08078EEAB51EDDF828808EEA756E11
:10BC9000774458F804EF49F8401C77440F44009962
:10BCA0004FEA733E394484EA0607CDF828808EEACD
:10BCB000B30E07EA030704EA06088EEAB35E87EAD2
:10BCC000080777440F4401EB0B0ECDF800C0B346D4
:10BCD00022D102993944016003991944049B4160BF
:10BCE00023448360059B3344C360069B7344036114
:10BCF000079B2B444361089B13448361099B634466
:10BD0000C3611DB0BDE8F08FB346CDF800C0264634
:10BD100094461C462A4640E7944626462A461C4638
:10BD200075463B466CE700BFB86A0200F46A020041
:10BD300010B50446C8B17022002116F04AF80B4B2A
:10BD40000B4A0C49C4E900230B4B0C48C4E902130D
:10BD50000B4BC4E9040301200A4BA36103F17453A4
:10BD6000A3F52303A3F69243E36110BD85AE67BB41
:10BD700067E6096A72F36E3C3AF54FA57F520E51A1
:10BD80008C68059BABD9831F2DE9F04780460C4694
:10BD900000AF002936D0D1E90012E9468AB06D46DD
:10BDA000A3684FF0050A2E461A48C5E90723C5E9DE
:10BDB000050146F810AF002332464FF421511648D2
:10BDC000FFF782F8D4E90312CD466369AD46134804
:10BDD000C5E90723C5E90501C5F810A000233246CF
:10BDE0004FF421510C48FFF76FF8CD46E36901216C
:10BDF0000B4A094815F070FEA3690121094A06485B
:10BE000015F06AFE2146404612F07AFBBD46BDE8B9
:10BE1000F08700BF9C7A0200EC660200CB7A020039
:10BE2000FA7A0200097B020030BFFFF7FDBF00BFB6
:10BE3000114B124A2DE9F041D518013DB5FBF3F540
:10BE4000DFF83C805D430F4B074608EB0304013CE1
:10BE5000B4FBF3F403FB04540E1B30460A491AF0FA
:10BE600077F9701942460021083E1AF098F97E676A
:10BE700004F10800BDE8F0810100000000000000AE
:10BE80000800000004000000AC670200044B996841
:10BE90005869884203D003494FF080520A607047C6
:10BEA000DC9E002004ED00E070B52A4C06460D46ED
:10BEB00029482A4916F0DFFBA36ADB0647D5264846
:10BEC000274916F0D8FB1120A36A1C0704D5224885
:10BED000244916F0D0FB12201E4CA36A990712D5F4
:10BEE00021491D4816F0C7FB636BA26A120609D5EB
:10BEF00001211E4A184815F0EFFD1EB1A36A23F078
:10BF00008003A3621320134CA36ADE0704D51248F2
:10BF1000174916F0B0FB1420A36A9C0604D50E48FE
:10BF2000144916F0A8FB15200A4B9A6AD10658BF8F
:10BF30009A6A9A6A920642BF5A6A22F400525A6278
:10BF40009A6A42F0FF029A6200232B7070BD1020A3
:10BF5000BAE700BF00ED00E0EC660200377B0200AC
:10BF60004D7B0200807B0200937B0200AB7B0200D2
:10BF7000C17B0200E07B020010B5244C2449254817
:10BF800016F079FBA36A99013ED52248224916F0A2
:10BF900072FB1E20A36ADA0104D51E481F4916F061
:10BFA0006AFB1F20194CA36ADB0204D519481C49FF
:10BFB00016F061FB0220A36A1C0304D51548194939
:10BFC00016F059FB2120114CA36A590304D51148DE
:10BFD000154916F050FB2220A36A9A0304D50D4898
:10BFE000124916F048FB2320084CA36ADB0304D552
:10BFF00008480F4916F03FFB2420A36A6FEA034369
:10C000006FEA1343A36210BD1D20C3E700ED00E0FB
:10C010000F7C0200EC660200277C02003A7C0200E2
:10C02000547C02007E7C02009C7C0200C17C0200E9
:10C03000DB7C020070B5294C06460D46284829498C
:10C0400016F019FBA36AD9043CD52548264916F0F9
:10C0500012FB1720A36A1A0504D52148234916F0BC
:10C060000AFB18201D4CA36A9B0512D51C482049C9
:10C0700016F001FBA36BA26A100409D501211D4A29
:10C08000174815F029FD1EB1A36A23F40043A362EB
:10C090001920124CA36A590504D51148164916F007
:10C0A000EAFA1A20A36ADA050ED50D48134916F0EC
:10C0B000E2FA1B20094A936A43F47F439362002308
:10C0C0002B7070BD1620C5E7A36A9B04F2D5044807
:10C0D0000B4916F0D0FA1C20ECE700BF00ED00E0A1
:10C0E000EC660200067D02001C7D0200807B0200DF
:10C0F0002D7D0200467D02005B7D0200767D020000
:10C10000E07B02002DE9F0478AB0694B0446D3F882
:10C1100004A089461646002500AFCAF3080885F337
:10C120001188BFF36F8F02F07F43B3F17F4F1ED1B1
:10C13000D3071CD4500603D4110708D4012508E006
:10C140005C495D4816F097FA16F0040600D04C469C
:10C1500000250023FB71A8F10303092B00F2868060
:10C16000DFE803F0077C7F798484848484822C4612
:10C17000EFE75249504816F07EFA00234C4EFB710F
:10C18000F36A9A0705D54E494B4816F074FA002316
:10C1900029E0F36A002B01DA4A49F5E7F36A5B000C
:10C1A000F5D54949444816F066FA7369A26943F423
:10C1B00080737361BFF34F8FBFF36F8F736932F872
:10C1C000022C23F480737361BFF34F8FBFF36F8F23
:10C1D0004DF602739A4228D1236801213B4A364822
:10C1E00015F07AFC2368FA79DAB907F1080604F148
:10C1F000200C324620686168083403C26445164644
:10C20000F7D17A6A002D4ED0C2F3080121B96FEA46
:10C2100052226FEA42227A62184607F10801FFF7BC
:10C22000B3FD2837BD46BDE8F087B36ADBB22BB15A
:10C230000120F91DFFF738FE0346D4E7B36A13F473
:10C240007F4F04D00120F91DFFF7F4FEF4E7B36A35
:10C25000B3F5803F9BD3FFF78FFEEDE70020F91D7C
:10C26000E8E70020F91DEFE719498DE7194A6E4606
:10C270001AF4F87F8AB0184B18BF13466A4617495C
:10C28000C2E90513A8F11003D3614FF400731384BE
:10C29000134B42F8103F00234FF411510648FEF7AC
:10C2A00013FEB54673E722F4FF7222F00102B2E7F3
:10C2B00000ED00E0BC7D0200EC660200DF7D0200C4
:10C2C000F67D0200177E0200257E0200447E0200F9
:10C2D000607E0200A37D02008E7D0200847E02004B
:10C2E00004000001044B5A6942F010025A615A6975
:10C2F00042F480625A61704700ED00E0EFF308807D
:10C30000EFF3098101B57246FFF7FCFE01BD00BFE6
:10C31000002080F31488BFF36F8F002080F30A8819
:10C3200080F30B8800F012FE00200E490860BFF376
:10C330004F8F0D4880F3088800F03EF8202080F3EE
:10C3400011880A484FF40061401880F30988EFF320
:10C3500014800221084380F31488BFF36F8F00F02C
:10C360000DF9000094ED00E000D70020C0BD0020D2
:10C37000BFF34F8F0549064BCA6802F4E0621343CE
:10C38000CB60BFF34F8F00BFFDE700BF00ED00E0C3
:10C390000400FA05002318460649D1F89020C2F39C
:10C3A0000722934200DB7047C1F89830C1F8A00023
:10C3B0000133F6E700ED00E010B572B6002484F317
:10C3C0001388FFF7E7FF23464FF0FF300C4A03F1D5
:10C3D00020010133102B42F82100F8D100234FF047
:10C3E000FF30074A03F160010133102B42F82100AE
:10C3F000F8D162B6BFF34F8FBFF36F8F10BD00BF90
:10C4000000E100E0084B9B6883420BD1EFF305830A
:10C4100043B1064B5A6842F080525A605A6A22F47D
:10C4200000425A6219F0B5BBDC9E002000ED00E02E
:10C430006FF00A01084A9368D967084998674B6802
:10C4400043F080534B60002383F31188BFF36F8F59
:10C450009368D86F704700BFDC9E002000ED00E0BD
:10C4600018498A6882F881E04FF030001044EFF3F9
:10C47000098C80E8F01F202080F31288BFF36F8FB3
:10C48000114F4FF000664A698A603E604FF07404B5
:10C49000141920680D4C206092F981E0906F002300
:10C4A000936780F3118802F1300090E8F01F8CF35D
:10C4B000098802F1000004B516F0E7F8BDE8044071
:10C4C00070470000DC9E002004ED00E04099002051
:10C4D0001EF0040F0CBFEFF30880EFF309808169B1
:10C4E00011F8021C0229FFD001B516F0B9F801BD00
:10C4F00040B2002807DB01234109034A00F01F0076
:10C50000834042F82130704700E100E040B200284B
:10C510000CDB01220649430900F01F008240203352
:10C5200041F82320BFF34F8FBFF36F8F704700BFD9
:10C5300000E100E0054B420953F82220012300F0FE
:10C540001F0003FA00F01040704700BF00E100E058
:10C5500040B2002801F10101ACBF00F16040064B80
:10C560004FEA4111C9B2ABBF00F5614000F00F00C6
:10C5700080F800131954704714ED00E00B4A08B519
:10C580000B4B22F07F029A60BFF34F8FBFF36F8F88
:10C59000D3F8882022F47002C3F8882012F064F8DF
:10C5A00013F034FA00F07CF812F0A8F800800000D4
:10C5B00000ED00E042F8203C009B0D4942F81C3C95
:10C5C000019B21F0010142F8183C029B42F8081C33
:10C5D00042F8143C4FF0807342F8043C0023836718
:10C5E0004FF43C43203A0265C0F88030704700BFEA
:10C5F000759600000A4B446F98600A4B1C60436EAE
:10C6000083F30B88104681F30988002163B681F318
:10C610001188BFF36F8F00220023FDF72BF800BFB6
:10C62000DC9E002040990020014910220A607047DA
:10C6300010ED00E072B6404080F31188BFF36F8FB9
:10C6400001B500F05BFB00280AD0BFF34F8F30BF6D
:10C6500000BF00BF00BF00BF00BF00BF00BF00BFE2
:10C66000BDE8014062B6BFF36F8F704772B64940B4
:10C6700081F3118801B500F041FB00280AD0BFF317
:10C680004F8F20BF00BF00BF00BF00BF00BF00BF73
:10C6900000BF00BFBDE8014080F3118862B670475B
:10C6A000002320210348C2180133452B82F80013D0
:10C6B000F9D1704700E100E001B5EFF30580A0F18A
:10C6C00010004FEAC0000449014409C99847BDE879
:10C6D0000140024908470000746302008DBE00005B
:10C6E0001FB5094C094A23460121094800F07EF98B
:10C6F00000230393074B0121E41A01A8019302943C
:10C7000000F07EF904B010BD00000720008000207A
:10C71000B86B020008880020F8B50C7A0B6804F0AA
:10C720001F0223F01F031A43CB68640923F01F0381
:10C7300043EA4403124C43F00103C4F89800C4F8E0
:10C740009C20C4F8A0300B7A00AF8CB00D6803F0C9
:10C750001F046A46C9685B09C2E90A310823094E09
:10C76000C2E908545661084EC2E9066042F8103F1B
:10C7700000234FF482410548FEF7A6FBBD46F8BDF5
:10C7800000ED00E09B7E0200C47F0200CC66020048
:10C79000F8B5072803460D4600AF09D90121104A14
:10C7A000104815F099F96FF015042046BD46F8BD04
:10C7B0006E4688B004466A460B4B53610B4BC2E988
:10C7C0000630042342F8103F00234FF4045105487B
:10C7D000FEF77AFB2946B5462046FFF79DFFE4E7C2
:10C7E000C07E0200CC660200E67E0200D07F02001E
:10C7F000F0B585B06E4600AF88B004460D466A4677
:10C80000134B5361134BC2E90630042342F8103F27
:10C8100000234FF404511048FEF756FB29686B685B
:10C820002A8968893960013B21F01F010B4402F01D
:10C830001F0242EA4012394623F01F03B546204644
:10C840003A72FB60FFF7A4FF1437BD46F0BD00BF8E
:10C850000B7F0200E97F0200CC6602002DE9F04F59
:10C860008946144606464FF00008514D85B0C8452C
:10C8700027DAD6F804A0BAF1000F44D0BAF11F0F9E
:10C8800017D91AF01F0F14D1D6F800B01BF01F0FE4
:10C890000FD1584615F0FDFE07460AEB0B00013894
:10C8A00015F0F7FE874210D06FF01507414A3B465E
:10C8B00001E04346404A0121404815F00DF96FF070
:10C8C0001504204605B0BDE8F08F17F1160FEDD026
:10C8D000BC42EBDDC5F89870D5F89C10C5F898708F
:10C8E000D5F8A03021F01F0143F01F0BD6E900322C
:10C8F0001A44994202F1FF3A1DD1D34507D131467E
:10C90000F8B2FFF775FF08F101080C36AFE73146C2
:10C91000C5F89870D5F89C3022F01F0203F01F0371
:10C920001343C5F89C30E0B2FFF762FF10F1160F19
:10C93000C5D0441CE7E7C5F89870D5F8A020013BA6
:10C9400023F01F0302F01F021343D3453146E0B228
:10C95000C5F8A030E8D0FFF74BFF10F1160FAED0AE
:10C96000C5F89870D5F89C209DF808300BF1FF3B76
:10C9700062F304038DF80830D5F8A0309DF8082044
:10C980005B0863F347128DF80820D6E900321344A0
:10C99000009323F01F035B44A3EB0A03013023F051
:10C9A0001F036946C0B20393FFF7F2FEBEE700BF64
:10C9B00000ED00E0557F0200327F0200CC660200ED
:10C9C0000522044BC3F89420BFF34F8FBFF36F8F42
:10C9D000704700BF00ED00E0BFF35F8F0022024B05
:10C9E000C3F89420704700BF00ED00E010B5034C81
:10C9F0002278FFF733FF207010BD00BF499F002051
:10CA00002DE9F74F294D8A4606464FF00008AB4600
:10CA1000274FD0451BDAD6F80490B9F1000F3FD06C
:10CA200031680846019115F034FE0199044609EB7E
:10CA30000100013815F02DFE84424FF014021D4B09
:10CA400008D002FB08F36FF015024BF8032003B087
:10CA5000BDE8F08F14F1160F2C60F8D01978A142C0
:10CA6000F5DD02FB08B0C7F89840C7F89840D7F842
:10CA70009C4000F10801007B64F304000871D7F8C2
:10CA8000A0000C79400860F347140C71D7F89C1093
:10CA900021F01F016960D7F8A01021F01F01296162
:10CAA00008F1010814350C36B3E700BF44990020A3
:10CAB00000ED00E0499F00202DE9F04186B0474D90
:10CAC00000AF2E68082E00F285806C4688B06A465A
:10CAD000434B5361434B93610823D361042342F8D2
:10CAE000103F00234FF404513F48FEF7EDF9A546EF
:10CAF0000024FFF771FF3D4B3D4AC3F8C020B4420C
:10CB00000ED33C4D381D2E70FEF718FD002406464E
:10CB1000DFF8E480A6420BD1FFF752FF002055E07A
:10CB20006968204601EB0411FFF7F6FD0134E6E7E2
:10CB30007968200101EB0413DA6802EA0802B2F511
:10CB4000001F22D0B2F5800F2CD0B2F5801F36D155
:10CB50005A689B680958013B22F01F0003440120DA
:10CB6000844623F01F0340EA4C10C7E902213874C1
:10CB700007F1080128787B61FFF70AFE002823DB14
:10CB80002B78013401332B70C4E75A689B6809582D
:10CB9000013B22F01F0003444FF0020C012023F060
:10CBA0001F03E0E75A689B680958013B22F01F0009
:10CBB00003444FF0000C022023F01F03D3E70121B0
:10CBC0000E4A094814F07FFF6FF015001837BD4674
:10CBD000BDE8F0814FF0FF30F8E700BFC46B020002
:10CBE000787F0200B57F0200CC66020000ED00E015
:10CBF000AAFF4400499F00200000F0FF937F02003D
:10CC000008B5024B1B689847002008BD58990020C2
:10CC1000034B044A1860937843F002039370704703
:10CC200058990020C4810020F0B587B007460E4611
:10CC300014460021102268461D4619F0B0FA02235E
:10CC40008DF80230054B2A4621466846CDE9047628
:10CC5000019313F023FA07B0F0BD00BFA526020030
:10CC600008B5044813F046FD404080F311884FF0AA
:10CC7000020002DF0D80020008B50649064821F0D7
:10CC80000701C1F1005202F5E02213F097FF0020E6
:10CC900008BD00BFCF0401205C99002007B50DF14D
:10CCA000070017F0CDFC114B98421CD14FF4806265
:10CCB0000F4B1049C3F8B8254FF40062C3F83C2568
:10CCC0009DF8070017F0A8FC0B499DF8070017F026
:10CCD0009EFC01209DF8073098400FF0E7FB0020F4
:10CCE00003B05DF804FB6FF00B00F9E70000AD0B3B
:10CCF00000A002402CA0024028A1024005232DE9FB
:10CD0000F041224D00AF2C78DFF884800134B4FB71
:10CD1000F3F303EB8303E41A17F0E4FB1D4A1E4E02
:10CD20001378D3B158F82430C01A072815D83378AF
:10CD30008BB96C4688B06A461849516118499161AF
:10CD4000032142F8101F4FF4C8511648FEF7BCF8F3
:10CD50000123A5463370002014E0134BD3F81411BF
:10CD600041B10021C3F81411D3F814312C700CB95F
:10CD7000012313702C7817F0B5FB002348F824002A
:10CD800001203370BD46BDE8F08100BF4B9F0020FD
:10CD9000689900204A9F00204C9F00202B800200B1
:10CDA000588002000C6702000050004048B1054B5B
:10CDB000054A1B68B3FBF2F35843044B43F00103ED
:10CDC000184770476C83002040420F00B068020093
:10CDD00070B5049CC4F3072630460EF0D5FEE5B2CC
:10CDE0000146284617F024FC00220120074BA40B23
:10CDF00004F0FC041A51A8400FF05EFB30460FF01F
:10CE000077F82846BDE870400FF0F8BC80A00240DB
:10CE100073B501A80FF0ECFC264B984247D10FF0F8
:10CE200049F8041E0ADA9DF804000FF0E7FC01211E
:10CE30002346214A214814F04FFE35E040F607030F
:10CE40001F4D8DF80540AE68ADF806307468019B43
:10CE500014B96FF05704EAE708212846194AA04799
:10CE6000041EE4DB3369002BF3D00122082128469D
:10CE70009847041EDBDB01209DF8043098400FF03A
:10CE800015FB9DF805009DF804509DF8076017F00C
:10CE900014FB0146284617F0BFFB0B4BB60045F0CC
:10CEA00000459D51002CC2D1204602B070BD6FF0EC
:10CEB0001204BCE70000AD0B74800200146702008E
:10CEC000FC620200CDCE000080A102402DE9F341BA
:10CED000144683681B690BB100229847C4F30726E8
:10CEE00030460EF059FE0546304617F0E6FA4FF090
:10CEF0000008E7B20146384617F09EFB104B220EA1
:10CF0000920043F8028030460EF03EFE0D4A4FEA92
:10CF1000943C0CF0FC0C47F0004342F80C30014606
:10CF2000384617F074FB084B05F132020093304687
:10CF300043460194520017F0C9FA02B0BDE8F081EF
:10CF400080A1024080A00240D1CD000017F05BBB61
:10CF50002DE9F0411D4B00AFD3F83021D3F8343127
:10CF6000072A2DD1023B032B02D8194AD35C3BB3CD
:10CF7000012600244FF05028164D0520C8F81866E9
:10CF8000C5F8144617F041FB3046C5F8146617F093
:10CF90003CFBC5F81446C8F8184688B06A460E4BE4
:10CFA00053610E4B9361032342F8103F00234FF46B
:10CFB000C8510B48FDF788FF0020BD46BDE8F08151
:10CFC0000022044BC3F81426E7E700BF00F0072057
:10CFD000BF80020000500040A5800200C380020014
:10CFE000E46602000E4B402928BF402170B51D4663
:10CFF0000C4C4618B04203F1020304D1002305F89B
:10D000001130074870BD02781209A25C03F8022CA7
:10D0100010F8012B02F00F02A25C03F8012CE9E7E3
:10D02000A29F00206D81020010B5037886B00493A2
:10D030004378084C0393837812210293C378064AFD
:10D040000193037900934379204612F095FF20461F
:10D0500006B010BD909F00200A81020030B5037811
:10D060008BB0044607AD032B21D8DFE803F0021A8A
:10D070001C1E12492846FBF7E1F9059563781E212D
:10D080000493A3780E4A0393E3780E48029323791E
:10D09000019363790093A37912F06EFF09480BB0F6
:10D0A00030BD0949E6E70949E4E70949E2E70A2111
:10D0B0002846084A12F060FFDFE700BF288102001F
:10D0C0004A810200729F00202F81020036810200F7
:10D0D000408102002699020010B5034C252221460A
:10D0E00000F082FB204610BD4D9F00202DE9F04F3F
:10D0F00089B00D4600AF10217860FFF773FF064638
:10D100002846FFF791FFE8468AB06C46A346344BA9
:10D1100020626361334BC4E90636334B6362334BA1
:10D120004BF8103F00235A464FF444513048FDF766
:10D13000CBFE1021C5467868FFF754FF05F10309BF
:10D14000A54640F2013A2B4B2B4E63612B4BA4F8C2
:10D1500020A0C4E90630266100235A464FF414513A
:10D160002348FDF7B1FE0321C5464846FFF73AFFC5
:10D17000A546234BA4F820A06361204B2661C4E997
:10D18000063000235A464FF414511948FDF79CFE0F
:10D19000B5F8032099F8023000213A82C5460D22E5
:10D1A00007F11300BB7418F0FAFF07F110021146E3
:10D1B000786803F0EFFA20B100202437BD46BDE8BF
:10D1C000F08F3B690322BB8128461B0C07F10C0141
:10D1D000BB7318F029FFB0FA80F04009EDE700BFFB
:10D1E0007E810200AA810200010302040500000200
:10D1F000646602009381020004000001A78102001E
:10D200009E8102002DE9F04F83B0044692469B4672
:10D21000DFF8F88000AFD8E8AF3FDA0721D550B982
:10D2200001213B4A3B4814F04EFC6FF001000C37E3
:10D23000BD46BDE8F08F391D14F0F1FC36490246B9
:10D24000204618F001FF05460028EED1D8E8AF3F90
:10D25000C3F3C0091B0706D50221304A2D4814F03C
:10D2600032FC0020E3E7A8F1D406072231465846F5
:10D27000D0470628044622D80121294A254814F01F
:10D2800022FC6D468AB06A46264B21055361264B27
:10D2900041F414519361254BD36140F2013313845F
:10D2A000234B42F8103F1B483346FDF70DFE48F86C
:10D2B000D49CAD46C6F8039086F80790D1E70723C3
:10D2C000B0FBF3F4F4713446DFF86880DFF858906F
:10D2D000DFF864A0F3799D42C3DA2046FFF7BEFE73
:10D2E000EB468AB06A4640F20243C2E90589C2E9C8
:10D2F0000750938442F810AF00234FF4345105488F
:10D30000FDF7E2FD0135DD460734E3E7D480002078
:10D31000C48102006C6602003D810200E5810200CA
:10D3200009820200228D0200508302002E82020038
:10D330000400000138820200050000012DE9F047D9
:10D3400088B008AFD7F820A09D795E7993F804C023
:10D3500093F803E093F8028093F8019004461B7859
:10D36000BAF1000F21D0CDE9063ACDE90489134680
:10D37000CDE902CECDE90056124A12F0FDFD8AB089
:10D3800008AA114B5361114BC2E9063440F2013334
:10D3900013840F4B42F8103F00234FF414510D48F3
:10D3A000FDF792FDBD46BDE8F087CDE90593CDE9D7
:10D3B00003E81346CDE9016C074A009512F0DCFD45
:10D3C000DDE700BF468202008B82020083830200F9
:10D3D000040000016C6602006A8202002DE9F84335
:10D3E0000E4600AF0021044614F019FC0D2835D17B
:10D3F000237B302B30D0312B30D101233546A04652
:10D4000005F8063B04F10C092A4640460123022197
:10D4100008F1020813F034F9C14505F1FF35F3D1E5
:10D420003046FFF71BFE6D468AB06A460D4B106210
:10D4300053610D4BC2E906340C4B53620C4B42F85E
:10D44000103F0C4800234FF44451FDF73DFD0020F0
:10D45000AD46BD46BDE8F8830023CFE76FF0150069
:10D46000F7E700BF9F8202006C8302000103020401
:10D47000050000026C66020098B56C4600AF88B0EB
:10D480006A460D4B53610D4B9361032342F8103FE5
:10D4900000234FF4C8510A48FDF716FDA546FEF7D4
:10D4A00025FA044628B101210346064A044814F02F
:10D4B00013FB2046BD4698BDB47802003F830200AE
:10D4C0006C660200B482020070B504461E46154622
:10D4D0008CB0A2B129B10A4602A8042113F08FF83A
:10D4E00002A900912B462246242103A8FFF726FF1C
:10D4F0003146109A03A8FEF77FF80CB070BD0346C2
:10D500002421044A03A812F037FD0028F0DA6FF056
:10D510001500F2E7D982020007B50B4B0B48DA7908
:10D52000C2EBC202009200221146FFF7CDFF034674
:10D5300038B10121064A074803B05DF804EB14F046
:10D54000CBBA03B05DF804FB008000203D810200EF
:10D55000DF8202006C66020030B5044615468DB0CD
:10D5600092B129B10A4602A8042113F048F802A991
:10D5700000912B462246242103A8FFF7DFFE03A8D3
:10D5800014F025FB0DB030BD03462421044A03A846
:10D5900012F0F2FC0028F2DA6FF01500F2E700BF9B
:10D5A000D982020007B5009313460A460146034894
:10D5B000FFF78AFF03B05DF804FB00BF4CB5020023
:10D5C0000A4601460148FFF7C7BF00BF4CB502003D
:10D5D00007B5009313460A4601460348FFF774FF58
:10D5E00003B05DF804FB00BF46B5020007B5009329
:10D5F00013460A4601460348FFF766FF03B05DF88D
:10D6000004FB00BF58B1020007B500220346009199
:10D6100003481146FFF758FF03B05DF804FB00BF55
:10D620001FB1020008B5024811F0C0FD002008BD7E
:10D63000D48100202DE9F8436C4600AF88B06A46DB
:10D64000294B2A4D53610323956142F8103F002373
:10D650004FF4C8512648FDF737FC264EA546D6E8BC
:10D66000AF3F13F0010FB0463BD016F8CD3CA6F10A
:10D67000D409A3B902F0E0FB044640B101211E4ADF
:10D680001B4814F020FA2046BD46BDE8F88399F8FF
:10D69000073023B902F02AFC04460028EED1D6E870
:10D6A000AF3F5A0701D401F089FED8E8EF3F23F4D9
:10D6B0008032C8E8E12F0029F7D1DB0311D56C4691
:10D6C00088B06A460D4BC2E90535032342F8103F86
:10D6D00000234FF4C8510648FDF7F6FBA546FFF7B7
:10D6E000A1FF0024CFE700BFB47802005C830200F2
:10D6F0006C660200D4800020FA8202001E830200C1
:10D7000007B5009313460A4601460348FFF7DCFEBF
:10D7100003B05DF804FB00BFCCBF02000A4601461F
:10D720000148FFF719BF00BFCCBF020030B500248D
:10D73000094D0A4B85B028460293039418F0B9F8B6
:10D7400002AB284600934FF4A3620A23044911F068
:10D7500033FD204605B030BD48900020A98302006B
:10D7600080AB00200146014811F09CBD489000208C
:10D77000037830B5012B13D0022B27D07BB90A4692
:10D78000184B03F1100453F8045BA34242F8045B06
:10D79000F9D11B78137043884B731B0A8B7330BD10
:10D7A0000A46104B03F1100453F8045BA34242F8FD
:10D7B000045BF9D11B7813704368C3F307224B73E2
:10D7C0001B0CCB731B0A8A730B74E8E700F1100380
:10D7D00050F8042B984241F8042BF9D103780B70D0
:10D7E000DDE700BFCF830200034610B51C78084672
:10D7F000012C114686B009D0022C0AD0FCB95B88F6
:10D80000124A06B0BDE8104012F0B6BB5B68104A81
:10D81000F7E7B3F801200492D3F803200392B3F89A
:10D8200007200292B3F809200192B3F80B2000926E
:10D83000D3F80D30074A12F09FFB06B010BD00214F
:10D8400006B0BDE8104018F0AABC00BFCAA1020093
:10D85000C67A0200B2830200012838B505460CBF23
:10D860000648074816F02DFB044620B101210C3074
:10D8700016F083FB2576204638BD00BF5887002070
:10D88000D48600200246002070B50B460A49D1E834
:10D89000EF4FC1E8E50F002DF9D124B9BDE8704084
:10D8A0000120FFF7D9BF01212082217604F10C006D
:10D8B00016F063FB204670BD4081002070B5044621
:10D8C0000F2C0D461046194605D80D2C0DD9BDE874
:10D8D0007040FFF7D7BF132C07D10C4816F0F1FAB0
:10D8E000044638B90024204670BD02460B4645B1B7
:10D8F0000748F3E701210C3016F03FFB01232376A4
:10D90000F1E70120BDE87040FFF7A6BFDC870020EB
:10D910002C870020C36802211B78024A024814F0B9
:10D92000B1BF00BFE88302002C66020010B5C368D7
:10D9300001211C88204603F0B7FE38B92346BDE814
:10D9400010400121034A044814F09CBFBDE8104078
:10D9500003F03CBD108402002C660200012110B5CA
:10D960000C3016F03EFBBDE8104003780121024A5E
:10D97000024814F087BF00BF348402002C66020006
:10D98000014610B5084816F0A3FA0849084817F0F0
:10D9900063FF031E06DABDE810400121054A064870
:10D9A00014F070BF10BD00BF448100202082002011
:10D9B00078910020568402002C66020010B5084CB5
:10D9C0000146052294F86F0004F010F838B994F875
:10D9D0006F000422BDE81040024904F007B810BDF2
:10D9E00000800020F08002000121024A024814F069
:10D9F0003CBF00BF738402002C6602000B46B0B52A
:10DA00000D8A00AF04462946D868FFF7EBFA8AB0C2
:10DA10006A46094BC2E90750C2E9053440F20243A5
:10DA20009384064B4FF43251054842F8103F14F0EE
:10DA300037FFBD46B0BD00BF8D8402000500000168
:10DA40002C66020037B502EBC303934204D103B046
:10DA5000BDE83040FFF7D2BF144614F8085B85429A
:10DA600011D10B8A54789C4207D901210090074AB2
:10DA7000074814F03BF803B030BD0846536803B0C4
:10DA8000BDE8304018472246DFE700BFAF84020000
:10DA90002C660200F8B5012100AF05460C3016F0E7
:10DAA000A0FA6E4688B004466A4603780A490B48D5
:10DAB00051610B49C2E9061304234FF4045142F8A3
:10DAC000103F14F0EDFE0A23B5462946054A20789A
:10DAD000FFF7B8FFBD46F8BDD18402002C660200F6
