:020000040000FA
:1080000098BE0020D5AA000017760100C1AA000082
:10801000C1AA0000C1AA0000C1AA0000C1AA0000B4
:1080200000000000000000000000000095AC00000F
:10803000C1AA00000000000025AC0000C1AA000099
:108040007DAE00007DAE00007DAE00007DAE000084
:108050007DAE00007DAE00007DAE00007DAE000074
:108060007DAE00007DAE00007DAE00007DAE000064
:108070007DAE00007DAE00007DAE00007DAE000054
:108080007DAE00007DAE00007DAE00007DAE000044
:108090007DAE00007DAE00007DAE00007DAE000034
:1080A0007DAE00007DAE00007DAE00007DAE000024
:1080B0007DAE00007DAE00007DAE00007DAE000014
:1080C0007DAE00007DAE00007DAE00007DAE000004
:1080D0007DAE00007DAE00007DAE00007DAE0000F4
:1080E0007DAE00007DAE00007DAE00007DAE0000E4
:1080F0007DAE00007DAE00007DAE00007DAE0000D4
:108100007DAE00007DAE00007DAE00007DAE0000C3
:108110007DAE00007DAE00007DAE00007DAE0000B3
:108120007DAE00007DAE00007DAE00007DAE0000A3
:108130007DAE00007DAE00007DAE00007DAE000093
:108140007DAE00007DAE00007DAE00007DAE000083
:108150007DAE000053B94AB9002908BF00281CBFF2
:108160004FF0FF314FF0FF3000F00CB8ADF1080CCC
:108170006DE904CE00F008F8DDF804E0DDE9022343
:1081800004B07047704700BF2DE9F04786468C4623
:108190000846089E154674461946002B40F0C180DB
:1081A0008542B2FA82F245D94AB1C2F1200300FAFF
:1081B00002FC954094402EFA03F343EA0C0C4FEA7C
:1081C000154EA8B2230CBCFBFEF80EFB18CC08FB26
:1081D00000F943EA0C43994528D9EB1808F1FF3719
:1081E00004D2994502D9A8F102072B44A3EB090355
:1081F000A4B2B3FBFEFC0EFB1C330CFB00F044EA04
:108200000344A04214D92C190CF1FF3304D2A0422C
:1082100002D9ACF102032C44241A43EA07401EB1F0
:10822000D440002334607360BDE8F0874746DDE743
:108230006346F1E792BB431B01214FEA154EAFB2F3
:10824000200CB3FBFEFC0EFB1C330CFB07F840EAD2
:108250000343984561D9EB180CF1FF3004D29845DF
:1082600002D9ACF102002B44A3EB0803A4B2B3FB88
:10827000FEFC0EFB1C330CFB07F744EA0344A74249
:108280004DD92C190CF1FF3304D2A74202D9ACF11D
:1082900002032C44E41B43EA0040C0E7C2F1200380
:1082A0009540944020FA03F12EFA03F34FEA154E5D
:1082B0009040AFB20343B1FBFEFC0EFB1C10190C47
:1082C0000CFB07F841EA0041884522D969180CF1F6
:1082D000FF3004D2884502D9ACF102002944A1EB59
:1082E00008019BB2B1FBFEFC0EFB1C110CFB07F757
:1082F00043EA01439F420ED9EB180CF1FF3104D23F
:108300009F4202D9ACF102012B44DB1B41EA004140
:1083100093E76046E3E76146F7E76046A4E7634614
:10832000B8E7834206D916B9002108467CE7C6E9BA
:1083300000E0F9E7B3FA83F78FB9834201D37245BE
:1083400008D8BEEB020460EB030301209C461EB973
:10835000002169E73846FAE7C6E9004CF8E7C7F1BB
:10836000200CBB400EFA07F522FA0CF42EFA0CF1A1
:10837000BA401C4320FA0CF3B8404FEA14490143B9
:108380001FFA84FEB3FBF9F809FB18300B0C08FB4D
:108390000EFA43EA00439A4540D9E31808F1FF304A
:1083A00004D29A4502D9A8F102002344A3EB0A03A0
:1083B00089B2B3FBF9F809FB183308FB0EFE41EA5A
:1083C00003418E452CD9611808F1FF3304D28E4544
:1083D00002D9A8F10203214443EA0040A1EB0E01B7
:1083E000A0FB02984145CE46434602D306D14D45F7
:1083F00004D20138B9EB020E68EB0403002EA7D0BB
:10840000B5EB0E0261EB030101FA0CFC22FA07F353
:10841000F9404CEA0303C6E9003199E74046C5E755
:108420004346D9E710F8012B11F8013B012A28BF78
:108430009A42F7D0D01A7047034611F8012B03F87F
:10844000012B002AF9D17047034613F8012B002AAB
:10845000FBD1181A013870470B460321014A024824
:108460000EF004BCC4B8010088AF0100034601212E
:10847000014A02480EF0FABBDDB8010088AF0100E6
:10848000084609B1FFF7F2BF0321024A02480EF085
:10849000E4BB00BFF8B8010088AF01002DE9F0414E
:1084A00002278EB01422002104A812F071FB0DF1F6
:1084B0000E0300200693079704F098FD064630B19E
:1084C00003463A4A01213A480EF0D0FB1DE0394DEF
:1084D00009AC0FCD0FC42B683A46236036493346AA
:1084E000009609A805F034FA034690B10121334AF9
:1084F0002F480EF0BBFB324D284611F0AEFC70B990
:108500000121304A2A480EF0A8FB00200EB0BDE839
:10851000F08103212C4A26480EF09FFBEBE7AB6865
:1085200028461B6829499847031E01DA284AC9E7EB
:10853000012305930C230026DFF898801C4FADF82B
:108540002030AB6828465B6804A99847031E05DA0B
:1085500001213846204A0EF089FBF2E712F09DF81F
:10856000BDF90E30B3F5FA6F1ADD4FF47A72A0FB45
:10857000020302FB0131C40B44EA4144A31BB3F5DF
:10858000167F0DD94EF66026B6FBF3F6032133466F
:10859000424638460EF06AFB304601F041FE264660
:1085A000002121200CF000FDCBE700BF02B9010043
:1085B00088AF010090B0010028B1010021B901008D
:1085C000FCAC010067B9010046B901003EB10100F1
:1085D0007DB90100B3B901009FB901002DE9F04F49
:1085E00091B0009302F004030293C2F3C20301337B
:1085F000840705460E46DDF868900392059340F027
:10860000BB81041D30B1072909D86FF01B0011B0E0
:10861000BDE8F08F01F00706341DC6F10806009B87
:108620004FF000084FF0040A591E4FF0FF33474641
:108630000193C3465346CDF810800DB1009A2260D5
:108640000598002800F3E8809848009A824203D3F6
:1086500097488242C0F0E080039AA4EB050E92078F
:108660004FEA9E0000F103810F2F00F2B180002D30
:1086700000F0058107F140020DEB020C019A0CF8A5
:10868000200C0CF8102C049801300490E7E07A28B4
:108690005DD84B280ED8472859D829282DD8252809
:1086A00052D054D820287AD02338D0F1000B4BEB8D
:1086B000000B74E04C382E2849D8DFE800F07048F1
:1086C000484848484848484848484B484848484827
:1086D00048484859484B4B595959704B6D48704858
:1086E000184B184848827F4B48484B487F00002071
:1086F0004FF0000B4FF0040A38E001222A38C0B2D4
:1087000002FA00F010EA0E0F49D110F0625C2FD18E
:1087100010EA020B43D06046013C5444B4FBFAF427
:108720000AFB04F4002D61D0A3EB050CA4446645BC
:10873000FFF46BAF002868D1042B47D159F8043BF4
:108740002360042304342AE0019A013A01924FF095
:10875000000B24E011F8010C6C2834D1002011F832
:10876000023C83466C2BC5D14FF0080A5346D3E731
:1087700009F1070929F00709073424F00704F9E88B
:1087800002AB35B106982044B0423FF63EAFC4E993
:1087900000AB4FF0000B08344FF0080A534611F8B5
:1087A000010F002878D0BBF1000F7FF470AF2528AF
:1087B000F5D14FF0010B019B013301934FF0040AF7
:1087C000ECE7584694E700208346A5E7082B02D043
:1087D0006FF015001BE709F1070929F00709F9E80F
:1087E0000223C4E9002308230834D8E768B9042B1E
:1087F00002D109F10409A4E7082BE9D109F107091D
:1088000029F0070909F10809EDE7059A013A0592EF
:1088100059F8042B009210E7039A900720D54FF0E7
:10882000010CA4EB050E4FEA9E00BEF5007FCFD2EF
:108830000F2FCDD8F5B107F140020DEB020E019AD2
:10884000C0B20EF8200C0EF8102CBCF1000F3FF453
:108850001AAF60F07F000EF8200C08F10108013714
:10886000C5F108024FF6DA7E0434069297E74FF01E
:10887000000CDAE7BCF1000F01D00136EFE70298F7
:1088800002360028EBD10098CDE90631FFF7DCFD78
:10889000DDE906310644E2E7631BB3F5806F97D24A
:1088A00045B9A6F10804E018B1E600BFC4AB010069
:1088B000F4DE0100029A9B0828602B709DF81030AE
:1088C000C2B1EB7085F80280B8F1000F05D000222C
:1088D00008A8C5F1010C97420ED14FF0000AC5F16E
:1088E00001030DF1200901930DF1300B574512D111
:1088F000601B8CE66B70E5E710F8013B190608D5A4
:1089000004EB0C0E764503F07F03FFF47EAE04F813
:10891000013B0132DFE7B8F1000F03D099F90020E5
:10892000002A17DB029BD3B11AF80B2004F8012BA5
:108930000022019B981820448642FFF466AE99F805
:108940000000009904F8010B2046039212F013F97D
:10895000039A14440AF1010A09F10109C6E799F8DA
:10896000002055F822300093029B009845F82230F1
:10897000FFF76AFD421CDCE76FF00D0047E600BF21
:108980002DE9F04F95B000AFBB61BB6F0446C3F358
:10899000C0038A4690F802B07A623B6141B94578DB
:1089A00000780BEB80002044554517D8A0EB040A53
:1089B000E3787B61BBF1000F02D0BB6FD80716D400
:1089C0007B6953BB7B6A1BB151462046BA69984705
:1089D000554628465437BD46BDE8F08F461C304604
:1089E000FFF732FD013030440AF1010ADCE7237859
:1089F00062683B629B00FB603B6AFA6104EB83099F
:108A00007B6A002B40F0FF80C8460026554609EBE4
:108A10000B0AD04551D1D94413E0BB6F9907D1D58A
:108A2000237899463B629B00FB60636804EB8909ED
:108A3000FB617B6A002B7AD15546BBF1000F4FD109
:108A40005E46BB6F13F0050F0CBF4FF0020B4FF0EB
:108A5000010B7B6909EB430ABB6F03F002037B62E6
:108A6000D145B6D019F8021B19F8013C54F82380FF
:108A7000AB4B984502D3AB4B984538D33B69002BA1
:108A800042D0F8690DF030F800283DD0E8468AB0B1
:108A90006A46A54B5361FB69C2E906314FF4007386
:108AA0001384A24B42F8103F00234FF41251A04808
:108AB00001F0AEF8023DC546D2E718F8013B54F884
:108AC0002300FFF7C1FCFB6F01303BB1D7F88030CA
:108AD0009E423EBFFB6F23F816000136054498E71F
:108AE000BB6F13F004061CBF7E6AD944A9E73B693B
:108AF00023B1F8690CF0F8FF0028C7D1BB6FDA0783
:108B000005D4A5EB0B05ABE77B6A002BA8D040464C
:108B1000FFF79AFCFB6F43B1D7F880309E423FBF0E
:108B2000FA6F431C22F816300136054498E7BBF172
:108B3000000F6ED0BB6F13F004066DD0D846002630
:108B400007F140005A46494612F015F87B69D944AE
:108B50005B007B607B6909EB4303BB60BB6F03F089
:108B600002033B60BB684B4558D1B96F6378B86F5F
:108B7000890748BF002106EB030258BF4FEA58019E
:108B8000C507D2B200F19A8010F0040F14BF40461E
:108B90000020FB616270A070E1702046BA69F9683C
:108BA0007B6A9847051EFFF614AF3B6A4146237067
:108BB000FB69BA6963707B6984F802B0E37007F1FE
:108BC00040007B6A9847B0F10008C0F2A480FB68BF
:108BD000AAEB0B01C91A7B684846C91ABA697B6AB5
:108BE00098470028C0F299804FF0000BA84408EB8A
:108BF000000507F1300AB34562D30021BA6908467F
:108C00007B6A9847E5E65E464FF0000807F13000C2
:108C100098E75E46D84699E7B04697E719F8021BF1
:108C20003F4B19F8015C54F82500984202D33D4BA4
:108C300098421DD33B6923B1F8690CF055FF002819
:108C400090D13B68FBB908F1280307F1280208F12D
:108C5000010003EB020C07F1500308F1020853FA7C
:108C600080F00CF8101C5FFA88F800F8105C79E7C7
:108C70003B692BB1F8690CF037FF00287FF472AF25
:108C8000BB6FDB0709D506F1280307F12802711C29
:108C90009E1806F8205CCEB264E7BB6F58077FF5DC
:108CA00061AF08F1280307F1280208F1010103EB85
:108CB000020808F8105C5FFA81F853E7002068E7C3
:108CC0001BF80A3054F8239087F82F30FB6FFBB164
:108CD00033F81B800121BA697B6A07F12F0098479E
:108CE00000281ADB0544B8F1000F06D14846FFF70B
:108CF000ABFB00F101081FFA88F841464846BA6903
:108D00007B6A9847002808DB05440BF1010B72E7EA
:108D1000D7F87C80DEE745465BE6054659E600BFAE
:108D2000C4AB0100F4DE0100E0B901000400000161
:108D3000F8AF0100014B1860704700BF08820020A7
:108D400080B505460E46174698460CF047F903468F
:108D500011F02EFF0446DFF81890424649F8003023
:108D600039463046A84754F8090001F02DFF00BFEE
:108D7000080000002DE9F047058B044628079046BF
:108D800011D4022905F0070540F0CD8020460DF0F2
:108D90008EF978B10138218B042811D8DFE800F072
:108DA000C3106D85950001290CBF45F0100545F0F5
:108DB0002005258388F31188BFF36F8FBDE8F08706
:108DC00001F0070AAA4500F0A6800027B9463E46F2
:108DD000A368002B00F0BD8041F00801218388F3D7
:108DE0001188BFF36F8FA168002900F0BB800D6868
:108DF000002900F0B780334652462046D1F804805F
:108E0000C047002D76D02B6829461D46F0E701F0BB
:108E100007035A1F012A1BD8002221F00701062B45
:108E2000276889B2C4E9002209D13B4603E0628B7E
:108E3000013262831B68002BF9D141F00201204608
:108E400021830DF034F900287BD041F0200177E038
:108E5000042B0AD121F0070189B2204621830DF0AD
:108E600026F910B141F020012183218B01F0070A7E
:108E7000AA4550D00027B946AAE7236921F0070187
:108E800041F00601062DD3F8009021832DD1B9F1D0
:108E9000000F40D041F00801218388F31188BFF30F
:108EA0006F8F20463949C84729E021F0070123691F
:108EB00041F0040189B2042DD3F804902183E6D057
:108EC00000274FF0040A3E4682E721F0070123699C
:108ED00041F0050189B2052DD3F808902183D6D041
:108EE00000274FF0050A3E4672E700274FF0060ABA
:108EF0003E466DE72B4687E7B9F1000FD1D14FF021
:108F00002003EFF3118883F31288BFF36F8F238B55
:108F100023F008032383258BEA062ED525F01003C2
:108F2000238305F007056669218B002EBFF66FAF1E
:108F300000232768C4E9003321F0070141F0010153
:108F40002183218B4FF0000901F0070AAA457FF425
:108F50003FAF002F9BD041F00801218388F3118897
:108F6000BFF36F8F002FC7D03D6839463346524656
:108F700020460DF0C8F82F46F4E7AB067FF51AAF90
:108F800025F02003238305F00705FFE63361010088
:108F900010B530B90B480C490DF0D5FB6FF015003A
:108FA00010BD836833B9074808490DF0CCFB6FF05A
:108FB0000400F5E71B6813B1BDE8104018471846D8
:108FC000EEE700BF18B0010094BA0100A5BA010095
:108FD00010B530B90B480C490DF0B5FB6FF015001A
:108FE00010BD836833B9074808490DF0ACFB6FF03A
:108FF0000400F5E75B6813B1BDE810401847184658
:10900000EEE700BF18B0010094BA0100A5BA010054
:1090100070B508B101B132B90B480C490DF093FBA2
:109020006FF0150070BD84680CB1E56835B906486D
:1090300007490DF088FB6FF00400F3E741F8040BDB
:10904000E368BDE87040184718B00100C3BA0100DA
:10905000A5BA010010B5044630B9104810490DF00A
:1090600072FB6FF0150010BD006830B90B480D4958
:109070000DF069FB6FF00100F5E783680BB11B6928
:1090800033B9064808490DF05EFB6FF00400EAE7CB
:10909000616898470028E6D12060E4E718B0010035
:1090A000EFBA010000BB0100A5BA010070B513467C
:1090B000044630B9104811490DF045FB6FF015001A
:1090C00070BD006830B90C480D490DF03CFB6FF0E5
:1090D0000100F5E782680AB1956835B90648094983
:1090E0000DF031FB6FF00400EAE70A46AC46616818
:1090F000BDE87040604700BF18B00100EFBA010042
:1091000000BB0100A5BA0100034A13680BB95268FD
:1091100013600020704700BF0C82002030B50C4661
:109120000E4985B00291D0F8AC110546CDE9003169
:1091300000F1E0014FF0FF3320460AF03FFC50B948
:10914000012384F86430D5F8A83123B1204605B056
:10915000BDE83040184705B030BD00BF3F68010092
:1091600038B50C46114605460DF06BFB034638B981
:10917000284604490DF065FB03460020236038BDF6
:109180000120FBE7DDDD01002DE9F04F01238146E1
:109190000569466885B005F55B77D7E8EF2F002AAB
:1091A00003D1C7E8E13F0029F7D10CBF1A460022DE
:1091B00040F0B180B368B16A05F5E4781C1F104631
:1091C0000DF0C4FB84425FD8013A00F09E80B2FAF1
:1091D00082F24FF00044D44072682046073222F0F9
:1091E0000302C5F86022B16A0DF0B0FBC5F8640255
:1091F000B36A40466343033323F0030302EB4302A5
:10920000230103EB4403093323F0030303EBC403FB
:10921000C5F858221A440832C5F854227368C5F8B4
:109220005C42C5F850323D4BC5E9A963316800F096
:10923000DFF9044630BBD9F804A0D9F81090DAE978
:10924000073409F5307B012B584608BF103C11F05C
:1092500056F80023DAF8240031494FF4806201EB1C
:1092600080210093584623460BF0E4FA09F52C7050
:109270002C4910F0EAFFDAF8140083685C682CB916
:109280006FF05704002139E0013298E74B46264A37
:10929000DAF81810A04704460028F3D1DAF81400D1
:1092A00083681B69002BEBD00122DAF8181098476D
:1092B00004460028E6D11D4B2846C5F8A8311C4BB2
:1092C000C5F8AC311B4B0393D5F810320293D5F897
:1092D0000832CDE90083D5F86832B26AD5F8681350
:1092E00000F04EF904460028CCD105F1E0000AF068
:1092F00013FC0028C5F870030ADB022138460DF084
:10930000D5FA204605B0BDE8F08F6FF00B04B9E741
:109310006FF01504B6E76FF07704F2E79568010087
:10932000009C00207B6801006F68010039930000F9
:10933000236A0100DD68010013B5044640B1002333
:109340000122CDE90032074BD0E909120AF0EAFA0E
:10935000A36E1B6823B1E06E02B0BDE81040184751
:1093600002B010BDDDDD010013B5044608462169D9
:1093700001F55B71D1E8AF1F022910D193B1A0B103
:109380000121CDE900311346D0E909120AF0CAFAE9
:10939000074B984208BF6FF00B0002B010BD6FF092
:1093A0000F00FAE76FF04C00F7E76FF00100F4E709
:1093B0002EF8FFFF2DE9F74388461546066906F5A6
:1093C0005B73D3E8AF3F022B5FD1136823B96FF013
:1093D000150003B0BDE8F0831B78002BF7D0D6F85A
:1093E0006893B9F1000F33D106F5D8774FF0FF320B
:1093F0004FF0FF3338460AF0ABFF30462A6801A928
:10940000FFF7AEFE019C1CB938460DF04DFADEE7C1
:1094100005F10803A3666B6984F86490E366E4636E
:1094200060B138460DF040FA21463046236E2A6876
:10943000FFF774FE0020C8F80040CAE72022296820
:1094400004F1400011F025FB38460DF02DFAF1E74C
:1094500030460F490DF0F5F904460028B7D005F164
:10946000080383666B69C063C366002380F86430B9
:1094700020222968403011F00CFB224601213046A1
:1094800000F060F80028D5D0A1E76FF00F00A0E74A
:10949000DDDD010010B50C46006900F55B73D3E813
:1094A000AF3F022B0FD189B10A4900F52C7010F0A3
:1094B0000AFF204610F092FA70220021204611F097
:1094C00067FB002010BD6FF00F00FBE76FF001009D
:1094D000F8E700BFA89600202DE9F04F05460E469C
:1094E00090460027D0F8B0A085B0AAF5AE7421460A
:1094F0003046FEF797FFE0B9114BA4F1400B029301
:10950000DAF810303246CDE9008329464FF0FF33B8
:109510005846AAF5CE790AF051FA60B970230122B3
:1095200003FB079383F86420DAF80C300BB158463C
:109530009847703417B105B0BDE8F08F0127D6E722
:10954000516A01001FB5144690B18AB1012912D1A8
:109550000A4B00F1E0010293D0F8AC3140320193A4
:109560004FF0FF33204600930AF028FA04B010BDF4
:109570006FF01500FAE70020F8E700BF516A01001C
:109580002DE9F04387B00E46DDE90E811446DDE992
:1095900010251F4630B329B3DFF850C000F1E009B1
:1095A000002D08BF65469EB9CDE9034400F5CE7491
:1095B0002046059610F037FC03ABCDE900432A4660
:1095C0003B46414648460AF0CDFA07B0BDE8F08375
:1095D000002241460E9248462A4607B0BDE8F043B5
:1095E0000AF0ECBB6FF01500EFE700BFD994000064
:1095F000F0B50E46044689B000286FD0012302461C
:10960000C3630023D0F89810364F403040F80C7CEC
:1096100042F8301FCDE901334FF0FF330093C36DA3
:109620000FF0C1FE304A06AB92E8030083E8030066
:1096300018460AF089F80546D8B904F134000AF052
:1096400065F80546A8B93946284805AA0FF087FEEF
:10965000054670B9059B9A6872B10C33D4F8940032
:10966000C4F8A0300DF025FAC4F8D40030B96FF07A
:109670000B05284609B0F0BD0346EFE7D4F8940087
:109680000DF017FAC4F8D8000028F0D0D4F88C30C8
:10969000D4F8A010C4F8A8300423C4F8AC30C4F83F
:1096A000C4300223A362124BB4F89420D4F8D470CF
:1096B000C4F8B810C4F8D010D4F89010236204F1A4
:1096C000A403A4F8B020C4F8A470C4F8C010A4F88F
:1096D000C820C4F8BC00A661E362CAE76FF01505B4
:1096E000C7E700BF2ABB0100A4B0010034BB0100E2
:1096F00078B101002DE9F047044607464FF0010913
:10970000DFF8508014B93846BDE8F08794FAA4F524
:10971000B5FA85F509FA05F32E0108EB05156FEA90
:10972000030A24EA03042B7B002BEBD058F8063005
:109730001B694BB94644736804222846196807EA36
:109740000A0700F051FADDE7284698470028D9D1EA
:10975000F0E700BF80B0010030B5002289B00F49AA
:109760000F4810F0E1FF002200230024CDE906237A
:109770000E230C4DCDE903344FF440722846CDE959
:109780000144094B094900940AF02EFD0849284676
:1097900010F01CFC204609B030BD00BFB59700009A
:1097A000D88F0020488B00208D9A000000A0002058
:1097B0003CBB010001480AF079BE00BF5086002082
:1097C0002DE9F04780461F480F460DF0C4F90646C4
:1097D000002830D000252846BDE8F087237B73B1F0
:1097E0002368DB680BB12046984723681B69D3B90F
:1097F000636804222046196800F0F6F90136103437
:109800004C45EBD3B8F1000FE5D0002DE2D028464F
:10981000FFF770FF0546002FF7D000214FF4A4702A
:109820000BF0C2FBF1E7204698470028E0D00AFA87
:1098300006F31D43E2E705464FF0010A024CDFF84C
:109840000C90DDE7E096002080B0010090B00100B0
:10985000014B53F820007047B8B1010008B503462A
:1098600008462BB1044A136000F072FC002008BDCA
:109870006FF01500FBE700BF3882002010B5044CE4
:10988000237813B903480AF011FE0123237010BD99
:10989000509B00205086002010B5044606480DF06D
:1098A0005AF93CB1054BD3E8EF1F0139C3E8E21F79
:1098B000002AF8D110BD00BFD8960020DC96002009
:1098C00000200146034BD3E8EF0FC3E8E21F002A54
:1098D000F9D17047D896002070B5FFF7F1FF054623
:1098E000074C084EB44200D370BD63685B792BB15E
:1098F00023685B6813B12946204698471034F1E786
:1099000080B0010090B0010010B5044C044920461D
:109910000CF0BEFD034B1C6010BD00BF788500201D
:10992000A4B10100D096002008B50023074A4FF4E7
:1099300000411370064A07481360074A1360FFF797
:109940008DFFBDE80840FFF7DFBF00BF519B00203F
:10995000D8960020536B0100DC96002001460022BF
:10996000002301480CF0B5BD7885002001480CF0BB
:109970004EBE00BF78850020024B014618680CF0EF
:1099800098BE00BFD096002001480CF0CEBE00BFAC
:109990007885002070B5264B1878002847D0FFF74F
:1099A000E5FF054670B1234BD3E8EF1F0139C3E84B
:1099B000E21F002AF8D1204C204EB4422DD3284675
:1099C000FFF7DAFF1E4B1F4C1B68002B19DD10F050
:1099D00064FE4FF47A72A0FB020302FB0131C30B59
:1099E00043EA4143D4E900209B1A40F2E9324FEAAE
:1099F000D13161EB0001934271F1000101D3FFF716
:109A00006BFFD4E9003213F57A7342F10002C4E926
:109A10000032BDE87040FFF7B7BF63685B7923B1E0
:109A20002368294620461B6898471034C5E770BD57
:109A3000509B0020DC96002080B0010090B0010017
:109A4000D8960020D08F002070B50D4D297861B9CF
:109A50000120FFF7B5FE0B4C0B4EB44206D3FFF7C7
:109A600099FF0028FBD101232B7070BD63685B79DF
:109A70001BB1236820469B6898471034EDE700BF70
:109A8000519B002080B0010090B0010000212DE921
:109A9000F0470846FFF794FE044658B340F2676863
:109AA0004FF0000911F084F81B4B1C4A1B5813603F
:109AB00033B11B4B1B68092B02DD1A480AF0F6FC78
:109AC0000025194FDFF85CA044B12046FFF712FED5
:109AD000044618B94FF0FF384FF0FF39FFF75AFF2F
:109AE000064628B9B5B942464B4650460AF004FD31
:109AF0003546E9E74FF0FF384FF0FF39D2E72B68E2
:109B00009B691BB100222846114698471035BD427B
:109B1000F5D3E8E7054DFAE708000000D4960020E9
:109B2000DC9600205086002090B0010080B001003B
:109B300013B518480DF00FF8174B1B787BB14FF099
:109B40002003EFF3118483F31288BFF36F8FFFF7C5
:109B500021FF84F31188BFF36F8F02B010BD0F4B4C
:109B60001B68002BF9D050B9002200230C48CDE926
:109B700000234FF4004200230BF014FCEDE709280A
:109B8000EBD1074810F0DCFD064802B0BDE81040FC
:109B90000AF08CBCDC960020519B0020D49600205B
:109BA000D88F00205086002010B5064B04461B6855
:109BB00098472146A06004480CF009FDBDE810401C
:109BC000FFF7B6BF3882002078850020044A054B95
:109BD0009B1AB1EBD30F34BF52F83100002070470D
:109BE00088AF010080B00100084B10B4C31A44686C
:109BF0001B110133237143689A7101224368196074
:109C000043685A7110BCFFF739BE00BF80B0010035
:109C10002DE9F04F8FB0C1F34A2804AF0D469146AD
:109C2000B8607B600C0DB8F1000F63D000264FF0D8
:109C3000040B4FF00A0A07F11403C7F80C80C7E9B8
:109C400007667E620193CDF808B0CDF800A007F159
:109C50001C0332464846F968FEF792FEB0F5006FE5
:109C600003461CD36C468AB0D9F8041004AB2648CE
:109C70001A46C3E9050140F2FF71D9614FF4007142
:109C80001984224B42F8103F4FF4125133462048BA
:109C9000FFF7BEFFA5462C37BD46BDE8F08FC0F3E9
:109CA0000A0804F11700184420F0070080083B6000
:109CB000FFF754FE68F35325044690B13B6800F16A
:109CC0001001C7E9083607F11403F961CDE900A3D3
:109CD000CDF808B048460F4AF96807F11C03FEF7B3
:109CE0004FFE68F353252A4620467B68B9680CF07E
:109CF00064FFD0E704F1170020F007008008FFF7A9
:109D00002DFE0446EDE700BF51BB01000400000139
:109D100020B001008F6B01002DE9F04F87B00446A1
:109D2000DDE9105ADDE912690F4693469846A6B35D
:109D30001021334652460020CDF80090CDF8149003
:109D4000FEF74CFC014605F117000844144B04F0E3
:109D500007040BF0070BE40020F0070003EA41239F
:109D600044EA8B1480081C430391FFF7F7FD44EA93
:109D70000554054640B13EB1334652460399CDF8ED
:109D800000901030FEF72AFC43462246394628460A
:109D900007B0BDE8F04F0CF010BF3146D3E700BF6D
:109DA00000FE0F000EB403B503AB53F8042B0146BD
:109DB0000448019301F086FA02B05DF804EB03B0A9
:109DC000704700BFCD6C0100CA0605D48B064CBF9E
:109DD00002490349FFF7E6BF704700BFDCDD010021
:109DE000DBDD01002DE9F04F89B09B46DDE91676F9
:109DF0009DF84C3004460493DDE914930593049BCD
:109E00000D460692002B00F0878006F008030793AA
:109E10000CF0BBFE06F0020A024600284BD020469A
:109E20008549FFF7BFFF8046BAF1000F08D016F052
:109E3000440F42D12A4620468049FFF7B3FF8044B1
:109E400006F001035BB17E4B049A204653F82220B2
:109E50007C4B7D49002A08BF1A46FFF7A3FF06F096
:109E60000803002B55D0794B049A204653F8222042
:109E70007749FFF797FF0546069B2BB11A46204608
:109E80007449FFF78FFF0544BBF1000F05D05A4618
:109E900020467149FFF786FF05444544B9F1000F9C
:109EA00049D1002F4FD1F30700F1C0803146204641
:109EB000FFF78AFFB4E08046B6E7684B18680028D1
:109EC000BDD0674B4FF47A7E1B684FF46162B5FBDF
:109ED000F3F5B5FBF0F300FB13550EFB05F5B3FBF3
:109EE000F2FAB5FBF0FC3C2102FB1A3200FB1C55D8
:109EF000B2FBF1F30EFB05F5B5FBF0F501FB132208
:109F000020460092CDE901C552465649FFF74AFF67
:109F100095E706F00805AFE7BBF1010F06D1B9F1EF
:109F2000000F64D1002F7BD000250CE0B9F1000FA9
:109F3000F8D04D485CE04D484B4622464C490BF06A
:109F4000A2FD002F68D0DFF82C91DFF82CA1102F94
:109F500031462046B8464FF0000B28BF4FF010089E
:109F6000FFF732FF5D4545DC059B514620461A78D8
:109F7000FFF718FF4FF0010B1BF0070F03D1494605
:109F80002046FFF70FFFD8453BD9059B5146204699
:109F900013F80B20FFF706FF0BF1010BBBF1100FBD
:109FA000EAD14FF0000B20463449FFF7FBFE5A463A
:109FB000059B20469A5CA2F120015F2928BF2E2232
:109FC0002F49FFF7EFFE0BF1010BBBF1100F1DD076
:109FD0001BF0070F03D149462046FFF7E3FED845A3
:109FE0005A46E5D849462046FFF7DCFEEBE71F4816
:109FF000049DA1E749462046FFF7D4FE0BF1010B73
:10A00000B0E720461F49FFF7CDFEC5E7059BB7EB3C
:10A010000807434405939AD1049B002B7FF443AF78
:10A02000204609B0BDE8F04F0CF043BE2046054A7B
:10A030000549FFF7B7FE39E795BB010099BB010061
:10A04000C8B1010090BB01004BC80100DCB10100A8
:10A05000BEBB0100C4BB0100C8BB0100E8960020E4
:10A06000E4960020A2BB0100FB6C0100CD6C010056
:10A07000C5B20000A7DD0100CDBB0100D3BB0100CC
:10A08000D5BB0100A5DD01002DE9F0410F884B682B
:10A0900005460C4690468E6886B0C7F382175BB1C2
:10A0A000144A9B1A43F3CF01002920DB2078C0F328
:10A0B000C200FFF78BFD0346214651F8102B608844
:10A0C000C2F34A22002A01EB020408BF0021002249
:10A0D000C0F30B10CDE90408CDE90214284631463F
:10A0E00001970092FFF77EFE06B0BDE8F0810023E5
:10A0F000E2E700BF88AF010042F20F7373B58B42F5
:10A1000028BF0B4605680446052168460D4A0BF03A
:10A1100033FA0646636828460B225B680A490CF04E
:10A12000BBFD63683246694628465B680CF0B4FDA7
:10A1300063681B2228465B6804490CF0ADFD02B041
:10A1400070BD00BFCCB90100F4BB0100D8BB010059
:10A1500000210123064A904206D8064A01B901238C
:10A160001360054B18607047012140085B00F2E75F
:10A1700040420F00E4960020E8960020F8B50D4616
:10A180000446064F4618B44201D12846F8BD14F8DB
:10A19000011BBB6801485B689847F4E7C0AC01004D
:10A1A000014B03600020704724B201000122024BE2
:10A1B00000201A70704700BF559B00201FB5012476
:10A1C0000294044C0194BDF8184000940EF0F2FB88
:10A1D00004B010BD559B002080B50C4A0C4B00AF5D
:10A1E00088B0012908BF13466A460A49C2E9051327
:10A1F0004FF400739383084B42F8103F00234FF451
:10A20000E6510648FFF704FDBD4680BD3ABC01009B
:10A2100042BC01004BBC01000300000110B0010072
:10A22000062310B50C4C86B01822607000216846D9
:10A23000237010F0ADFC094B6946CDE901340223CF
:10A240000020ADF80C3006F00DFA10F1800F08BFB9
:10A25000002006B010BD00BF539B002038B20100A3
:10A260000449431E0F3013F8012F8A5C83421A7091
:10A27000F9D1704764BC0100F0B50746264E8DB099
:10A2800001AD0C460FCE0FC50FCE0FC596E80700E7
:10A2900085E807003846002F39D0002C39D0381F08
:10A2A0000246214610344B780D781B0443EA0563BF
:10A2B000CD7804312B4311F8025C8C4243EA05232C
:10A2C00042F8043FEFD10421144C8A07036916D1E8
:10A2D000C3F30742A55C1A0EA25C42EA0562C3F30F
:10A2E0000725655DDBB2E35C42EA054242EA0322F0
:10A2F00021F0030330336B4453F82C3C534050F8A7
:10A30000042F013153402C290361DED101200DB00F
:10A31000F0BD2046FBE700BFACB0010064BC01000B
:10A320002DE9F04F002703689DB002934368DFF8E2
:10A33000BCA103938368DDE902460493C3680593D7
:10A340000369DDE904BE0693436907938369DDE988
:10A35000062C0893C36998460993089B0093CD592E
:10A360000CAB2DBA5AF8049BDD514FEAF223A944F5
:10A3700083EAB213009D83EA72634B4425EA020527
:10A3800002EA0C0985EA09052B44434486EA0B05D9
:10A390004FEA743888EAB408254006EA0B0985EAD2
:10A3A000090588EAB4580437A844402F03EB0E058A
:10A3B0004344DE46DDF8008040F088804FF0100A0C
:10A3C0004B490A9151460AF1010A0DF1700E0AF04B
:10A3D0000F070EEB870757F8407C01F00F094FEA93
:10A3E000B748019788EAF71801F10E0707F00F0741
:10A3F0000EEB870757F8407C09314FEAF74E8EEA9B
:10A40000774ECDF82CE001F00F010DF1700E0EEB40
:10A4100081010EEB890959F840EC51F8401CBAF162
:10A42000400F7144DDF804E088EADE08DDF82CE036
:10A4300041448EEA972E714405EA02084FEAF52E50
:10A440002CEA050787EA08078EEAB51EDDF82880A2
:10A450008EEA756E774458F804EF49F8401C77444B
:10A460000F4400994FEA733E394484EA0607CDF859
:10A4700028808EEAB30E07EA030704EA06088EEA8C
:10A48000B35E87EA080777440F4401EB0B0ECDF863
:10A4900000C0B34622D1029939440160039919449E
:10A4A000049B416023448360059B3344C360069B47
:10A4B00073440361079B2B444361089B13448361EE
:10A4C000099B6344C3611DB0BDE8F08FB346CDF86E
:10A4D00000C0264694461C462A4640E79446264637
:10A4E0002A461C4675463B466CE700BFC4B20100D5
:10A4F00000B3010010B50446C8B1702200210CF071
:10A500003FFC0B4B0B4A0C49C4E900230B4B0C4896
:10A51000C4E902130B4BC4E9040301200A4BA361F5
:10A5200003F17453A3F52303A3F69243E36110BD33
:10A5300085AE67BB67E6096A72F36E3C3AF54FA5D4
:10A540007F520E518C68059BABD9831F2DE9F047D4
:10A5500080460C4600AF002936D0D1E90012E9460A
:10A560008AB06D46A3684FF0050A2E461A48C5E921
:10A570000723C5E9050146F810AF002332464FF422
:10A5800021511648FFF744FBD4E90312CD46636915
:10A59000AD461348C5E90723C5E90501C5F810A074
:10A5A000002332464FF421510C48FFF731FBCD46D2
:10A5B000E36901210B4A09480CF058FBA36901210A
:10A5C000094A06480CF052FB2146404609F00CFCB3
:10A5D000BD46BDE8F08700BF64BD010060B001006A
:10A5E00093BD0100C2BD0100D1BD010030BFFFF726
:10A5F000FDBF00BF114B124A2DE9F041D518013DB6
:10A60000B5FBF3F5DFF83C805D430F4B074608EBE5
:10A610000304013CB4FBF3F403FB04540E1B30466B
:10A620000A4910F0A8FA701942460021083E10F0BD
:10A63000AFFA7E6704F10800BDE8F0810100000078
:10A6400000000000040000000400000090B00100C1
:10A65000044B99685869884203D003494FF08052EF
:10A660000A607047049B002004ED00E070B52A4C9E
:10A6700006460D4629482A490CF0D4FFA36ADB069A
:10A6800047D5264827490CF0CDFF1120A36A1C07A7
:10A6900004D5224824490CF0C5FF12201E4CA36AA1
:10A6A000990712D521491D480CF0BCFF636BA26AC3
:10A6B000120609D501211E4A18480CF0D7FA1EB11E
:10A6C000A36A23F08003A3621320134CA36ADE075E
:10A6D00004D5124817490CF0A5FF1420A36A9C0664
:10A6E00004D50E4814490CF09DFF15200A4B9A6AB8
:10A6F000D10658BF9A6A9A6A920642BF5A6A22F4F1
:10A7000000525A629A6A42F0FF029A6200232B704A
:10A7100070BD1020BAE700BF00ED00E060B001009E
:10A72000FFBD010015BE010048BE01005BBE010077
:10A7300073BE010089BE0100A8BE010010B5244C03
:10A74000244925480CF06EFFA36A99013ED52248A2
:10A7500022490CF067FF1E20A36ADA0104D51E48C7
:10A760001F490CF05FFF1F20194CA36ADB0204D5C0
:10A7700019481C490CF056FF0220A36A1C0304D59B
:10A78000154819490CF04EFF2120114CA36A5903BA
:10A7900004D5114815490CF045FF2220A36A9A03FD
:10A7A00004D50D4812490CF03DFF2320084CA36A44
:10A7B000DB0304D508480F490CF034FF2420A36ABA
:10A7C0006FEA03436FEA1343A36210BD1D20C3E782
:10A7D00000ED00E0D7BE010060B00100EFBE010057
:10A7E00002BF01001CBF010046BF010064BF0100A1
:10A7F00089BF0100A3BF010070B5294C06460D4674
:10A80000284829490CF00EFFA36AD9043CD52548F5
:10A8100026490CF007FF1720A36A1A0504D5214822
:10A8200023490CF0FFFE18201D4CA36A9B0512D58E
:10A830001C4820490CF0F6FEA36BA26A100409D54F
:10A8400001211D4A17480CF011FA1EB1A36A23F426
:10A850000043A3621920124CA36A590504D511487C
:10A8600016490CF0DFFE1A20A36ADA050ED50D4852
:10A8700013490CF0D7FE1B20094A936A43F47F4327
:10A88000936200232B7070BD1620C5E7A36A9B045A
:10A89000F2D504480B490CF0C5FE1C20ECE700BFC4
:10A8A00000ED00E060B00100CEBF0100E4BF010098
:10A8B00048BE0100F5BF01000EC0010023C0010029
:10A8C0003EC00100A8BE01002DE9F0478AB0694BE7
:10A8D0000446D3F804A089461646002500AFCAF303
:10A8E000080885F31188BFF36F8F02F07F43B3F13F
:10A8F0007F4F1ED1D3071CD4500603D4110708D4B0
:10A90000012508E05C495D480CF08CFE16F0040659
:10A9100000D04C4600250023FB71A8F10303092B4E
:10A9200000F28680DFE803F0077C7F7984848484EA
:10A9300084822C46EFE7524950480CF073FE002306
:10A940004C4EFB71F36A9A0705D54E494B480CF003
:10A9500069FE002329E0F36A002B01DA4A49F5E792
:10A96000F36A5B00F5D5494944480CF05BFE736916
:10A97000A26943F480737361BFF34F8FBFF36F8F8E
:10A98000736932F8022C23F480737361BFF34F8F25
:10A99000BFF36F8F4DF602739A4228D123680121CD
:10A9A0003B4A36480CF062F92368FA79DAB907F1C4
:10A9B000080604F1200C324620686168083403C29E
:10A9C00064451646F7D17A6A002D4ED0C2F30801CD
:10A9D00021B96FEA52226FEA42227A62184607F1E1
:10A9E0000801FFF7B3FD2837BD46BDE8F087B36A1D
:10A9F000DBB22BB10120F91DFFF738FE0346D4E787
:10AA0000B36A13F47F4F04D00120F91DFFF7F4FE61
:10AA1000F4E7B36AB3F5803F9BD3FFF78FFEEDE712
:10AA20000020F91DE8E70020F91DEFE719498DE73F
:10AA3000194A6E461AF4F87F8AB0184B18BF1346AD
:10AA40006A461749C2E90513A8F11003D3614FF410
:10AA500000731384134B42F8103F00234FF411513D
:10AA60000648FFF7D5F8B54673E722F4FF7222F0E7
:10AA70000102B2E700ED00E084C0010060B0010017
:10AA8000A7C00100BEC00100DFC00100EDC0010091
:10AA90000CC1010028C101006BC0010056C00100BB
:10AAA0004CC1010004000001044B5A6942F010023D
:10AAB0005A615A6942F480625A61704700ED00E0C1
:10AAC000EFF30880EFF3098101B57246FFF7FCFE52
:10AAD00001BD00BF002080F31488BFF36F8F0020FA
:10AAE00080F30A8880F30B8800F04EFD00200E49A9
:10AAF0000860BFF34F8F0D4880F3088800F03EF8E0
:10AB0000202080F311880A484FF40061401880F338
:10AB10000988EFF314800221084380F31488BFF3FF
:10AB20006F8F00F00DF9000094ED00E098BE00205A
:10AB300058B10020BFF34F8F0549064BCA6802F495
:10AB4000E0621343CB60BFF34F8F00BFFDE700BF50
:10AB500000ED00E00400FA05002318460649D1F88C
:10AB60009020C2F30722934200DB7047C1F898306F
:10AB7000C1F8A0000133F6E700ED00E010B572B6B1
:10AB8000002484F31388FFF7E7FF23464FF0FF30DC
:10AB90000C4A03F120010133102B42F82100F8D1B7
:10ABA00000234FF0FF30074A03F160010133102BFF
:10ABB00042F82100F8D162B6BFF34F8FBFF36F8F19
:10ABC00010BD00BF00E100E0084B9B6883420BD141
:10ABD000EFF3058343B1064B5A6842F080525A6046
:10ABE0005A6A22F400425A620FF0F9BC049B00201A
:10ABF00000ED00E06FF00A01084A9368D967084940
:10AC000098674B6843F080534B60002383F31188AF
:10AC1000BFF36F8F9368D86F704700BF049B00200D
:10AC200000ED00E018498A6882F881E04FF03000BA
:10AC30001044EFF3098C80E8F01F202080F3128885
:10AC4000BFF36F8F114F4FF000664A698A603E6014
:10AC50004FF07404141920680D4C206092F981E0C3
:10AC6000906F0023936780F3118802F1300090E821
:10AC7000F01F8CF3098802F1000004B50CF0DCFC35
:10AC8000BDE8044070470000049B002004ED00E094
:10AC9000189700201EF0040F0CBFEFF30880EFF3AD
:10ACA0000980816911F8021C0229FFD001B50CF05E
:10ACB000AEFC01BD40B2002807DB01234109034A75
:10ACC00000F01F00834042F82130704700E100E0AF
:10ACD00040B200280CDB01220649430900F01F00A6
:10ACE0008240203341F82320BFF34F8FBFF36F8F93
:10ACF000704700BF00E100E0054B420953F82220F5
:10AD0000012300F01F0003FA00F01040704700BF5D
:10AD100000E100E040B2002801F10101ACBF00F108
:10AD20006040064B4FEA4111C9B2ABBF00F561402C
:10AD300000F00F0080F800131954704714ED00E084
:10AD40000B4A08B50B4B22F07F029A60BFF34F8F7E
:10AD5000BFF36F8FD3F8882022F47002C3F88820E5
:10AD600009F0F6F80AF052F900F07CF809F03AF927
:10AD70000080000000ED00E042F8203C009B0D49FF
:10AD800042F81C3C019B21F0010142F8183C029B57
:10AD900042F8081C42F8143C4FF0807342F8043C1F
:10ADA000002383674FF43C43203A0265C0F88030AB
:10ADB000704700BF418D00000A4B446F98600A4BFA
:10ADC0001C60436E83F30B88104681F309880021D1
:10ADD00063B681F31188BFF36F8F00220023FDF764
:10ADE000AFFF00BF049B00201897002001491022EC
:10ADF0000A60704710ED00E072B6404080F31188A1
:10AE0000BFF36F8F01B500F0BBFA00280AD0BFF383
:10AE10004F8F30BF00BF00BF00BF00BF00BF00BFEB
:10AE200000BF00BFBDE8014062B6BFF36F8F70473F
:10AE300072B6494081F3118801B500F0A1FA0028EB
:10AE40000AD0BFF34F8F20BF00BF00BF00BF00BFBD
:10AE500000BF00BF00BF00BFBDE8014080F3118804
:10AE600062B67047002320210348C2180133452BE6
:10AE700082F80013F9D1704700E100E001B5EFF36B
:10AE80000580A0F110004FEAC0000449014409C93F
:10AE90009847BDE8014002490847000010AD010095
:10AEA00051A600001FB5094C094A23460121094853
:10AEB00000F00AF900230393074B0121E41A01A8CB
:10AEC0000193029400F00AF904B010BD00000720BD
:10AED00000800020C4B30100D087002010B50C7A98
:10AEE0000B6804F01F0223F01F031A43CB686409A8
:10AEF00023F01F03054943EA440343F00103C1F86B
:10AF00009800C1F89C20C1F8A03010BD00ED00E011
:10AF1000072810B508D901210346054A05480BF05A
:10AF2000A5FE6FF0150010BDFFF7D8FFFBE700BFCF
:10AF300063C1010040B001002DE9F04F894614467D
:10AF400006464FF00008514D85B0C84527DAD6F8BF
:10AF500004A0BAF1000F44D0BAF11F0F17D91AF0AC
:10AF60001F0F14D1D6F800B01BF01F0F0FD1584699
:10AF70000CF066FB07460AEB0B0001380CF060FB97
:10AF8000874210D06FF01507414A3B4601E0434627
:10AF9000404A012140480BF069FE6FF0150420463D
:10AFA00005B0BDE8F08F17F1160FEDD0BC42EBDD18
:10AFB000C5F89870D5F89C10C5F89870D5F8A030F1
:10AFC00021F01F0143F01F0BD6E900321A449942C9
:10AFD00002F1FF3A1DD1D34507D13146F8B20CF04A
:10AFE00038FB08F101080C36AFE73146C5F8987018
:10AFF000D5F89C3022F01F0203F01F031343C5F85D
:10B000009C30E0B20CF025FB10F1160FC5D0441CAB
:10B01000E7E7C5F89870D5F8A020013B23F01F039F
:10B0200002F01F021343D3453146E0B2C5F8A03009
:10B03000E8D00CF00EFB10F1160FAED0C5F89870EA
:10B04000D5F89C209DF808300BF1FF3B62F3040318
:10B050008DF80830D5F8A0309DF808205B0863F320
:10B0600047128DF80820D6E900321344009323F0EC
:10B070001F035B44A3EB0A03013023F01F0369465F
:10B08000C0B20393FFF744FFBEE700BF00ED00E04E
:10B09000ACC1010089C1010040B001000522044B90
:10B0A000C3F89420BFF34F8FBFF36F8F704700BF7B
:10B0B00000ED00E0BFF35F8F0022024BC3F8942045
:10B0C000704700BF00ED00E010B5034C2278FFF799
:10B0D00033FF207010BD00BF569B00202DE9F74FB5
:10B0E000294D8A4606464FF00008AB46274FD0450B
:10B0F0001BDAD6F80490B9F1000F3FD0316808464A
:10B1000001910CF09DFA0199044609EB0100013808
:10B110000CF096FA84424FF014021D4B08D002FB4B
:10B1200008F36FF015024BF8032003B0BDE8F08F71
:10B1300014F1160F2C60F8D01978A142F5DD02FB4E
:10B1400008B0C7F89840C7F89840D7F89C4000F17D
:10B150000801007B64F304000871D7F8A0000C79A3
:10B16000400860F347140C71D7F89C1021F01F01C0
:10B170006960D7F8A01021F01F01296108F10108CA
:10B1800014350C36B3E700BF1C97002000ED00E03B
:10B19000569B0020F0B53A4D87B02C68082C6CD82F
:10B1A0000020FFF787FF374B374AC3F8C02084429F
:10B1B0000DD1364D01A82C70FEF7F2FF0024064693
:10B1C000334FA6420AD1FFF769FF002053E06968B8
:10B1D00001EB0011FFF782FE0130E8E70199200141
:10B1E00001EB0413DA683A40B2F5001F22D0B2F541
:10B1F000800F2CD0B2F5801F36D15A689B68095851
:10B20000013B22F01F0003440120844623F01F036A
:10B2100040EA4C10CDE902218DF8100002A92878EF
:10B220000593FFF775FE002823DB2B7801340133EB
:10B230002B70C6E75A689B680958013B22F01F0033
:10B2400003444FF0020C012023F01F03E0E75A688B
:10B250009B680958013B22F01F0003444FF0000C8B
:10B26000062023F01F03D3E701210A4A0A480BF006
:10B27000F4FC6FF0150007B0F0BD4FF0FF30FAE7B7
:10B28000D0B3010000ED00E0AAFF4400569B00206F
:10B290000000F0FFCFC1010040B0010008B5024B33
:10B2A0001B689847002008BD30970020034B044AD4
:10B2B0001860937843F00203937070473097002032
:10B2C00074820020F0B587B007460E461446002170
:10B2D000102268461D460FF05BFC02238DF80230F9
:10B2E000054B2A4621466846CDE9047601930AF0CB
:10B2F0006FF907B0F0BD00BF8576010008B50649BB
:10B30000064821F00701C1F1005202F5E0220AF0DF
:10B3100076FE002008BD00BFC7DE00203497002065
:10B3200007B50DF107000DF076FF114B98421CD1C7
:10B330004FF480620F4B1049C3F8B8254FF40062F8
:10B34000C3F83C259DF807000DF051FF0B499DF80F
:10B3500007000DF047FF01209DF80730984007F0E7
:10B36000B7FA002003B05DF804FB6FF00B00F9E7BB
:10B370000000AD0B00A002402CA0024028A102401A
:10B38000052370B5144D154E2C780134B4FBF3F33E
:10B3900003EB8303E41A0DF0D7FE114A137823B1AF
:10B3A00056F82430C01A072813D90E4BD3F81411BD
:10B3B00041B10021C3F81411D3F814312C700CB929
:10B3C000012313702C780DF0BFFE46F824000120F5
:10B3D00070BD0020FCE700BF589B00204097002074
:10B3E000579B00200050004048B1054B054A1B68A0
:10B3F000B3FBF2F35843044B43F001031847704783
:10B400008C83002040420F0020B1010070B5049CE5
:10B41000C4F30726304606F03FFEE5B20146284653
:10B420000DF0F1FE00220120074BA40B04F0FC04F8
:10B430001A51A84007F052FA304606F0E1FF2846BC
:10B44000BDE8704007F0ECBB80A0024073B501A8D6
:10B4500007F0E0FB264B984247D106F0B3FF041EED
:10B460000ADA9DF8040007F0DBFB01212346214A9C
:10B4700021480BF0FBFB35E040F607031F4D8DF82C
:10B480000540AE68ADF806307468019B14B96FF0E2
:10B490005704EAE708212846194AA047041EE4DBBE
:10B4A0003369002BF3D00122082128469847041E57
:10B4B000DBDB01209DF80430984007F009FA9DF885
:10B4C00005009DF804509DF807600DF028FE014628
:10B4D00028460DF08CFE0B4BB60045F000459D5103
:10B4E000002CC2D1204602B070BD6FF01204BCE740
:10B4F0000000AD0B04C2010070B00100D4AC01002B
:10B5000009B5000080A102402DE9F341144683688B
:10B510001B690BB100229847C4F30726304606F09A
:10B52000C3FD054630460DF0FAFD4FF00008E7B2C6
:10B53000014638460DF06BFE104B220E920043F888
:10B540000280304606F0A8FD0D4A4FEA943C0CF00C
:10B55000FC0C47F0004342F80C30014638460DF031
:10B5600041FE084B05F132020093304643460194F8
:10B5700052000DF0DDFD02B0BDE8F08180A1024077
:10B5800080A002400DB400000DF028BEF8B5144BA9
:10B59000D3F83021D3F83431072A1CD1023B032BD6
:10B5A00002D8104AD35CB3B1012600244FF05027D3
:10B5B0000D4D0520C7F81866C5F814460DF010FEAD
:10B5C0003046C5F814660DF00BFEC5F81446C7F8F2
:10B5D00018460020F8BD0022034BC3F81426F8E7F4
:10B5E00000F0072035C20100005000400E4B4029FA
:10B5F00028BF402170B51D460C4C4618B04203F1DF
:10B60000020304D1002305F81130074870BD027809
:10B610001209A25C03F8022C10F8012B02F00F02B1
:10B62000A25C03F8012CE9E7779B0020B1C201007E
:10B6300030B503788BB0044607AD032B21D8DFE883
:10B6400003F0021A1C1E12492846FCF7F5FE059568
:10B6500063781E210493A3780E4A0393E3780E487F
:10B6600002932379019363790093A37909F084FF0E
:10B6700009480BB030BD0949E6E70949E4E7094943
:10B68000E2E70A212846084A09F076FFDFE700BF13
:10B690006CC201008EC20100599B002073C20100E0
:10B6A0007AC2010084C20100BED2010030B500247C
:10B6B000094D0A4B85B02846029303940EF01FFEF5
:10B6C00002AB284600934FF4A3620A23044909F011
:10B6D000B1F8204605B030BD10900020C2C2010074
:10B6E00000A300200146014809F01AB9109000207B
:10B6F000037830B5012B13D0022B27D07BB90A4633
:10B70000184B03F1100453F8045BA34242F8045BA6
:10B71000F9D11B78137043884B731B0A8B7330BDB0
:10B720000A46104B03F1100453F8045BA34242F89D
:10B73000045BF9D11B7813704368C3F307224B7382
:10B740001B0CCB731B0A8A730B74E8E700F1100320
:10B7500050F8042B984241F8042BF9D103780B7070
:10B76000DDE700BFCBC20100012838B505460CBF9C
:10B77000064807480DF090FA044620B101210C302C
:10B780000DF0E6FA2576204638BD00BF1C87002064
:10B79000988600200246002070B50B460A49D1E881
:10B7A000EF4FC1E8E50F002DF9D124B9BDE8704095
:10B7B0000120FFF7D9BF01212082217604F10C007E
:10B7C0000DF0C6FA204670BD3881002070B50446E1
:10B7D0000F2C0D461046194605D80D2C0DD9BDE885
:10B7E0007040FFF7D7BF132C07D10C480DF054FA67
:10B7F000044638B90024204670BD02460B4645B1C8
:10B800000748F3E701210C300DF0A2FA012323765B
:10B81000F1E70120BDE87040FFF7A6BFA087002038
:10B82000F0860020C36802211B78024A02480BF010
:10B83000DABF00BFE4C20100C0AF010038B5C36881
:10B84000B3F801401B786BB90F21204602F090FD40
:10B85000054640B9084B1A8822B96FEA04506FEACE
:10B860001050188038BD012102F076FC2846BDE852
:10B8700038400CF0E2B900BF3C9B00202DE9F041BC
:10B88000C5682E78CEB9B5F801700F21384602F0A0
:10B890006FFD044638B93B46BDE8F0410121084A36
:10B8A00008480BF0A0BFEB783146437202F054FC1D
:10B8B0002046BDE8F0410CF0C0B9BDE8F08100BF02
:10B8C0000CC30100C0AF010010B5C3680121B3F87B
:10B8D0000140204602F04CFD38B92346BDE8104037
:10B8E0000121044A04480BF07EBFBDE810400CF073
:10B8F000A4B900BF32C30100C0AF010010B5C368D6
:10B9000001211C88204602F033FD38B92346BDE8EA
:10B9100010400121034A04480BF065BFBDE8104008
:10B920000CF08BB932C30100C0AF0100012110B58A
:10B930000C300DF041FABDE8104003780121024AB5
:10B9400002480BF050BF00BF56C30100C0AF01005A
:10B95000014610B508480DF0A6F9084908480EF050
:10B96000A1FC031E06DABDE810400121054A064885
:10B970000BF039BF10BD00BF3C810020C082002009
:10B980004091002078C30100C0AF010010B5084C01
:10B990000146052294F86F0002F018FE38B994F8B9
:10B9A0006F000422BDE81040024902F00FBE10BD36
:10B9B0000080002052C201000121024A02480BF01F
:10B9C00010BF00BF95C30100C0AF01000B46B0B56A
:10B9D0000D8A00AF04462946D868FFF707FE8AB0F3
:10B9E0006A46094BC2E90750C2E9053440F20243F6
:10B9F0009384064B4FF43251054842F8103F0BF048
:10BA00000BFFBD46B0BD00BFAFC301000500000184
:10BA1000C0AF010037B502EBC303934204D103B0BA
:10BA2000BDE83040FFF7D2BF144614F8085B8542EA
:10BA300011D10B8A54789C4207D901210090074A02
:10BA400007480BF01DF903B030BD0846536803B03A
:10BA5000BDE8304018472246DFE700BFD1C30100F0
:10BA6000C0AF010010B5012104460C300DF0A4F95F
:10BA70002146BDE810400723014A0078FFF7CABFFE
:10BA8000B8B4010070B5C5680121B5F80160304651
:10BA900002F06EFC044638B93346BDE8704001211F
:10BAA0000B4A0C480BF09FBE2B783BB9D5F80330FE
:10BAB000C0F8AD30D5F80730C0F8B130201D4FF4D4
:10BAC00080510BF092FE2046BDE870400CF0B5B8F6
:10BAD00032C30100C0AF010073B53D480DF0F9F865
:10BAE0000446002871D0017E012945D0032969D17F
:10BAF000038A032B02D8374A012141E004210C308C
:10BB00000DF05AF9FF23428806886376238AC6F32C
:10BB10000B009A42608309D0012100922E482F4ADF
:10BB20000BF0AEF8204604F0CDFF12E00F2102F03A
:10BB30001FFC054610B9638B294ADDE702F038FC8B
:10BB400021466076320B284602F0DCF928460CF0DC
:10BB500074F8244BD3F83C31002B36D022492348CB
:10BB60000EF0A0FB031E30DA0121214A1A4802B070
:10BB7000BDE870400BF037BE038A012B04D81D4A84
:10BB800015480BF030FECDE702210C300DF014F912
:10BB9000054600780BF012FE83070CD440F69B2379
:10BBA000154A164916480AF06AFB404080F311888E
:10BBB0004FF0030002DF04232146124A2878FFF7E2
:10BBC00029FFAFE70B46104A96E702B070BD00BFF1
:10BBD0003C810020F3C30100C0AF010014C4010088
:10BBE00038C4010000800020C08200204091002065
:10BBF00078C301005AC4010076C40100AAC4010040
:10BC0000D8C4010098B40100F5C401002DE9F04347
:10BC100083B0064602AF907A8846144604F0A8FE28
:10BC20003D4D854219D0A47AE846204604F0A0FE96
:10BC30008AB002AA394BC2E90740C2E90536062399
:10BC400055624FF44251364842F8103F0BF0E4FD84
:10BC5000C5460437BD46BDE8F083204604F090FE9B
:10BC60004FF00C092F4D09FB00504388B3420DD013
:10BC7000204604F085FE09FB005043880221009312
:10BC8000294A334626480AF0FBFFE2E7274ED6F85A
:10BC9000380120B104F016FF0023C6F838312046E1
:10BCA00004F06EFE0C2606FB00504368ABB1B8F101
:10BCB000000F12D1204604F063FE012106FB005064
:10BCC0004268D2E90003127A03F01F06B1405B0913
:10BCD000DAB100EB83000BF088FD204604F050FE43
:10BCE0000C2606FB00508368002BB2D0204604F0DF
:10BCF00047FE704305F80080204604F041FE06FB35
:10BD00000055A86808F0D2FBA3E7C94300EB830005
:10BD10000BF085FDE1E700BF7487002009C5010035
:10BD2000C0AF0100549700203EC5010000800020F4
:10BD300038B5042104460C300DF03EF84578017802
:10BD400022464088FFF762FF25B1BDE8384002482F
:10BD500008F0ACBB38BD00BF2081002070B50321C6
:10BD600004460C300DF028F840F635420578B0F85E
:10BD70000100E36890421B7806D1BDE870400221C3
:10BD8000074A08480BF02FBD22461946FFF73EFF31
:10BD900025B1BDE87040044808F088BB70BD00BF05
:10BDA00071C50100C0AF0100208100202DE9F84FCE
:10BDB0000123D0F80C80018A98F8004000AF03EB13
:10BDC00084038B427CD96D468AB06A46C2E907314A
:10BDD00005233E484FF42151C2E905043C4842F88E
:10BDE000103F0BF019FDAD46BD46BDE8F88F5B4630
:10BDF0000121384A36480BF0F6FC013598F800303E
:10BE00009D42F1DA08EB8503B3F801B00F215846E3
:10BE1000B3F8036002F0ACFA04460028E7D000F162
:10BE2000280B16B34FF02003EFF3118283F312882F
:10BE3000BFF36F8FE3696BB1013BE36182F311885C
:10BE4000BFF36F8F204602F023F8013E08F02EFB6F
:10BE5000B6B2E6E7636963B982F31188BFF36F8F07
:10BE6000012152461A480BF0BCFC20460BF0E5FEBF
:10BE7000C3E7A16918688B42606108BFA06182F3C3
:10BE80001188BFF36F8F4FF02002EFF3118182F31F
:10BE90001288BFF36F8FDA68E261C3F80C90C3F8C1
:10BEA0000090626A4AB9C4E9083381F31188BFF38C
:10BEB0006F8F584608F0B8FCC4E713606362F4E77C
:10BEC0000025DFF814A0A94698E700BFA7C5010028
:10BED000C0AF0100D1C50100EDC5010073B5C56853
:10BEE0000121B5F80160304602F042FA044640B93B
:10BEF00033460121284A294802B0BDE870400BF0C2
:10BF000072BC2B78061D1A2B19D1C378012B2AD1AC
:10BF10004FF4806130460BF068FC42050FD4D4F832
:10BF2000A03069460093D4F8A8302046019302F06F
:10BF3000EBFD204602B0BDE870400BF07EBE2B78D2
:10BF40008BB9B5F80330A4F89E30B5F80530A4F8E5
:10BF5000A430B5F80730A4F8A6306FF480713046ED
:10BF60000BF05DFC14E0D6E8AF3FDB05F5D52B7890
:10BF7000202BF2D194F8AC30002BEED0013B84F8AA
:10BF8000AC304FF42032002304F1580008F0F2FCEA
:10BF9000204602F02FFACCE732C30100C0AF010007
:10BFA00010B5C1E900239DF808300C460B7204F06F
:10BFB000E7FC0C22024B02FB00335C6010BD00BFAB
:10BFC000549700202DE9F0474FF0FF324FF0FF3338
:10BFD000064617480F460CF05FFE4FF00008044677
:10BFE00000F10C0A012150460CF0B2FE204684F804
:10BFF000188004F0C5FC4FF00C090E4D09FB0050F1
:10C000004680204604F0BCFC09FB0050C0F80880C4
:10C01000204604F0B5FC09FB005503215046C5F845
:10C0200004800CF099FE068087702046BDE8F087FA
:10C0300074870020549700202DE9F04107461546EB
:10C040000C4688B021B9FFF7BDFF0446002854D044
:10C0500002AE0122002130460EF071F8204604F0B5
:10C060008FFC0C23DFF8A08003FB00808660204655
:10C070000CF048FE014625480CF042FE4FF4A02289
:10C080003046002308F038FA064688B140F24B13D8
:10C090001F4A204920480AF0F2F8324639461F4824
:10C0A0000AF0EDF8404080F311884FF0030002DF02
:10C0B000204604F065FC0C23584318F80060A6B134
:10C0C00002213B46164A174800960AF0D9FD204641
:10C0D00004F0F8FC092E13D00D2E0CBF6FF00B00EE
:10C0E0006FF0040008B0BDE8F08115B12C600020AD
:10C0F000F8E7204604F0E6FCF9E76FF06800F1E7A6
:10C100006FF06E00EEE700BF5497002044810020DE
:10C1100076C4010004C60100D8C401000DC60100A8
:10C1200039C60100C0AF010073B506460D4642F2A4
:10C130002F00002101AAFFF77FFF044638B101213B
:10C14000084A09480BF04DFB204602B070BD01982B
:10C15000C368B3F801203280B3F803302B8004F0B9
:10C16000B1FCF1E755C60100C0AF0100F7B5144BB3
:10C17000054693F99B300C46002B1DDA14B9204676
:10C1800003B0F0BD082C4FF0000142F2180001AAE4
:10C19000264628BF0826FFF74FFF0028F0D1019F51
:10C1A0003246F968284601310EF0E5FC384604F0C5
:10C1B00089FC3544A41BE1E76FF08500E0E700BF90
:10C1C000008000202DE9F04788B00026944BB0F89D
:10C1D0000180198848F470420478914208BF1E809B
:10C1E000054608BF012602AF2CB33C2C1CD101F040
:10C1F0007DFA6FF0800110300BF011FB0020FFF78B
:10C20000C5FB054640B90121864A87480BF0E9FA8B
:10C210001837BD46BDE8F0874472002101F09CFF4D
:10C2200028460BF00AFDF3E7234602217F4A7E48A9
:10C230000BF0D9FAECE7C37800F10409012B08BF31
:10C240007B4B484608BF93F86F400BF0B3FA494662
:10C2500040B307F110000BF0A2FA05F1110107F14C
:10C2600009000BF0CDFA01233B72EB78012B27D0AC
:10C270004846FFF7DDF96C4688B002AA6D4B4FF4D3
:10C28000E251C2E905304FF4007393836A4B66486C
:10C2900042F8103F0BF0C0FA1321A54640460BF0C0
:10C2A000C6FAB5E720460BF07CFB014607F110000B
:10C2B0000BF0ABFA494607F108000BF0A6FAD4E7F9
:10C2C00007F11000FFF762FBEB780446012B0AD15F
:10C2D00001F00CFA82466FF0800110300BF09FFAEB
:10C2E00050460BF064FC002CC2D020460022B5F86A
:10C2F000013007F1100120F8883B0BF086FAB5F801
:10C300001730A4F89E30B5F81930A4F8A430B5F869
:10C310001B30A4F8A630EB786272012BE37016D1C3
:10C3200007F1080104F18F000BF06FFA01F0DEF95C
:10C33000217A3F4AC1EBC101114404F196000BF090
:10C3400064FAD2F8E4305D0601D501F081FB0721E3
:10C35000204601F001FF1EB10121204601F0FCFE44
:10C3600020460BF0A0FCA37A072B53D1231DD3E862
:10C37000AF3F13F4805F2E4E20D1E3781BB196F8C7
:10C38000D83018071AD5022142F21600FFF71AFE1C
:10C390000546002840D002210C300CF0DDFC23883B
:10C3A00000220380294642F21600FFF745FE0346AD
:10C3B00020B10121214A1C480BF015FA96F8D9301A
:10C3C000D9070DD5022300211A46204600910BF013
:10C3D00067FA034620B10121194A13480BF003FA0A
:10C3E00096F8D8309A0615D5D6F85C319B689B072D
:10C3F00010D5B91D381DFFF797FE58B92046FA88A9
:10C40000B9880BF02FFA034620B101210D4A0648E6
:10C410000BF0E9F9204604E76FF06803C9E700BFB5
:10C420003C9B002075C60100C0AF010096C601000C
:10C4300000800020AFC6010003000001CBC6010050
:10C44000ECC6010003C7010000B5C16889B00B78D4
:10C4500001A88DF80030B1F801300431ADF8013099
:10C4600011F8013C8DF80330B1F80730ADF8173002
:10C47000B1F80930ADF81930B1F80B30ADF81B3018
:10C480004B7B8DF81D300BF0C0F907490DF10B0007
:10C490000BF0B6F90DF111000BF0B2F96846FFF799
:10C4A00091FE09B05DF804FB66C2010070B58EB064
:10C4B0006C4606460A4D0D2E0FCD0FC40FCD0FC48E
:10C4C0000FCD0FC495E8030084E803009DBF0EABB9
:10C4D00003EB860656F8380C02480EB070BD00BF5C
:10C4E000D8B001001FC70100024BD3F85C315B6973
:10C4F000184700BF0080002038B505460C4619B922
:10C50000FFF760FD0446C8B140F635439D420FD1A8
:10C510002046FFF7E9FF054640B1034601210948DF
:10C52000094A0BF060F9204604F0CCFA284638BDE1
:10C53000214606480CF0E4FB0025F7E76FF068059C
:10C54000F4E700BFC0AF010027C70100448100200D
:10C550002DE9F0410446458B477E807A04F008FAC5
:10C560006169064649B1637ADA0704D4436A204612
:10C570001B689B68984700236361214630460DF095
:10C58000D0FD244B93F88A309B0641D5384602F003
:10C5900083F9044638B93B46BDE8F04102211E4A02
:10C5A0001E480BF020B9837A073B012B09D91B48A1
:10C5B00002211B4A0BF015F92046BDE8F0410BF0B3
:10C5C0003CBB0BF03AFB052140F63540FFF7FAFC87
:10C5D000044630B9BDE8F0410121124A0F480BF082
:10C5E00000B900F10C07012138460CF0B5FB01261B
:10C5F0000421067038460CF0AFFB002305808670DE
:10C60000C3702146BDE8F04140F63540FFF774BFE6
:10C61000BDE8F0810080002049C70100C0AF0100E3
:10C6200072C701009EC7010073B5C368D9789A78B4
:10C630001E8842EA0122ADF8002059791A79B4B275
:10C6400042EA0122ADF80220D9799A79204642EADD
:10C650000122ADF804201A7A5B7A012142EA032311
:10C66000ADF8063001F084FE054658B901211C489A
:10C6700023461C4A0BF0B7F8022120460BF05CF968
:10C6800002B070BD694601F0F9FE38B91E2120469E
:10C690000BF052F928460BF0D0FAF1E70E2142F2E6
:10C6A0002000FFF78FFC04460028F3D00E210C3049
:10C6B0000CF052FB00230680C0F80A30BDF80030B1
:10C6C00021464380BDF802308380BDF80430C3802A
:10C6D000BDF80630038142F22000FFF70DFFD9E7D5
:10C6E000C0AF010032C301002DE9F84F484FDFF819
:10C6F000248107F11409FB6848466FF39433FB600B
:10C7000001F0E0FC451C4FF0FF324FF0FF332946AB
:10C710003F4808F081FE60B140F6183342463E497A
:10C720003E4809F0ACFD404080F311884FF0030013
:10C7300002DF374EDFF8E8B015B908F0B3FBDAE7EF
:10C74000F368C3F38633022B51D9042B59D1337BC1
:10C75000002B4FD10022002332480CF0A2FA0446ED
:10C7600060B940F6AA2342462F492C4809F087FDBC
:10C77000404080F311884FF0030002DFDFF8ACA0E7
:10C780004FF0FF324FF0FF33294807F0B5FEDAF8DB
:10C7900038215AB1274A012121480BF022F8DAF852
:10C7A000380104F08FF90022CAF8382120460CF035
:10C7B000A9FACAF838012046FFF796FE0346B0B141
:10C7C00001211D4A16480BF00EF8194807F06EFEBD
:10C7D000204604F0D5F80C22184B1F2102FB003034
:10C7E00022464088FFF712FA204604F06BF914360F
:10C7F000013DA1E7012BFAD13069383801F0C0FFC3
:10C80000F5E7022158460E4A0AF0EDFFEFE700BFB8
:10C810008482002076C4010004C60100D8C401004F
:10C82000C0AF0100448100200AD501000080002033
:10C8300020810020C1C7010027C7010054970020B4
:10C84000DCC701002DE9F041044600F10C0630463A
:10C850000CF0C2FAB4F810800546B8F1010F0AD8FE
:10C8600043460121184A19480AF0BDFF2046BDE899
:10C87000F04104F027B9304602210CF09DFA07463A
:10C8800000780AF09BFFC20706460CD440F6CA6344
:10C890000F4A1049104809F0F2FC404080F311881B
:10C8A0004FF0030002DF052321460C4A3878FFF7DA
:10C8B000B1F8B307DAD56369A4F8108013FA85F5E7
:10C8C000E560BDE8F08100BF5AC40100C0AF0100BF
:10C8D00076C40100FDC70100D8C4010070B4010096
:10C8E00038B5037E0446012B05D0032B11D1FFF789
:10C8F0002FF8002038BDC36818780AF05FFFC20720
:10C90000054602D52046FFF79DFFAB07F1D520462F
:10C91000EDE70121044A05480AF065FF204604F0CE
:10C92000D1F86FF01500E5E716C80100C0AF0100AF
:10C93000084A0346D2F85C0130B9D96839B159695F
:10C9400029B1C2F85C3170476FF0770070476FF023
:10C9500015007047008000202DE9F84F3D4C00AFD6
:10C9600004213D480AF041FF3C4DE2793C4B204612
:10C97000012A88BF1D466E46FEF75AFE8AB06A46F7
:10C98000384BA346C2E905350125374BD061136208
:10C99000364B4FF42351364842F8103F0AF03CFF23
:10C9A000DFF8D080B546DFF8C890334EE3790BF15D
:10C9B000070B9D4238DB94F870506E462846FFF70F
:10C9C00075FD8CB06A46B4F87210B4F87630C2E9DE
:10C9D00007514FF400755362DFF8A0C0284BC2E93D
:10C9E00005C015854FF4535142F8103F20480AF016
:10C9F00013FFB54694F871603046FFF757FD8AB0D3
:10CA00006A46B4F874301F49C2E907631E4BC2E995
:10CA1000051095844FF43351154842F8103F0AF041
:10CA2000FBFEBD46BDE8F88F5846FEF701FEEA461C
:10CA30008AB06A4640F20133C2E90565D0611384C9
:10CA40004FF41351484642F8108F0AF0E5FE0135C5
:10CA5000D546ABE700800020D4800020DDDD01005A
:10CA60002AC801002EC801000002010304000002D0
:10CA7000C0AF0100040000013DC801004EC8010024
:10CA8000060000018CC8010005000001F0B583B06C
:10CA9000604D00AFD5F85C31996811F001011AD1F1
:10CAA00040F603403A1DFFF7C7FA0446002840F05D
:10CAB000AD807868C3681B785BB905F1D403D3E80F
:10CAC000AF2F02F00902D3E8EF1FC3E8E42F002CD8
:10CAD000F9D103F0F7FF002141F203003A1DFFF7FF
:10CAE000ABFA0446002840F091807B684A4EDA6831
:10CAF000D2F80100D2F8051003C6184603F0E2FF91
:10CB0000214641F201003A1DFFF796FA044600283B
:10CB10007CD17868C3685A7885F870205A88A5F85F
:10CB200072201A7985F87120B3F80720A5F87420CF
:10CB3000B3F80530A5F8763003F0C4FF214641F282
:10CB400002003A1DFFF778FA044600285ED1D7F8B4
:10CB500004C0DCF80C20531C413234461868596874
:10CB6000083303C493422646F7D1604603F0AAFF78
:10CB700001F00EF80446002848D195F88A309B064B
:10CB800010D40221254A26480AF02BFE95F87C3065
:10CB90005E0649D40121234A21480AF022FE6FF0A3
:10CBA000120433E0072140F63340FFF70BFA064644
:10CBB000002800F01E8107210C300CF0CDF81B235B
:10CBC00003700623C0F80240847144700471224649
:10CBD000C370314640F63340FFF72EFA0446A8B939
:10CBE000012140F63140FFF7EDF90646002800F03C
:10CBF000008101210C300CF0BEF82246314640F68F
:10CC00003140FFF719FA04460028BFD020460C3700
:10CC1000BD46F0BD0080002078800020B3C8010030
:10CC2000C0AF0100E1C80100002142F203003A1D3B
:10CC3000FFF702FA04460028E8D17B68C44EDA68A0
:10CC4000D2F80100D2F8051003C6184603F03AFFE7
:10CC5000214642F202003A1DFFF7EEF90446002891
:10CC6000D4D17C68E368B3F8012091B249B1D97896
:10CC700039B1A5F80421DA78114606F128000DF043
:10CC80005EFA204603F01EFF95F87C6016F0200641
:10CC900018D1022140F66D40FFF794F904460028B0
:10CCA00000F0A78002210C300CF056F80123214639
:10CCB00003704670324640F66D40FFF7BDF90446FA
:10CCC0000028A3D195F89C301C0712D5002142F210
:10CCD0001C003A1DFFF7B0F90446002896D1786889
:10CCE000C368D3F80120D3F80530C5E9382303F031
:10CCF000E9FE95F8D830980620D53846B91CFFF7DC
:10CD000013FA0446002881D1042142F22400FFF7DF
:10CD100059F9064600286CD004210C300CF01CF8A0
:10CD20003B88224603807B883146438042F22400C0
:10CD3000FFF782F9044600287FF468AF082142F229
:10CD40000100FFF73FF90446002852D008210C30BB
:10CD50000CF002F895F8D82012F0020F14BF2F2320
:10CD60000F23910695F8D92048BF43F0400312F0F5
:10CD7000090F4FF0000218BF43F400630370C3F3C0
:10CD80000723214643708270C27002714271827122
:10CD9000C27142F20100FFF74FF9044600287FF408
:10CDA00035AF95F87C30B5F804119A0624D4C9B98A
:10CDB00041F205003A1DFFF73FF9044600287FF4D1
:10CDC00025AFB5F804317C684BB9E368B3F80120AE
:10CDD000A5F804219A885F4811460DF0B0F9204665
:10CDE00003F070FE082140F60140FFF7EBF804461F
:10CDF00060B96FF0680409E70029F3D10121564AB0
:10CE000056480AF0EEFC6FF00404FFE608210C30EF
:10CE10000BF0A2FF10230370882300224370022628
:10CE2000202321468270C670027142718271C371E3
:10CE300040F60140FFF700F9044600287FF4E6AE13
:10CE400001463A1D4FF60140FFF7F6F898B1444A03
:10CE5000022142480AF0C5FC00F038FB04460028D5
:10CE60007FF4D4AE01F020FD044600287FF4CEAE5E
:10CE7000FFF772FDCAE67B686E46DC688AB0B4F8DC
:10CE80000130032B96BF374A374952F823106A46C0
:10CE9000D3614FF4007335481384354BC2E9050163
:10CEA00042F8103F4FF413512C480AF0B5FCB4F887
:10CEB0000120B546022AB4F8033067D1052B65D8A6
:10CEC0002C4A52F823106E468AB06A46D3614FF45A
:10CED000007329481384264BC2E9050142F8103F2C
:10CEE0004FF413511D480AF097FCB546637994F846
:10CEF00006C0032B98BF214AB4F80760D4F8090094
:10CF00006C468CB094BF52F8231017496A46C2E9A8
:10CF1000073C4FF40073DFF868E09385194BC2E9D2
:10CF200005E1C2E909604FF4735142F8103F0B4824
:10CF30000AF072FCA546786803F0C4FD00214FF6A4
:10CF400002403A1DFFF778F8044608B30E4A7FE71F
:10CF5000D88000200881002005C90100C0AF010071
:10CF600028C9010060B401001FC701004CC90100BD
:10CF70000400000148B4010065C9010038B4010093
:10CF80007DC9010007000001AAC901000F499AE705
:10CF90007868C368B3F80130A5F8C13003F092FD9A
:10CFA00095F8C1305B077FF557AF21464FF6034038
:10CFB0003A1DFFF741F808B1054A49E77868C368A8
:10CFC0005B7885F8C03003F07DFD45E71FC70100A1
:10CFD000D3C9010010B5FFF759FD034B1B6813B10E
:10CFE000BDE81040184710BDCC97002070B5344DF7
:10CFF0000646D5F85C3188B04BB90121314A324838
:10D000000AF0EFFB6FF01204204608B070BD6FF01D
:10D01000020105F1D4000AF002FC01210AF0E5FB4F
:10D0200010EA010448D1294B1E600A4605F59070AC
:10D030000DF085F805F5A2700DF05CF800220023D4
:10D04000CDE906236FF008034FF48062CDE9024377
:10D05000CDE900441E4B1F4904941F4807F0C4F853
:10D060001E491D480CF0B2FF1D480DF048F96FF045
:10D0700007034FF496621B491948009407F0DAFB46
:10D08000194917480CF0A2FFD5F85C31DB689847C6
:10D09000044630B103460121144A0B480AF0A3FBB1
:10D0A000B2E726B908B0BDE87040FFF7EFBC05F164
:10D0B000C40007F0B9FBA7E76FF07704A4E700BF4F
:10D0C00000800020FCC90100C0AF0100CC97002007
:10D0D000E9C6000018A80020B890002015CA010079
:10D0E0004091002018AC00201BCA010021CA010099
:10D0F00000487047CFB90100F8B506460024094D35
:10D10000EF79E3B29F4202D86FF0010007E02946B1
:10D1100030460AF030FC0735631C08B12046F8BDE4
:10D120001C46EEE70080002037B504460D4671B17D
:10D13000284612490AF01FFC48B929461048C4EB9A
:10D14000C40420440AF026FC002003B030BD684629
:10D150000AF017FB0028F8D16846FFF7CDFF00283A
:10D16000F5DA074BC4EBC400694618440AF012FC18
:10D17000002DE9D001462846E4E700BF59C201006E
:10D180000080002038B50622114905460DF05FFCED
:10D19000C8B1062142F20500FEF714FF0446A0B113
:10D1A000062229460C300BF0DDFD0022214642F21A
:10D1B0000500FEF741FF38B9054829460AF0E5FBAE
:10D1C000012300F8013C002038BD6FF06800FBE748
:10D1D0006980002070B50D460446C0B120490AF0B0
:10D1E000CAFBA0B92378012B04D1A37903F0C003B3
:10D1F000C02B07D001211B4A1B480AF0C4FB6FF06B
:10D20000150070BD2046FFF777FF002821DA002DBA
:10D21000F5D1164DEB79012B1ED005F1D403D3E8DF
:10D22000AF3FDB0707D4002CE9D020460C490AF0B9
:10D23000A2FB0028E3D1EE792146731C3046EB7146
:10D24000FFF772FF08B93046DBE7EB79013BEB7182
:10D25000D7E76FF07700D4E76FF00B00D1E700BF9E
:10D2600059C2010040CB0100E0AF01000080002066
:10D27000F7B5044638B9174A022117480AF083FB6C
:10D28000002003B0F0BD002141F2090001AAFEF721
:10D29000D3FE064608B1114AEEE7019F0622FD685B
:10D2A0000F49013528460DF0D2FB28B10622284649
:10D2B0000C490DF0CCFB18B9384603F003FCDFE74E
:10D2C0002946601C0AF061FB3846267003F0FAFB21
:10D2D0000120D6E76ECB0100E0AF010087CB010053
:10D2E00066C2010060C2010007B56846FFF7C0FFD3
:10D2F000044BD87118B169460020FFF715FF03B041
:10D300005DF804FB00800020F7B51F4B054693F83D
:10D31000C2300E46DB0708D41C4A02211C480AF022
:10D3200032FB0024204603B0F0BD00214FF6094037
:10D3300001AAFEF781FE034608B1164AEDE70198FF
:10D340001627C26854780232B44228BF34469C4241
:10D3500009DC03F0B7FB002CE4D102210E4A0C4893
:10D360000AF011FBDEE7114607FB035602F1140C2D
:10D3700051F804EB614546F804EBF9D10988013313
:10D3800031801632E3E700BF00800020A5CB01000A
:10D39000E0AF0100D1CB0100F1CB010070B5154D1C
:10D3A00088B0EC792CB9012102A8FFF7ADFFE87134
:10D3B000C0B90021084608B0BDE87040FFF70ABFB9
:10D3C00002AB06FB02310DF101000AF0DEFA012387
:10D3D000694610468DF80030FFF7A6FE013410B103
:10D3E00008B070BD1626EB79E2B29342E8D800206F
:10D3F000F6E700BF008000202DE9F04190460E4680
:10D400001D46024650B14BB13103047810D5730765
:10D4100008D501212A4A2B480AF0B5FA6FF0150009
:10D42000BDE8F0810AF0CAFA0028F9D1012341E0F1
:10D43000F70730D5244FB8F1000F13D0B0060AD447
:10D44000C4EBC403FB5C012B13D02B70B20620D5B8
:10D4500043F002030BE097F8D8305906F0D46FF090
:10D460008500DDE7C4EBC403FB5C012B01D02B700E
:10D470000FE0072101FB0471104601310AF096FA12
:10D480000028CDD1C4EBC4043B5D2B70B8F1000F74
:10D49000DCD10020C4E773070ED50B4EC4EBC407E4
:10D4A000F35D012BE3D1072111FB043131440AF074
:10D4B0007DFAF35D2B70B3E70AF080FAB6E700BFA0
:10D4C0001ACC0100E0AF01000080002038B5104DFB
:10D4D000EB7913B10024204638BDFFF705FF044661
:10D4E00028B10C4A01210C480AF04DFAF3E7EB7918
:10D4F000002BEFD1FFF752FF04460028F1D1681C42
:10D50000FFF740FE04460028E5D0044AEAE700BFE2
:10D510000080002039CC0100E0AF010058CC0100B0
:10D520002DE9F74F0C46202192460090FEF74AFD68
:10D530000546002855D020210C300BF00DFC202290
:10D54000814600210DF024FB002609F1010B04EBBC
:10D55000CA0A0023D4F80080626893420CD30834CE
:10D56000A245F6D100222946009889F8006003B050
:10D57000BDE8F04FFEF760BD98F80120B01C11180F
:10D580001F2998F800C015D9BCF1090FC0F11F027E
:10D5900001D1002A0CDC0121134A144809F05DFB7B
:10D5A000284603F08FFA6FF0150003B0BDE8F08F46
:10D5B0004FF0080CD7B2791C0BF80610711CC9B2D9
:10D5C0000BF801C0D8F804105BFA80F00193023721
:10D5D0000DF0D1FA019B3744FEB2013308F108087F
:10D5E000BAE76FF06800E0E77BCC010098AF01007C
:10D5F000072208B5034909300DF029FA003818BF91
:10D60000012008BD59C20100F8B5154B0678044643
:10D610000D4683F86F60FFF7EBFF70B93046114994
:10D6200000F066FF044610B96FF00B00F8BD04214E
:10D6300000F092FD00202C60F8E704F1090739465C
:10D64000304600F08BFF40B92078394600F050FF9B
:10D6500004460028E8D00521EAE76FF01500E5E769
:10D660000080002052C20100F8B5456806466905F1
:10D6700035D4046914B115F0010330D0194F307856
:10D68000FB7983422BD9C0EBC000072216493844EE
:10D690000DF0DDF9A8B115F0010306D197F870205F
:10D6A000082A02D8B2689F2A19D915F0300F09D07C
:10D6B000ACB1EA060AD405F46035B5F5603018BFA0
:10D6C0000120F8BDEB0601D4002CF4D1D6E90223E9
:10D6D0009A4204D81F2A02D9B3F5804FEBD9002013
:10D6E000EFE700BF0080002059C2010000487047EA
:10D6F000188000202DE9F04F9A460023D1F81090B1
:10D700008DB0B9EB030506468C4818BF012505927C
:10D7100007930AF07DF90C46410740F1038120464A
:10D72000FFF7A2FF28B96FF0150B58460DB0BDE802
:10D73000F08F20460AF059F980460028F3D006F110
:10D74000100738460AF064F90206C0F3C01300F16E
:10D75000EC80CDE90933CDF82B30A3686068ADF8D3
:10D760002030E3686FF40051ADF822300AF041F93F
:10D770008DF82D0071480AF04EF92378704A337005
:10D7800082F86F3030462A4661680DF12503FFF7B5
:10D7900033FE83460028C8D106F10900B9F1000F15
:10D7A00013D021690AF042F920460AF0CBF96268E9
:10D7B0000546D00716D4920503D4169B0BB9022D4B
:10D7C00052D102238DF8243019E05E490AF02EF977
:10D7D00020460AF0B7F962680546D107EBD58DF807
:10D7E00024900CE012F0100F0CBF012204222169DA
:10D7F0000DF126008DF82420D8460AF017F90F21E4
:10D8000042F20600FEF7DEFB8346002800F090801F
:10D810000F2208A90C300BF0A5FA0022594642F25B
:10D820000600FEF709FC002840F08580B9F1000FE2
:10D8300020D06368DB072BD4012130460AF092F92F
:10D840008346002866D001213F4A404809F005FA86
:10D85000079C002C3FF469AF2046002100F07CFCBF
:10D8600020460AF0EAF960E70323DDF858808DF8D6
:10D870002430C4E7179B524600933046CDE901851A
:10D88000169B05990AF0ECF883460028D1D04CE7A6
:10D89000304607A9FFF7B8FE83460028CCD010F128
:10D8A0000C0F7FF442AFB9F1000F7FF43EAF626816
:10D8B00090073FF53AAF636883F00203C3F3400B70
:10D8C0000BF001020E2138460AF0B7F86B1E5A42DF
:10D8D0005A41082138460AF0B0F8A91E4A424A4186
:10D8E000384609210AF0A9F862680A21384602F090
:10D8F00001020AF0A2F842460B2138460AF09DF8D0
:10D9000062680D213846C2F380020AF096F84FF0A3
:10D91000000B0AE7079808B10AF08FF9B9F1000F78
:10D92000CED1C8E76FF00A0BFFE66FF0770BFCE68D
:10D930006FF0680BF9E68346F7E600BFD48000205D
:10D940000080002059C2010094CC010098AF010072
:10D9500073B51546069A0C46CDE900322B460A46A9
:10D9600001461148FFF7C6FE21460646002340F255
:10D9700001109D4202D1304602B070BD0A88824239
:10D9800004D14A6812B11278D20702D401330831A7
:10D99000EFE7064906480CF0B8FC4FF4702200236C
:10D9A000034807F01BF8E6E7188000202DDA000096
:10D9B0003080002010B519480AF0F9F86FF4804162
:10D9C00017480AF028F816480AF022F803461A0603
:10D9D000C0F3C01021D512480AF01AF8430513D538
:10D9E0000E48FFF705FE03460E49087E93B9042250
:10D9F0000D4900F0EBFD044630B10021417200F00A
:10DA0000ABFB20460AF019F9BDE81040002103489D
:10DA10000AF0A8B805222131EBE710BD18800020DC
:10DA2000288000200080002052C2010010B5FFF7BE
:10DA3000C1FF034630B1BDE810400221024A03484D
:10DA400009F014B910BD00BFAFCC010098AF0100C0
:10DA500073B5334809F0DCFF10F4804F304C38D0F8
:10DA6000204609F0D5FF030633D4204609F0D0FF45
:10DA700046052ED501A9A4F11000FFF7C5FD40BB56
:10DA8000A4F11000FFF7B4FD0246204609F0C0FFE4
:10DA9000C0F38031204609F0BBFF81F0010145054C
:10DAA0004FEA41011E4848BF41F0010109F0B0FFB3
:10DAB000800448BF41F004011A480DF10303FFF749
:10DAC0009BFC054638B101210346174A174809F067
:10DAD000CDF802B070BD012112480AF043F8019E52
