:020000040000FA
:10800000F0930020F1990000F3F00000DD990000EA
:10801000DD990000DD990000DD990000DD99000088
:10802000000000000000000000000000B19B000004
:10803000DD99000000000000419B0000DD99000078
:10804000959D0000959D0000959D0000959D000068
:10805000959D0000959D0000959D0000959D000058
:10806000959D0000959D0000959D0000959D000048
:10807000959D0000959D0000959D0000959D000038
:10808000959D0000959D0000959D0000959D000028
:10809000959D0000959D0000959D0000959D000018
:1080A000959D0000959D0000959D0000959D000008
:1080B000959D0000959D0000959D0000959D0000F8
:1080C000959D0000959D0000959D0000959D0000E8
:1080D000959D0000959D0000959D0000959D0000D8
:1080E000959D0000959D0000959D0000959D0000C8
:1080F000959D0000959D0000959D0000959D0000B8
:10810000959D0000959D0000959D0000959D0000A7
:10811000959D0000959D0000959D0000959D000097
:10812000959D0000959D0000959D0000959D000087
:10813000959D0000959D0000959D0000959D000077
:10814000959D0000959D0000959D0000959D000067
:10815000959D0000FFFFFFFF53B94AB9002908BFF2
:1081600000281CBF4FF0FF314FF0FF3000F00CB87B
:10817000ADF1080C6DE904CE00F008F8DDF804E07C
:10818000DDE9022304B07047704700BF2DE9F047D6
:1081900086468C460846089E154674461946002BAE
:1081A00040F0C1808542B2FA82F245D94AB1C2F1AB
:1081B000200300FA02FC954094402EFA03F343EAB0
:1081C0000C0C4FEA154EA8B2230CBCFBFEF80EFBBC
:1081D00018CC08FB00F943EA0C43994528D9EB1861
:1081E00008F1FF3704D2994502D9A8F102072B44C0
:1081F000A3EB0903A4B2B3FBFEFC0EFB1C330CFB88
:1082000000F044EA0344A04214D92C190CF1FF33C6
:1082100004D2A04202D9ACF102032C44241A43EA4E
:1082200007401EB1D440002334607360BDE8F0877E
:108230004746DDE76346F1E792BB431B01214FEA66
:10824000154EAFB2200CB3FBFEFC0EFB1C330CFB37
:1082500007F840EA0343984561D9EB180CF1FF3069
:1082600004D2984502D9ACF102002B44A3EB0803D9
:10827000A4B2B3FBFEFC0EFB1C330CFB07F744EA75
:108280000344A7424DD92C190CF1FF3304D2A74265
:1082900002D9ACF102032C44E41B43EA0040C0E7DE
:1082A000C2F120039540944020FA03F12EFA03F323
:1082B0004FEA154E9040AFB20343B1FBFEFC0EFBFC
:1082C0001C10190C0CFB07F841EA0041884522D923
:1082D00069180CF1FF3004D2884502D9ACF10200D4
:1082E0002944A1EB08019BB2B1FBFEFC0EFB1C1163
:1082F0000CFB07F743EA01439F420ED9EB180CF140
:10830000FF3104D29F4202D9ACF102012B44DB1BA6
:1083100041EA004193E76046E3E76146F7E76046DC
:10832000A4E76346B8E7834206D916B90021084698
:108330007CE7C6E900E0F9E7B3FA83F78FB9834237
:1083400001D3724508D8BEEB020460EB03030120A1
:108350009C461EB9002169E73846FAE7C6E9004C99
:10836000F8E7C7F1200CBB400EFA07F522FA0CF42F
:108370002EFA0CF1BA401C4320FA0CF3B8404FEA35
:10838000144901431FFA84FEB3FBF9F809FB1830C6
:108390000B0C08FB0EFA43EA00439A4540D9E31858
:1083A00008F1FF3004D29A4502D9A8F10200234413
:1083B000A3EB0A0389B2B3FBF9F809FB183308FBF6
:1083C0000EFE41EA03418E452CD9611808F1FF33B6
:1083D00004D28E4502D9A8F10203214443EA0040A9
:1083E000A1EB0E01A0FB02984145CE46434602D3C5
:1083F00006D14D4504D20138B9EB020E68EB0403F7
:10840000002EA7D0B5EB0E0261EB030101FA0CFCC4
:1084100022FA07F3F9404CEA0303C6E9003199E771
:108420004046C5E74346D9E7034613F8012B002A27
:10843000FBD1181A013870472DE9F04F89B0054675
:10844000164604910593836806AA5B68984700283E
:1084500032DBDDE9064A204B4FF0FF39A4FB03B2C3
:1084600003FB0A230393584619A3D3E90023039976
:10847000FFF772FEDFF86480039BD94578EB0303B6
:1084800007461CD312A3D3E90023A6FB04B406FBC2
:108490000A4458462146FFF75FFED94578EB0404AD
:1084A00003460CD38742AA680CD30599284600914D
:1084B000146804993A46A04709B0BDE8F08F6FF000
:1084C0008500F9E76FF01500F6E700BFAFF3008015
:1084D00000CA9A3B00000000002D3101FFC99A3B01
:1084E0002DE9F04F87B0054617461E460391836875
:1084F00004AA5B689847002831DBDDE9044AA7FB42
:1085000004B307FB0A371AA3D3E900234FF0FF395E
:1085100058463946FFF720FEDFF85C80D94578EBF6
:10852000070302901ED312A3D3E90023A6FB04B4D1
:1085300006FB0A4458462146FFF70EFED94578EB64
:10854000040403460ED30299AA6899420DD3BDF8DC
:108550004010284600911468DDE90221A04707B0C9
:10856000BDE8F08F6FF08500F9E76FF01500F6E7D2
:1085700000CA9A3B00000000FFC99A3B1FB50023C8
:10858000024619460948FFF757FF044650B1084B09
:1085900003900293002301221846CDE900330549D8
:1085A00006F0F3FA204604B010BD00BFC0FE000084
:1085B000880401002401010001421FB503D00129F4
:1085C00004D002291DD005B05DF804FB134B032233
:1085D0000293002312491846CDE9003306F0D5FA7C
:1085E0001048FFF7CBFF0028EDD00F4B039002930C
:1085F000002301221846CDE90033094906F0C5FAE7
:10860000E1E70A4B03220293002305491846CDE90E
:10861000003306F0BAFA0648E3E700BF9F04010002
:108620002401010040420F00C1040100B004010018
:1086300080841E001FB5194803F012FC48B1184B86
:1086400001220293002317491846CDE9003306F0B2
:108650009CFA154C204607F089F9034660B9226858
:1086600010490392114A0090CDE90102012206F05F
:108670008CFA002004B010BD0023204619460C4A95
:10868000FFF7DAFE0028F4D00A4B03900293002390
:1086900001221846CDE900330249E8E7B985000018
:1086A000E804010024010100C0FE000011050100E2
:1086B00040420F00330501002DE9F04F91B00093C7
:1086C00002F004030293C2F3C20301338407054698
:1086D0000E46DDF868900392059340F0BB81041DBF
:1086E00030B1072909D86FF01B0011B0BDE8F08F39
:1086F00001F00706341DC6F10806009B4FF0000884
:108700004FF0040A591E4FF0FF3347460193C3460A
:108710005346CDF810800DB1009A226005980028CC
:1087200000F3E8809848009A824203D39748824237
:10873000C0F0E080039AA4EB050E92074FEA9E007A
:1087400000F103810F2F00F2B180002D00F00581B0
:1087500007F140020DEB020C019A0CF8200C0CF80A
:10876000102C049801300490E7E07A285DD84B285B
:108770000ED8472859D829282DD8252852D054D882
:1087800020287AD02338D0F1000B4BEB000B74E09B
:108790004C382E2849D8DFE800F07048484848484F
:1087A0004848484848484B48484848484848485935
:1087B000484B4B595959704B6D487048184B1848E5
:1087C00048827F4B48484B487F0000204FF0000B09
:1087D0004FF0040A38E001222A38C0B202FA00F051
:1087E00010EA0E0F49D110F0625C2FD110EA020B93
:1087F00043D06046013C5444B4FBFAF40AFB04F451
:10880000002D61D0A3EB050CA4446645FFF46BAFCB
:10881000002868D1042B47D159F8043B2360042376
:1088200004342AE0019A013A01924FF0000B24E04F
:1088300011F8010C6C2834D1002011F8023C834659
:108840006C2BC5D14FF0080A5346D3E709F107094D
:1088500029F00709073424F00704F9E802AB35B121
:1088600006982044B0423FF63EAFC4E900AB4FF05B
:10887000000B08344FF0080A534611F8010F002886
:1088800078D0BBF1000F7FF470AF2528F5D14FF001
:10889000010B019B013301934FF0040AECE75846AA
:1088A00094E700208346A5E7082B02D06FF015005F
:1088B0001BE709F1070929F00709F9E80223C4E9D0
:1088C000002308230834D8E768B9042B02D109F142
:1088D0000409A4E7082BE9D109F1070929F00709E0
:1088E00009F10809EDE7059A013A059259F8042BB8
:1088F000009210E7039A900720D54FF0010CA4EBEB
:10890000050E4FEA9E00BEF5007FCFD20F2FCDD8C7
:10891000F5B107F140020DEB020E019AC0B20EF85C
:10892000200C0EF8102CBCF1000F3FF41AAF60F0D1
:108930007F000EF8200C08F101080137C5F108028C
:108940004FF6DA7E0434069297E74FF0000CDAE730
:10895000BCF1000F01D00136EFE702980236002883
:10896000EBD10098CDE90631FFF75EFDDDE9063178
:108970000644E2E7631BB3F5806F97D245B9A6F1D1
:108980000804E018B1E600BFCCFD0000A011010012
:10899000029A9B0828602B709DF81030C2B1EB70D2
:1089A00085F80280B8F1000F05D0002208A8C5F1B3
:1089B000010C97420ED14FF0000AC5F101030DF1F1
:1089C000200901930DF1300B574512D1601B8CE645
:1089D0006B70E5E710F8013B190608D504EB0C0EA7
:1089E000764503F07F03FFF47EAE04F8013B0132CD
:1089F000DFE7B8F1000F03D099F90020002A17DB58
:108A0000029BD3B11AF80B2004F8012B0022019B22
:108A1000981820448642FFF466AE99F80000009949
:108A200004F8010B2046039207F0B0F9039A1444AE
:108A30000AF1010A09F10109C6E799F8002055F881
:108A400022300093029B009845F82230FFF7ECFC9F
:108A5000421CDCE76FF00D0047E600BF014B1860D9
:108A6000704700BF0080002080B505460E461746BF
:108A7000984605F09DFC034607F09EF90446DFF892
:108A80001890424649F8003039463046A84754F815
:108A9000090001F027F800BF080000002DE9F047A9
:108AA000058B04462807904611D4022905F00705D6
:108AB00040F0CD80204606F097F978B10138218B3F
:108AC000042811D8DFE800F0C3106D859500012956
:108AD0000CBF45F0100545F02005258388F311886B
:108AE000BFF36F8FBDE8F08701F0070AAA4500F0D9
:108AF000A6800027B9463E46A368002B00F0BD8043
:108B000041F00801218388F31188BFF36F8FA168BA
:108B1000002900F0BB800D68002900F0B7803346C3
:108B200052462046D1F80480C047002D76D02B68ED
:108B300029461D46F0E701F007035A1F012A1BD8FA
:108B4000002221F00701062B276889B2C4E9002220
:108B500009D13B4603E0628B013262831B68002B24
:108B6000F9D141F002012046218306F03DF90028A9
:108B70007BD041F0200177E0042B0AD121F00701DE
:108B800089B22046218306F02FF910B141F020016F
:108B90002183218B01F0070AAA4550D00027B9464E
:108BA000AAE7236921F0070141F00601062DD3F859
:108BB000009021832DD1B9F1000F40D041F0080180
:108BC000218388F31188BFF36F8F20463949C84746
:108BD00029E021F00701236941F0040189B2042D45
:108BE000D3F804902183E6D000274FF0040A3E46D4
:108BF00082E721F00701236941F0050189B2052DC3
:108C0000D3F808902183D6D000274FF0050A3E46BE
:108C100072E700274FF0060A3E466DE72B4687E7CE
:108C2000B9F1000FD1D14FF02003EFF3118883F396
:108C30001288BFF36F8F238B23F008032383258BC8
:108C4000EA062ED525F01003238305F00705666993
:108C5000218B002EBFF66FAF00232768C4E90033D5
:108C600021F0070141F001012183218B4FF0000920
:108C700001F0070AAA457FF43FAF002F9BD041F0D7
:108C80000801218388F31188BFF36F8F002FC7D0AD
:108C90003D68394633465246204606F0D1F82F4605
:108CA000F4E7AB067FF51AAF25F02003238305F028
:108CB0000705FFE66DEE00002DE9F84F81462F48CD
:108CC0000F4606F06FF9064670B92D4C0546A046D2
:108CD0004FF0010BDFF8ACA0544507D3B9F1000FFA
:108CE00002D04FF0010AE5B9BDE8F88F237B73B1DC
:108CF0002368DB680BB12046984723681B6943B99A
:108D0000636804222046196800F0C4F80136103464
:108D1000E2E7204698470028F2D00BFA06F31D43FD
:108D2000F4E7A94695FAA5F4B4FA84F40AFA04F330
:108D3000260108EB04146FEA030B25EA0305237BE5
:108D400063B158F806301B6993B94644736804222E
:108D50002046196809EA0B0900F09CF8002DE1D1C2
:108D600027B14FF4A470002105F008FB4D46BAE787
:108D7000204698470028F1D1E7E700BFB0830020E4
:108D8000AC010100BC010100014B53F82000704709
:108D9000C801010008B5034608462BB1044A136018
:108DA00000F07CFA002008BD6FF01500FBE700BF63
:108DB000048000200023054A4FF400411370044A48
:108DC00004481360044A1360FFF7E4BFA486002040
:108DD000A8830020A1EF0000AC83002070B50B4DEC
:108DE000297841B90120FFF767FF094C094EB442C9
:108DF00002D301232B7070BD63685B791BB12368BC
:108E000020469B6898471034F1E700BFA4860020F5
:108E1000AC010100BC01010010B50446064806F093
:108E2000C1F83CB1054BD3E8EF1F0139C3E8E21F9D
:108E3000002AF8D110BD00BFA8830020AC83002019
:108E400070B50A4B05461B689847094C094EA86047
:108E5000B44200D370BD63685B7923B123682946AF
:108E600020461B6898471034F2E700BF04800020BA
:108E7000AC010100BC010100044A054B9B1AB1EB97
:108E8000D30F34BF52F83100002070472401010095
:108E9000AC010100084B10B4C31A44681B11013324
:108EA000237143689A7101224368196043685A71BB
:108EB00010BC06F095B800BFAC0101002DE9F04FE1
:108EC00085B002AF0446D7E90EA90E4693469846F0
:108ED0003D6BBAF1000F33D0C7F80490CDF8009085
:108EE0001021534600207A6BFFF7E6FB0146154A36
:108EF00004F007040BF0070BE40044EA8B1402EAC9
:108F00004122144344EA055417350D4425F0070562
:108F1000ADEB050D02ADBAF1000F07D0CDF8009012
:108F200053467A6B05F11000FFF7C6FB4346224615
:108F30003146284606F057F80C37BD46BDE8F08F9D
:108F40005146D4E700FE0F000EB403B503AB53F84F
:108F5000042B01460448019301F054F902B05DF876
:108F600004EB03B0704700BF19F00000CA0605D437
:108F70008B064CBF02490349FFF7E6BF704700BFAD
:108F80007B0501007A0501002DE9F04F89B09B4671
:108F9000DDE916769DF84C3004460493DDE9149320
:108FA0000593049B0D460692002B00F0878006F087
:108FB0000803079306F015F806F0020A0246002897
:108FC0004BD020468549FFF7BFFF8046BAF1000F1E
:108FD00008D016F0440F42D12A4620468049FFF7B8
:108FE000B3FF804406F001035BB17E4B049A204638
:108FF00053F822207C4B7D49002A08BF1A46FFF710
:10900000A3FF06F00803002B55D0794B049A2046A5
:1090100053F822207749FFF797FF0546069B2BB1AF
:109020001A4620467449FFF78FFF0544BBF1000F35
:1090300005D05A4620467149FFF786FF054445444E
:10904000B9F1000F49D1002F4FD1F30700F1C080D3
:1090500031462046FFF78AFFB4E08046B6E7684B0A
:1090600018680028BDD0674B4FF47A7E1B684FF418
:109070006162B5FBF3F5B5FBF0F300FB13550EFB96
:1090800005F5B3FBF2FAB5FBF0FC3C2102FB1A320A
:1090900000FB1C55B2FBF1F30EFB05F5B5FBF0F53B
:1090A00001FB132220460092CDE901C552465649E4
:1090B000FFF74AFF95E706F00805AFE7BBF1010FA0
:1090C00006D1B9F1000F64D1002F7BD000250CE050
:1090D000B9F1000FF8D04D485CE04D484B462246B0
:1090E0004C4905F061FD002F68D0DFF82C91DFF8C6
:1090F0002CA1102F31462046B8464FF0000B28BF58
:109100004FF01008FFF732FF5D4545DC059B5146E7
:1091100020461A78FFF718FF4FF0010B1BF0070FDE
:1091200003D149462046FFF70FFFD8453BD9059BA1
:109130005146204613F80B20FFF706FF0BF1010BF9
:10914000BBF1100FEAD14FF0000B20463449FFF776
:10915000FBFE5A46059B20469A5CA2F120015F293E
:1091600028BF2E222F49FFF7EFFE0BF1010BBBF1B9
:10917000100F1DD01BF0070F03D149462046FFF703
:10918000E3FED8455A46E5D849462046FFF7DCFEBF
:10919000EBE71F48049DA1E749462046FFF7D4FEB0
:1091A0000BF1010BB0E720461F49FFF7CDFEC5E7E5
:1091B000059BB7EB0807434405939AD1049B002B0A
:1091C0007FF443AF204609B0BDE8F04F05F04DBF36
:1091D0002046054A0549FFF7B7FE39E78205010039
:1091E00086050100D80101007D0501005F0D010029
:1091F000EC010100AB050100B1050100B50501005E
:10920000B8830020B48300208F05010035F00000F2
:1092100019F0000005A20000C2050100BA05010016
:10922000C4050100C6050100C00501002DE9F0419B
:109230000F884B6805460C4690468E6886B0C7F38B
:1092400082175BB1144A9B1A43F3CF01002920DB3C
:109250002078C0F3C200FFF70FFE0346214651F805
:10926000102B6088C2F34A22002A01EB020408BFD7
:1092700000210022C0F30B10CDE90408CDE902144F
:109280002846314601970092FFF77EFE06B0BDE802
:10929000F0810023E2E700BF240101000021012347
:1092A000064A904206D8064A01B901231360054BCD
:1092B00018607047012140085B00F2E740420F0050
:1092C000B4830020B8830020F8B50D460446064F4D
:1092D0004618B44201D12846F8BD14F8011BBB68FA
:1092E00001485B689847F4E798FE0000014B036073
:1092F000002070473402010070B506460D4686B066
:10930000002938D000248B68012205934B68204641
:1093100004930B681B4903931B4BCDE90044029354
:10932000234605F0D2FE6B69012205932B69204686
:109330000493EB6813490393144B0094CDE9014364
:10934000234605F0C2FEEB6901220393104B204631
:10935000CDE901430B492346009405F0B6FEAB6905
:10936000012203930B4B2046CDE9014305492346D7
:10937000009405F0AAFE2946304606B0BDE87040CC
:1093800004F072B8840101000306010032060100F6
:10939000610601007006010030BFFFF7FDBF00BF8E
:1093A000114B124A2DE9F041D518013DB5FBF3F5FB
:1093B000DFF83C805D430F4B074608EB0304013C9C
:1093C000B4FBF3F403FB04540E1B30460A4906F0C9
:1093D000DDFC701942460021083E06F0E4FC3E67C1
:1093E00004F10800BDE8F081010000000000000069
:1093F0000400000004000000BC010100044B996857
:109400005869884203D003494FF080520A60704780
:109410006C86002004ED00E0F0B50024414B85B0DF
:109420000293074623460E4601222046CDE900441A
:109430003D4905F065FE3D4B9B6ADD066FD53C4B13
:109440002046CDE90143012223463749009405F027
:1094500057FE1120354B9B6A1C070AD5354B01225C
:109460000293002330491846CDE9003305F048FE49
:1094700012202E4DAB6A99071FD500242E4B0122D6
:10948000029320462346CDE90044274905F038FEE3
:109490006B6BAA6A12060FD50393284B0122CDE904
:1094A0000143204623462049009405F029FE1FB1C0
:1094B000AB6A23F08003AB6213201C4B9B6ADD0771
:1094C0000AD51F4B01220293002317491846CDE904
:1094D000003305F015FE1420144B9B6A9C060AD538
:1094E000184B0122029300230F491846CDE900339F
:1094F00005F006FE15200D4B9A6AD10658BF9A6AF0
:109500009A6A920642BF5A6A22F400525A629A6AD2
:1095100042F0FF029A620023337005B0F0BD1020C4
:1095200098E700BF9E0601008401010000ED00E005
:10953000B4060100E7060100FA0601001207010067
:109540002807010047070100F0B50024434B85B010
:109550000293074623460E4601222046CDE90044E9
:109560003F4905F0CDFD3F4B9B6ADB0465D53E4B83
:109570002046CDE90143012223463949009405F0F4
:10958000BFFD1720374B9B6A1D050AD5374B0122BB
:109590000293002332491846CDE9003305F0B0FDAF
:1095A0001820304DAB6A9C051FD50024304B01229A
:1095B00020460293CDE900442346294905F0A0FD49
:1095C000AB6BAA6A10040FD503932A4B0122CDE995
:1095D0000143204623462249009405F091FD1FB126
:1095E000AB6A23F40043AB6219201E4B9B6A5905FA
:1095F0000AD5214B01220293002319491846CDE9CF
:10960000003305F07DFD1A20164A936A13F4807327
:1096100015D01A4B01220293002311491846CDE9B7
:10962000003305F06DFD1B200E4A936A43F47F431F
:1096300093620023337005B0F0BD1620A2E7926A52
:109640009204F1D50E4A1846CDE9013204490122AF
:10965000009305F055FD1C20E6E700BF76070100EA
:109660008401010000ED00E08C070100E706010025
:109670009D070100B6070100CB070100E6070100C6
:10968000470701001FB500243E4B3F4902930122CA
:1096900023462046CDE9004405F032FD3B4B9B6A52
:1096A00099016DD53A4B2046CDE90143012223466D
:1096B0003549009405F024FD1E20344B9B6ADA01E5
:1096C0000AD5344B0122029300232F491846CDE9D5
:1096D000003305F015FD1F202C4B9B6ADB020AD5D9
:1096E0002D4B01220293002327491846CDE9003370
:1096F00005F006FD0220254B9B6A1C030AD5274B6B
:1097000001220293002320491846CDE9003305F0D9
:10971000F7FC21201D4B9B6A59030AD5204B0122DF
:109720000293002318491846CDE9003305F0E8FC00
:109730002220164B9B6A9A030AD51A4B01220293E8
:10974000002311491846CDE9003305F0D9FC232048
:109750000E4B9B6ADB030AD5134B012202930023B5
:1097600009491846CDE9003305F0CAFC2420074A10
:10977000936A6FEA03436FEA1343936204B010BD28
:109780001D209AE7FE0701008401010000ED00E0C2
:109790001608010029080100430801006D080100B6
:1097A0008B080100B0080100CA0801002DE9F04350
:1097B000784B0446D3F8048089461646002591B0BC
:1097C000C8F3080785F31188BFF36F8F02F07F435A
:1097D000B3F17F4F25D112F0010322D1510603D4FA
:1097E00032070DD401250DE06B4A1846CDE9013250
:1097F0006A490122009305F083FC16F0040600D0AC
:109800004C4600254FF00009FB1E8DF81F90092BD8
:1098100000F2A680DFE803F0079A9E96A4A4A4A411
:10982000A4A22C46EEE75E4B0122CDE90193002372
:109830005A491846574FCDF8009005F061FC8DF855
:109840001F90FE6A16F0020605D0564BCDE9019333
:10985000CDF8009006E0FB6A002B0BDA524B009625
:10986000CDE901630023012218464C4905F048FC6C
:10987000002330E0FB6A5B00FAD54C4B0122CDE9B6
:109880000163304633464549009605F039FC7B6953
:10989000A26943F480737B61BFF34F8FBFF36F8F77
:1098A0007B6932F8022C23F480737B61BFF34F8F06
:1098B000BFF36F8F4DF602739A422CD123680122B9
:1098C00003933B4B3046CDE9016334493346009660
:1098D00005F016FC23689DF81F20CAB908AE04F1F4
:1098E0002007324620686168083403C2BC4216462D
:1098F000F7D10F9A002D47D0C2F3080121B96FEAC2
:1099000052226FEA42220F92184608A9FFF7F4FC90
:1099100011B0BDE8F083BB6ADBB22BB101200DF1C1
:109920001F01FFF779FD0FE0BB6A13F47F4F05D0ED
:1099300001200DF11F01FFF707FE05E0BB6AB3F53B
:10994000803F95D3FFF79EFE0346C4E700200DF14C
:109950001F01E6E700200DF11F01ECE7154B75E74D
:10996000154A18F4F87F154B18BF1346103FCDE980
:109970000337134B01220293002308491846CDE90F
:10998000003305F0BDFB73E722F4FF7222F0010201
:10999000B9E700BF00ED00E02309010084010100E8
:1099A000460901005D0901007E0901008C090100E2
:1099B000AB090100C70901000A090100F50801000F
:1099C000EB090100044B5A6942F010025A615A69CE
:1099D00042F480625A61704700ED00E0EFF30880C6
:1099E000EFF3098101B57246FFF7E0FE01BD00BF4C
:1099F000002080F31488BFF36F8F002080F30A8863
:109A000080F30B8800F078FD00200E490860BFF35A
:109A10004F8F0D4880F3088800F03EF8202080F337
:109A200011880A484FF40061401880F30988EFF369
:109A300014800221084380F31488BFF36F8F00F075
:109A40000DF9000094ED00E0F0930020B0860020B6
:109A5000BFF34F8F0549064BCA6802F4E062134317
:109A6000CB60BFF34F8F00BFFDE700BF00ED00E00C
:109A70000400FA05002318460649D1F89020C2F3E5
:109A80000722934200DB7047C1F89830C1F8A0006C
:109A90000133F6E700ED00E010B572B6002484F360
:109AA0001388FFF7E7FF23464FF0FF300C4A03F11E
:109AB00020010133102B42F82100F8D100234FF090
:109AC000FF30074A03F160010133102B42F82100F7
:109AD000F8D162B6BFF34F8FBFF36F8F10BD00BFD9
:109AE00000E100E0084B9B6883420BD1EFF3058354
:109AF00043B1064B5A6842F080525A605A6A22F4C7
:109B000000425A6206F082B86C86002000ED00E048
:109B10006FF00A01084A93689967084958674B68CB
:109B200043F080534B60002383F31188BFF36F8FA2
:109B30009368986F704700BF6C86002000ED00E0CE
:109B400018498A6882F87DE04FF030001044EFF346
:109B5000098C80E8F01F202080F31288BFF36F8FFC
:109B6000114F4FF000664A698A603E604FF0700402
:109B7000141920680D4C206092F97DE0506F00238D
:109B8000536780F3118802F1300090E8F01F8CF3E6
:109B9000098802F1000004B505F0C8FABDE80440E8
:109BA000704700006C86002004ED00E0E083002098
:109BB0001EF0040F0CBFEFF30880EFF309808169FA
:109BC00011F8021C0229FFD001B505F08EFA01BD83
:109BD00040B2002807DB01234109034A00F01F00BF
:109BE000834042F82130704700E100E040B2002895
:109BF0000CDB01220649430900F01F00824020339C
:109C000041F82320BFF34F8FBFF36F8F704700BF22
:109C100000E100E0054B420953F82220012300F047
:109C20001F0003FA00F01040704700BF00E100E0A1
:109C300040B2002801F10101ACBF00F16040064BC9
:109C40004FEA4111C9B2ABBF00F5614000F00F000F
:109C500080F800131954704714ED00E00B4A08B562
:109C60000B4B22F07F029A60BFF34F8FBFF36F8FD1
:109C7000D3F8882022F47002C3F8882003F09AFCFD
:109C800004F0AEFB00F07AF803F0DEFC0080000088
:109C900000ED00E042F8203C009B0C4942F81C3CDF
:109CA000019B21F0010142F8183C029B42F8081C7C
:109CB00042F8143C4FF0807342F8043C00234367A1
:109CC0004FF43C43203A0265C3677047698A00003D
:109CD0000A4B046F98600A4B1C60036E83F30B8879
:109CE000104681F30988002163B681F31188BFF320
:109CF0006F8F00220023FEF7B7FE00BF6C860020A6
:109D0000E0830020014910220A60704710ED00E056
:109D100072B6404080F31188BFF36F8F01B500F039
:109D2000CFFA00280AD0BFF34F8F30BF00BF00BF6B
:109D300000BF00BF00BF00BF00BF00BFBDE80140C3
:109D400062B6BFF36F8F704772B6494081F31188D6
:109D500001B500F0B5FA00280AD0BFF34F8F20BF3D
:109D600000BF00BF00BF00BF00BF00BF00BF00BFFB
:109D7000BDE8014080F3118862B6704700232021BE
:109D80000348C2180133452B82F80013F9D17047FC
:109D900000E100E001B5EFF30580A0F110004FEA0B
:109DA000C0000449014409C99847BDE8014002497F
:109DB00008470000FCFE0000FD9300001FB5094CA1
:109DC000094A23460121094800F018F900230393AA
:109DD000074B0121E41A01A80193029400F018F93D
:109DE00004B010BD000007200080002034020100F4
:109DF0008881002010B50C7A0B6804F01F0223F054
:109E00001F031A43CB68640923F01F03054943EA83
:109E1000440343F00103C1F89800C1F89C20C1F845
:109E2000A03010BD00ED00E007281FB504460FD993
:109E3000094B03900293002301221846CDE9003319
:109E4000064905F080F96FF01504204604B010BDF6
:109E5000FFF7D0FFF9E700BF020A01007C01010013
:109E60002DE9F04F8946144606464FF00008544D40
:109E700089B0C8452DDAD6F804A0BAF1000F4AD04F
:109E8000BAF11F0F17D91AF01F0F14D1D6F800B06E
:109E90001BF01F0F0FD1584605F04CF907460AEB8F
:109EA0000B00013805F046F9874216D06FF0150710
:109EB000444B039702E0444BCDF80C8002930023FF
:109EC00001221846CDE90033404905F03CF96FF016
:109ED0001504204609B0BDE8F08F17F1160FE7D042
:109EE000BC42E5DDC5F89870D5F89C10C5F89870AF
:109EF000D5F8A03021F01F0143F01F0BD6E9003246
:109F00001A44994202F1FF3A1DD1D34507D1314697
:109F1000F8B205F028F908F101080C36A9E7314636
:109F2000C5F89870D5F89C3022F01F0203F01F038B
:109F30001343C5F89C30E0B205F015F910F1160F87
:109F4000C5D0441CE7E7C5F89870D5F8A020013BC0
:109F500023F01F0302F01F021343D3453146E0B242
:109F6000C5F8A030E8D005F0FEF810F1160FAED01D
:109F7000C5F89870D5F89C209DF818300BF1FF3B80
:109F800062F304038DF81830D5F8A0309DF818203E
:109F90005B0863F347128DF81820D6E900321344AA
:109FA000049323F01F035B44A3EB0A03013023F067
:109FB0001F0304A9C0B20793FFF736FFBEE700BF37
:109FC00000ED00E04B0A0100280A01007C010100BD
:109FD0000522044BC3F89420BFF34F8FBFF36F8F5C
:109FE000704700BF00ED00E0BFF35F8F0022024B1F
:109FF000C3F89420704700BF00ED00E010B5034C9B
:10A000002278FFF72DFF207010BD00BFA68600202C
:10A010002DE9F74F294D8A4606464FF00008AB461A
:10A02000274FD0451BDAD6F80490B9F1000F3FD086
:10A0300031680846019105F07DF80199044609EB65
:10A040000100013805F076F884424FF014021D4BF0
:10A0500008D002FB08F36FF015024BF8032003B0A1
:10A06000BDE8F08F14F1160F2C60F8D01978A142DA
:10A07000F5DD02FB08B0C7F89840C7F89840D7F85C
:10A080009C4000F10801007B64F304000871D7F8DC
:10A09000A0000C79400860F347140C71D7F89C10AD
:10A0A00021F01F016960D7F8A01021F01F0129617C
:10A0B00008F1010814350C36B3E700BFE483002033
:10A0C00000ED00E0A6860020F0B53D4D8BB02C6879
:10A0D000082C71D80020FFF787FF3A4B3A4AC3F8A3
:10A0E000C02084420DD1394D05A82C70FFF7FEF831
:10A0F00000240646364FA6420AD1FFF769FF00202A
:10A1000058E0696801EB0011FFF774FE0130E8E7E1
:10A110000599200101EB0413DA683A40B2F5001FFB
:10A1200022D0B2F5800F2CD0B2F5801F36D15A68FC
:10A130009B680958013B22F01F000344012084461C
:10A1400023F01F0340EA4C10CDE906218DF82000D2
:10A1500006A928780993FFF767FE002828DB2B78EB
:10A16000013401332B70C6E75A689B680958013BDC
:10A1700022F01F0003444FF0020C012023F01F03C4
:10A18000E0E75A689B680958013B22F01F0003442E
:10A190004FF0000C062023F01F03D3E70D4B0122E4
:10A1A000029300230C491846CDE9003304F0CBFF9D
:10A1B0006FF015000BB0F0BD4FF0FF30FAE700BFB5
:10A1C0004002010000ED00E0AAFF4400A686002046
:10A1D0000000F0FF6E0A01007C01010008B5024B8F
:10A1E0001B689847002008BDF8830020034B044AF1
:10A1F0001860937843F0020393707047F88300204F
:10A2000010800020F0B587B007460E4614460021A6
:10A21000102268461D4605F0C6FD02238DF8023067
:10A22000054B2A4621466846CDE90476019304F0A1
:10A2300051FA07B0F0BD00BF99F1000008B506491A
:10A24000064821F00701C1F1005202F5E02204F0B6
:10A2500073FD002008BD00BFF7970020FC8300209D
:10A2600007B50DF1070005F074FA114B98421CD1A7
:10A270004FF480620F4B1049C3F8B8254FF40062C9
:10A28000C3F83C259DF8070005F04FFA0B499DF8EF
:10A29000070005F045FA01209DF80730984002F0CC
:10A2A0002BF9002003B05DF804FB6FF00B00F9E719
:10A2B0000000AD0B00A002402CA0024028A10240EB
:10A2C000052370B5144D154E2C780134B4FBF3F30F
:10A2D00003EB8303E41A05F0BDF9114A137823B1A7
:10A2E00056F82430C01A072813D90E4BD3F814118E
:10A2F00041B10021C3F81411D3F814312C700CB9FA
:10A30000012313702C7805F0A5F946F824000120EC
:10A3100070BD0020FCE700BFA88600200884002054
:10A32000A78600200050004048B1054B054A1B6835
:10A33000B3FBF2F35843044B43F001031847704753
:10A340004480002040420F00C00101007FB50BABEC
:10A3500005930393054B0122029300231846CDE990
:10A360000033FEF7ABFD07B05DF804FBA30A010064
:10A3700070B5049CC4F30726304601F009FAE5B233
:10A380000146284605F0DDF900220120074BA40B09
:10A3900004F0FC041A51A84002F0B4F8304601F071
:10A3A000ABFB2846BDE8704002F04EBA80A00240E8
:10A3B00070B586B005A802F041FA294B98424CD1FD
:10A3C00001F07CFB041E0FDA9DF8140002F03CFA49
:10A3D000244B01220293002323491846CDE9003380
:10A3E0000394FFF7B3FF35E040F607031F4D8DF8E8
:10A3F0001540AE68ADF816307468059B14B96FF05F
:10A400005704E5E708212846194AA047041EDFDB68
:10A410003369002BF3D00122082128469847041EF7
:10A42000D6DB01209DF81430984002F065F89DF8C5
:10A4300015009DF814509DF8176005F0F6F80146D8
:10A44000284605F072F90B4BB60045F000459D51CA
:10A45000002CBDD1204606B070BD6FF01204B7E7E6
:10A460000000AD0BA30A01009C010100ACFE00003E
:10A4700079A4000080A102402DE9F34114468368CD
:10A480001B690BB100229847C4F30726304601F040
:10A4900087F90546304605F0C8F84FF00008E7B2E6
:10A4A0000146384605F051F9104B220E920043F850
:10A4B0000280304601F06CF90D4A4FEA943C0CF0F2
:10A4C000FC0C47F0004342F80C300146384605F0DA
:10A4D00027F9084B05F132020093304643460194B8
:10A4E000520005F0ABF802B0BDE8F08180A1024057
:10A4F00080A0024071A3000005F00EB9084B70B5B2
:10A50000C31A0D4607499B1004465943402206488A
:10A5100004F077FE2B4601462046BDE87040184700
:10A5200030840020B76DDBB65CFE0000402373B5BD
:10A530000B4C0093041B0B460D460A49A4106143C3
:10A540000646094A094804F088FE011E05DA30462D
:10A550002B4602B0BDE87040184702B070BD00BF86
:10A5600030840020B76DDBB6C5F200005CFE000051
:10A570002DE9F8430022012106460520FFF758FB8C
:10A58000114802F071F8114B984219D102F07CF891
:10A5900000244FF01C090C27DFF834803569414650
:10A5A00009FB045004F070FC002807DB012307FBC3
:10A5B00004551C44042CAB67F0D10020BDE8F8839F
:10A5C0006FF00400FAE700BF09A600000000AD0B21
:10A5D0006802010001460C2300224B4370B5084875
:10A5E000C41878331844D4E91C56226704F0F6FDE9
:10A5F0002DB132462B46BDE870400248184770BD69
:10A60000308400205CFE0000062812D8DFE800F04D
:10A61000040F1111110D0B00064B986F10F007007D
:10A6200007D1FFF7D7BF0220FBE70320F9E701209E
:10A63000F7E770473084002008B54FF02003EFF3B0
:10A64000118183F31288BFF36F8F114A136843F0AF
:10A6500002001060DA0708D481F31188BFF36F8F0E
:10A66000BDE80840012002F027B80A4BD3F80C24BB
:10A67000D3F80C34DB07EFD5074804F0AFFD81F3C6
:10A680001188BFF36F8FBDE808400020FFF7A2BF1D
:10A69000D084002000500040A88400201FB5002274
:10A6A0000123CDE902236B46084ACDF800D0CDF84E
:10A6B00004D004F000FE002805DB4FF480420023A4
:10A6C000684603F0C1F905B05DF804FBFBF2000039
:10A6D00010B54FF02003EFF3118483F31288BFF31A
:10A6E0006F8F074A136823F00201DB07116002D461
:10A6F000012005F030F884F31188BFF36F8F10BD8F
:10A70000D08400202DE9F041012207463549D1E8E7
:10A71000EF3FC1E8E02F0028F9D133B9324933487F
:10A720004B60CB608A6004F0C2FB7B1E012B28D8F3
:10A73000012F06D12E4BD3F81C3403F00303022B58
:10A740001FD005F032F90546E8B92A4B1B78D3B182
:10A7500002220646264BC3F80823254CDFF89880D2
:10A76000D4F81824D4F81834D20316D503F0030310
:10A77000022B01D0012F10D175B386F31188BFF3DE
:10A780006F8FBDE8F0814FF02003EFF3118683F364
:10A790001288BFF36F8F0125DFE7C5B13046FFF7A1
:10A7A000D3FAD4F81835DBB2012BD9D1D4F804216F
:10A7B000002AD5D00022C4F80421D4F804210222B2
:10A7C000C4F818252022C8F88021A360C8E700211A
:10A7D000212003F0D3FDE4E70222054BC3F8042354
:10A7E000CFE700BF2C8400201C8400204C84002074
:10A7F00000500040AD86002000E100E008B50748A9
:10A8000005F0B4F838B10648FFF7F0FC0448FEF74D
:10A8100025F9002008BD6FF01200FBE798FE00004C
:10A8200025A800000A2838B50446074D04D1AB68B6
:10A830000D2128465B689847AB6803485B68E1B226
:10A840009847204638BD00BF98FE0000F0B540682C
:10A8500001F01F04057B87B044EA45140569002D0B
:10A8600063D0B2F5001F00F1100506D1214628463D
:10A8700005F011F8002007B0F0BD0027B2F5800FF9
:10A8800001AE0197776039D1B3F1007F14BF052382
:10A8900004238DF804300023CDE904630393836817
:10A8A00023FA01F111F001011AD1B2F1A07F17D101
:10A8B00004F01F03620903F180032AD0012A3AD170
:10A8C0001E4A52F82330DB070AD40DF10306324644
:10A8D0002146284602F060FB194B98421BD0029695
:10A8E0002146284603AA02F0B7F9164B98421FD119
:10A8F00001222146284602F0D3FBBBE7B3F1C06F2B
:10A9000005D0B3F1007F14BF01230223C1E7032365
:10A91000BFE70D4AD5E73146284602F0B5FB094BA3
:10A920009842DCD06FF00B00A5E76FF08500A2E73E
:10A930006FF015009FE751F82330FFDE00288440B8
:10A940000400AD0B0000AD0B0025844038B5456810
:10A950002B69B3B11035284602F07CFB044680B960
:10A960000146284602F036FB084B98420BD122469E
:10A970002846074902F002FB224605212F20FFF757
:10A9800057F9002038BD6FF00400FBE70000AD0B65
:10A9900095A900004209034670B502D0012A17D0DC
:10A9A00070BD0D4E326951680029F9D0012503F0C0
:10A9B0001F030C689D400029F2D08A682A4002D00B
:10A9C00030464B6898472CB1236821461C46F2E775
:10A9D000024EE7E72346F8E784FE000070FE000021
:10A9E0002DE9F04340F206354668D00648BF032003
:10A9F000337B02EA050558BFC2F3401087B001F06F
:10AA00001F07B5F5837F144647EA43178DF8030007
:10AA100043D00FD8062D18D007D8B5B1022D3ED09F
:10AA20006FF0150007B0BDE8F083B5F5807FF7D172
:10AA300001250AE040F20222954232D0B5F5407F6E
:10AA400031D0B5F5007FEBD1022522032DD50123AE
:10AA500072688B409360326982BB07F01F037F09E5
:10AA60002AD0012F77D13E4A02EB830284F480334F
:10AA7000D2F80012C3F30043C4F3404444EA430451
:10AA800021F4706144EA800421F00F0144EA0523B7
:10AA90000B43C2F800320020C4E70725D5E70425A0
:10AAA000D3E70525D1E70325CFE7630341BF0123A2
:10AAB00072688B40D360CEE72A4AD5E71036394614
:10AAC00030460DF1020202F067FA14F4403F80466E
:10AAD0000CD13946304604F0DCFE234B9845DAD1E0
:10AAE00030469DF8021002F0C3FAD4E74FF0000997
:10AAF00001AB3946304603AACDE90439CDE90199C5
:10AB0000CDF80C9002F0A8F8174B984288D114F4B5
:10AB1000003315D09DF8033084F48034C4F300442E
:10AB20008DF80E3039464B46304603AA8DF80C504E
:10AB30008DF80D4002F086F90B4B9842CDD06FE7AF
:10AB4000CDE9043339460DF10303304603AA0393DC
:10AB500002F082F8F0E7803352F82330FFDE00BFC6
:10AB600000288440002584400000AD0B2DE9F0430F
:10AB700046680546336885B093B902683249039246
:10AB8000324A1846CDE901320093012204F02CFC30
:10AB90006FF012043368F3B9204605B0BDE8F083C6
:10ABA0000024F7E72A4B0390029300230122184662
:10ABB000CDE90033244904F017FCEDE72A68224967
:10ABC0000392244A0090CDE90102012204F00CFC1A
:10ABD0006FF01204E0E7002CFAD1A0460127746858
:10ABE00054F8380004EBC80904F0C0FE03460028FE
:10ABF000E4D054F8380099F80410B9F80630D0F8C9
:10AC000010C0DA07DCF8004054BF43F4B01383F4FB
:10AC1000D01323F4801207FA01FEDB07D0F8089066
:10AC20004CBF44EA0E0424EA0E04CCF80040D9F8E4
:10AC30000030984704460028B4D1336808F1010871
:10AC40004345CCD8A8E700BF4C010100260B01000A
:10AC5000510B0100700B0100F0B5456885B02B6801
:10AC60002BBB026818460392124A1349CDE9013200
:10AC70000122009304F014FC6FF0120005B0F0BD47
:10AC80006F682601B85904F071FE034648B9BA59F5
:10AC90000949126800900392084ACDE90102012295
:10ACA000E8E701342B689C42EADB0020E6E7002459
:10ACB000F8E700BF260B010054010100930B0100CF
:10ACC00010B504460269A6B0C2F8800024490020ED
:10ACD00002F03EFA002201212A20FEF7A9FF646853
:10ACE0008422002105A805F05EF86368B3F5803F73
:10ACF00009D31C4B0222029300231B491846CDE9BD
:10AD0000003304F0EFFB2368B3F5803F09D3174B02
:10AD100002220293002314491846CDE9003304F0BF
:10AD2000E1FB00230120259305AA61680432D94084
:10AD3000C90744BF00FA03F142F8041C2168D94056
:10AD4000C90748BF00FA03F103F1010348BFD1630B
:10AD5000102BEAD105A802F013FA002026B010BD8E
:10AD6000C1AD0000BC0B010074010100E80B010043
:10AD700030B505460C4685B04AB10F4B022202930E
:10AD800000230E491846CDE9003304F0ABFB0F2C2D
:10AD90000FD86B685B68E340DB070AD5012300200E
:10ADA000A400E4B204F1804404F52834236005B023
:10ADB00030BD6FF01500FAE7140C010074010100BA
:10ADC0007FB5D1F880600F2804460D46736803D81C
:10ADD0001B68C340DB0709D4144B022202930023F3
:10ADE00013491846CDE9003304F07CFBD5F88430D4
:10ADF000E34013F0010308D10E4A1846CDE90132B1
:10AE00000B490222009304F06DFB05EB840255F818
:10AE1000245045B1002321463046AC46126C04B0A4
:10AE2000BDE87040604704B070BD00BF2F0C01004A
:10AE3000740101004B0C010030B50F290C46056967
:10AE400085B041D843681B68CB40DB073CD5D5F8BB
:10AE50008430CB4003F001031AB90BBB6FF07700CD
:10AE600030E0002BFAD155F8213043B9184A184682
:10AE7000CDE9013217490222009304F033FBD5F8E3
:10AE8000843013B92A20FEF7A3FE0122D5F88430BE
:10AE9000A2401343C5F88430E0B202F091F90AE011
:10AEA000C8B202F095F90122D5F88430A24023EA15
:10AEB0000203C5F88430D5F8843013B92A20FEF790
:10AEC00095FE002005B030BD6FF01500FAE700BF19
:10AED000680C010074010100036803F01F025B09A4
:10AEE000026004D0012B034818BF002070470248BD
:10AEF000704700BF00288440002584402DE9F04FB2
:10AF000015468246DFF88C81DFF88C9185B000EB26
:10AF10008101514503D1002005B0BDE8F08FDAF87A
:10AF20000030C3F34322082A03F07F0400F2AC8010
:10AF30007F2C4FEA134308BF4FF0FF3418F802701C
:10AF4000222B00F2A480DFE803F012191F22252B28
:10AF500022A2A2A2A23B67A2A2A2A2A2A2A2A2A2F3
:10AF60006A7F8285A2A2A288909396999C00C5F8D8
:10AF70000C45601C5DD10AF1040ACAE7C5F8144506
:10AF8000621CF8D000265DE0C5F80845F1E7C5F879
:10AF90001045F5E7631CC5F80845ECD0002604E031
:10AFA000661CC5F80C45E6D001264FF0010B03A83E
:10AFB0000394FFF791FF039B0BFA03F3C36008E0D0
:10AFC000C5F80845002FDBD1631CD4D00026062726
:10AFD000B346DAF8003003A803F40052002A1CBF7D
:10AFE00001264FF0000B01930394FFF775FF039ABE
:10AFF000019B00EB8200D0F80022C3F3C1143B0296
:10B0000043EA840343EA0B0302EA0902134343EAD7
:10B010004603C0F80032AEE7C5F80C45D2E7C5F8E4
:10B020006045601CDAF80030A5D0C3F38033002BF4
:10B03000BAD0012603A80394FFF74EFF039B06FA3C
:10B0400003F38360B346C4E7C5F86445E9E7C5F890
:10B050006845E6E7C5F86C45E3E7C5F82445621C9A
:10B0600089D001264FF0000BB3E7C5F8284580E7EB
:10B07000C5F83045F3E7C5F83445F0E7C5F838457D
:10B08000EDE7C5F83C4574E76FF0150044E76FF055
:10B09000850041E7B10C0100F0F0FCFF036803F00C
:10B0A0001F025B09026004D0012B034818BF002077
:10B0B00070470248704700BF002884400025844044
:10B0C00000210248C2E90001002070470024F4007A
:10B0D0002DE9F04F8BB0BDF850A003290E4617465E
:10B0E0001C46D0F8048005690AF0010A0BD95D4BB3
:10B0F00003910293002301221846CDE900335A49F7
:10B1000004F013FA1EE098F81E30012B08BF570810
:10B110004FF0010208BF640802FA01F9002C78D050
:10B12000A74279D92B689F4221D02B7B33EA0903B0
:10B130000DD04E4B4C49029300231846CDE9003305
:10B1400004F0F3F96FF015000BB0BDE8F08F3A464C
:10B15000B2F5004F55D22F606B73D8F8001098F8F5
:10B160001E00C1F80C35C1F80405C1F808254FF0E0
:10B17000010B6B7B24FA03F39BB28AF0010143EAD3
:10B18000C13305EB460293806B7B0822CDE9067341
:10B19000374BCDE904640393364B334902930023C4
:10B1A000CDE900321846042204F0BFF95FFA89F9AC
:10B1B000BBF1000F3ED1D8F8003006F5AC7653F85D
:10B1C0002630002B0EDBBAF1000F47D0B4FA84F41E
:10B1D000640934BB09A80993FFF760FF0123099AAA
:10B1E0009340C360297B21EA0901297339B3AB7B02
:10B1F00063BB00230122404608F1280102F0D4F885
:10B2000022E00133082B4FEA5202A1D11A4B0397D7
:10B210006FE7A3462346B0E74FF0000B47F6FF73F6
:10B22000ABE709A80993FFF739FF0123099A934077
:10B230008360D7E72B7B49EA03032B73D7E74046AC
:10B2400002F0F0F80123AB7300207DE70023AB731D
:10B25000404604F084FB0028FAD0CAE7003C18BF3F
:10B260000124B6E7BA0C01008C010100CF0C0100EB
:10B27000620D01000E0D0100E40C01002DE9F0410A
:10B28000456886B0AF6B066904460021384605AABA
:10B2900004F038F900284ADB059B3A6819791868E8
:10B2A000FFF72CFE002842DB00274FF0010839464B
:10B2B0002B6801F5AC7253F82230002B0DDB05A88A
:10B2C0000593FFF7EBFE059A4368D34013F00103A3
:10B2D00018BF08FA01F33B43DFB201310429E7D17B
:10B2E00000230121023601FA03F23A420CBF012287
:10B2F00000220133D203042B26F8022FF3D10023BE
:10B3000028461A4605F1080102F028F80A4B98422F
:10B3100010D0236801220393084B094902930023AC
:10B320001846CDE9003304F000F96FF00F0006B0C5
:10B33000BDE8F0810020FAE70000AD0B420D0100EE
:10B340008C0101007FB50BAB05930393054B0122E4
:10B35000029300231846CDE90033FDF7AFFD07B097
:10B360005DF804FB890D01002DE9F04306464FF01E
:10B37000000887B0002201210820FEF759FC0820B0
:10B38000FEF726FC776835693C684146C4F80085BD
:10B390002E60D7F80C9005AA484604F0B3F80028B0
:10B3A0003FDB059BD9F8002019791868FFF7A6FD47
:10B3B000002836DB6B7AD6F810C0012B03D0032BA4
:10B3C0002DD14FF01008AB7A032B28D195F80BE064
:10B3D000BEF1000F02D0BEF1010F20D1297A012960
:10B3E00022D0022924D0D1B90A466B687068B3F51F
:10B3F000164F006800F08E8037D8B3F5165F00F066
:10B400008C801FD8B3F5966F00F0898012D8B3F501
:10B41000967F00F08780B3F5167F00F086806FF08E
:10B42000850007B0BDE8F0834FF480720E21DCE7A1
:10B430000022FBE7B3F5166F7AD0B3F5965FEED135
:10B44000604B3EE0B3F5E14F75D007D8B3F5615FCF
:10B4500073D0B3F5964FE2D15B4B32E047F6122939
:10B460004B45DCD14FF400032BE0B3F5613F66D0D0
:10B4700013D8B3F5963F65D009D84DF6C0294B4592
:10B4800062D0B3F5614FCAD14FF46B0319E0B3F545
:10B49000E13FC4D14FF0EB7313E0B3F5612F56D009
:10B4A00009D8DFF828914B4554D0B3F5E12FB6D138
:10B4B0004FF0E86305E0DFF818914B45AFD14FF04E
:10B4C0008053C0F82435736848EA01081B6842EAD3
:10B4D0000E0242EA0802C3F86C250CF10403D5E918
:10B4E000010183E803007B68990742D505F1180044
:10B4F00001F0A4F9374B98422FD0374B0122029329
:10B50000002336491846CDE90033FFF71BFF6FF0E3
:10B51000040086E74FF41D03D3E7314BD1E74FF426
:10B520009E23CEE74FF4A033CBE74FF41C33C8E79C
:10B530004FF41D23C5E72B4BC3E72B4BC1E74FF05F
:10B540006C73BEE7294BBCE74FF46503B9E74FF0D6
:10B550007063B6E74FF08063B3E7287E04F10C0216
:10B5600004F5907104F0E6F801202B7E984000F07D
:10B57000C3FF0823C4F800353B7A53B9C4F810312F
:10B58000D4F810316B69C4F834350123C4F8383568
:10B5900023607B6800209A075CBF4FF48073C4F877
:10B5A00004337B68DB0644BF4FF48003C4F80433E4
:10B5B0002B69C4F844350123C4F84805A360E3604F
:10B5C0002FE700BF00B0130000A04E0090D0030092
:10B5D00040420F000000AD0B890D0100A4010100E5
:10B5E0000050270000C0750000F03A0000903A01BA
:10B5F000F8B504460D46076904F0D7F9B0B92E4BEB
:10B600001B789BB16426606803F0BAFF00BB012081
:10B6100004F084F8013EF6D10021212002F0AEFEB4
:10B62000F0E786F31188BFF36F8FF5E74FF0200343
:10B63000EFF3118683F31288BFF36F8F6068314692
:10B6400003F09EFF90B986F31188BFF36F8FEDE78B
:10B650004FF02003EFF3118683F31288BFF36F8F4F
:10B660006068314603F08CFF0028DAD03B691D701A
:10B67000626838691368C3F844050120C3F84805B7
:10B680000020C3F82001D3F82051C3F858015268B4
:10B69000D3F85801D20608D5082062681268C2F8AB
:10B6A00000054FF48002C3F8042301229A6081F35D
:10B6B0001188BFF36F8FF8BDAD8600200123834052
:10B6C00070B5DC430B4AD2E8EF1F01EA0405C2E87B
:10B6D000E65F002EF7D14FF4803282400648C0F872
:10B6E0000823BFF35F8FBFF36F8F0B4214BF01209E
:10B6F000002070BD8C8500200050014070B40E49C0
:10B7000022F07F46D1E90034D01AC31844F1000476
:10B71000C1E90034A6F50013B3F5400F09D2074B79
:10B720001B681A0A1B069C19054B42F10005C3E968
:10B73000004570BC02F02ABFA8810020908500203F
:10B74000B0810020D9B101230D4A8340D2E8EFCF68
:10B750004CEA030CC2E8E1CF0029F7D14FF4803363
:10B76000084A8340C2F80433074BD3E8AF3FC340D5
:10B77000DB0742BF4FF40012044BC3F800217047AF
:10B780008C850020005001408485002000E100E00D
:10B79000C3B202489B001844704700BF40510140AB
:10B7A000024B00F5A87053F820007047005001408C
:10B7B0000D4B1868010A0006BFF35F8F0B4BD3F8DF
:10B7C0000435181841F10001B3F5801F0AD2084B67
:10B7D000D3E90023904271EB030303D210F1807090
:10B7E00041F10001704700BF9085002000500140EA
:10B7F000B08100202DE9F04F85B016461F46044663
:10B800009DF840A0FFF75AFF0190FFF7D1FFB0422B
:10B8100071EB070352D23B4B301A67EB01019842A0
:10B8200071F100014DD2384B03EB0413D3E902232D
:10B830009F4208BF964258D04FF48038334908FAE7
:10B8400004F8204626F07F4BC1F8488303F0E1FE60
:10B850004FF00309584604F15005AD00ADB205F1B3
:10B86000804504F5A87305F5A8350293029A20F0E7
:10B870007F4341F82230C1F84483D1F80435244A8B
:10B88000C01A033820F07F4090422ED9286868B152
:10B89000D1F80435A3EB0B0020F07F40B0F5000F8A
:10B8A000039322D9204603F0B4FE039BBAF1000FA4
:10B8B00007D109EB030009F10109D7E7BAF1000F3D
:10B8C00009D06FF0150520460199FFF73BFF284688
:10B8D00005B0BDE8F08F01230E4AA340D2E8EF0F78
:10B8E0001843C2E8E10F0029F8D107490E98230157
:10B8F000C8500F9B01EB04120025C2E90267536098
:10B90000E1E700BF01008000888100200050014075
:10B91000FDFF7F00848500207FB500254FF0FF30BC
:10B920004FF0FF314FF480321C4C1D4B0226C4F8FF
:10B930000833C4F848331B4BC4F80855C3E9020167
:10B94000C4F80423C3E906014FF400334FF4001296
:10B95000C4F80433144B0121C4F804631520C3F860
:10B9600080212A46FEF764F91520FEF731F90123FC
:10B970000322A36023600D4B28461A600C4B0D4A2E
:10B980001E600D4BCDE9015500930023FFF732FFF8
:10B990003046FEF7B7FE284604B070BD00500140A7
:10B9A00003000F008881002000E100E08C8500206A
:10B9B00088850020FFFF7F00FDB600002DE9F04FD5
:10B9C000394B85B0D3F8042392070BD5D3F8042163
:10B9D00042B10022C3F80421344AD3F80431136879
:10B9E00001331360324D0024A8464FF480362E4FA9
:10B9F000D7F8043306FA04F919EA030F2ED001230D
:10BA0000A340DB432B49D1E8EF2F02EA0300C1E852
:10BA1000EC0FBCF1000FF6D122FA04F3DB0703D4DC
:10BA2000254B53F82430CBB1204603F0F2FDFFF74D
:10BA3000BFFE4FF02002EFF3118382F31288BFF3B1
:10BA40006F8F08EB041CDCE902AB504571EB0B0176
:10BA500002930AD283F31188BFF36F8F103514B1AC
:10BA600005B0BDE8F08F0124C2E70020D5E900133E
:10BA70004FF0FF3203934FF0FF3328600A48CCE9C0
:10BA80000223C0F84893204603F0C3FD029B83F3D2
:10BA90001188BFF36F8F0029E0D0039B52460093BB
:10BAA0005B468847DAE700BF0050014090850020E0
:10BAB00088810020848500204051014070B5012418
:10BAC0000C4B186890B1B0FA80F0C0F11F0004FA76
:10BAD00000F1C943D3E8EF2F02EA0105C3E8E65FAE
:10BAE000002EF7D1C240D207EBD570BD6FF00B002E
:10BAF000FBE700BF888500200123054A8340D2E888
:10BB0000EF0F1843C2E8E10F0029F8D1704700BFDA
:10BB10008885002030B5431C124C85B005D0844286
:10BB2000A8BF0446012CB8BF0124FFF741FE0E4B0D
:10BB30000C4DD3E90013401AB0F5000F0FD22218B4
:10BB4000AA4228BF2A46002052180849CDE9010020
:10BB5000009143F10003FFF74DFE05B030BD2A46CA
:10BB6000F1E700BFFFFF7F00A8810020FDB60000C5
:10BB700008B5FFF71DFE024B1B68C01A08BD00BFC9
:10BB8000A88100202DE9F04300244FF0010825464C
:10BB9000164E87B030683779D0F81090836805A9C1
:10BBA0005B689847002809D011DB08FA05F31C43AD
:10BBB0000135042D06F10806ECD113E0D9F8002078
:10BBC000059B08FA07F753403B42F1D0EDE700240C
:10BBD000074B0122029320462346CDE90044054944
:10BBE00003F051FD204607B0BDE8F0833C0401009E
:10BBF000C20D01003C0101002DE9FF470746002668
:10BC00004FF0010A224DDFF88C80DFF88C90286815
:10BC100077B340452FD0484514BF4FF0E8624FF04E
:10BC2000986229798368D0F810C09C6934B31302F4
:10BC300008D5DCF800C00AFA01F313EA0C0F18BFAC
:10BC400082F0C06202F0C06302F0B072A047044606
:10BC5000B8B1124B01220293002311491846CDE9D5
:10BC60000033039403F00FFD204604B0BDE8F087D5
:10BC70004FF40012D5E74FF09862D2E76FF0570407
:10BC8000E7E70136042E05F10805C0D1ECE700BF57
:10BC90003C04010084FE000070FE0000D70D01008E
:10BCA0003C01010030B585B04FF02003EFF3118562
:10BCB00083F31288BFF36F8F134C2378EBB9134BC8
:10BCC000984202D0124B984210D10020FFF794FF07
:10BCD00048B1104B0122029300230F491846CDE9C9
:10BCE000003303F0D0FC00220C4B1A7001232122F8
:10BCF00023700B48002302F05BF885F31188BFF333
:10BD00006F8F05B030BD00BFAC86002084FE000000
:10BD100070FE0000F70D01003C010100AB86002021
:10BD2000B88100202DE9FF41394F3B787BB10020DD
:10BD3000FFF762FF50B1374B012202930023CDE998
:10BD400000331846344903F09EFC4CE03870FFF78E
:10BD500019FF0446314BD3E8EF2FC3E8E14F002928
:10BD6000F9D12F4BDFF8BC801A784ABBD8F80060B5
:10BD7000A64219D02C4B66401B680BB13146984740
:10BD80004FF0FF334FF0FF32284801F0BFFD284B42
:10BD90001D6835B1043D2B683146204698476D68D3
:10BDA000F7E7224801F076FDC8F800405CB14FF497
:10BDB000A47200231F4804B0BDE8F04101F0F8BFB1
:10BDC00000221A70F0E74FF02003EFF3118683F39F
:10BDD0001288BFF36F8F184B1D78012D06D086F3A4
:10BDE0001188BFF36F8F04B0BDE8F08128461C7046
:10BDF000FFF702FF3D7086F31188BFF36F8F0028B5
:10BE0000F1D00E4B2A46CDE901430094234698E732
:10BE1000AB860020130E01003C010100C485002008
:10BE20005C81002098850020C88500209C8500202A
:10BE3000B0850020B8810020AC8600202C0E0100C7
:10BE4000054BD3E8AF3F00B10360044811B102686D
:10BE50005A400A6003607047C48500209485002022
:10BE60002DE9F0433C4B85B018603C4D3C4803F055
:10BE7000BDFD2E460027A846F388304613F0010F7B
:10BE80000CBF2021102141F4803103F0E7FB044670
:10BE900068B1344B0293002301221846CDE90033E8
:10BEA000314903F0F0FB204605B0BDE8F0830137CF
:10BEB000042F06F10806DFD1064607464FF00109B8
:10BEC0002868297983689C693CB100234FF40012EB
:10BED000A047044620B1254BDCE76FF05704FAE792
:10BEE0002B79013709FA03F3042F46EA030605F11B
:10BEF0000805E5D105461E4F1E4BC7E9013658F827
:10BF000035008368DB6933B101223946984704461E
:10BF100020B1194BBEE76FF05704FAE70135042D45
:10BF2000EDD11649164803F0A8FD0122154B14481F
:10BF30001A700023002201F007FF21462046FFF778
:10BF40007FFFFFF71FFE104BD3E8EF2FC3E8E10F91
:10BF50000029A8D0F8E700BFC88500203C040100F4
:10BF60009C850020440E01003C010100610E01008F
:10BF7000B8850020A5BC00007C0E010025BD000096
:10BF8000B8810020AC860020C48500207FB50BABB3
:10BF900005930393054B0122029300231846CDE934
:10BFA0000033FCF78BFF07B05DF804FBA40E010023
:10BFB0001FB50024FCF712FF064B20460293012216
:10BFC0002346CDE900440449FFF7E0FF2046FDF792
:10BFD0003FFD00BFA40E0100440101001FB50A4946
:10BFE0000A4803F070FB044650B1094B03900293DA
:10BFF000002301221846CDE90033064903F053FB24
:10C00000204604B010BD00BF51C30000CC85002005
:10C01000C10E0100840101002DE9F041DFF8C48266
:10C020000E46D8F8704086B0072C00F0080700F0E4
:10C030008780132C00F00581052C40F03881002406
:10C04000A94BD8F854500122029320462346CDE94B
:10C050000044A64903F027FBEB0462D5A44B20461D
:10C06000CDE90143009423460122A04903F01BFBC4
:10C07000172428050AD59F4B0122029300239B49D0
:10C080001846CDE9003303F00EFB1824A9051AD594
:10C090000024994B0122029320462346CDE9004417
:10C0A000924903F000FB954B2A049B6B0AD503933E
:10C0B000934B0122CDE90143204623468B4900944E
:10C0C00003F0F1FA19246B050AD58E4B0122029375
:10C0D000002386491846CDE9003303F0E4FA1A2418
:10C0E00015F480731FD0884B0122029300237F49EF
:10C0F0001846CDE9003303F0D6FA1B24F369002F6C
:10C1000040F0EB80C3F3080222B96FEA53236FEAD1
:10C110004323F3613146204606B0BDE8F041FDF708
:10C12000EBB81624A5E7A804E8D5784A1846CDE967
:10C1300001326E490122009303F0B5FA1C24DDE7B9
:10C140000025734BD8F85C406849029301222B46C6
:10C150002846CDE9005503F0A6FA61060CD5D8F8BB
:10C160006830012203936B4B2846CDE901535F49A8
:10C170002B46009503F097FA14F001020BD0664BA2
:10C1800001220293002359491846CDE9003303F0F8
:10C190008AFA2624B2E714F002030BD05F4B009218
:10C1A000CDE90123134651490122184603F07BFAD9
:10C1B0002724A3E714F004020AD0594A1846CDE90F
:10C1C00001324A490122009303F06DFA282495E7D1
:10C1D00014F008030BD0534B0092CDE90123134612
:10C1E00042490122184603F05EFA292486E714F03A
:10C1F00010020AD04C4A1846CDE901323B490122CF
:10C20000009303F050FA2A2478E714F020030BD0AF
:10C21000464B0092CDE901231346344901221846CA
:10C2200003F041FA2B2469E7220654D5404A184608
:10C23000CDE901322D490122009303F034FA2C2478
:10C240005CE700253B4BD8F86C800122029328461E
:10C250002B46CDE90055254903F025FA18F0020FC9
:10C2600009D0354B0122CDE9015328462B461F4901
:10C27000009503F018FA18F0010F09D02F4B012296
:10C280000293002319491846CDE9003303F00BFA55
:10C2900018F0040F3FF432AF294B01220293002320
:10C2A00012491846CDE9003303F0FDF926E7254A87
:10C2B000254B0E490F2CC8BF1346103CCDE9033463
:10C2C0000024224B0122029320462346CDE900445C
:10C2D00003F0E9F912E7252410E723F4FF7323F0B4
:10C2E000010316E7CC8500207607010084010100D8
:10C2F0008C070100E70601009D07010000ED00E04A
:10C30000B6070100CB070100E6070100470701005F
:10C31000FB0E0100140F0100240F01003A0F010071
:10C32000580F0100730F0100900F0100A50F0100CD
:10C33000BF0F0100D20F0100EC0F01001C10010023
:10C340004A1001000A090100F5080100EB0901008B
:10C3500000B5104B89B05A6AD86C00929A6A20F0E6
:10C3600005000192DA6A694602921A6B03925A6BCF
:10C3700004929A6B0592DA6B06921A6C1B6D079207
:10C380009B0748BF40F00400FFF746FE09B05DF888
:10C3900004FB00BFCC8500202DE9F0411F46164B61
:10C3A000044693F800800D461646A2B0B8F1000F7F
:10C3B00015D1684602F0B4FE3A4631462846289B1D
:10C3C000A0470446684602F0ACFEB8F1000F02D068
:10C3D0000A4801F05FFA204622B0BDE8F0814FF034
:10C3E000FF324FF0FF33054801F090FA0028E0D00B
:10C3F0006FF08304EFE700BFAD860020748100205A
:10C40000002300B589B0CDE9063303AB04930423C0
:10C4100003900593A9B10B6806934B680793022319
:10C42000111E18BF01210848CDE9002140F2F53165
:10C4300004AA00F00BF80028B8BF012009B05DF88D
:10C4400004FB0123ECE700BF0501004010B4B1F587
:10C45000004F029C0ED2042B0CD8042C0AD82404C2
:10C4600044EA0364134644EA0102014610BC03484F
:10C47000FFF792BF6FF0800010BC7047217C000076
:10C4800030B50468ACB1B4FA84F30122C3F11F03E0
:10C49000DBB29A4024EA0202D0E8EF5FA54204D161
:10C4A000C0E8EC2FBCF1000FF6D1EAD102480B70C6
:10C4B00030BD0248FCE700BF0000AD0B0200AD0B31
:10C4C00010B50368CB40DB0710D401238B40026812
:10C4D00043EA0201D0E8EF4F944204D1C0E8EC1FD8
:10C4E000BCF1000FF6D1F2D1014810BD0148FCE7C4
:10C4F0000000AD0B0400AD0B014BC3F80405704701
:10C5000000700140014BC3F80805704700700140FE
:10C5100073B5032858D8DFE800F00217243102224F
:10C52000504BC3F808230122DA600022C3F804212B
:10C53000D3F80431002401238DF80730032843D8B1
:10C54000DFE800F02944607C0122464B0DF107042E
:10C55000C3F808235A600022C3F80021D3F8003141
:10C56000E9E74FF400723F4BC3F8082301225A62F7
:10C570000022C3F82421D3F82431DBE74FF4807282
:10C58000384BC3F808230122DA610022C3F82021C6
:10C59000D3F82031CEE742F21075324ED6F8183477
:10C5A00003F4803334B97BB1012003F0B7F8013DC7
:10C5B000F4D109E0D6F8182402F0030222701BB16E
:10C5C0009DF807000128F0D002B070BD42F210754E
:10C5D000244ED6F80C3403F480333CB9002BF3D04E
:10C5E000012003F09BF8013DF3D1EDE7D6F80C24D0
:10C5F00002F001022270002BE6D09DF8070001280E
:10C60000EFD0E1E742F21075164ED6F85C3403F431
:10C6100080333CB9002BD7D0012003F07FF8013DD7
:10C62000F3D1D1E7D6F85C2402F001022270002B8E
:10C63000CAD09DF807000128EFD0C5E742F2107577
:10C64000084ED6F85434DB03BED52CB9012003F0D4
:10C6500065F8013DF5D1B7E79DF807000128F6D050
:10C66000B2E700BF00500040044B1A7922B9012202
:10C6700018601A71024870470248704740860020CF
:10C680000000AD0B0C00AD0B08B5094B1B6833B1B6
:10C690000520FDF7BFFA10B90520FDF799FA012230
:10C6A000044BC3F81825C3F81425C3F8802508BD2A
:10C6B000408600200050004010B5032846D8DFE82F
:10C6C00000F01B02565000224FF48073012100201D
:10C6D00003F1804303F5A04318601C68012402F1B4
:10C6E000804202F5A0421460274A1268002A44D012
:10C6F000264BC3F8041329E0244BD3F81814D3F8BD
:10C700001824C90311D502F00303022B05D0012B15
:10C7100002D00020FFF7FCFE01231C4A0221C2F8D0
:10C72000183508224FF48273D1E7D3F81424D207C6
:10C73000F2D5D3F81C2402F00302013A012AE8D80A
:10C74000114A12681AB10222C3F8042310BDD3F8AB
:10C750000421002AFBD00022C3F80421D3F80431BD
:10C76000F4E718224FF490734FF48071AFE7202262
:10C770004FF492734FF40071A9E71A68002AFCD0B5
:10C7800018601B68E2E700BF4086002000500040B0
:10C7900010B5284BD3F8002152B10020C3F8000196
:10C7A000D3F800210122C3F80823234B1B689847C4
:10C7B000204BD3F8042182B10022C3F80421D3F81E
:10C7C0000421D3F81824D3F81824022102F003021C
:10C7D000012A26D1C3F818159A60164BD3F82021E8
:10C7E00062B10022C3F82021D3F820214FF48072D7
:10C7F000C3F80823104B05201B6898470D4BD3F84E
:10C800002421AAB10022C3F82421D3F824214FF413
:10C810000072C3F80823084B0620BDE810401B68CF
:10C820001847C3F80813044B01201B689847D4E746
:10C8300010BD00BF00500040408600200146014866
:10C84000FFF71EBE488000200123044A83400146B2
:10C85000C2F808350248FFF733BE00BF0070014040
:10C8600048800020036803F01F025B09026004D0C7
:10C87000012B034818BF002070470248704700BFD3
:10C880000028844000258440034A4309D35C00F01B
:10C890001F001844C0B270477E10010070B50546F5
:10C8A0000846FFF7F1FF42212A79174B01FB0202EC
:10C8B000083233F81200C10525D584240026C0F3C0
:10C8C000432120F4F85023F812002A7904FB0234A3
:10C8D0000E3434F8020F10F4807F03D0C0F34320ED
:10C8E000814210D00136302EF3D1842000244243FF
:10C8F00002EBC1029C502A79BDE8704000FB023077
:10C900007830FFF7DDBD70BD4C800020034611F08C
:10C91000010010B5CCB20BD1A207C4F340000DD575
:10C92000074A106A58601062003818BF012005E0FD
:10C9300004490A6A1A600A62002AEDD010BD00BFDD
:10C94000002884400025844010B504460846FFF7BF
:10C950009BFF422303FB0400024B083033F8100016
:10C96000400B10BD4C80002010B504460846FFF770
:10C970008BFF422303FB0400034B083033F8100005
:10C98000C0F3400010BD00BF4C80002010B504462D
:10C990000846FFF779FF422303FB0400034B0830EE
:10C9A00033F81000C0F3401010BD00BF4C800020D1
:10C9B000F0B5054600200126044607468C420BD1FF
:10C9C000114BD3F87C2132B10022C3F87C21D3F87B
:10C9D0007C3140F00040F0BDE3B29B0003F5807273
:10C9E0009B0806FA03F31D420BD002F1804202F5C8
:10C9F0003C32D2F800C0BCF1000F02D017601268C0
:10CA000018430134DAE700BF00F002402DE9F04F8F
:10CA10000546644B296FD3F8040387B0C0B240F0D9
:10CA20000040FFF7C5FF061E2CDA0023E96F04A8BB
:10CA3000CDE90433FFF76AFFDFF86CA1DFF86CB1D2
:10CA40000DF110091AF8013B05EBD30292F87C2096
:10CA500003F0070322FA03F3DA0769D4544B09F110
:10CA6000040953450BF1010BECD1296F4FF0004045
:10CA7000FFF79EFFE96F04A8FFF748FF0028DBD10E
:10CA800026F000460124002E73D107B0BDE8F08FD8
:10CA900091FAA1F1B1FA81F19BF8004041EA441406
:10CAA0002046FFF7F1FE083035F81080C8084FEA3D
:10CAB00098030193012319F8002001F0070103FAFC
:10CAC00001F122EA010209F8002003A80394FFF70C
:10CAD000C9FE039A019B803250F82220C8F38207D6
:10CAE0005B07B846C2F3014227D52846D7B2214694
:10CAF000424602F08AFE03A80394FFF7B3FE039BAD
:10CB0000803350F82330C3F301439F4207D1002103
:10CB1000204602F06BFE3946204602F067FE03A86D
:10CB20000394FFF79FFE0122039B02FA03F30362C3
:10CB3000D9F800100029ABD190E7022A0DD10321CA
:10CB4000204602F053FE07F00503012BE7D14246D1
:10CB50002146284602F059FEE1E7022120460192D3
:10CB600002F044FE032FF2D0019A032AD7D1022FFC
:10CB7000ECE796FAA6F3B3FA83F304FA03F29B0008
:10CB800003F1804303F53C33D3F8101526EA02067F
:10CB9000D3F810252846C2F30142C1F3052102F063
:10CBA00034FE70E700F002408E1001008E1001008C
:10CBB000901001002DE9F74305460846FFF764FE93
:10CBC00042222B79204F02FB0303083337F813303E
:10CBD0000E46DB07044635D5284602F035FE95F8AB
:10CBE000049031464846FFF7D1FE60B14846FFF752
:10CBF000ABFE0022D5F8008000B208EB8003C3F83A
:10CC00001025C3F8102528463146FFF747FE42227B
:10CC10002B7901A802FB03440023083427F81430C1
:10CC20000196FFF71FFE019B00EB8300D0F8002266
:10CC3000064B134043F00203C0F80032044803B02F
:10CC4000BDE8F0830348FAE74C800020F0F0FCFFD9
:10CC50000000AD0B0400AD0B2DE9FF47174604465D
:10CC60000846FFF711FE3E688846054676B394F8FD
:10CC700004904846FFF778FE18B14846FFF786FE55
:10CC8000A0BB00234046CDE900338DF80E308DF86F
:10CC90000F300DF10F0233460DF10E0102F05DFD74
:10CCA00042202379644A00FB0353083332F81310FF
:10CCB00021F0020122F81310237900FB03530833FB
:10CCC00032F8131041F0010122F813107B68002B99
:10CCD00045D026794146304693F80090D3F804A019
:10CCE000FFF742FE20B1BAF1000F22D0534839E0DD
:10CCF0004FF0420C0CFB06564F49083631F81630FF
:10CD000023F4604323F0200321F81630BAF1000F1A
:10CD10000FD0B9F1030FE9D87B6826685B681878F3
:10CD200006EB8006B9F1000F1FD1C6F81095C6F8C2
:10CD3000109542202379404A00FB0353083332F810
:10CD4000131021F01C0122F81310237900FB035368
:10CD5000083332F8131041EA890122F81310BB6836
:10CD600063BB374804B0BDE8F087D6F8102522F041
:10CD70000302C6F81025226802EB8003D3F81025C1
:10CD800022F44F3222F44072C3F810254FEA0822F1
:10CD9000D3F8106502F47C5242EA09423243C3F8E8
:10CDA000102523790CFB0353083331F8132042EA92
:10CDB000403242F0200221F81320BAE74146D3E97D
:10CDC00000972046FFF76AFDB9F1000FC9D0842310
:10CDD0002079194E4343F218F358994504D153680A
:10CDE0009F4201D100210CE0842303FB00600DF180
:10CDF0000F017830FFF744FB114B9842B2D19DF8F8
:10CE00000F1084222379534303EBC10346F80390A8
:10CE100023795343422203EBC10333445F602379F8
:10CE200002FB0353083336F8132042EA412242F44E
:10CE3000807226F8132094E74C8000200400AD0B8C
:10CE40000000AD0B2DE9FF470646084690461F46F9
:10CE5000FFF71AFD0C460546B8F1000F33D096F8DF
:10CE600004904846FFF780FD18B94846FFF78EFD4D
:10CE700080BB422303FB0959DFF8F4A009F108093C
:10CE80003AF8193013F01C0F03D098F80130012B39
:10CE900020D001238DF80F30002308F10102CDE9E5
:10CEA0000083204608F102030DF10F0102F055FC4A
:10CEB0004222337902FB035308333AF8132042F03D
:10CEC00003022AF81320002F50D021463079FFF7B3
:10CED0004BFD18B9274804B0BDE8F08700214FF09A
:10CEE000420E38783368820003EB8003C3F81015D4
:10CEF000C3F8101533791E490EFB0353083331F87C
:10CF000013C02CF4604C2CF0200C21F813C097F8BF
:10CF100001C0BCF1000F29D03368BF781A44D2F8A1
:10CF200010354FEA0C4C23F4991323F4F853C2F84C
:10CF30001035230203F47C530CF4403C3F05D2F837
:10CF4000108543EA0C0307F480173B4343EA0803C8
:10CF5000C2F8103533790EFB0355083531F815301A
:10CF600043EA403343F0200321F815300248B2E78A
:10CF70004C8000200400AD0B0000AD0B30B58425C3
:10CF80000479044B05FB0434A160017905FB0133EE
:10CF9000DA6030BD4C80002070B50679144630460A
:10CFA000FFF7F4FC68B10846FFF76EFC422303FB71
:10CFB0000600054B083033F8103004485B0B237033
:10CFC00070BD0348FCE700BF4C8000200000AD0BA3
:10CFD0000400AD0B2DE9F0410646077984201A4D77
:10CFE00000FB075898F8804064BB40462146602209
:10CFF000103002F0D8FE21463668D8F8700088421A
:10D0000016D1002346F30730C6F87C31D6F87C31C0
:10D01000FCF7DEFD4FF00043C6F80433842303FB26
:10D0200007550123094885F88030AB67BDE8F081DA
:10D03000CBB29B0003F580727C2B04BFB450B35875
:10D040000131DCE70248F1E74C8000200000AD0B25
:10D050000C00AD0B84210279044B01FB023393F8E1
:10D060008000003818BF0120704700BF4C800020AE
:10D0700084237422007913FB002302481844FFF72D
:10D080001FBA00BF4C80002084237422007913FB58
:10D09000002302481844FFF7F3B900BF4C8000207A
:10D0A0002DE9F3410679044630460D461746FFF751
:10D0B0006DFC08B33046FFF757FC8046E0B93046B8
:10D0C000FFF742FC05B22168AD0005F5807241F81A
:10D0D00002808A5821682944D1F8102542F00102C3
:10D0E000C1F810252FB10122216802FA00F3C1F81E
:10D0F000043302B0BDE8F0812846FFF7C5FB4223A8
:10D1000003FB06000E4B083033F81030C3F38203E4
:10D11000042B11D0052B11D001A80195FFF7A2FB1C
:10D12000019B0169D94001F001010231284602B09A
:10D13000BDE8F04102F05ABB0321F7E70221F5E711
:10D140004C8000200148FFF761BC00BFD080002068
:10D1500070B5084C0E462379154643B92A20FCF7D2
:10D1600037FD0123044823712660A56070BD034884
:10D17000FCE700BF488600200000AD0B0C00AD0BA3
:10D18000002330B50D4A50F8234003F5A271013356
:10D19000102B42F82140F6D10023084A00F13C014F
:10D1A00003F5B27451F8045F0133102B42F8245098
:10D1B000F6D1D0F88030C2F8043330BD00A0024070
:10D1C0000123024A8340C2F80433704700A00240A2
:10D1D0000123024A8340C2F80833704700A002408E
:10D1E000F8B5012600270B4B0B4DD3F80C4304B9BF
:10D1F000F8BD94FAA4F0B0FA80F006FA00F324EA3D
:10D200000304064B82009F502B68002BEFD0A968C7
:10D210009847ECE700A002404886002000A10240A9
:10D22000036803F01F025B09026004D0012B03486E
:10D2300018BF002070470248704700BF0028844094
:10D2400000258440142370B505790A4C6B43E61819
:10D25000E35833B90221006802F057FB08B10123FB
:10D260003372142303FB0544207A023818BF0120CF
:10D2700070BD00BF548600202DE9F3470B7F0446A4
:10D2800063BB0127DFF8D0900D1F01F1100601F1FB
:10D290000C0855F804AFBAF1FF3F1BD03378CDF836
:10D2A00004A001A8002B4FD0FFF7BAFF019B07FA9B
:10D2B00003F3836001A8CDF804A0FFF7B1FF019B41
:10D2C00000EB8300D0F8003203EA090343F00303C4
:10D2D000C0F80032A84506F10106DAD191F81DC068
:10D2E0000D8B4F7D8E7D8A7EC87E2368BCF1000F3A
:10D2F0000BD1D1E9008ED1E902C1C3F86085C3F832
:10D3000064E5C3F868C5C3F86C1542EA0022C3F8A7
:10D310000C75C3F80465C3F80855C3F8102500233D
:10D320002068C0F81031D0F81021C0F80831D0F8CA
:10D330000821C0F80C31D0F80C3140F3073002B0AE
:10D34000BDE8F047FCF744BCFFF76AFF019B07FA12
:10D3500003F3C360AEE700BFF0F0FCFF2DE9F0413E
:10D36000142690F804800D4C06FB08F6A71997F8D0
:10D3700008C0BCF1000F0ED1A2517B6019B10B7F28
:10D380003B74FFF779FF142303FB0844012304488F
:10D390002372BDE8F0810348FBE700BF54860020FC
:10D3A0000000AD0B0C00AD0B70B40C4615461A46D0
:10D3B00001791B4B01EB8101266803EB81010368B6
:10D3C000C3F82065A688C3F82465A668C3F8286555
:10D3D000E668C3F82C6503682668C3F84065A6882C
:10D3E000C3F84465A668C3F84865E468C3F84C45CB
:10D3F000046805F0010303EB5505C4F81455D40780
:10D400000CD412F0020403D0002B14BF082404240F
:10D410000568C5F8004270BC02F03FBA1024F7E777
:10D4200054860020002238B503680579C3F800222D
:10D430000122036804465A6071B12046FFF702FFDB
:10D440000028FAD000222368C3F800251422054BD7
:10D4500002FB053301221A722046BDE83840FFF76F
:10D46000F1BE00BF548600202DE9F041054686B08C
:10D470000E464FF02003EFF3118883F31288BFF3B9
:10D480006F8F0024042898BF234B244A98BF53F879
:10D490002030976888BF224B127C2249CDE90432A4
:10D4A000214B03900293012223462046CDE90044FC
:10D4B00002F067FA6EB1F369C3F308034BB11B4B7B
:10D4C0000122CDE90143204623461649009402F08B
:10D4D00058FA2FB1384602F071FA08B1037803B94F
:10D4E0001348144B012202930023CDE90370CDE9C8
:10D4F000003318460B4902F044FA31462846FEF73D
:10D5000057FD88F31188BFF36F8F384606B0BDE82A
:10D51000F041FCF7E7BA00BF5C0401006C86002014
:10D520009010010084010100A6100100CE1001003E
:10D530009E100100EF100100104B70B553F8204011
:10D54000013053F82060A64200D870BDD4E9003500
:10D5500095B153B12846984738B10028B8BF40422A
:10D56000FF28A8BFFF20EB681870EA68537843F0E3
:10D57000010353700834E6E79847FBE770040100A5
:10D58000012208B5094B03201A70FFF7D5FF01F0FF
:10D5900081F80420FFF7D0FF00F030F9FBF74AF8DC
:10D5A000034A137B23F00103137308BDAD860020EB
:10D5B0006882002008B50348034A0021121A02F0CD
:10D5C000F0F908BD88810020B086002000230122E8
:10D5D00070B586B0CDE904230F220193CDE9023264
:10D5E00014234FF4A0720446114D124E03FB005554
:10D5F000114906EBC01602FB0011104B3046009596
:10D6000000F092F8737B2C7423F0040373730C4BBB
:10D61000013403EBC4236B600A4BEE60D3E8EF1FC9
:10D620000131C3E8E21F002AF8D106B070BD00BF87
:10D630006C860020E8810020B08E0020C5F9000033
:10D64000B08600206886002080B50020A6B0FFF7D5
:10D6500073FF2E4B03F5006282F3088883F30A8878
:10D660000024E0232A4D2B4E85F82230EC772C76CF
:10D670006C76AC7685F820406B6A274F43F4E02344
:10D680006B6285F82340FCF79DF9FCF73BFB4FF0FC
:10D69000FF33AB62EB62FCF717FDFCF78FFBFBF788
:10D6A00089FB40F20113ADF8243006ABB360CDE93D
:10D6B0001E44219402F059F90120FFF73DFF02209A
:10D6C000164DFFF739FF00F0CFFD154B756105933F
:10D6D000012314494FF48062CDE9034328463B46B9
:10D6E000CDE90144009400F01FF806466A7B284605
:10D6F00022F004026A7302F006FA2046FFF766FF82
:10D700003A4631462846FCF7E3FA00BFB0860020CF
:10D7100000ED00E06C86002081D5000068820020CA
:10D7200051110100F08F00202DE9F043984685B09B
:10D7300000F15803C0E91633109B0026037304233D
:10D74000073222F0070543730F9B01EB05090F46D3
:10D7500083734946C0E906668660C6730446FBF7D4
:10D760001FFE0E9B073020F00700A066C4E9187565
:10D7700002930D9BA9EB000901930C9B4A46009371
:10D78000394643462046FCF785FA054B66659B689B
:10D7900003B1DB6E4846E36605B0BDE8F08300BF29
:10D7A0006C860020F0B5002587B00595109DDDE959
:10D7B000127604950F9D044603950E9D02950D9DCE
:10D7C00001950C9D0095FFF7AFFFB6F1FF3F08BF35
:10D7D000B7F1FF3F05D056EA070305D1204600F018
:10D7E000F5FC204607B0F0BD3A463346024904F145
:10D7F000180000F055FEF4E7A1FB000070B5224CC4
:10D80000224D86B02646AE4204F130040AD300F021
:10D81000FBFC1D4C1E4EAC4220D306B0BDE8704050
:10D8200000F006BD54F80C3C059354F8103C0493EA
:10D8300054F8143C039354F8183C029354F81C3CDD
:10D84000019354F8203C009354E90A2354E90C0155
:10D85000FFF76AFF54F8303C5E65D3E7D4E90A234A
:10D86000B3F1FF3F08BFB2F1FF3F05D052EA030119
:10D87000206803D100F0AAFC3034CCE731461830E0
:10D8800000F00EFEF8E700BF2401010024010100B2
:10D89000A1FB000038B5836804466BB3194A92684F
:10D8A00093422CD1C368012B03D9013BC3600020F4
:10D8B00038BD4FF02003EFF3118583F31288BFF3D7
:10D8C0006F8F0169806802F089F8204602F06CF9D8
:10D8D000A06058B190F90E2022610022826702F008
:10D8E00012F92946084800F05FFCE0E7E06085F3A4
:10D8F0001188BFF36F8FDAE76FF01500D8E74FF0AC
:10D90000FF30D5E76C860020AE8600202DE9F3417C
:10D91000044617461E464FF02003EFF3118883F3A9
:10D920001288BFF36F8FC368334A7BB180689168F8
:10D93000884219D057EA060318D188F31188BFF33B
:10D940006F8F6FF00F0002B0BDE8F081916891F920
:10D950000E100133E36093682161A36088F311889E
:10D96000BFF36F8F0020EEE72169F2E791F90E1007
:10D9700090F90E306FF07E029942A8BF194691428D
:10D98000B8BF11468B422EDD02F028F8054622462C
:10D990004146CDE90076194800F0A2FB0028E1D00D
:10D9A0004FF02003EFF3118683F31288BFF36F8FDC
:10D9B000A068D0B1236821699C420AD04BB193F989
:10D9C0000E309942A8BF19466FF07E039942B8BF46
:10D9D000194602F003F840B13146084800F0E4FB74
:10D9E0006FF00A00AFE70025D1E7002DF4D186F3F0
:10D9F0001188BFF36F8FF3E76C860020AE8600209E
:10DA000038B504464FF02003EFF3118583F31288F5
:10DA1000BFF36F8F02F0C8F848B10022826702F0AE
:10DA200072F82946BDE83840064800F0BDBBD4E98D
:10DA300002329A4218BF0133A36085F31188BFF305
:10DA40006F8F38BDAE86002013B54FF02004EFF382
:10DA5000118184F31288BFF36F8F846844B1013C55
:10DA6000846081F31188BFF36F8F002002B010BD76
:10DA700052EA030406D181F31188BFF36F8F6FF070
:10DA80000F00F3E7CDE900230246024800F028FB2F
:10DA9000ECE700BFAE8600202DE9F04F04464FF0C2
:10DAA000FF384FF0FF39484E85B04FF02003EFF3B9
:10DAB000118783F31288BFF36F8FD4F880508DB92C
:10DAC000022104F1980001F098FF002843D10023BF
:10DAD0003946CDE90089029304F188023B4800F001
