:10800000F09C0020B99F0000A1F20000A59F000095
:10801000A59F0000A59F0000A59F0000A59F000050
:1080200000000000000000000000000079A1000036
:10803000A59F00000000000009A10000A59F00000E
:108040005DA300005DA300005DA300005DA3000030
:108050005DA300005DA300005DA300005DA3000020
:108060005DA300005DA300005DA300005DA3000010
:108070005DA300005DA300005DA300005DA3000000
:108080005DA300005DA300005DA300005DA30000F0
:108090005DA300005DA300005DA300005DA30000E0
:1080A0005DA300005DA300005DA300005DA30000D0
:1080B0005DA300005DA300005DA300005DA30000C0
:1080C0005DA300005DA300005DA300005DA30000B0
:1080D0005DA300005DA300005DA300005DA30000A0
:1080E0005DA300005DA300005DA300005DA3000090
:1080F0005DA300005DA300005DA300005DA3000080
:108100005DA300005DA300005DA300005DA300006F
:108110005DA300005DA300005DA300005DA300005F
:108120005DA300005DA300005DA300005DA300004F
:108130005DA300005DA300005DA300005DA300003F
:108140005DA300005DA300005DA300005DA300002F
:048150005DA300002B
:1081540053B94AB9002908BF00281CBF4FF0FF31AA
:108164004FF0FF3000F00CB8ADF1080C6DE904CE0F
:1081740000F008F8DDF804E0DDE9022304B07047FC
:10818400704700BF2DE9F04786468C460846089E96
:10819400154674461946002B40F0C1808542B2FA58
:1081A40082F245D94AB1C2F1200300FA02FC95409B
:1081B40094402EFA03F343EA0C0C4FEA154EA8B28E
:1081C400230CBCFBFEF80EFB18CC08FB00F943EAB9
:1081D4000C43994528D9EB1808F1FF3704D2994587
:1081E40002D9A8F102072B44A3EB0903A4B2B3FB01
:1081F400FEFC0EFB1C330CFB00F044EA0344A042DB
:1082040014D92C190CF1FF3304D2A04202D9ACF1D9
:1082140002032C44241A43EA07401EB1D44000232D
:1082240034607360BDE8F0874746DDE76346F1E7F5
:1082340092BB431B01214FEA154EAFB2200CB3FB96
:10824400FEFC0EFB1C330CFB07F840EA0343984585
:1082540061D9EB180CF1FF3004D2984502D9ACF186
:1082640002002B44A3EB0803A4B2B3FBFEFC0EFBF9
:108274001C330CFB07F744EA0344A7424DD92C19DD
:108284000CF1FF3304D2A74202D9ACF102032C440F
:10829400E41B43EA0040C0E7C2F120039540944048
:1082A40020FA03F12EFA03F34FEA154E9040AFB2D1
:1082B4000343B1FBFEFC0EFB1C10190C0CFB07F86E
:1082C40041EA0041884522D969180CF1FF3004D2F3
:1082D400884502D9ACF102002944A1EB08019BB204
:1082E400B1FBFEFC0EFB1C110CFB07F743EA014338
:1082F4009F420ED9EB180CF1FF3104D29F4202D9F0
:10830400ACF102012B44DB1B41EA004193E76046D8
:10831400E3E76146F7E76046A4E76346B8E78342CC
:1083240006D916B9002108467CE7C6E900E0F9E75A
:10833400B3FA83F78FB9834201D3724508D8BEEBF1
:10834400020460EB030301209C461EB9002169E787
:108354003846FAE7C6E9004CF8E7C7F1200CBB4001
:108364000EFA07F522FA0CF42EFA0CF1BA401C436B
:1083740020FA0CF3B8404FEA144901431FFA84FE73
:10838400B3FBF9F809FB18300B0C08FB0EFA43EAAF
:1083940000439A4540D9E31808F1FF3004D29A45C6
:1083A40002D9A8F102002344A3EB0A0389B2B3FB68
:1083B400F9F809FB183308FB0EFE41EA03418E4528
:1083C4002CD9611808F1FF3304D28E4502D9A8F1E3
:1083D4000203214443EA0040A1EB0E01A0FB0298F2
:1083E4004145CE46434602D306D14D4504D2013819
:1083F400B9EB020E68EB0403002EA7D0B5EB0E0216
:1084040061EB030101FA0CFC22FA07F3F9404CEA90
:108414000303C6E9003199E74046C5E74346D9E777
:10842400034613F8012B002AFBD1181A01387047B0
:108434002DE9F0478AB002AF1422002107F10C00A5
:1084440007F00DFCBB1D7B610223BB61504C204631
:1084540007F010FA0346B8B921686C4688B002AA3E
:108464004C48C2E905014FF4007191834A4942F82E
:10847400101F4FF4E251494801F00AF8A5460020C4
:108484002037BD46BDE8F087A36820461B684449F1
:108494009847002807DA002300900121414A3F4809
:1084A40006F085FEEBE701233B610C234FF0000847
:1084B4003D4E3A4DBB83D4F808A02046DAF8043088
:1084C40007F10C019847031E05DA01212846374AB3
:1084D40006F063FEEFE7B7F90690BAF8083000201B
:1084E40009FB03F307F10801BB6002F0BDFA10B900
:1084F400BB684FEA233903214B463246284606F02F
:108504004CFE07F012FBB9F5FA6F3CDD4FF47A72BA
:10851400A0FB020302FB0131C30B43EA414324499C
:108524000A689A1AB2F5167F2DD90B606421DFF818
:1085340084E0DFF884C09EF80020B2FBF1F001FB78
:1085440010200132D2B2C0B2012A4CF820308EF889
:10855400002012D9531EB3FBF1F0023A01FB103391
:10856400B2FBF1F04EF6602801FB10225CF82330D8
:108574005CF822209B1AB8FBF3F8032143462846F3
:108584000E4A06F00AFE0021212005F03FFC92E786
:1085940074FD00003802010003000001B0FF000078
:1085A4003E0001005B0201009A0201007C0201000E
:1085B40070880020A48C002074880020AB02010085
:1085C4002DE9F04F91B0009302F004030293C2F33B
:1085D400C2030133840705460E46DDF86890039212
:1085E400059340F0BB81041D30B1072909D86FF011
:1085F4001B0011B0BDE8F08F01F00706341DC6F171
:108604000806009B4FF000084FF0040A591E4FF073
:10861400FF3347460193C3465346CDF810800DB14E
:10862400009A22600598002800F3E8809848009A90
:10863400824203D397488242C0F0E080039AA4EBBD
:10864400050E92074FEA9E0000F103810F2F00F2FE
:10865400B180002D00F0058107F140020DEB020C02
:10866400019A0CF8200C0CF8102C0498013004909A
:10867400E7E07A285DD84B280ED8472859D829280E
:108684002DD8252852D054D820287AD02338D0F198
:10869400000B4BEB000B74E04C382E2849D8DFE874
:1086A40000F07048484848484848484848484B48BB
:1086B4004848484848484859484B4B595959704BC1
:1086C4006D487048184B184848827F4B48484B48BF
:1086D4007F0000204FF0000B4FF0040A38E0012225
:1086E4002A38C0B202FA00F010EA0E0F49D110F095
:1086F400625C2FD110EA020B43D06046013C544423
:10870400B4FBFAF40AFB04F4002D61D0A3EB050CCE
:10871400A4446645FFF46BAF002868D1042B47D10D
:1087240059F8043B2360042304342AE0019A013AF3
:1087340001924FF0000B24E011F8010C6C2834D1A5
:10874400002011F8023C83466C2BC5D14FF0080A77
:108754005346D3E709F1070929F00709073424F040
:108764000704F9E802AB35B106982044B0423FF65D
:108774003EAFC4E900AB4FF0000B08344FF0080AD9
:10878400534611F8010F002878D0BBF1000F7FF495
:1087940070AF2528F5D14FF0010B019B01330193F4
:1087A4004FF0040AECE7584694E700208346A5E717
:1087B400082B02D06FF015001BE709F1070929F017
:1087C4000709F9E80223C4E9002308230834D8E799
:1087D40068B9042B02D109F10409A4E7082BE9D1F3
:1087E40009F1070929F0070909F10809EDE7059AD4
:1087F400013A059259F8042B009210E7039A900766
:1088040020D54FF0010CA4EB050E4FEA9E00BEF5F7
:10881400007FCFD20F2FCDD8F5B107F140020DEB79
:10882400020E019AC0B20EF8200C0EF8102CBCF106
:10883400000F3FF41AAF60F07F000EF8200C08F12F
:1088440001080137C5F108024FF6DA7E04340692B6
:1088540097E74FF0000CDAE7BCF1000F01D00136C6
:10886400EFE7029802360028EBD10098CDE90631F3
:10887400FFF7D6FDDDE906310644E2E7631BB3F5F5
:10888400806F97D245B9A6F10804E018B1E600BF9D
:1088940098FC0000680F0100029A9B0828602B7066
:1088A4009DF81030C2B1EB7085F80280B8F1000F6A
:1088B40005D0002208A8C5F1010C97420ED14FF053
:1088C400000AC5F101030DF1200901930DF1300BEC
:1088D400574512D1601B8CE66B70E5E710F8013B3D
:1088E400190608D504EB0C0E764503F07F03FFF45C
:1088F4007EAE04F8013B0132DFE7B8F1000F03D08C
:1089040099F90020002A17DB029BD3B11AF80B2037
:1089140004F8012B0022019B981820448642FFF49E
:1089240066AE99F80000009904F8010B2046039202
:1089340007F088F9039A14440AF1010A09F10109BC
:10894400C6E799F8002055F822300093029B00985E
:1089540045F82230FFF764FD421CDCE76FF00D00A0
:1089640047E600BF2DE9F04F95B000AFBB61BB6F88
:108974000446C3F3C0038A4690F802B07A623B61AE
:1089840041B9457800780BEB80002044554517D851
:10899400A0EB040AE3787B61BBF1000F02D0BB6F4C
:1089A400D80716D47B6953BB7B6A1BB1514620465A
:1089B400BA699847554628465437BD46BDE8F08FF6
:1089C400461C3046FFF72CFD013030440AF1010A01
:1089D400DCE7237862683B629B00FB603B6AFA61D8
:1089E40004EB83097B6A002B40F0FF80C846002615
:1089F400554609EB0B0AD04551D1D94413E0BB6F5E
:108A04009907D1D5237899463B629B00FB60636844
:108A140004EB8909FB617B6A002B7AD15546BBF1D3
:108A2400000F4FD15E46BB6F13F0050F0CBF4FF024
:108A3400020B4FF0010B7B6909EB430ABB6F03F098
:108A440002037B62D145B6D019F8021B19F8013C28
:108A540054F82380AB4B984502D3AB4B984538D39D
:108A64003B69002B42D0F86905F0B4FE00283DD0E4
:108A7400E8468AB06A46A54B5361FB69C2E90631F0
:108A84004FF400731384A24B42F8103F00234FF4B9
:108A94001251A04800F0FCFC023DC546D2E718F88C
:108AA400013B54F82300FFF7BBFCFB6F01303BB1E3
:108AB400D7F880309E423EBFFB6F23F81600013684
:108AC400054498E7BB6F13F004061CBF7E6AD944C3
:108AD400A9E73B6923B1F86905F07CFE0028C7D1FA
:108AE400BB6FDA0705D4A5EB0B05ABE77B6A002B5C
:108AF400A8D04046FFF794FCFB6F43B1D7F8803011
:108B04009E423FBFFA6F431C22F8163001360544DB
:108B140098E7BBF1000F6ED0BB6F13F004066DD065
:108B2400D846002607F140005A46494607F08AF81D
:108B34007B69D9445B007B607B6909EB4303BB60C1
:108B4400BB6F03F002033B60BB684B4558D1B96F60
:108B54006378B86F890748BF002106EB030258BF4A
:108B64004FEA5801C507D2B200F19A8010F0040F01
:108B740014BF40460020FB616270A070E170204683
:108B8400BA69F9687B6A9847051EFFF614AF3B6A19
:108B940041462370FB69BA6963707B6984F802B04B
:108BA400E37007F140007B6A9847B0F10008C0F217
:108BB400A480FB68AAEB0B01C91A7B684846C91A52
:108BC400BA697B6A98470028C0F299804FF0000B7D
:108BD400A84408EB000507F1300AB34562D300212D
:108BE400BA6908467B6A9847E5E65E464FF0000896
:108BF40007F1300098E75E46D84699E7B04697E714
:108C040019F8021B3F4B19F8015C54F825009842EF
:108C140002D33D4B98421DD33B6923B1F86905F05B
:108C2400D9FD002890D13B68FBB908F1280307F16E
:108C3400280208F1010003EB020C07F1500308F1CC
:108C4400020853FA80F00CF8101C5FFA88F800F858
:108C5400105C79E73B692BB1F86905F0BBFD00288E
:108C64007FF472AFBB6FDB0709D506F1280307F168
:108C74002802711C9E1806F8205CCEB264E7BB6F14
:108C840058077FF561AF08F1280307F1280208F1BE
:108C9400010103EB020808F8105C5FFA81F853E75E
:108CA400002068E71BF80A3054F8239087F82F3027
:108CB400FB6FFBB133F81B800121BA697B6A07F1B2
:108CC4002F00984700281ADB0544B8F1000F06D19D
:108CD4004846FFF7A5FB00F101081FFA88F8414652
:108CE4004846BA697B6A9847002808DB05440BF1BB
:108CF400010B72E7D7F87C80DEE745465BE6054664
:108D040059E600BF98FC0000680F0100D80201007A
:108D140004000001C0FF0000014B1860704700BF51
:108D24009880002080B505460E461746984605F003
:108D340087F8034606F0A4FF0446DFF8189042467D
:108D440049F8003039463046A84754F8090001F084
:108D5400ABF900BF080000002DE9F047058B04467D
:108D64002807904611D4022905F0070540F0CD806C
:108D7400204605F043FE78B10138218B042811D830
:108D8400DFE800F0C3106D85950001290CBF45F0A4
:108D9400100545F02005258388F31188BFF36F8FF4
:108DA400BDE8F08701F0070AAA4500F0A680002775
:108DB400B9463E46A368002B00F0BD8041F008018F
:108DC400218388F31188BFF36F8FA168002900F015
:108DD400BB800D68002900F0B78033465246204618
:108DE400D1F80480C047002D76D02B6829461D4653
:108DF400F0E701F007035A1F012A1BD8002221F0D3
:108E04000701062B276889B2C4E9002209D13B4631
:108E140003E0628B013262831B68002BF9D141F0BD
:108E240002012046218305F0E9FD00287BD041F0B2
:108E3400200177E0042B0AD121F0070189B22046F2
:108E4400218305F0DBFD10B141F020012183218B4A
:108E540001F0070AAA4550D00027B946AAE72369BA
:108E640021F0070141F00601062DD3F8009021837B
:108E74002DD1B9F1000F40D041F00801218388F3CE
:108E84001188BFF36F8F20463949C84729E021F084
:108E94000701236941F0040189B2042DD3F8049039
:108EA4002183E6D000274FF0040A3E4682E721F0F2
:108EB4000701236941F0050189B2052DD3F8089013
:108EC4002183D6D000274FF0050A3E4672E70027DB
:108ED4004FF0060A3E466DE72B4687E7B9F1000FCF
:108EE400D1D14FF02003EFF3118883F31288BFF33D
:108EF4006F8F238B23F008032383258BEA062ED55B
:108F040025F01003238305F007056669218B002EE5
:108F1400BFF66FAF00232768C4E9003321F00701CF
:108F240041F001012183218B4FF0000901F0070A70
:108F3400AA457FF43FAF002F9BD041F00801218365
:108F440088F31188BFF36F8F002FC7D03D6839466F
:108F540033465246204605F07DFD2F46F4E7AB0626
:108F64007FF51AAF25F02003238305F00705FFE6FC
:108F740085EA00002DE9F047044607464FF0010951
:108F8400DFF8508014B93846BDE8F08794FAA4F5A8
:108F9400B5FA85F509FA05F32E0108EB05156FEA14
:108FA400030A24EA03042B7B002BEBD058F8063089
:108FB4001B694BB94644736804222846196807EABA
:108FC4000A0700F051FADDE7284698470028D9D16E
:108FD400F0E700BF2000010030B5002289B00F493E
:108FE4000F4806F0A4FD002200230024CDE9062347
:108FF4000E230C4DCDE903344FF440722846CDE9DD
:109004000144094B0949009404F0A6FA084928468A
:1090140006F045FC204609B030BD00BF3990000081
:10902400E88600206082002011930000B08C0020AC
:109034008C030100014804F0BDBB00BF5082002036
:109044002DE9F04780461F480F4606F01BF80646F8
:10905400002830D000252846BDE8F087237B73B173
:109064002368DB680BB12046984723681B69D3B992
:10907400636804222046196800F0F6F901361034BA
:109084004C45EBD3B8F1000FE5D0002DE2D02846D3
:10909400FFF770FF0546002FF7D000214FF4A470AE
:1090A40004F0B4FEF1E7204698470028E0D00AFA1D
:1090B40006F31D43E2E705464FF0010A024CDFF8D0
:1090C4000C90DDE7148A002020000100300001002C
:1090D400014B53F8200070476000010008B50346B7
:1090E40008462BB1044A136000F072FC002008BD4E
:1090F4006FF01500FBE700BF9C80002010B5044C06
:10910400237813B9034804F055FB0123237010BDE1
:10911400A58C00205082002010B50446064805F0B6
:10912400B1FF3CB1054BD3E8EF1F0139C3E8E21F9F
:10913400002AF8D110BD00BF0C8A0020108A00203C
:1091440000200146034BD3E8EF0FC3E8E21F002AD7
:10915400F9D170470C8A002070B5FFF7F1FF05467E
:10916400074C084EB44200D370BD63685B792BB1E1
:1091740023685B6813B12946204698471034F1E709
:10918400200001003000010010B5044C04492046C1
:1091940005F009FE034B1C6010BD00BF00820020D7
:1091A4004C000100048A002008B50023074A4FF44C
:1091B40000411370064A07481360074A1360FFF71B
:1091C4008DFFBDE80840FFF7DFBF00BFA68C00207D
:1091D4000C8A002085F00000108A0020014600223D
:1091E4000023014805F000BE00820020014805F07C
:1091F40099BE00BF00820020024B0146186805F0AA
:10920400E3BE00BF048A0020014805F019BF00BF77
:109214000082002070B5264B1878002847D0FFF74D
:10922400E5FF054670B1234BD3E8EF1F0139C3E8CE
:10923400E21F002AF8D1204C204EB4422DD32846F8
:10924400FFF7DAFF1E4B1F4C1B68002B19DD06F0DD
:109254006CFC4FF47A72A0FB020302FB0131C30BD6
:1092640043EA4143D4E900209B1A40F2E9324FEA31
:10927400D13161EB0001934271F1000101D3FFF799
:109284006BFFD4E9003213F57A7342F10002C4E9AA
:109294000032BDE87040FFF7B7BF63685B7923B164
:1092A4002368294620461B6898471034C5E770BDDB
:1092B400A58C0020108A002020000100300001004D
:1092C4000C8A0020E086002070B50D4D297861B924
:1092D4000120FFF7B5FE0B4C0B4EB44206D3FFF74B
:1092E40099FF0028FBD101232B7070BD63685B7963
:1092F4001BB1236820469B6898471034EDE700BFF4
:10930400A68C0020200001003000010000212DE97E
:10931400F0470846FFF794FE044658B340F26768E6
:109324004FF0000906F0ACFC1B4B1C4A1B581360A1
:1093340033B11B4B1B68092B02DD1A4804F03AFABF
:109344000025194FDFF85CA044B12046FFF712FE58
:10935400044618B94FF0FF384FF0FF39FFF75AFFB2
:10936400064628B9B5B942464B46504604F046FA7B
:109374003546E9E74FF0FF384FF0FF39D2E72B6865
:109384009B691BB100222846114698471035BD42FF
:10939400F5D3E8E7054DFAE708000000088A002045
:1093A400108A0020508200203000010020000100BB
:1093B40013B5184805F066FE174B1B787BB14FF0C8
:1093C4002003EFF3118483F31288BFF36F8FFFF749
:1093D40021FF84F31188BFF36F8F02B010BD0F4BD0
:1093E4001B68002BF9D050B9002200230C48CDE9AA
:1093F40000234FF40042002304F0F4FEEDE70928B3
:10940400EBD1074806F09FFB064802B0BDE81040C8
:1094140004F0D0B9108A0020A68C0020088A00200D
:10942400E88600205082002010B5064B04461B68D5
:1094340098472146A060044805F054FDBDE810405B
:10944400FFF7B6BF9C80002000820020044A054B31
:109454009B1AB1EBD30F34BF52F831000020704790
:10946400B0FF000020000100084B10B4C31A446888
:109474001B110133237143689A71012243681960F7
:1094840043685A7110BCFFF739BE00BF20000100C9
:109494002DE9F04F8FB0C1F34A2804AF0D46914631
:1094A400B8607B600C0DB8F1000F63D000264FF05C
:1094B400040B4FF00A0A07F11403C7F80C80C7E93C
:1094C40007667E620193CDF808B0CDF800A007F1DD
:1094D4001C0332464846F968FFF744FAB0F5006FBA
:1094E40003461CD36C468AB0D9F8041004AB264852
:1094F4001A46C3E9050140F2FF71D9614FF40071C6
:109504001984224B42F8103F4FF41251334620483D
:10951400FFF7BEFFA5462C37BD46BDE8F08FC0F36C
:109524000A0804F11700184420F0070080083B6083
:10953400FFF754FE68F35325044690B13B6800F1ED
:109544001001C7E9083607F11403F961CDE900A356
:10955400CDF808B048460F4AF96807F11C03FFF735
:1095640001FA68F353252A4620467B68B96805F05A
:10957400BBFDD0E704F1170020F007008008FFF7D7
:109584002DFE0446EDE700BFA10301000400000125
:10959400D8FF0000C1F000002DE9F04F87B0044669
:1095A400DDE9105ADDE912690F4693469846A6B3E1
:1095B4001021334652460020CDF80090CDF8149087
:1095C400FEF7FEFF014605F117000844144B04F0B2
:1095D40007040BF0070BE40020F0070003EA412323
:1095E40044EA8B1480081C430391FFF7F7FD44EA17
:1095F4000554054640B13EB1334652460399CDF871
:1096040000901030FEF7DCFF4346224639462846D8
:1096140007B0BDE8F04F05F067BD3146D3E700BFA2
:1096240000FE0F000EB403B503AB53F8042B014640
:109634000448019301F0B4F802B05DF804EB03B000
:10964400704700BFFFF10000CA0605D48B064CBF6B
:1096540002490349FFF7E6BF704700BFE103010079
:10966400E00301002DE9F04F89B09B46DDE9167651
:109674009DF84C3004460493DDE914930593049B50
:109684000D460692002B00F0878006F0080307932E
:1096940005F012FD06F0020A024600284BD02046CF
:1096A4008549FFF7BFFF8046BAF1000F08D016F0D6
:1096B400440F42D12A4620468049FFF7B3FF804435
:1096C40006F001035BB17E4B049A204653F8222036
:1096D4007C4B7D49002A08BF1A46FFF7A3FF06F01A
:1096E4000803002B55D0794B049A204653F82220C6
:1096F4007749FFF797FF0546069B2BB11A4620468C
:109704007449FFF78FFF0544BBF1000F05D05A469B
:1097140020467149FFF786FF05444544B9F1000F1F
:1097240049D1002F4FD1F30700F1C08031462046C4
:10973400FFF78AFFB4E08046B6E7684B1868002854
:10974400BDD0674B4FF47A7E1B684FF46162B5FB62
:10975400F3F5B5FBF0F300FB13550EFB05F5B3FB76
:10976400F2FAB5FBF0FC3C2102FB1A3200FB1C555B
:10977400B2FBF1F30EFB05F5B5FBF0F501FB13228B
:1097840020460092CDE901C552465649FFF74AFFEB
:1097940095E706F00805AFE7BBF1010F06D1B9F173
:1097A400000F64D1002F7BD000250CE0B9F1000F2D
:1097B400F8D04D485CE04D484B4622464C4904F0F5
:1097C400D8FF002F68D0DFF82C91DFF82CA1102FE0
:1097D40031462046B8464FF0000B28BF4FF0100822
:1097E400FFF732FF5D4545DC059B514620461A785C
:1097F400FFF718FF4FF0010B1BF0070F03D1494689
:109804002046FFF70FFFD8453BD9059B514620461C
:1098140013F80B20FFF706FF0BF1010BBBF1100F40
:10982400EAD14FF0000B20463449FFF7FBFE5A46BD
:10983400059B20469A5CA2F120015F2928BF2E22B5
:109844002F49FFF7EFFE0BF1010BBBF1100F1DD0F9
:109854001BF0070F03D149462046FFF7E3FED84526
:109864005A46E5D849462046FFF7DCFEEBE71F4899
:10987400049DA1E749462046FFF7D4FE0BF1010BF6
:10988400B0E720461F49FFF7CDFEC5E7059BB7EBC0
:109894000807434405939AD1049B002B7FF443AFFC
:1098A400204609B0BDE8F04F05F09ABC2046054AB1
:1098B4000549FFF7B7FE39E7E8030100EC030100AF
:1098C40070000100E30301001104010084000100A1
:1098D400140401001A0401001E0401001C8A002063
:1098E400188A0020F50301002DF20000FFF10000AA
:1098F400A5A700002B040100230401002D0401008E
:109904002F040100290401002DE9F0410F884B6860
:1099140005460C4690468E6886B0C7F382175BB145
:10992400144A9B1A43F3CF01002920DB2078C0F3AB
:10993400C200FFF78BFD0346214651F8102B6088C7
:10994400C2F34A22002A01EB020408BF00210022CC
:10995400C0F30B10CDE90408CDE9021428463146C2
:1099640001970092FFF77EFE06B0BDE8F081002368
:10997400E2E700BFB0FF000042F20F7373B58B4201
:1099840028BF0B4605680446052168460D4A04F0C5
:1099940069FC0646636828460B225B680A4905F0A1
:1099A40012FC63683246694628465B6805F00BFC86
:1099B40063681B2228465B68044905F004FC02B076
:1099C40070BD00BFC40201004E0401003204010056
:1099D40000210123064A904206D8064A01B9012310
:1099E4001360054B18607047012140085B00F2E7E3
:1099F40040420F00188A00201C8A0020F8B50D464A
:109A04000446064F4618B44201D12846F8BD14F85E
:109A1400011BBB6801485B689847F4E74CFD0000F4
:109A2400014B036000207047CC0001002DE9F04792
:109A340080460C4600AF002936D0D1E90012E94631
:109A44008AB06D46A3684FF0050A2E461A48C5E948
:109A54000723C5E9050146F810AF002332464FF449
:109A640021511648FFF714FDD4E90312CD4663696A
:109A7400AD461348C5E90723C5E90501C5F810A09B
:109A8400002332464FF421510C48FFF701FDCD4627
:109A9400E36901210B4A094805F07FFBA369012111
:109AA400094A064805F079FB2146404603F0A8FB25
:109AB400BD46BDE8F08700BF94040100000001002A
:109AC400C3040100F20401000105010030BFFFF7E7
:109AD400FDBF00BF114B124A2DE9F041D518013DDD
:109AE400B5FBF3F5DFF83C805D430F4B074608EB0D
:109AF4000304013CB4FBF3F403FB04540E1B304693
:109B04000A4906F09FF8701942460021083E06F003
:109B1400A6F83E6704F10800BDE8F08101000000EA
:109B240000000000040000000400000030000100F8
:109B3400044B99685869884203D003494FF0805216
:109B44000A607047748C002004ED00E070B52A4C64
:109B540006460D4629482A4905F0A7FBA36ADB06F9
:109B640047D52648274905F0A0FB1120A36A1C0706
:109B740004D52248244905F098FB12201E4CA36A00
:109B8400990712D521491D4805F08FFB636BA26A22
:109B9400120609D501211E4A184805F0FEFA1EB125
:109BA400A36A23F08003A3621320134CA36ADE0785
:109BB40004D51248174905F078FB1420A36A9C06C3
:109BC40004D50E48144905F070FB15200A4B9A6A17
:109BD400D10658BF9A6A9A6A920642BF5A6A22F418
:109BE40000525A629A6A42F0FF029A6200232B7072
:109BF40070BD1020BAE700BF00ED00E000000100D6
:109C04002F05010045050100780501008B050100C1
:109C1400A3050100B9050100D805010010B5244CC5
:109C24002449254805F041FBA36A99013ED5224801
:109C3400224905F03AFB1E20A36ADA0104D51E4826
:109C44001F4905F032FB1F20194CA36ADB0204D51F
:109C540019481C4905F029FB0220A36A1C0304D5FA
:109C64001548194905F021FB2120114CA36A590319
:109C740004D51148154905F018FB2220A36A9A035C
:109C840004D50D48124905F010FB2320084CA36AA3
:109C9400DB0304D508480F4905F007FB2420A36A19
:109CA4006FEA03436FEA1343A36210BD1D20C3E7A9
:109CB40000ED00E007060100000001001F0601009E
:109CC400320601004C0601007606010094060100EC
:109CD400B9060100D306010070B5294C06460D46AD
:109CE4002848294905F0E1FAA36AD9043CD5254856
:109CF400264905F0DAFA1720A36A1A0504D5214883
:109D0400234905F0D2FA18201D4CA36A9B0512D5ED
:109D14001C48204905F0C9FAA36BA26A100409D5AE
:109D240001211D4A174805F038FA1EB1A36A23F42D
:109D34000043A3621920124CA36A590504D51148A3
:109D4400164905F0B2FA1A20A36ADA050ED50D48B1
:109D5400134905F0AAFA1B20094A936A43F47F4386
:109D6400936200232B7070BD1620C5E7A36A9B0481
:109D7400F2D504480B4905F098FA1C20ECE700BF23
:109D840000ED00E000000100FE06010014070100E0
:109D940078050100250701003E0701005307010073
:109DA4006E070100D80501002DE9F0478AB0694B20
:109DB4000446D3F804A089461646002500AFCAF32A
:109DC400080885F31188BFF36F8F02F07F43B3F166
:109DD4007F4F1ED1D3071CD4500603D4110708D4D7
:109DE400012508E05C495D4805F05FFA16F00406B9
:109DF40000D04C4600250023FB71A8F10303092B76
:109E040000F28680DFE803F0077C7F798484848411
:109E140084822C46EFE75249504805F046FA002365
:109E24004C4EFB71F36A9A0705D54E494B4805F031
:109E34003CFA002329E0F36A002B01DA4A49F5E7EA
:109E4400F36A5B00F5D54949444805F02EFA736975
:109E5400A26943F480737361BFF34F8FBFF36F8FB5
:109E6400736932F8022C23F480737361BFF34F8F4C
:109E7400BFF36F8F4DF602739A4228D123680121F4
:109E84003B4A364805F089F92368FA79DAB907F1CB
:109E9400080604F1200C324620686168083403C2C5
:109EA40064451646F7D17A6A002D4ED0C2F30801F4
:109EB40021B96FEA52226FEA42227A62184607F108
:109EC4000801FFF7B3FD2837BD46BDE8F087B36A44
:109ED400DBB22BB10120F91DFFF738FE0346D4E7AE
:109EE400B36A13F47F4F04D00120F91DFFF7F4FE89
:109EF400F4E7B36AB3F5803F9BD3FFF78FFEEDE73A
:109F04000020F91DE8E70020F91DEFE719498DE766
:109F1400194A6E461AF4F87F8AB0184B18BF1346D4
:109F24006A461749C2E90513A8F11003D3614FF437
:109F340000731384134B42F8103F00234FF4115164
:109F44000648FFF7A5FAB54673E722F4FF7222F03C
:109F54000102B2E700ED00E0B407010000000100D7
:109F6400D7070100EE0701000F0801001D080100DA
:109F74003C080100580801009B0701008607010006
:109F84007C08010004000001044B5A6942F01002ED
:109F94005A615A6942F480625A61704700ED00E0E8
:109FA400EFF30880EFF3098101B57246FFF7FCFE79
:109FB40001BD00BF002080F31488BFF36F8F002021
:109FC40080F30A8880F30B8800F04CFD00200E49D2
:109FD4000860BFF34F8F0D4880F3088800F03EF807
:109FE400202080F311880A484FF40061401880F360
:109FF4000988EFF314800221084380F31488BFF327
:10A004006F8F00F00DF9000094ED00E0F09C00204B
:10A01400B08F0020BFF34F8F0549064BCA6802F486
:10A02400E0621343CB60BFF34F8F00BFFDE700BF77
:10A0340000ED00E00400FA05002318460649D1F8B3
:10A044009020C2F30722934200DB7047C1F8983096
:10A05400C1F8A0000133F6E700ED00E010B572B6D8
:10A06400002484F31388FFF7E7FF23464FF0FF3003
:10A074000C4A03F120010133102B42F82100F8D1DE
:10A0840000234FF0FF30074A03F160010133102B26
:10A0940042F82100F8D162B6BFF34F8FBFF36F8F40
:10A0A40010BD00BF00E100E0084B9B6883420BD168
:10A0B400EFF3058343B1064B5A6842F080525A606D
:10A0C4005A6A22F400425A6205F0F4BC748C0020EF
:10A0D40000ED00E06FF00A01084A936899670849A7
:10A0E40058674B6843F080534B60002383F3118817
:10A0F400BFF36F8F9368986F704700BF748C002014
:10A1040000ED00E018498A6882F87DE04FF03000E5
:10A114001044EFF3098C80E8F01F202080F31288AC
:10A12400BFF36F8F114F4FF000664A698A603E603B
:10A134004FF07004141920680D4C206092F97DE0F2
:10A14400506F0023536780F3118802F1300090E8C8
:10A15400F01F8CF3098802F1000004B505F0AFF894
:10A16400BDE8044070470000748C002004ED00E05A
:10A17400448A00201EF0040F0CBFEFF30880EFF3B5
:10A184000980816911F8021C0229FFD001B505F08C
:10A1940081F801BD40B2002807DB01234109034ACD
:10A1A40000F01F00834042F82130704700E100E0D6
:10A1B40040B200280CDB01220649430900F01F00CD
:10A1C4008240203341F82320BFF34F8FBFF36F8FBA
:10A1D400704700BF00E100E0054B420953F822201C
:10A1E400012300F01F0003FA00F01040704700BF85
:10A1F40000E100E040B2002801F10101ACBF00F130
:10A204006040064B4FEA4111C9B2ABBF00F5614053
:10A2140000F00F0080F800131954704714ED00E0AB
:10A224000B4A08B50B4B22F07F029A60BFF34F8FA5
:10A23400BFF36F8FD3F8882022F47002C3F888200C
:10A2440003F092F803F002FE00F07AF803F0D6F877
:10A254000080000000ED00E042F8203C009B0C4927
:10A2640042F81C3C019B21F0010142F8183C029B7E
:10A2740042F8081C42F8143C4FF0807342F8043C46
:10A28400002343674FF43C43203A0265C367704799
:10A29400298D00000A4B046F98600A4B1C60036E02
:10A2A40083F30B88104681F30988002163B681F398
:10A2B4001188BFF36F8F00220023FEF733FD00BF28
:10A2C400748C0020448A0020014910220A607047DF
:10A2D40010ED00E072B6404080F31188BFF36F8F39
:10A2E40001B500F0BBFA00280AD0BFF34F8F30BF8E
:10A2F40000BF00BF00BF00BF00BF00BF00BF00BF62
:10A30400BDE8014062B6BFF36F8F704772B6494033
:10A3140081F3118801B500F0A1FA00280AD0BFF337
:10A324004F8F20BF00BF00BF00BF00BF00BF00BFF2
:10A3340000BF00BFBDE8014080F3118862B67047DA
:10A34400002320210348C2180133452B82F800134F
:10A35400F9D1704700E100E001B5EFF30580A0F109
:10A3640010004FEAC0000449014409C99847BDE8F8
:10A37400014002490847000088FD0000359B0000A9
:10A384001FB5094C094A23460121094800F00AF97E
:10A3940000230393074B0121E41A01A801930294BB
:10A3A40000F00AF904B010BD00000720008000206E
:10A3B400CC0001006082002010B50C7A0B6804F018
:10A3C4001F0223F01F031A43CB68640923F01F0301
:10A3D400054943EA440343F00103C1F89800C1F876
:10A3E4009C20C1F8A03010BD00ED00E0072810B596
:10A3F40008D901210346054A054804F0CEFE6FF052
:10A40400150010BDFFF7D8FFFBE700BF930801005C
:10A41400F8FF00002DE9F04F8946144606464FF038
:10A424000008514D85B0C84527DAD6F804A0BAF122
:10A43400000F44D0BAF11F0F17D91AF01F0F14D10F
:10A44400D6F800B01BF01F0F0FD1584604F03BFFA5
:10A4540007460AEB0B00013804F035FF874210D0A1
:10A464006FF01507414A3B4601E04346404A01214B
:10A47400404804F092FE6FF01504204605B0BDE894
:10A48400F08F17F1160FEDD0BC42EBDDC5F89870D4
:10A49400D5F89C10C5F89870D5F8A03021F01F01AC
:10A4A40043F01F0BD6E900321A44994202F1FF3AF5
:10A4B4001DD1D34507D13146F8B204F00DFF08F1A0
:10A4C40001080C36AFE73146C5F89870D5F89C30D2
:10A4D40022F01F0203F01F031343C5F89C30E0B2BF
:10A4E40004F0FAFE10F1160FC5D0441CE7E7C5F8D6
:10A4F4009870D5F8A020013B23F01F0302F01F023F
:10A504001343D3453146E0B2C5F8A030E8D004F097
:10A51400E3FE10F1160FAED0C5F89870D5F89C2064
:10A524009DF808300BF1FF3B62F304038DF808300B
:10A53400D5F8A0309DF808205B0863F347128DF826
:10A544000820D6E900321344009323F01F035B4430
:10A55400A3EB0A03013023F01F036946C0B203933F
:10A56400FFF744FFBEE700BF00ED00E0DC08010098
:10A57400B9080100F8FF00000522044BC3F8942039
:10A58400BFF34F8FBFF36F8F704700BF00ED00E044
:10A59400BFF35F8F0022024BC3F89420704700BFC3
:10A5A40000ED00E010B5034C2278FFF733FF207074
:10A5B40010BD00BFA88C00202DE9F74F294D8A4615
:10A5C40006464FF00008AB46274FD0451BDAD6F8B5
:10A5D4000490B9F1000F3FD031680846019104F0AE
:10A5E40072FE0199044609EB0100013804F06BFE88
:10A5F40084424FF014021D4B08D002FB08F36FF0A5
:10A6040015024BF8032003B0BDE8F08F14F1160FC8
:10A614002C60F8D01978A142F5DD02FB08B0C7F828
:10A624009840C7F89840D7F89C4000F10801007B97
:10A6340064F304000871D7F8A0000C79400860F3B3
:10A6440047140C71D7F89C1021F01F016960D7F8EA
:10A65400A01021F01F01296108F1010814350C36FE
:10A66400B3E700BF488A002000ED00E0A88C00207A
:10A67400F0B53A4D87B02C68082C6CD80020FFF751
:10A6840087FF374B374AC3F8C02084420DD1364D7B
:10A6940001A82C70FFF7C4F900240646334FA642E4
:10A6A4000AD1FFF769FF002053E0696801EB00114C
:10A6B400FFF782FE0130E8E70199200101EB041362
:10A6C400DA683A40B2F5001F22D0B2F5800F2CD0E0
:10A6D400B2F5801F36D15A689B680958013B22F0B5
:10A6E4001F0003440120844623F01F0340EA4C105A
:10A6F400CDE902218DF8100002A928780593FFF70F
:10A7040075FE002823DB2B78013401332B70C6E758
:10A714005A689B680958013B22F01F0003444FF01C
:10A72400020C012023F01F03E0E75A689B680958D4
:10A73400013B22F01F0003444FF0000C062023F0DD
:10A744001F03D3E701210A4A0A4804F01DFD6FF0F4
:10A75400150007B0F0BD4FF0FF30FAE7D800010054
:10A7640000ED00E0AAFF4400A88C00200000F0FFE8
:10A77400FF080100F8FF000008B5024B1B6898476A
:10A78400002008BD5C8A0020034B044A18609378BB
:10A7940043F00203937070475C8A0020A880002075
:10A7A400F0B587B007460E461446002110226846CD
:10A7B4001D4605F054FA02238DF80230054B2A4653
:10A7C40021466846CDE90476019303F077FD07B08E
:10A7D400F0BD00BF0FF3000008B50649064821F09C
:10A7E4000701C1F1005202F5E02204F0AFF80020A5
:10A7F40008BD00BFF79C0020608A002007B50DF15A
:10A80400070004F08EFF114B98421CD14FF4806274
:10A814000F4B1049C3F8B8254FF40062C3F83C2528
:10A824009DF8070004F069FF0B499DF8070004F048
:10A834005FFF01209DF80730984001F04DFE002095
:10A8440003B05DF804FB6FF00B00F9E70000AD0BFB
:10A8540000A002402CA0024028A10240052370B5AC
:10A86400144D154E2C780134B4FBF3F303EB83033E
:10A87400E41A04F008FF114A137823B156F824307F
:10A88400C01A072813D90E4BD3F8141141B1002173
:10A89400C3F81411D3F814312C700CB901231370BC
:10A8A4002C7804F0F0FE46F82400012070BD00204E
:10A8B400FCE700BFAA8C00206C8A0020A98C002031
:10A8C4000050004048B1054B054A1B68B3FBF2F346
:10A8D4005843044B43F0010318477047DC800020C1
:10A8E40040420F003000010070B5049CC4F30726F9
:10A8F400304601F0D5F9E5B20146284604F009FFD7
:10A9040000220120074BA40B04F0FC041A51A840B8
:10A9140001F0E8FD304601F077FB2846BDE87040C1
:10A9240001F082BF80A0024073B501A801F076FF58
:10A93400264B984247D101F049FB041E0ADA9DF8E0
:10A94400040001F071FF01212346214A214804F04B
:10A9540024FC35E040F607031F4D8DF80540AE6832
:10A96400ADF806307468019B14B96FF05704EAE738
:10A9740008212846194AA047041EE4DB3369002B4A
:10A98400F3D00122082128469847041EDBDB01206E
:10A994009DF80430984001F09FFD9DF805009DF856
:10A9A40004509DF8076004F059FE0146284604F05F
:10A9B400A4FE0B4BB60045F000459D51002CC2D1BE
:10A9C400204602B070BD6FF01204BCE70000AD0B6E
:10A9D400340901001000010060FD0000E9A9000035
:10A9E40080A102402DE9F341144683681B690BB131
:10A9F40000229847C4F30726304601F059F905466A
:10AA0400304604F02BFE4FF00008E7B2014638460A
:10AA140004F083FE104B220E920043F8028030466D
:10AA240001F03EF90D4A4FEA943C0CF0FC0C47F05F
:10AA3400004342F80C300146384604F059FE084BF6
:10AA440005F132020093304643460194520004F06B
:10AA54000EFE02B0BDE8F08180A1024080A0024059
:10AA6400EDA8000004F040BE13280ED8084A12F8DE
:10AA7400103053B102EB4002527832B108684343BC
:10AA840093FBF2F300200B6070476FF015007047E2
:10AA9400650901000122054BC3F8002590F87610E2
:10AAA40009B1DA6070471A605A60704700E00040EC
:10AAB40070B5087900F01F04072C1DD80B780B2BF8
:10AAC40015D8DFE803F007070707140614140E105F
:10AAD400141204234A78032A11D0042A21D02E4ABE
:10AAE40006E00523F6E70623F4E70723F2E72B4AFB
:10AAF40001212B4804F048FB6FF0150070BD0125BF
:10AB040044F20A064A88B2423FD00CD844F2030603
:10AB1400B24216D044F20506B24234D0AAB3214A56
:10AB2400E6E70025ECE744F21406B2422FD044F2E3
:10AB34002806B2422DD044F20F06B242EFD10322CE
:10AB440000E00022C0F340101B0243EA005300203F
:10AB540043EA053343EA0243220102F1804202F54B
:10AB64006042C2F8183523018A7903F1804303F562
:10AB74006043C3F81425C3F810050B4B4A792344EA
:10AB840083F89020BAE70122DCE70222DAE7042204
:10AB9400D8E70522D6E700BFAC0901008D09010002
:10ABA400B8FF0000D009010000800020F7B50D4671
:10ABB4004FF0FF334FF0FF32604802F01FFE6E6823
:10ABC400731EFE2B05D95E4A01215E4804F0DCFAAF
:10ABD40012E000231A465C485C4F26FA03F111F098
:10ABE400010134D017F803C0BCF1000F0CD1584A4E
:10ABF4000121544804F0D1FA6FF015044F4802F0D3
:10AC0400D9FD204603B0F0BD6C7C00EB031E003C74
:10AC140018BF0124DEF81815013221F0807141EAD1
:10AC24000461CEF8181503F15101090140F801C07F
:10AC3400D2B20133082BD0D12B7CA3F10801062911
:10AC440016D8DFE801F0171519150915130003F1DB
:10AC5400510424010151ECE702233B49012AC1F8C4
:10AC6400F0356B7C0AD95BB13A4AADE70323F4E7CC
:10AC7400394ABDE70023F0E70123EEE7082B10D89B
:10AC8400C1F8F4352B6851006BB9EB688B420ED2D6
:10AC9400324A00912B48012104F089FA6FF00B0429
:10ACA400ACE72F4AA4E79B8903FB0111EDE72F468C
:10ACB400A968254B2B4CC3F82C1604F16406C3F881
:10ACC40030260FCF0FC63B68274633600026266622
:10ACD4002B6873B30FCB04F1780585E80F00656624
:10ACE400A4F8886028B3D7E8EF3FC7E8E26F002AEA
:10ACF400F9D11D494FF400400F463146A56F00239A
:10AD0400E5FB0071194A3846FDF722FA0022CDE925
:10AD14000001002304F1080003F064FA4FF0FF324D
:10AD24004FF0FF33124802F069FD00B12066246E33
:10AD340064E70C48FFF7AEFEF0E700BF4080002058
:10AD4400FB090100B8FF000000E0004090800020F3
:10AD5400190A0100580A0100330A0100AD0A010072
:10AD64008A0A0100008000203F420F0040420F0089
:10AD74005080002010B500240D4B0E20C3F8044170
:10AD8400D3F80421C3F81041D3F810211222C3F8D8
:10AD94000423FFF7FFF9224601210E20FFF72AFAC8
:10ADA4000448836C13B9403002F004FD002010BD48
:10ADB40000E000400080002038B52C4BD3F804217B
:10ADC400002A45D00022C3F80421D3F8041101213C
:10ADD400274C9960C3F80025636E25469BB3E36F47
:10ADE400B4F8882033B104F164019847012814D0E1
:10ADF400022823D0B4F88830B4F884209A421DD9AC
:10AE04000133A4F88830194BD3F82C26D3F8341620
:10AE140089B202EB4102C3F82C26A36F23B9BDE823
:10AE240038401348FFF736BED5E8EF3F5A1EC5E851
:10AE3400E12F0029F8D1012BF1DC38BDA36F13B148
:10AE44000C4804F080FEBDE838400B4802F0B2BC68
:10AE5400D3F810110029F0D0C3F81021D3F8102131
:10AE640001229A601A605A60E7E700BF00E00040E0
:10AE7400008000200880002050800020084B70B51E
:10AE8400C31A0D4607499B100446594340220648FD
:10AE940004F083FA2B4601462046BDE8704018476B
:10AEA400948A0020B76DDBB610FD0000402373B513
:10AEB4000B4C0093041B0B460D460A49A410614336
:10AEC4000646094A094804F094FA011E05DA304698
:10AED4002B4602B0BDE87040184702B070BD00BFF9
:10AEE400948A0020B76DDBB661F4000010FD000009
:10AEF4002DE9F8430022012106460520FFF77AF9DF
:10AF0400114801F0A1FB114B984219D101F0ACFB9F
:10AF140000244FF01C090C27DFF8348035694146C2
:10AF240009FB045003F0BAFD002807DB012307FBEB
:10AF340004551C44042CAB67F0D10020BDE8F88311
:10AF44006FF00400FAE700BF8DAF00000000AD0B06
:10AF54000C01010001460C2300224B4370B5084844
:10AF6400C41878331844D4E91C56226704F002FA52
:10AF74002DB132462B46BDE870400248184770BDDB
:10AF8400948A002010FD0000062812D8DFE800F0A3
:10AF9400040F1111110D0B00064B986F10F00700F0
:10AFA40007D1FFF7D7BF0220FBE70320F9E7012011
:10AFB400F7E77047948A002008B54FF02003EFF3B9
:10AFC400118183F31288BFF36F8F114A136843F022
:10AFD40002001060DA0708D481F31188BFF36F8F81
:10AFE400BDE80840012001F057BB0A4BD3F80C24FC
:10AFF400D3F80C34DB07EFD5074804F0BBF981F331
:10B004001188BFF36F8FBDE808400020FFF7A2BF8F
:10B01400348B0020005000400C8B00201FB5002210
:10B024000123CDE902236B46084ACDF800D0CDF8C0
:10B0340004D004F00CFA002805DB4FF4804200230E
:10B04400684602F0DBFB05B05DF804FB97F40000F2
:10B0540010B54FF02003EFF3118483F31288BFF38C
:10B064006F8F074A136823F00201DB07116002D4D3
:10B07400012004F058FB84F31188BFF36F8F10BDD7
:10B08400348B00202DE9F041012207463549D1E8EF
:10B09400EF3FC1E8E02F0028F9D133B932493348F2
:10B0A4004B60CB608A6003F00CFD7B1E012B28D81B
:10B0B400012F06D12E4BD3F81C3403F00303022BCB
:10B0C4001FD004F0E6FB0546E8B92A4B1B78D3B140
:10B0D40002220646264BC3F80823254CDFF8988045
:10B0E400D4F81824D4F81834D20316D503F0030383
:10B0F400022B01D0012F10D175B386F31188BFF351
:10B104006F8FBDE8F0814FF02003EFF3118683F3D6
:10B114001288BFF36F8F0125DFE7C5B13046FFF713
:10B12400F5F8D4F81835DBB2012BD9D1D4F80421C1
:10B13400002AD5D00022C4F80421D4F80421022224
:10B14400C4F818252022C8F88021A360C8E700218C
:10B15400212002F05BFEE4E70222054BC3F804233E
:10B16400CFE700BF908A0020808A0020B08A0020A8
:10B1740000500040AD8C002000E100E008B5074815
:10B1840004F078FB38B10648FFF7FEFA0448FDF7EF
:10B19400C3FD002008BD6FF01200FBE74CFD00006A
:10B1A400A9B100000A2838B50446074D04D1AB689C
:10B1B4000D2128465B689847AB6803485B68E1B299
:10B1C4009847204638BD00BF4CFD0000F0B54068EC
:10B1D40001F01F04057B87B044EA45140569002D7E
:10B1E40063D0B2F5001F00F1100506D121462846B0
:10B1F40004F039FB002007B0F0BD0027B2F5800F42
:10B2040001AE0197776039D1B3F1007F14BF0523F4
:10B2140004238DF804300023CDE904630393836889
:10B2240023FA01F111F001011AD1B2F1A07F17D173
:10B2340004F01F03620903F180032AD0012A3AD1E2
:10B244001E4A52F82330DB070AD40DF103063246B6
:10B254002146284601F090FE194B98421BD00296D5
:10B264002146284603AA01F0E7FC164B98421FD159
:10B2740001222146284601F003FFBBE7B3F1C06F6A
:10B2840005D0B3F1007F14BF01230223C1E70323D8
:10B29400BFE70D4AD5E73146284601F0E5FE094BE4
:10B2A4009842DCD06FF00B00A5E76FF08500A2E7B1
:10B2B4006FF015009FE751F82330FFDE002884402B
:10B2C4000400AD0B0000AD0B0025844038B5456883
:10B2D4002B69B3B11035284601F0ACFE044680B9A1
:10B2E4000146284601F066FE084B98420BD12246DF
:10B2F4002846074901F032FE224605212F20FEF799
:10B3040079FF002038BD6FF00400FBE70000AD0BAF
:10B3140019B300004209034670B502D0012A17D0C0
:10B3240070BD0D4E326951680029F9D0012503F032
:10B334001F030C689D400029F2D08A682A4002D07D
:10B3440030464B6898472CB1236821461C46F2E7E7
:10B35400024EE7E72346F8E738FD000024FD00002D
:10B364002DE9F04340F206354668D00648BF032075
:10B37400337B02EA050558BFC2F3401087B001F0E1
:10B384001F07B5F5837F144647EA43178DF803007A
:10B3940043D00FD8062D18D007D8B5B1022D3ED012
:10B3A4006FF0150007B0BDE8F083B5F5807FF7D1E5
:10B3B40001250AE040F20222954232D0B5F5407FE1
:10B3C40031D0B5F5007FEBD1022522032DD5012321
:10B3D40072688B409360326982BB07F01F037F0958
:10B3E4002AD0012F77D13E4A02EB830284F48033C2
:10B3F400D2F80012C3F30043C4F3404444EA4304C4
:10B4040021F4706144EA800421F00F0144EA052329
:10B414000B43C2F800320020C4E70725D5E7042512
:10B42400D3E70525D1E70325CFE7630341BF012314
:10B4340072688B40D360CEE72A4AD5E71036394686
:10B4440030460DF1020201F097FD14F4403F8046AE
:10B454000CD13946304604F004FA234B9845DAD12E
:10B4640030469DF8021001F0F3FDD4E74FF00009D7
:10B4740001AB3946304603AACDE90439CDE9019937
:10B48400CDF80C9001F0D8FB174B984288D114F4F6
:10B49400003315D09DF8033084F48034C4F30044A1
:10B4A4008DF80E3039464B46304603AA8DF80C50C1
:10B4B4008DF80D4001F0B6FC0B4B9842CDD06FE7F0
:10B4C400CDE9043339460DF10303304603AA03934F
:10B4D40001F0B2FBF0E7803352F82330FFDE00BF07
:10B4E40000288440002584400000AD0B10B50446BC
:10B4F4000269A2B0C2F880001F49002001F018FEC2
:10B50400002201212A20FEF775FE646884220021AE
:10B5140001A804F0A4FB6368B3F5803F04D30221BF
:10B52400164A174803F030FE2368B3F5803F04D36E
:10B534000221144A124803F027FE0023012021931C
:10B5440001AA61680432D940C90744BF00FA03F173
:10B5540042F8041C2168D940C90748BF00FA03F126
:10B5640003F1010348BFD163102BEAD101A801F014
:10B57400F7FD002022B010BD65B600003C0B0100B1
:10B58400F0FF0000680B010038B50F290C4605696F
:10B594003CD843681B68CB40DB0737D5D5F88430EB
:10B5A400CB4003F001031AB9EBB96FF077002CE03C
:10B5B400002BFAD155F8213023B90221154A164837
:10B5C40003F0E2FDD5F8843013B92A20FEF7E2FD3A
:10B5D4000122D5F88430A2401343C5F88430E0B288
:10B5E40001F0DEFD0AE0C8B201F0E2FD0122D5F867
:10B5F4008430A24023EA0203C5F88430D5F88430AD
:10B6040013B92A20FEF7D4FD002038BD6FF01500D1
:10B61400FBE700BF940B0100F0FF000038B50546BE
:10B624000C4622B102210C4A0C4803F0ADFD0F2C4C
:10B634000ED86B685B68E340DB0709D50123002063
:10B64400A400E4B204F1804404F52834236038BD36
:10B654006FF01500FBE700BFC40B0100F0FF000012
:10B6640070B5D1F880600F2804460D46736803D87E
:10B674001B68C340DA0704D402210E4A0E4803F0C3
:10B6840083FDD5F88430E340DB0704D402210B4A60
:10B69400094803F079FD05EB840255F824503DB1C7
:10B6A40021463046AC46BDE870400023126C60472A
:10B6B40070BD00BFDF0B0100F0FF0000FB0B0100B9
:10B6C400036803F01F025B09026004D0012B0348E6
:10B6D40018BF002070470248704700BF002884400C
:10B6E400002584402DE9F04F15468246DFF88C8111
:10B6F400DFF88C9185B000EB8101514503D1002026
:10B7040005B0BDE8F08FDAF80030C3F34322082A0D
:10B7140003F07F0400F2AC807F2C4FEA134308BF90
:10B724004FF0FF3418F80270222B00F2A480DFE8F7
:10B7340003F012191F22252B22A2A2A2A23B67A268
:10B74400A2A2A2A2A2A2A2A26A7F8285A2A2A28887
:10B75400909396999C00C5F80C45601C5DD10AF144
:10B76400040ACAE7C5F81445621CF8D000265DE057
:10B77400C5F80845F1E7C5F81045F5E7631CC5F8B9
:10B784000845ECD0002604E0661CC5F80C45E6D05C
:10B7940001264FF0010B03A80394FFF791FF039BCD
:10B7A4000BFA03F3C36008E0C5F80845002FDBD1AA
:10B7B400631CD4D000260627B346DAF8003003A869
:10B7C40003F40052002A1CBF01264FF0000B019322
:10B7D4000394FFF775FF039A019B00EB8200D0F8F6
:10B7E4000022C3F3C1143B0243EA840343EA0B037C
:10B7F40002EA0902134343EA4603C0F80032AEE703
:10B80400C5F80C45D2E7C5F86045601CDAF800308D
:10B81400A5D0C3F38033002BBAD0012603A8039428
:10B82400FFF74EFF039B06FA03F38360B346C4E7B6
:10B83400C5F86445E9E7C5F86845E6E7C5F86C4529
:10B84400E3E7C5F82445621C89D001264FF0000BBC
:10B85400B3E7C5F8284580E7C5F83045F3E7C5F8F0
:10B864003445F0E7C5F83845EDE7C5F83C4574E7DD
:10B874006FF0150044E76FF0850041E7310C0100DB
:10B88400F0F0FCFF2DE9F74306464FF000080022D4
:10B8940001210820FEF7AEFC0820FEF77BFC776848
:10B8A40035693C684146C4F800852E60D7F80C9091
:10B8B40001AA484603F04FFE00283FDB019BD9F85C
:10B8C400002019791868FFF70DFF002836DB6B7A22
:10B8D400D6F810C0012B03D0032B2DD14FF0100844
:10B8E400AB7A032B28D195F80BE0BEF1000F02D000
:10B8F400BEF1010F20D1297A012922D0022924D0B6
:10B90400D1B90A466B687068B3F5164F006800F049
:10B91400898037D8B3F5165F00F087801FD8B3F558
:10B92400966F00F0848012D8B3F5967F00F0828081
:10B93400B3F5167F00F081806FF0850003B0BDE899
:10B94400F0834FF480720E21DCE70022FBE7B3F5AD
:10B95400166F75D0B3F5965FEED15E4B3EE0B3F54E
:10B96400E14F70D007D8B3F5615F6ED0B3F5964F51
:10B97400E2D1594B32E047F612294B45DCD14FF462
:10B9840000032BE0B3F5613F61D013D8B3F5963FC4
:10B9940060D009D84DF6C0294B455DD0B3F5614F51
:10B9A400CAD14FF46B0319E0B3F5E13FC4D14FF0B2
:10B9B400EB7313E0B3F5612F51D009D8DFF81C9174
:10B9C4004B454FD0B3F5E12FB6D14FF0E86305E016
:10B9D400DFF80C914B45AFD14FF08053C0F82435BC
:10B9E400736848EA01081B6842EA0E0242EA080248
:10B9F400C3F86C250CF10403D5E9010183E80300C5
:10BA04007B6899073DD505F1180000F007FF354B19
:10BA140098422AD034480121344A03F0B5FB6FF030
:10BA240004008BE74FF41D03D8E7314BD6E74FF4FE
:10BA34009E23D3E74FF4A033D0E74FF41C33CDE774
:10BA44004FF41D23CAE72B4BC8E72B4BC6E74FF037
:10BA54006C73C3E7294BC1E74FF46503BEE74FF0AE
:10BA64007063BBE74FF08063B8E7287E04F10C02F3
:10BA740004F5907103F046FE01202B7E984000F0FF
:10BA84002BFD0823C4F800353B7A53B9C4F81031B0
:10BA9400D4F810316B69C4F834350123C4F838354F
:10BAA40023607B6800209A075CBF4FF48073C4F85E
:10BAB40004337B68DB0644BF4FF48003C4F80433CB
:10BAC4002B69C4F844350123C4F84805A360E36036
:10BAD40034E700BF00B0130000A04E0090D0030074
:10BAE40040420F000000AD0B180001003A0C0100A9
:10BAF4000050270000C0750000F03A0000903A01A1
:10BB0400F8B504460D46076903F0C3FEB0B92E4BE1
:10BB14001B789BB16426606803F04BFD00BB0120D9
:10BB240003F0E4FD013EF6D10021212002F06EF97C
:10BB3400F0E786F31188BFF36F8FF5E74FF020032A
:10BB4400EFF3118683F31288BFF36F8F6068314679
:10BB540003F02FFD90B986F31188BFF36F8FEDE7E3
:10BB64004FF02003EFF3118683F31288BFF36F8F36
:10BB74006068314603F01DFD0028DAD03B691D7072
:10BB8400626838691368C3F844050120C3F848059E
:10BB94000020C3F82001D3F82051C3F8580152689B
:10BBA400D3F85801D20608D5082062681268C2F892
:10BBB40000054FF48002C3F8042301229A6081F344
:10BBC4001188BFF36F8FF8BDAD8C00200123834033
:10BBD40070B5DC430B4AD2E8EF1F01EA0405C2E862
:10BBE400E65F002EF7D14FF4803282400648C0F859
:10BBF4000823BFF35F8FBFF36F8F0B4214BF012085
:10BC0400002070BDE08B00200050014070B40E494C
:10BC140022F07F46D1E90034D01AC31844F100045D
:10BC2400C1E90034A6F50013B3F5400F09D2074B60
:10BC34001B681A0A1B069C19054B42F10005C3E94F
:10BC4400004570BC02F0D8B940870020E48B002086
:10BC540048870020D9B101230D4A8340D2E8EFCFB1
:10BC64004CEA030CC2E8E1CF0029F7D14FF480334A
:10BC7400084A8340C2F80433074BD3E8AF3FC340BC
:10BC8400DB0742BF4FF40012044BC3F80021704796
:10BC9400E08B002000500140D88B002000E100E040
:10BCA400C3B202489B001844704700BF4051014092
:10BCB400024B00F5A87053F8200070470050014073
:10BCC4000D4B1868010A0006BFF35F8F0B4BD3F8C6
:10BCD4000435181841F10001B3F5801F0AD2084B4E
:10BCE400D3E90023904271EB030303D210F1807077
:10BCF40041F10001704700BFE48B00200050014077
:10BD0400488700202DE9F04F85B016461F460446AB
:10BD14009DF840A0FFF75AFF0190FFF7D1FFB04212
:10BD240071EB070352D23B4B301A67EB0101984287
:10BD340071F100014DD2384B03EB0413D3E9022314
:10BD44009F4208BF964258D04FF48038334908FACE
:10BD540004F8204626F07F4BC1F8488303F072FCB8
:10BD64004FF00309584604F15005AD00ADB205F19A
:10BD7400804504F5A87305F5A8350293029A20F0CE
:10BD84007F4341F82230C1F84483D1F80435244A72
:10BD9400C01A033820F07F4090422ED9286868B139
:10BDA400D1F80435A3EB0B0020F07F40B0F5000F71
:10BDB400039322D9204603F045FC039BBAF1000FFC
:10BDC40007D109EB030009F10109D7E7BAF1000F24
:10BDD40009D06FF0150520460199FFF73BFF28466F
:10BDE40005B0BDE8F08F01230E4AA340D2E8EF0F5F
:10BDF4001843C2E8E10F0029F8D107490E9823013E
:10BE0400C8500F9B01EB04120025C2E9026753607E
:10BE1400E1E700BF010080002087002000500140BE
:10BE2400FDFF7F00D88B00207FB500254FF0FF3049
:10BE34004FF0FF314FF480321C4C1D4B0226C4F8E6
:10BE44000833C4F848331B4BC4F80855C3E902014E
:10BE5400C4F80423C3E906014FF400334FF400127D
:10BE6400C4F80433144B0121C4F804631520C3F847
:10BE740080212A46FEF7BEF91520FEF78BF901232F
:10BE84000322A36023600D4B28461A600C4B0D4A15
:10BE94001E600D4BCDE9015500930023FFF732FFDF
:10BEA4003046FFF7EFF8284604B070BD005001405B
:10BEB40003000F002087002000E100E0E08B002059
:10BEC400DC8B0020FFFF7F0011BC00002DE9F04F48
:10BED400394B85B0D3F8042392070BD5D3F804214A
:10BEE40042B10022C3F80421344AD3F80431136860
:10BEF40001331360324D0024A8464FF480362E4F90
:10BF0400D7F8043306FA04F919EA030F2ED00123F3
:10BF1400A340DB432B49D1E8EF2F02EA0300C1E839
:10BF2400EC0FBCF1000FF6D122FA04F3DB0703D4C3
:10BF3400254B53F82430CBB1204603F083FBFFF7A5
:10BF4400BFFE4FF02002EFF3118382F31288BFF398
:10BF54006F8F08EB041CDCE902AB504571EB0B015D
:10BF640002930AD283F31188BFF36F8F103514B193
:10BF740005B0BDE8F08F0124C2E70020D5E9001325
:10BF84004FF0FF3203934FF0FF3328600A48CCE9A7
:10BF94000223C0F84893204603F054FB029B83F32A
:10BFA4001188BFF36F8F0029E0D0039B52460093A2
:10BFB4005B468847DAE700BF00500140E48B00206D
:10BFC40020870020D88B00204051014070B5012407
:10BFD4000C4B186890B1B0FA80F0C0F11F0004FA5D
:10BFE40000F1C943D3E8EF2F02EA0105C3E8E65F95
:10BFF400002EF7D1C240D207EBD570BD6FF00B0015
:10C00400FBE700BFDC8B00200123054A8340D2E814
:10C01400EF0F1843C2E8E10F0029F8D1704700BFC1
:10C02400DC8B002030B5431C124C85B005D0844213
:10C03400A8BF0446012CB8BF0124FFF741FE0E4BF4
:10C044000C4DD3E90013401AB0F5000F0FD222189B
:10C05400AA4228BF2A46002052180849CDE9010007
:10C06400009143F10003FFF74DFE05B030BD2A46B1
:10C07400F1E700BFFFFF7F004087002011BC0000F4
:10C0840008B5FFF71DFE024B1B68C01A08BD00BFB0
:10C094004087002008B5FDF717F904480121044A38
:10C0A40003F072F80020FDF7B5FF00BFD0FF0000D9
:10C0B400730C010010B50749074803F0ECFA044675
:10C0C40028B101210346054A054803F066F82046D5
:10C0D40010BD00BF35C30000E88B0020900C0100A8
:10C0E400000001002DE9F041DFF8D4810D46D8F8B5
:10C0F400704000AF072C00F008065BD0132C00F052
:10C10400A080052C40F0B980D8F854806D496E4861
:10C1140003F0BDFA18F4805F41D06C496A4803F01B
:10C12400B6FA172418F4006F04D06949664803F07E
:10C13400AEFA182418F4007F0ED06649624803F062
:10C14400A6FA654B18F4004F9B6B04D00121634A97
:10C154005D4803F022F8192418F4806F04D0604974
:10C16400594803F094FA1A2418F4807F19D05D49D1
:10C17400554803F08CFA1B24EB69002E40F09B8099
:10C18400C3F3080222B96FEA53236FEA4323EB6136
:10C1940029462046FDF74AFCBD46BDE8F081162439
:10C1A400C0E718F4005FE7D04F49474803F06FFA3F
:10C1B4001C24E1E7D8F85C4043484C4903F067FA93
:10C1C400600606D5D8F868300121494A3E4802F095
:10C1D400E4FFE10705D547493B4803F058FA262414
:10C1E400CAE7A20705D54449374803F050FA272483
:10C1F400C2E7630705D54149334803F048FA2824C8
:10C20400BAE7200705D53E492F4803F040FA292410
:10C21400B2E7E10605D53B492B4803F038FA2A2456
:10C22400AAE7A20605D53849274803F030FA2B249B
:10C23400A2E723063DD53549234803F028FA2C24E8
:10C244009AE7D8F86C8032491F4803F020FA18F0B6
:10C25400020F03D02F491C4803F019FA18F0010FFC
:10C2640003D02D49184803F012FA18F0040F83D0B4
:10C274002A49154803F00BFA7EE7294A294BE84678
:10C284008AB00F2CC8BF13466A462749103CC2E93E
:10C2940005134FF400731384244BD46142F8103F08
:10C2A40000234FF411510848FDF7F2F80024C54665
:10C2B40062E7252460E723F4FF7323F0010366E7B4
:10C2C400E88B0020FE0601000000010014070100B5
:10C2D400780501002507010000ED00E03E0701009C
:10C2E400530701006E070100D8050100CA0C0100C4
:10C2F400E30C0100F30C0100090D0100270D0100FE
:10C30400420D01005F0D0100740D01008E0D01004E
:10C31400A10D0100BB0D0100EB0D0100190E010080
:10C324009B070100860701007C080100040000014E
:10C3340000B5104B89B05A6AD86C00929A6A20F002
:10C3440005000192DA6A694602921A6B03925A6BEB
:10C3540004929A6B0592DA6B06921A6C1B6D079223
:10C364009B0748BF40F00400FFF7BCFE09B05DF82E
:10C3740004FB00BFE88B00202DE9F0411F46164B5B
:10C38400044693F800800D461646A2B0B8F1000F9B
:10C3940015D1684602F08DFF3A4631462846289B5F
:10C3A400A0470446684602F085FFB8F1000F02D0AA
:10C3B4000A4801F049F9204622B0BDE8F0814FF067
:10C3C400FF324FF0FF33054801F07AF90028E0D03E
:10C3D4006FF08304EFE700BFAD8C00203C820020A7
:10C3E400002300B589B0CDE9063303AB04930423DD
:10C3F40003900593A9B10B6806934B680793022336
:10C40400111E18BF01210848CDE9002140F2F53181
:10C4140004AA00F00BF80028B8BF012009B05DF8A9
:10C4240004FB0123ECE700BF0501004010B4B1F5A3
:10C43400004F029C0ED2042B0CD8042C0AD82404DE
:10C4440044EA0364134644EA0102014610BC03486B
:10C45400FFF792BF6FF0800010BC7047217C000092
:10C4640030B50468ACB1B4FA84F30122C3F11F03FC
:10C47400DBB29A4024EA0202D0E8EF5FA54204D17D
:10C48400C0E8EC2FBCF1000FF6D1EAD102480B70E2
:10C4940030BD0248FCE700BF0000AD0B0200AD0B4D
:10C4A40010B50368CB40DB0710D401238B4002682E
:10C4B40043EA0201D0E8EF4F944204D1C0E8EC1FF4
:10C4C400BCF1000FF6D1F2D1014810BD0148FCE7E0
:10C4D4000000AD0B0400AD0B014BC3F8040570471D
:10C4E40000700140014BC3F808057047007001401B
:10C4F40073B5032858D8DFE800F00217243102226C
:10C50400504BC3F808230122DA600022C3F8042147
:10C51400D3F80431002401238DF80730032843D8CD
:10C52400DFE800F02944607C0122464B0DF107044A
:10C53400C3F808235A600022C3F80021D3F800315D
:10C54400E9E74FF400723F4BC3F8082301225A6213
:10C554000022C3F82421D3F82431DBE74FF480729E
:10C56400384BC3F808230122DA610022C3F82021E2
:10C57400D3F82031CEE742F21075324ED6F8183493
:10C5840003F4803334B97BB1012003F0AFF8013DEB
:10C59400F4D109E0D6F8182402F0030222701BB18A
:10C5A4009DF807000128F0D002B070BD42F210756A
:10C5B400244ED6F80C3403F480333CB9002BF3D06A
:10C5C400012003F093F8013DF3D1EDE7D6F80C24F4
:10C5D40002F001022270002BE6D09DF8070001282A
:10C5E400EFD0E1E742F21075164ED6F85C3403F44E
:10C5F40080333CB9002BD7D0012003F077F8013DFC
:10C60400F3D1D1E7D6F85C2402F001022270002BAA
:10C61400CAD09DF807000128EFD0C5E742F2107593
:10C62400084ED6F85434DB03BED52CB9012003F0F0
:10C634005DF8013DF5D1B7E79DF807000128F6D074
:10C64400B2E700BF00500040044B1A7922B901221E
:10C6540018601A7102487047024870475C8C0020C9
:10C664000000AD0B0C00AD0B08B5094B1B6833B1D2
:10C674000520FDF7B1FD10B90520FDF78BFD012262
:10C68400044BC3F81825C3F81425C3F8802508BD46
:10C694005C8C00200050004010B5032846D8DFE829
:10C6A40000F01B02565000224FF480730121002039
:10C6B40003F1804303F5A04318601C68012402F1D0
:10C6C400804202F5A0421460274A1268002A44D02E
:10C6D400264BC3F8041329E0244BD3F81814D3F8D9
:10C6E4001824C90311D502F00303022B05D0012B32
:10C6F40002D00020FFF7FCFE01231C4A0221C2F8ED
:10C70400183508224FF48273D1E7D3F81424D207E2
:10C71400F2D5D3F81C2402F00302013A012AE8D826
:10C72400114A12681AB10222C3F8042310BDD3F8C7
:10C734000421002AFBD00022C3F80421D3F80431D9
:10C74400F4E718224FF490734FF48071AFE720227E
:10C754004FF492734FF40071A9E71A68002AFCD0D1
:10C7640018601B68E2E700BF5C8C002000500040AA
:10C7740010B5284BD3F8002152B10020C3F80001B2
:10C78400D3F800210122C3F80823234B1B689847E0
:10C79400204BD3F8042182B10022C3F80421D3F83A
:10C7A4000421D3F81824D3F81824022102F0030238
:10C7B400012A26D1C3F818159A60164BD3F8202104
:10C7C40062B10022C3F82021D3F820214FF48072F3
:10C7D400C3F80823104B05201B6898470D4BD3F86A
:10C7E4002421AAB10022C3F82421D3F824214FF430
:10C7F4000072C3F80823084B0620BDE810401B68EC
:10C804001847C3F80813044B01201B689847D4E762
:10C8140010BD00BF005000405C8C00200146014860
:10C82400FFF71EBEE08000200123044A8340014636
:10C83400C2F808350248FFF733BE00BF007001405C
:10C84400E0800020036803F01F025B09026004D04B
:10C85400012B034818BF002070470248704700BFEF
:10C864000028844000258440034A4309D35C00F037
:10C874001F001844C0B270474D0E010070B5054644
:10C884000846FFF7F1FF42212A79174B01FB020208
:10C89400083233F81200C10525D584240026C0F3DC
:10C8A400432120F4F85023F812002A7904FB0234BF
:10C8B4000E3434F8020F10F4807F03D0C0F3432009
:10C8C400814210D00136302EF3D18420002442431B
:10C8D40002EBC1029C502A79BDE8704000FB023093
:10C8E4007830FFF7DDBD70BDE4800020034611F011
:10C8F400010010B5CCB20BD1A207C4F340000DD592
:10C90400074A106A58601062003818BF012005E019
:10C9140004490A6A1A600A62002AEDD010BD00BFF9
:10C92400002884400025844010B504460846FFF7DB
:10C934009BFF422303FB0400024B083033F8100032
:10C94400400B10BDE480002010B504460846FFF7F4
:10C954008BFF422303FB0400034B083033F8100021
:10C96400C0F3400010BD00BFE480002010B50446B1
:10C974000846FFF779FF422303FB0400034B08300A
:10C9840033F81000C0F3401010BD00BFE480002055
:10C99400F0B5054600200126044607468C420BD11B
:10C9A400114BD3F87C2132B10022C3F87C21D3F897
:10C9B4007C3140F00040F0BDE3B29B0003F580728F
:10C9C4009B0806FA03F31D420BD002F1804202F5E4
:10C9D4003C32D2F800C0BCF1000F02D017601268DC
:10C9E40018430134DAE700BF00F002402DE9F04FAC
:10C9F4000546644B296FD3F8040387B0C0B240F0F6
:10CA04000040FFF7C5FF061E2CDA0023E96F04A8D7
:10CA1400CDE90433FFF76AFFDFF86CA1DFF86CB1EE
:10CA24000DF110091AF8013B05EBD30292F87C20B2
:10CA340003F0070322FA03F3DA0769D4544B09F12C
:10CA4400040953450BF1010BECD1296F4FF0004061
:10CA5400FFF79EFFE96F04A8FFF748FF0028DBD12A
:10CA640026F000460124002E73D107B0BDE8F08FF4
:10CA740091FAA1F1B1FA81F19BF8004041EA441422
:10CA84002046FFF7F1FE083035F81080C8084FEA59
:10CA940098030193012319F8002001F0070103FA18
:10CAA40001F122EA010209F8002003A80394FFF728
:10CAB400C9FE039A019B803250F82220C8F38207F2
:10CAC4005B07B846C2F3014227D52846D7B22146B0
:10CAD400424602F082FE03A80394FFF7B3FE039BD1
:10CAE400803350F82330C3F301439F4207D1002120
:10CAF400204602F063FE3946204602F05FFE03A89A
:10CB04000394FFF79FFE0122039B02FA03F30362DF
:10CB1400D9F800100029ABD190E7022A0DD10321E6
:10CB2400204602F04BFE07F00503012BE7D14246F5
:10CB34002146284602F051FEE1E7022120460192F7
:10CB440002F03CFE032FF2D0019A032AD7D1022F20
:10CB5400ECE796FAA6F3B3FA83F304FA03F29B0024
:10CB640003F1804303F53C33D3F8101526EA02069B
:10CB7400D3F810252846C2F30142C1F3052102F07F
:10CB84002CFE70E700F002405D0E01005D0E010016
:10CB94005F0E01002DE9F74305460846FFF764FEE2
:10CBA40042222B79204F02FB0303083337F813305A
:10CBB4000E46DB07044635D5284602F02DFE95F8CF
:10CBC400049031464846FFF7D1FE60B14846FFF76E
:10CBD400ABFE0022D5F8008000B208EB8003C3F856
:10CBE4001025C3F8102528463146FFF747FE422298
:10CBF4002B7901A802FB03440023083427F81430DE
:10CC04000196FFF71FFE019B00EB8300D0F8002282
:10CC1400064B134043F00203C0F80032044803B04B
:10CC2400BDE8F0830348FAE7E4800020F0F0FCFF5D
:10CC34000000AD0B0400AD0B2DE9FF471746044679
:10CC44000846FFF711FE3E688846054676B394F819
:10CC540004904846FFF778FE18B14846FFF786FE71
:10CC6400A0BB00234046CDE900338DF80E308DF88B
:10CC74000F300DF10F0233460DF10E0102F055FD98
:10CC840042202379644A00FB0353083332F813101B
:10CC940021F0020122F81310237900FB0353083317
:10CCA40032F8131041F0010122F813107B68002BB5
:10CCB40045D026794146304693F80090D3F804A035
:10CCC400FFF742FE20B1BAF1000F22D0534839E0F9
:10CCD4004FF0420C0CFB06564F49083631F816301B
:10CCE40023F4604323F0200321F81630BAF1000F37
:10CCF4000FD0B9F1030FE9D87B6826685B68187810
:10CD040006EB8006B9F1000F1FD1C6F81095C6F8DE
:10CD1400109542202379404A00FB0353083332F82C
:10CD2400131021F01C0122F81310237900FB035384
:10CD3400083332F8131041EA890122F81310BB6852
:10CD440063BB374804B0BDE8F087D6F8102522F05D
:10CD54000302C6F81025226802EB8003D3F81025DD
:10CD640022F44F3222F44072C3F810254FEA08220D
:10CD7400D3F8106502F47C5242EA09423243C3F804
:10CD8400102523790CFB0353083331F8132042EAAE
:10CD9400403242F0200221F81320BAE74146D3E999
:10CDA40000972046FFF76AFDB9F1000FC9D084232C
:10CDB4002079194E4343F218F358994504D1536826
:10CDC4009F4201D100210CE0842303FB00600DF19C
:10CDD4000F017830FFF744FB114B9842B2D19DF814
:10CDE4000F1084222379534303EBC10346F80390C5
:10CDF40023795343422203EBC10333445F60237915
:10CE040002FB0353083336F8132042EA412242F46A
:10CE1400807226F8132094E7E48000200400AD0B10
:10CE24000000AD0B2DE9FF470646084690461F4615
:10CE3400FFF71AFD0C460546B8F1000F33D096F8FB
:10CE440004904846FFF780FD18B94846FFF78EFD69
:10CE540080BB422303FB0959DFF8F4A009F1080958
:10CE64003AF8193013F01C0F03D098F80130012B55
:10CE740020D001238DF80F30002308F10102CDE901
:10CE84000083204608F102030DF10F0102F04DFC6E
:10CE94004222337902FB035308333AF8132042F059
:10CEA40003022AF81320002F50D021463079FFF7CF
:10CEB4004BFD18B9274804B0BDE8F08700214FF0B6
:10CEC400420E38783368820003EB8003C3F81015F0
:10CED400C3F8101533791E490EFB0353083331F898
:10CEE40013C02CF4604C2CF0200C21F813C097F8DC
:10CEF40001C0BCF1000F29D03368BF781A44D2F8BE
:10CF040010354FEA0C4C23F4991323F4F853C2F868
:10CF14001035230203F47C530CF4403C3F05D2F853
:10CF2400108543EA0C0307F480173B4343EA0803E4
:10CF3400C2F8103533790EFB0355083531F8153036
:10CF440043EA403343F0200321F815300248B2E7A6
:10CF5400E48000200400AD0B0000AD0B30B5842547
:10CF64000479044B05FB0434A160017905FB01330A
:10CF7400DA6030BDE480002070B50679144630468E
:10CF8400FFF7F4FC68B10846FFF76EFC422303FB8D
:10CF94000600054B083033F8103004485B0B23704F
:10CFA40070BD0348FCE700BFE48000200000AD0B27
:10CFB4000400AD0B2DE9F0410646077984201A4D93
:10CFC40000FB075898F8804064BB40462146602225
:10CFD400103002F044FE21463668D8F870008842CA
:10CFE40016D1002346F30730C6F87C31D6F87C31DD
:10CFF400FDF7D0F84FF00043C6F80433842303FB55
:10D0040007550123094885F88030AB67BDE8F081F6
:10D01400CBB29B0003F580727C2B04BFB450B35891
:10D024000131DCE70248F1E7E48000200000AD0BA9
:10D034000C00AD0B84210279044B01FB023393F8FD
:10D044008000003818BF0120704700BFE480002032
:10D0540084237422007913FB002302481844FFF749
:10D064001FBA00BFE480002084237422007913FBDC
:10D07400002302481844FFF7F3B900BFE4800020FE
:10D084002DE9F3410679044630460D461746FFF76D
:10D094006DFC08B33046FFF757FC8046E0B93046D4
:10D0A400FFF742FC05B22168AD0005F5807241F836
:10D0B40002808A5821682944D1F8102542F00102DF
:10D0C400C1F810252FB10122216802FA00F3C1F83A
:10D0D400043302B0BDE8F0812846FFF7C5FB4223C4
:10D0E40003FB06000E4B083033F81030C3F3820301
:10D0F400042B11D0052B11D001A80195FFF7A2FB39
:10D10400019B0169D94001F001010231284602B0B6
:10D11400BDE8F04102F052BB0321F7E70221F5E735
:10D12400E48000200148FFF761BC00BF6881002053
:10D1340070B5084C0E462379154643B92A20FDF7ED
:10D1440029F80123044823712660A56070BD0348B3
:10D15400FCE700BF648C00200000AD0B0C00AD0B9D
:10D16400002330B50D4A50F8234003F5A271013372
:10D17400102B42F82140F6D10023084A00F13C016B
:10D1840003F5B27451F8045F0133102B42F82450B4
:10D19400F6D1D0F88030C2F8043330BD00A002408C
:10D1A4000123024A8340C2F80433704700A00240BE
:10D1B4000123024A8340C2F80833704700A00240AA
:10D1C400F8B5012600270B4B0B4DD3F80C4304B9DB
:10D1D400F8BD94FAA4F0B0FA80F006FA00F324EA59
:10D1E4000304064B82009F502B68002BEFD0A968E4
:10D1F4009847ECE700A00240648C002000A10240A4
:10D204002DE9F84304460D4600AF4FF02003EFF339
:10D21400118883F31288BFF36F8F0428294A98BFBB
:10D22400294BE9468AB09668117C98BF53F82030A0
:10D234006A4688BF254BC2E9073140F201332448CE
:10D244009384244BC2E9050442F8103F00234FF4B1
:10D2540031512148FCF71CF9CD4645B1EB69C3F3C4
:10D26400080323B101211D4A1B4801F08DFF2EB193
:10D27400304602F017FB08B1037803B91848E946B1
:10D284008AB06A46174BD061C2E9053640F20133D1
:10D294001384154B42F8103F00234FF411510E48EC
:10D2A400FCF7F6F82946CD462046FEF7F3FE88F350
:10D2B4001188BFF36F8F3046FCF7F6FEBD46BDE81C
:10D2C400F88300BF748C00200C0201005F0E010083
:10D2D400750E010005000001000001009D0E010013
:10D2E4006D0E0100BE0E010004000001104B70B56C
:10D2F40053F82040013053F82060A64200D870BD96
:10D30400D4E9003595B153B12846984738B100287F
:10D31400B8BF4042FF28A8BFFF20EB681870EA6836
:10D32400537843F0010353700834E6E79847FBE76A
:10D3340020020100012208B5094B03201A70FFF7EF
:10D34400D5FF00F089FF0420FFF7D0FF00F030F98B
:10D35400FBF76EF8034A137B23F00103137308BD34
:10D36400AD8C0020D087002008B50348034A002173
:10D37400121A02F08AFA08BD60820020B08C0020E4
:10D384000023012270B586B0CDE904230F22019356
:10D39400CDE9023214234FF4A0720446114D124E0B
:10D3A40003FB0055114906EBC01602FB0011104B9C
:10D3B4003046009500F092F8737B2C7423F004033C
:10D3C40073730C4B013403EBC4236B600A4BEE60A4
:10D3D400D3E8EF1F0131C3E8E21F002AF8D106B0F9
:10D3E40070BD00BF748C002050870020B0970020CF
:10D3F400ADF80000B08F0020708C002080B50020B4
:10D40400A6B0FFF773FF2E4B03F5006282F3088882
:10D4140083F30A880024E0232A4D2B4E85F822301A
:10D42400EC772C766C76AC7685F820406B6A274FC7
:10D4340043F4E0236B6285F82340FCF7A5FDFCF779
:10D4440043FF4FF0FF33AB62EB62FDF711F9FCF7DA
:10D4540097FFFBF7A9FE40F20113ADF8243006ABA9
:10D46400B360CDE91E44219402F003FA0120FFF7D2
:10D474003DFF0220164DFFF739FF00F03DFC154B30
:10D4840075610593012314494FF48062CDE9034388
:10D4940028463B46CDE90144009400F01FF80646B7
:10D4A4006A7B284622F004026A7302F057FA204687
:10D4B400FFF766FF3A4631462846FCF7EBFE00BF0D
:10D4C400B08F002000ED00E0748C002039D3000000
:10D4D400D0870020200F0100F09800202DE9F043B0
:10D4E400984685B000F15803C0E91633109B002616
:10D4F40003730423073222F0070543730F9B01EBE8
:10D5040005090F4683734946C0E906668660C673FB
:10D514000446FCF7DFFA0E9B073020F00700A066F4
:10D52400C4E9187502930D9BA9EB000901930C9BA8
:10D534004A460093394643462046FCF78DFE054B88
:10D5440066659B6803B1DB6E4846E36605B0BDE8DB
:10D55400F08300BF748C0020F0B5002587B00595DA
:10D56400109DDDE9127604950F9D044603950E9DEA
:10D5740002950D9D01950C9D0095FFF7AFFFB6F147
:10D58400FF3F08BFB7F1FF3F05D056EA070305D1B7
:10D59400204600F063FB204607B0F0BD3A46334610
:10D5A400024904F1180000F0B1FCF4E71FFA00008E
:10D5B40070B5224C224D86B02646AE4204F13004AA
:10D5C4000AD300F069FB1D4C1E4EAC4220D306B0BA
:10D5D400BDE8704000F074BB54F80C3C059354F85B
:10D5E400103C049354F8143C039354F8183C0293ED
:10D5F40054F81C3C019354F8203C009354E90A234A
:10D6040054E90C01FFF76AFF54F8303C5E65D3E738
:10D61400D4E90A23B3F1FF3F08BFB2F1FF3F05D0BD
:10D6240052EA0301206803D100F018FB3034CCE740
:10D634003146183000F06AFCF8E700BFB0FF000084
:10D64400B0FF00001FFA000038B5836804466BB3CE
:10D65400194A926893422CD1C368012B03D9013B28
:10D66400C360002038BD4FF02003EFF3118583F32E
:10D674001288BFF36F8F0169806802F021F9204698
:10D6840002F0E6F9A06058B190F90E202261002260
:10D69400826702F063F92946084800F0CDFAE0E712
:10D6A400E06085F31188BFF36F8FDAE76FF0150040
:10D6B400D8E74FF0FF30D5E7748C0020AE8C002003
:10D6C4002DE9F341044617461E464FF02003EFF3BD
:10D6D400118883F31288BFF36F8FC368334A7BB119
:10D6E40080689168884219D057EA060318D188F3F4
:10D6F4001188BFF36F8F6FF00F0002B0BDE8F081A7
:10D70400916891F90E100133E36093682161A3607D
:10D7140088F31188BFF36F8F0020EEE72169F2E7E9
:10D7240091F90E1090F90E306FF07E029942A8BF65
:10D7340019469142B8BF11468B422EDD02F0C0F863
:10D74400054622464146CDE90076194800F010FA14
:10D754000028E1D04FF02003EFF3118683F3128801
:10D76400BFF36F8FA068D0B1236821699C420AD0AF
:10D774004BB193F90E309942A8BF19466FF07E035E
:10D784009942B8BF194602F09BF840B131460848A7
:10D7940000F052FA6FF00A00AFE70025D1E7002D40
:10D7A400F4D186F31188BFF36F8FF3E7748C0020F4
:10D7B400AE8C002038B504464FF02003EFF31185FA
:10D7C40083F31288BFF36F8F02F042F948B100224D
:10D7D400826702F0C3F82946BDE83840064800F0E5
:10D7E4002BBAD4E902329A4218BF0133A36085F3FD
:10D7F4001188BFF36F8F38BDAE8C002013B54FF086
:10D804002004EFF3118184F31288BFF36F8F8468CF
:10D8140044B1013C846081F31188BFF36F8F002011
:10D8240002B010BD52EA030406D181F31188BFF39C
:10D834006F8F6FF00F00F3E7CDE900230246024833
:10D8440000F096F9ECE700BFAE8C0020C3897F2B73
:10D8540012D80A4B1B6863B1094B90F90E201B6860
:10D864009A4209DB437BDB0606D1064BC31A18BF79
:10D87400012303F0010070470023FAE79C8C002089
:10D88400988C0020508700200122044BC01A044BBE
:10D89400C0105843034B1A54704700BF50880020EF
:10D8A400ABAAAAAAAE8C002070B50E4B0E4C1E7CFF
:10D8B400054606EB460304EBC304204602F01BF9BD
:10D8C40000220A4B28469A55FFF7C0FF48B1084B7F
:10D8D4002046BDE870401A680649013AD31700F0A3
:10D8E40015BB70BD748C002050880020AE8C0020C5
:10D8F4009C8C00208DD8000038B50D4D2B4653F874
:10D90400184F9C4200D004B9EC68AB6838B95A7B14
:10D91400D20604D1A26912B9DA897F2A05D89C42B9
:10D9240002D02046FFF7C0FF23466B6138BD00BF1D
:10D93400748C002070B590F90D200146002A437BB9
:10D9440004DA03F07F03437301F0CEFF154A4B7BE7
:10D95400104663F07F034B7350F8183FD469834239
:10D9640008BF002323B9C1E900042160D1610CE0A0
:10D9740091F90E5093F90E60B5420ED0AE420CDD13
:10D984005868C1E90030016059609068BDE8704092
:10D99400431A58425841FFF7AFBF9C42E3D01B687B
:10D9A400E0E700BF748C002070B490F90D30427B26
:10D9B400002B29DBD30627D183692BBB134962F0E3
:10D9C4007F0242730A4652F8184F944218BF234606
:10D9D400CC6923B9C0E900242060C8610CE090F947
:10D9E4000E5093F90E60B5420AD0AE4208DD5A6873
:10D9F400C0E9003210605860002070BCFFF77CBFA3
:10DA0400A342E7D01B68E4E770BC7047748C002025
:10DA140008B590F90D200146002A437B04DA03F08F
:10DA24007F03437301F060FF044B9868431A584224
:10DA34005841BDE80840FFF75FBF00BF748C002069
:10DA440070B515461C46064601F060FFB4F1FF3F71
:10DA540008BFB5F1FF3F08D02A46234606F1180057
:10DA64000249BDE8704000F051BA70BD1FFA0000D1
:10DA7400002A2DE9F0410E460CBF10210821437BFA
:10DA8400044619420AD10B43DD0903F09F0211D168
:10DA94004273082914D00120FFF72EFF1B4B9B680B
:10DAA400A3422CD1EFF305834BBB3046BDE8F041D4
:10DAB400FCF710BB03F01F03437301F015FFE8E705
:10DAC400A36813B1204601F017FF04F1180002F017
:10DAD40012F84FF0000804F15807A56DBD42DAD0E2
