:1080000050C20020C5AB000013DA0100B1AB000084
:10801000B1AB0000B1AB0000B1AB0000B1AB0000F0
:1080200000000000000000000000000085AD00001E
:10803000B1AB00000000000015AD0000B1AB0000C6
:108040008DAF00008DAF00008DAF00008DAF000040
:108050008DAF00008DAF00008DAF00008DAF000030
:108060008DAF00008DAF00008DAF00008DAF000020
:108070008DAF00008DAF00008DAF00008DAF000010
:108080008DAF00008DAF00008DAF00008DAF000000
:108090008DAF00008DAF00008DAF00008DAF0000F0
:1080A0008DAF00008DAF00008DAF00008DAF0000E0
:1080B0008DAF00008DAF00008DAF00008DAF0000D0
:1080C0008DAF00008DAF00008DAF00008DAF0000C0
:1080D0008DAF00008DAF00008DAF00008DAF0000B0
:1080E0008DAF00008DAF00008DAF00008DAF0000A0
:1080F0008DAF00008DAF00008DAF00008DAF000090
:108100008DAF00008DAF00008DAF00008DAF00007F
:108110008DAF00008DAF00008DAF00008DAF00006F
:108120008DAF00008DAF00008DAF00008DAF00005F
:108130008DAF00008DAF00008DAF00008DAF00004F
:108140008DAF00008DAF00008DAF00008DAF00003F
:048150008DAF0000EF
:04815400FFFFFFFF2B
:1081580010F8012B11F8013B012A28BF9A42F7D0E9
:10816800D01A7047034611F8012B03F8012B002A97
:10817800F9D17047034613F8012B002AFBD1181ACE
:108188000138704700000000F0B55E4D87B0D5F8A3
:108198006831996811F001011AD140F6034005AA27
:1081A80004F0A0F80446002840F0A9800598C368A8
:1081B8001B785BB905F1D403D3E8AF2F02F00902AD
:1081C800D3E8EF1FC3E8E42F002CF9D10BF04AFDE8
:1081D800002141F2030005AA04F084F804460028AF
:1081E80040F08D80059B484EDA68D2F80100D2F83D
:1081F800051003C618460BF035FD214641F2010073
:1082080005AA04F06FF80446002878D10598C368D9
:108218005A7885F870205A88A5F872201A7985F856
:108228007120B3F80720A5F87420B3F80530A5F835
:1082380076300BF017FD214641F2020005AA04F042
:1082480051F8044600285AD1059FFA68531C413258
:10825800344618685968083303C493422646F7D150
:1082680038460BF0FFFC05F083FD0446002846D194
:1082780095F88A309A060ED45721244814F045FE02
:1082880095F87C305B0645D44521214814F03DFE25
:108298006FF0120433E0072140F6334003F0D8FFB3
:1082A8000646002800F0408107210C300BF0E6FD5F
:1082B800452303700623C0F802408471447004719A
:1082C8002246C370314640F6334004F00BF80446AA
:1082D800A8B9012140F6314003F0BAFF064600284C
:1082E80000F0228101210C3017F09CFB2246314618
:1082F80040F6314003F0F6FF04460028C0D020467F
:1083080007B0F0BD0080002078800020B233020062
:10831800E5330200002142F2030005AA03F0E2FF60
:1083280004460028EBD1059BA54EDA68D2F8010077
:10833800D2F8051003C618460BF094FC214642F209
:10834800020005AA03F0CEFF04460028D7D1059CF9
:10835800E368B3F8012091B249B1D97839B1A5F8E9
:108368000421DA78114606F1280018F0ACFB204603
:108378000BF078FC95F87C6016F0200618D10221E5
:1083880040F66D4003F064FF0446002800F0CC80FE
:1083980002210C300BF072FD012321460370467058
:1083A800324640F66D4003F09DFF04460028A6D1F2
:1083B80095F89C301F0712D5002142F21C0005AA2F
:1083C80003F090FF0446002899D10598C368D3F8B4
:1083D8000120D3F80530C5E938230BF043FC95F8A4
:1083E800D8309E0624D50DF1120104A803F0E0FF51
:1083F8000446002883D1042142F2240003F028FF18
:108408000646002800F0908004210C300BF036FD61
:10841800BDF8103022460380BDF812303146438043
:1084280042F2240003F05EFF044600287FF467AFA1
:1084380095F8D8305C0610D5002142F22A0005AA2A
:1084480003F050FF044600287FF459AF0598C3682D
:108458005B7885F820310BF005FC082142F2010019
:1084680003F0F6FE044600285ED008210C300BF01D
:1084780005FD95F8D81040F2022311F0400F08BF0F
:108488000323024688074CBF43F02C0043F00C003E
:1084980095F8D9308F0648BF40F0400013F0090F17
:1084A80095F8A23018BF40F4006003F00603CE0729
:1084B80048BF40F01000062B08BF40F4C0700021F0
:1084C80015F018FC2146002242F2010003F00AFFD1
:1084D800044600287FF413AF95F87C30B5F80411F2
:1084E800980624D4C9B941F2050005AA03F0FAFE9A
:1084F800044600287FF403AFB5F80431059C4BB956
:10850800E368B3F80120A5F804219A882D4811469C
:1085180018F0D9FA20460BF0A5FB082140F60140D7
:1085280003F096FE044658B96FF06804E7E60029A0
:10853800F3D14521244814F0E8FC6FF00404DEE68A
:1085480008210C300BF09AFC95F8D8300246D90770
:108558002ED44FF000511D4815F0CCFB21460022C7
:1085680040F6014003F0BEFE044600287FF4C7AE83
:10857800014605AA4FF6014003F0B4FE70B3572137
:10858800134814F0C2FC15F02AFD044600287FF4B5
:10859800B6AE06F0FFFC044600287FF4B0AE0D48E6
:1085A800C379002B7AD149210B4814F0AEFCA6E61A
:1085B80001A1D1E90001CFE79088000200800020E6
:1085C800D8800020088100200E34020010880002A4
:1085D800363402000080002028350200059D49211C
:1085E800EC683248B4F80130032B96BF304A314A60
:1085F80052F8232014F089FCB4F80120B4F80330B1
:10860800022A2AD1052B28D82B4A52F8232049219F
:108618002A4814F07AFCD4F8091063790291B4F866
:108628000710032B019198BF254AA17994BF52F8EE
:108638002320204A23480091492114F066FC28464B
:108648000BF010FB00214FF6024005AA03F04AFE8A
:10865800044620B157211C4893E7164AD7E70598E6
:108668001A4DC368B3F80130A5F8C1300BF0FAFA17
:1086780095F8C1305B0786D521464FF6034005AA19
:1086880003F030FE10B1572111487AE70598C36806
:108698005B7885F8C0300BF0E5FA74E70821D43030
:1086A80015F009FB04F074FB29E600BF5F340200F3
:1086B80094190200C53102007C1902007D340200C1
:1086C8006C1902009A340200CC34020000800020A9
:1086D800FA340200012B08B50DD11378032033B109
:1086E80017F068FB054813F071FD012008BD17F06D
:1086F80064FB0348F7E76FF00C00F7E7661F02001A
:108708006F1F0200012B08B50DD11378022033B179
:1087180017F050FB054813F059FD012008BD17F06C
:108728004CFB0348F7E76FF00C00F7E7791F0200EE
:10873800821F020008B5044813F048FDBDE8084050
:10874800012017F03ABB00BF8C1F020070B5064627
:1087580088B030B10146114808B0BDE8704013F048
:1087680035BD0F4D0F4803AC13F030FD14F0FDFB81
:108778000FCD0FC42B680C492360022233460096A4
:1087880003A805F0BDF9014620B1084813F01EFD05
:1087980008B070BD064813F019FDF9E7A61F0200DE
:1087A80010150200C61F0200A4160200DD1F0200F9
:1087B8000320020008B521B1BDE80840054813F0C0
:1087C80005BD054813F002FDBDE80840012017F07B
:1087D800F1BA00BF252002004120020010B5104860
:1087E80013F0F4FC0DF080FB014628B10D4813F09E
:1087F800EDFC4FF0FF3010BD0B4804F02DFB044694
:1088080010B101460948F2E7013404F001010020E3
:108818000DF08AFB00214FF4004012F031FBF3E722
:108828004C2002007220020055870000A61F02009B
:1088380010B5094C0A44914200D110BD11F8013B12
:1088480058400309E35C0001C0B243401809205CAA
:108858001B01DBB25840EEE7B6200200014B1B6853
:10886800184700BF80810020014B1860704700BF87
:108878008081002030B585B004460D4610220021C5
:10888800684618F06DFB02238DF80230044B2A4627
:1088980021466846019313F0C3F905B030BD00BF07
:1088A8006588000080B505460E461746984612F0C2
:1088B80013FB034618F064FB0446DFF818904246A1
:1088C80049F8003039463046A84754F8090002F004
:1088D800EFF900BF0800000070B589B306680122EF
:1088E800304613F0B8FC01460446304613F07BFCD2
:1088F800C30708D41349AF22134813F0B5FEAF21BC
:10890800104813F0AAFE2146304613F082FC2518C1
:1089180029460022304613F066FC2D1AAC4206D0D8
:108928000849B722084813F09FFEB721E8E7214617
:10893800304613F074FC2146BDE8704013F0B0BD1A
:1089480070BD00BFD7200200F82002002DE9F843CF
:108958000F4606681446B2684B1EB2F5004F34BF86
:10896800042108213B4010D0C7F1000909EA070992
:10897800494503F1FF3028BF494618420CD11F462C
:10898800BCB900252846BDE8F8838F420FD8214698
:10899800BDE8F84313F0C6BD2C492D484FF4A27228
:1089A80013F062FE4FF4A271284813F056FE994660
:1089B800E6E7B2EBD40FE4D9E319591A104613F0DD
:1089C80054FC0146304613F0AAFC80460028D8D053
:1089D800B36809EBC005B3F5004F34BF042308237F
:1089E8001D4435447B1E1D44B5FBF7F57D43A5EBBF
:1089F80009052946304613F02EFC2C44073424F090
:108A08000704A41B804507464FEAE40408D202463F
:108A18004146304613F0BDFC4146304613F0FEFC9B
:108A28003946304613F0F5FB3844844208D23946BB
:108A38003046224613F0ADFC2146304613F0EEFCDA
:108A480001223946304613F0EAFB9BE7D7200200A3
:108A5800F8200200B2F5802F2DE9F0410CD2042A4B
:108A680020D83D494FF4F9723C4813F0FDFD4FF40E
:108A7800F971394813F0F1FD0823D21ACC1D1144BD
:108A880024F0070421F00701091B17294FEAD10632
:108A98000AD8314940F2FB12304813F0E5FD40F2A4
:108AA800FB11E6E70423E8E7002704603146304677
:108AB800A660E76013F0E2FB0121421D80463046C4
:108AC80013F0D3FB9200D51DED082844B0423AD8E4
:108AD800B8F1FF3F3946A2F1100204F11000B8BF07
:108AE8003A4618F03DFA2A463946204613F0AFFBBD
:108AF8003B463A463946204613F080FBA6EB05086C
:108B080020463946012213F08AFB4246294613F0D3
:108B18009EFB2B463A462946204613F06FFB31460A
:108B2800204613F094FB43463A463146204613F05C
:108B380065FB31462046012213F071FB2946BDE84A
:108B4800F04113F06BBC04494FF40372034813F06F
:108B58008BFD4FF403718CE7D7200200F820020048
:108B68002DE9F84F0446A38B08461907164612D478
:108B7800022803F0070162D1204613F005FD88B1F1
:108B88000138042800F22581DFE810F0590023019C
:108B98007E00C800F50001280CBF43F0100143F027
:108BA8002001A18304F1140010F0BEF9002800F0A0
:108BB800AB8086F31188BFF36F8FBDE8F88F03F0A1
:108BC8000702501F01281ED80020062A2768C4E97A
:108BD800000014D13A4603E0E08B0130E0831268CC
:108BE800002AF9D123F0070343F002022046A283AA
:108BF80013F0CAFC90B342F02002A2832EE023F0C7
:108C080007039AB2F2E7042A33D123F007039AB292
:108C18002046A28313F0B8FC10B142F02002A283D0
:108C2800A38B03F00709894540F0DC80A18BCA06B5
:108C380040F1228121F01003A38301F00701D4F849
:108C48001880A38BB8F1000FB9DA0022276823F047
:108C58000703C4E9002243F00103A383A38B03F0B5
:108C68000709894540F0BF80002FDFD00025AA46BC
:108C780040E0864940F21B12854813F0F5FC40F2AB
:108C88001B11824813F0E9FC41B180494FF4AB72E3
:108C98007F4813F0E9FC4FF4AB71F2E7236843B95E
:108CA8007A4940F257127A4813F0DEFC40F2571125
:108CB800E7E723691D6845B974494FF4AD727448F4
:108CC80013F0D2FC4FF4AD71DBE70F4688464FF046
:108CD8000609A38B23F0070343F006039BB2A38383
:108CE800A268002A40F08180002F40F08180002D8A
:108CF8009CD0BA4643F0080304F1140B5846A383EA
:108D080010F012F9002875D1624940F2311260481A
:108D180013F0AAFC40F231115E48B3E7022908D0EB
:108D28005A4940F25D125A4813F09EFC40F25D1118
:108D3800A7E7E78B47B155494FF4AF72544813F092
:108D480093FC4FF4AF719CE723695D6845B94F49BF
:108D580040F261124E4813F087FC40F2611190E72F
:108D6800A38BB84623F0070343F004039BB24FF0EC
:108D78000409A383B4E7012908D044494FF4B27227
:108D8800434813F071FC4FF4B2717AE7236843B992
:108D98003E4940F265123E4813F066FC40F2651108
:108DA8006FE723699D6845B938494FF4B47238486C
:108DB80013F05AFC4FF4B47163E70027A38BB8464D
:108DC80023F0070343F005039BB24FF00509A38383
:108DD80086E72E4940F26B122D4813F045FC40F20D
:108DE8006B114EE7002700257AE74FF0010A81E76B
:108DF80092467FE786F31188BFF36F8FBAF1000FB1
:108E080017D14FBB15B120462349A8474FF020037F
:108E1800EFF3118683F31288BFF36F8F584610F073
:108E280075F808BB1B498822194813F01DFC8821D6
:108E380072E7A1680029E4D00E680029E1D0434612
:108E48004A462046D1F804A0D0471EB133683146BF
:108E58001E46F2E73346FAE7394643464A46204675
:108E68003F6813F0BDFBCCE7584610F06BF8A38BB6
:108E780023F00803A383D9E68B067FF593AE21F090
:108E88002003A38301F0070176E600BF102102004A
:108E9800F820020032210200A58E0000F8B5044631
:108EA8000D4600F114064FF02003EFF3118783F30A
:108EB8001288BFF36F8F304610F028F840B90A497E
:108EC8000A48882213F0D0FB8821074813F0C5FB15
:108ED800304610F037F8A5613A462046BDE8F8401C
:108EE8000121FFF73DBE00BF32210200F820020039
:108EF8002DE9F04704460F4613F062FB051E5EDBC2
:108F080004F114094FF02003EFF3118A83F3128858
:108F1800BFF36F8F48460FF0F9FF804638B93349E1
:108F28008822334813F0A0FB882130483CE04846AB
:108F380010F008F84FF6FF72E38BA68B934206F009
:108F480007063FD0022E10D135460133E383484649
:108F58000FF0EAFF00283BD1244940F2311224489F
:108F680013F082FB40F23111DFE7062E13D8DFE859
:108F780006F0092C1212090409006FF085054FF05C
:108F88000008E4E700233B6063687BB9C4E9007725
:108F98007EB13546F3E7174915484FF4E47213F0EC
:108FA80063FB4FF4E471134813F057FB1F606760CD
:108FB800EEE7524602212046FFF7D2FD3546284605
:108FC800BDE8F0876FF00A05D9E76FF00405D6E72A
:108FD8008AF31188BFF36F8FB8F1000FEFD0002329
:108FE80032463946204613F0FBFAE8E73221020000
:108FF800F82002001021020008B54268034602F07A
:109008000302022A81600AD0032A4FF0000103D02C
:10901800012A0AD1596006E01868596008BD186825
:1090280000225A6050B90020F8E706490648452250
:1090380013F01AFB4521034813F00FFB12F0A6FCAE
:10904800F1E700BF5F210200F82002002DE9F74395
:109058000F4606460821C06A13F0A1FB80463C680B
:10906800DFF84890241A3C6004EA0905AC4203D8AA
:10907800002003B0BDE8F08308236A462146304645
:1090880013F000FB0028F4D16946304613F091FB39
:1090980040B1BDF80230BDF8042005EA09051344C3
:1090A8001D443C60A4EB0804E0E700BF0000FFFF9C
:1090B8002DE9F047044688B000F11407384617F048
:1090C800C9FCA06A8368DB689847E06248B9452113
:1090D800AB4813F01AFF6FF01505284608B0BDE835
:1090E800F087A06A8368DB6898470368013B1F2BF9
:1090F80002D94521A348ECE7A06A216805AA16F021
:1091080078FD10B14521A048E3E7A5892DB1069B5C
:10911800B5FBF3F203FB125515B145219B48D8E77F
:10912800E389012B02D845219948D2E7E36A0095E3
:1091380093F804904FF0FF334FF0FF3238460FF0AA
:109148009DFF0821E06A13F02AFBA8460646E3893A
:109158001FFA85FA534508D8E389434523D1384691
:109168000FF01AFF6FF02C05B7E7A1892B04891BB4
:1091780013FA81F14A4608232046009113F0D0FAE9
:1091880078B16946204613F08BFA08F101080823E4
:109198004A46204600991FFA88F813F0C1FA0028B9
:1091A800DAD00135D3E753450BD1009908234A4655
:1091B8002046891B13F0B4FA18B96946204613F003
:1091C8006FFA69462046FFF741FF054618B1384651
:1091D8000FF0E2FE81E7009B4FEA13484FEA084888
:1091E8006360C4F80880D4E9011399420FD30823B7
:1091F800204601AA13F046FA05460028E7D101AB3C
:1092080013F8012B91453CD10135082DF8D163683D
:1092180069461B0C1B042046009313F041FA4A468A
:109228002046A389009913F07BFA051ECFDB6368FB
:1092380069D04FF6FF7906EB0308A3891FFA88F275
:109248009B1B9A42CDF8008037D34921514813F02F
:109258005CFE2046616813F088FA05460028B6D1FE
:1092680063684D4AA18913400B44A3EB460363602E
:1092780013402046A36013F080FB0546002D5ED006
:10928800A5E7204601A913F094FA626810B9921B69
:109298006260A8E7BDF80850BDF80610E06AC4F897
:1092A8000880294413F07BFA40449042A060EED134
:1092B800002DECD06FF01C057AE0082341462046CB
:1092C80003AA13F0DFF90546002880D1204603A938
:1092D80013F06FFA38B1BDF80C304B4503D1BDF827
:1092E8001030002B6AD0B044A7E74A4620465B1AE4
:1092F80013F016FA051EFFF66AAF08D0E26AA368F3
:1093080012681344A360D4E901318B42EDD8616837
:10931800A38901EB46029A42B0D1DFF87C80A268AB
:1093280001EA08039A42A9D0204613F01EFA05461E
:1093380000287FF44CAF636803EA0803A360A3899D
:10934800A288A3EB46039A422ED038460FF024FE9B
:1093580001234921E28911482374A38913F0D5FD1B
:109368006268492193B20E48120C13F0CEFDA26830
:10937800492193B20B48120C13F0C7FD0025ACE647
:109388009B210200C2210200E42102000122020006
:109398001A2202008B2202000000FFFF4222020074
:1093A8005E22020075220200204613F0CFFA05461D
:1093B80038460FF0F1FD002DCAD08EE64921084845
:1093C80013F0A3FD636869461B0C20461B04009339
:1093D80013F066F92046009913F0C7F94DE700BF6E
:1093E800B72202002DE9F04F1D46037C044689464A
:1093F800904689B04BB94521634813F086FD6FF05C
:109408000C06304609B0BDE8F08FC26A0821104644
:1094180013F0C5F982462946104613F0C0F9A3890E
:109428000746A3EB8A039D4200F2AB801DB1B8F159
:10943800000F00F0A68063680393204604AA03A9DE
:10944800DDF80CB013F0EDF906460028D9D1BDF8C7
:1094580010304B4505D06268039B9A42EDD1E5B9BF
:10946800CFE7204604A913F0A4F90028F3D0BDF8EB
:109478001200BDF8143075B19D420ED14FEA1B4160
:10948800090401442B464246204613F016F90028E9
:1094980003DC0646B5E7002BB3D0002F3ED104F11C
:1094A800140301934FF0FF324FF0FF3304F114001F
:1094B8000FF0E4FDDFF8D4B0E3899E425ED0D4E932
:1094C8000123F9188A422CD3ADF81A30FF2306A8D5
:1094D8008DF81E30ADF81890ADF81C5013F017F940
:1094E8002B464246A168204613F0E5F929468246F4
:1094F800E06A13F054F9A2680244A260BAF1000FBE
:1095080007D1204606A913F010FA002814BF824696
:10951800AA4601980FF040FD564672E75744BFB27D
:10952800BDE70821E06A13F03AF94FF6FF7300210E
:10953800ADF818308DF81E30A389ADF81C1011183D
:1095480002EA0B021A44101A606006A8ADF81A1055
:1095580013F0DDF806A9204613F0E7F92046211D8F
:1095680013F09EF86368204603EA0B03A36013F028
:1095780004FA82460028CCD101369DE76FF01B0A19
:10958800C7E76FF015063CE7822102000000FFFFE5
:109598002DE9FF471E46037C04460F469046BDF85A
:1095A800309043B92C48452113F0AFFC6FF00C0004
:1095B80004B0BDE8F0870821C06A13F0F0F8A38969
:1095C800A3EB40039E4243D80025D4F804A0CDF86D
:1095D80004A0A9455146DDF804A009D263685345A3
:1095E8001ED1BDF80830BB421AD06FF00100DFE78A
:1095F800204602AA01A913F014F90028D8D1BDF811
:109608000830BB4206D1204602A913F0D2F808B1AF
:109618000135ADB26268019B9A42DAD15146E0E762
:10962800BDF80C30002BE0D0A945DED8BDF80A0003
:10963800090CB3424FEA014128BF33460144424670
:10964800204613F01FF80028B2D1BDF80C00AFE790
:109658006FF01500ACE700BF8221020010B530B9E9
:109668000B48452113F051FC6FF0150010BD8368BD
:1096780033B90848452113F048FC6FF00400F5E7BA
:109688001B6813B1BDE8104018471846EEE700BF45
:10969800D8220200EE22020010B530B90B4845214D
:1096A80013F033FC6FF0150010BD836833B9084818
:1096B800452113F02AFC6FF00400F5E75B6813B14D
:1096C800BDE8104018471846EEE700BFD822020050
:1096D800EE22020070B508B101B132B90B4845213C
:1096E80013F013FC6FF0150070BD84680CB1E568C9
:1096F80035B90748452113F008FC6FF00400F3E77B
:1097080041F8040BE368BDE87040184711230200D4
:10971800EE22020010B5044630B91048452113F076
:10972800F4FB6FF0150010BD006830B90C484521F6
:1097380013F0EBFB6FF00100F5E783680BB11B69D1
:1097480033B90848452113F0E0FB6FF00400EAE75D
:10975800616898470028E6D12060E4E742230200C8
:1097680058230200EE22020070B51346044630B9B1
:109778001048452113F0C9FB6FF0150070BD006853
:1097880030B90D48452113F0C0FB6FF00100F5E733
:1097980082680AB1956835B90848452113F0B5FBC8
:1097A8006FF00400EAE70A46AC466168BDE870401D
:1097B800604700BF4223020058230200EE22020045
:1097C800034A13680BB9526813600020704700BF42
:1097D8008481002030B50C460E4985B00291D0F83E
:1097E800AC110546CDE9003100F1E0014FF0FF333F
:1097F80020460EF051FC50B9012384F86430D5F8A6
:10980800A83123B1204605B0BDE83040184705B05F
:1098180030BD00BF23CC010038B50C4611460546C3
:1098280013F0FDF9034638B92846044913F0F7F94F
:1098380003460020236038BD0120FBE7FE4F0200ED
:109848002DE9F04F012381460569466885B005F585
:109858005B77D7E8EF2F002A03D1C7E8E13F00295B
:10986800F7D10CBF1A46002240F0B180B368B16A44
:1098780005F5E4781C1F104613F056FA84425FD8A9
:10988800013A00F09E80B2FA82F24FF00044D440D0
:1098980072682046073222F00302C5F86022B16AD6
:1098A80013F042FAC5F86402B36A404663430333CF
:1098B80023F0030302EB4302230103EB44030933C0
:1098C80023F0030303EBC403C5F858221A440832F3
:1098D800C5F854227368C5F85C42C5F850323D4B50
:1098E800C5E9A963316800F0DFF9044630BBD9F84F
:1098F80004A0D9F81090DAE9073409F5307B012B78
:10990800584608BF103C10F027F90023DAF8240065
:1099180031494FF4806201EB802100935846234679
:1099280010F030F909F52C702C490FF0A3FFDAF884
:10993800140083685C682CB96FF05704002139E083
:10994800013298E74B46264ADAF81810A047044631
:109958000028F3D1DAF8140083681B69002BEBD0D8
:109968000122DAF81810984704460028E6D11D4B62
:109978002846C5F8A8311C4BC5F8AC311B4B0393DE
:10998800D5F810320293D5F80832CDE90083D5F81E
:109998006832B26AD5F8681300F04EF90446002818
:1099A800CCD105F1E0000EF011FD0028C5F87003D8
:1099B8000ADB0221384613F067F9204605B0BDE8F6
:1099C800F08F6FF00B04B9E76FF01504B6E76FF08E
:1099D8007704F2E779CC0100D09A00205FCC01002F
:1099E80053CC0100F999000007CE0100C1CC010059
:1099F80013B5044640B100230122CDE90032074BDC
:109A0800D0E909120EF0FCFAA36E1B6823B1E06ED0
:109A180002B0BDE81040184702B010BDFE4F02006A
:109A280013B504460846216901F55B71D1E8AF1FFB
:109A3800022910D193B1A0B10121CDE9003113461B
:109A4800D0E909120EF0DCFA074B984208BF6FF014
:109A58000B0002B010BD6FF00F00FAE76FF04C007A
:109A6800F7E76FF00100F4E72EF8FFFF2DE9F74361
:109A780088461546066906F55B73D3E8AF3F022BA7
:109A88005FD1136823B96FF0150003B0BDE8F08308
:109A98001B78002BF7D0D6F86893B9F1000F33D1B3
:109AA80006F5D8774FF0FF324FF0FF3338460FF006
:109AB800E5FA30462A6801A9FFF7AEFE019C1CB9F9
:109AC800384613F0DFF8DEE705F10803A3666B6993
:109AD80084F86490E366E46360B1384613F0D2F822
:109AE80021463046236E2A68FFF774FE0020C8F826
:109AF8000040CAE72022296804F1400017F097F9CE
:109B0800384613F0BFF8F1E730460F4913F087F8ED
:109B180004460028B7D005F1080383666B69C06363
:109B2800C366002380F8643020222968403017F08B
:109B38007EF922460121304600F060F80028D5D091
:109B4800A1E76FF00F00A0E7FE4F020010B50C462A
:109B5800006900F55B73D3E8AF3F022B0FD189B1E1
:109B68000A4900F52C700FF085FF204616F09DFD80
:109B780070220021204617F0F3F9002010BD6FF085
:109B88000F00FBE76FF00100F8E700BF30940020FA
:109B98002DE9F04F05460E4690460027D0F8B0A0B4
:109BA80085B0AAF5AE7421463046FEF7D1FAE0B981
:109BB800114BA4F1400B0293DAF810303246CDE98C
:109BC800008329464FF0FF335846AAF5CE790EF0A8
:109BD80063FA60B97023012203FB079383F86420BA
:109BE800DAF80C300BB158469847703417B105B005
:109BF800BDE8F08F0127D6E735CE01001FB5144622
:109C080090B18AB1012912D10A4B00F1E001029307
:109C1800D0F8AC31403201934FF0FF332046009327
:109C28000EF03AFA04B010BD6FF01500FAE7002004
:109C3800F8E700BF35CE01002DE9F04387B00E46A6
:109C4800DDE90E811446DDE910251F4630B329B33E
:109C5800DFF850C000F1E009002D08BF65469EB945
:109C6800CDE9034400F5CE742046059616F097FE1C
:109C780003ABCDE900432A463B46414648460EF031
:109C8800CBFB07B0BDE8F083002241460E92484660
:109C98002A4607B0BDE8F0430EF0EABC6FF01500A5
:109CA800EFE700BF999B0000F0B50E46044689B067
:109CB80000286FD001230246C3630023D0F8981010
:109CC800364F403040F80C7C42F8301FCDE9013364
:109CD8004FF0FF330093C36D16F0CCF9304A06AB52
:109CE80092E8030083E8030018460EF09BF8054647
:109CF800D8B904F134000EF077F80546A8B939460A
:109D0800284805AA16F098F9054670B9059B9A687F
:109D180072B10C33D4F89400C4F8A03013F0B7F83B
:109D2800C4F8D40030B96FF00B05284609B0F0BD6F
:109D38000346EFE7D4F8940013F0A9F8C4F8D80064
:109D48000028F0D0D4F88C30D4F8A010C4F8A8308B
:109D58000423C4F8AC30C4F8C4300223A362124B05
:109D6800B4F89420D4F8D470C4F8B810C4F8D0105B
:109D7800D4F89010236204F1A403A4F8B020C4F826
:109D8800A470C4F8C010A4F8C820C4F8BC00A66128
:109D9800E362CAE76FF01505C7E700BF8723020033
:109DA8002415020091230200E0160200014B036013
:109DB800002070470C17020070B5114B0D461C6847
:109DC800DCB1104B196800238B4202DB6FF00100F5
:109DD80070BD224612F8106B864202D01446013339
:109DE800F2E7E06810B96FF01200F1E716F0F0FD45
:109DF8000028F8D000202C60EAE76FF00C00E7E7B5
:109E0800EC8100208417020070B588B005460C4626
:109E1800C0B269461646FFF7CFFF00281BDB009843
:109E2800C8B143682268029383680195CDE9033677
:109E38000023CDE906230593C56813F073F86DB1C7
:109E48002846084901AA15F0D8FE079808B9059BC5
:109E5800236008B070BD6FF01500FAE76FF01200CC
:109E6800F7E700BF2FCF01002DE9F0410F4B054662
:109E78001C680E461746ACB14FF0FF324FF0FF3367
:109E88000B480FF0FBF863683246D3F80880294680
:109E98003B462046C047044605480FF07DF820465B
:109EA800BDE8F0816FF00104F9E700BF5894002085
:109EB8007886002000230360044B5A6812B9C3E96E
:109EC8000000704710605860704700BF5C94002025
:109ED800014B1860704700BF58940020002330B52C
:109EE80085B00546CDE9023301904FF0FF334FF0BE
:109EF800FF320B480FF0C2F80A4B1C684CB92846D1
:109F080000F0DCF8044606480FF046F8204605B095
:109F180030BD636820461B6801A998472468EDE7AF
:109F2800788600205C9400201FB5CDE901010392DA
:109F38004FF0FF334FF0FF3209480FF09FF8094BFD
:109F48001C682CB906480FF027F8204604B010BD4D
:109F5800636820461B6801A998472468F1E700BF99
:109F6800788600205C9400200022024BC3E900227E
:109F7800704700BF5C9400200022024BC3E9002216
:109F8800FFF7F2BF649400202DE9F74307460C461B
:109F980009B100230B600026234DDFF890904D4552
:109FA80020D923492348942212F05EFB94212048AB
:109FB80012F053FBD5F800803846414601AA12F04A
:109FC800DBFF50B116B954B92E4606E000224046D0
:109FD800316812F0D1FF0028F5D11435DFE7019B75
:109FE8002360F1E7E6D3144B1D68C5B155F8148C0E
:109FF8003846414601AA143D12F0BEFF50B116B9C9
:10A0080054B92E4606E000224046316812F0B4FFEB
:10A018000028F5D16D69E8E7019B2360F1E7304638
:10A0280003B0BDE8F08300BF8C14020004150200E1
:10A0380099230200F8200200649400202DE9F341DE
:10A04800DDF8208004460D4616461F460190B8F1FB
:10A05800000F07D0D8F80010C1B9D8F804E0BEF155
:10A06800000F1CD1204601A9FFF78EFF98B13B468F
:10A07800D0F80880324629460198C047034650B1B7
:10A08800224645210C4812F040FF04E001AA12F0D4
:10A0980073FF0028E1D1002002B0BDE8F081D8F8B4
:10A0A80008303246089329463B46F446019802B0E8
:10A0B800BDE8F041604700BFCB230200F8B5064673
:10A0C80000251C4C1C4FBC421BD91C491C48F422BF
:10A0D80012F0CAFAF421194812F0BFFA2EB9E3684F
:10A0E8005BB9284605461434EDE70022314620685E
:10A0F80012F042FF0028F2D1F3E79847002DF0D183
:10A10800F0E7EBD30F4B1C6894B1143C1EB9E3681D
:10A118004BB96469F8E700223146206812F02CFF39
:10A128000028F4D1F5E79847002D08BF0546F0E769
:10A138002846F8BD8C140200041502009923020079
:10A14800F82002006494002038B50C4D4FF0FF331E
:10A158004FF0FF320A480EF091FF2B783BB9FFF71A
:10A168000BFF00F06DF8044610B901232B70002492
:10A1780003480EF011FF204638BD00BFE0990020CB
:10A18800788600202DE9F04706468946048FDFF8D7
:10A19800ACA0013498B0A4B200F10807651EADB2B6
:10A1A800B5F5004F47D04A23294605AA384612F08C
:10A1B800B5FC04F57F543F34A4B280462146012300
:10A1C80038460DF10B0212F0A9FCB8F1000F014658
:10A1D80010DC002810DC338FAB4209D132466B1EED
:10A1E80022F8383F4FF4004102233846FFF7FAF8C7
:10A1F8002C46D3E7002808DC2946384612F08AFCAA
:10A208002146384612F086FCE5E708F160030DEBBD
:10A2180003080023524608F84C3C05A8CDF80090E6
:10A2280003AB0397ADF81040FFF708FF0028DFD015
:10A2380018B0BDE8F0870020FAE700BFF1CF0100B1
:10A248007FB50123694605200193FFF7B5FD044654
:10A2580060BB052002AA01A9FFF7D6FD044610B18C
:10A2680010F10C0F22D10399B1F5803F23D20023BE
:10A278001846009A9468084484421AD30133082B7C
:10A28800F9D10E4DA982EB8253682846AB60D3689A
:10A29800EB6312F041FF044640B9094E28466E6050
:10A2A800FFF708FE28466E60FFF712FE204604B04E
:10A2B80070BD9BB2E5E76FF02004F7E76C940020CF
:10A2C800B08100204B1E59425941014B197070470B
:10A2D800E299002008B5012BBDF808100CD171B91E
:10A2E8000A4B1B680BB9012008BD1078012809D852
:10A2F80000F001009847F6E76FF00C00F4E76FF004
:10A308000600F1E76FF01200EEE700BFAC94002002
:10A318002DE9FF411F460D4B054658680C46164669
:10A3280080B1D1F80C808047094B32461870012360
:10A33800CDE90183BDF828302146009328463B46E5
:10A3480014F09AFE04B0BDE8F08100BFAC94002080
:10A35800E19900200449431E0F3013F8012F8A5C4D
:10A3680083421A70F9D17047FC230200F0B5074602
:10A37800264E8DB001AD0C460FCE0FC50FCE0FC5C2
:10A3880096E8070085E807003846002F39D0002CEA
:10A3980039D0381F0246214610344B780D781B04FB
:10A3A80043EA0563CD7804312B4311F8025C8C42F3
:10A3B80043EA052342F8043FEFD10421144C8A07ED
:10A3C800036916D1C3F30742A55C1A0EA25C42EAE0
:10A3D8000562C3F30725655DDBB2E35C42EA05422B
:10A3E80042EA032221F0030330336B4453F82C3C38
:10A3F800534050F8042F013153402C290361DED11A
:10A4080001200DB0F0BD2046FBE700BF2C1502006F
:10A41800FC2302002DE9F04F002703689DB002934A
:10A428004368DFF8BCA103938368DDE9024604931F
:10A43800C36805930369DDE904BE0693436907937E
:10A448008369DDE9062C0893C36998460993089B3C
:10A458000093CD590CAB2DBA5AF8049BDD514FEA45
:10A46800F223A94483EAB213009D83EA72634B4442
:10A4780025EA020502EA0C0985EA09052B4443444A
:10A4880086EA0B054FEA743888EAB408254006EADC
:10A498000B0985EA090588EAB4580437A844402F0F
:10A4A80003EB0E054344DE46DDF8008040F088806B
:10A4B8004FF0100A4B490A9151460AF1010A0DF171
:10A4C800700E0AF00F070EEB870757F8407C01F073
:10A4D8000F094FEAB748019788EAF71801F10E0704
:10A4E80007F00F070EEB870757F8407C09314FEA52
:10A4F800F74E8EEA774ECDF82CE001F00F010DF102
:10A50800700E0EEB81010EEB890959F840EC51F8F9
:10A51800401CBAF1400F7144DDF804E088EADE0817
:10A52800DDF82CE041448EEA972E714405EA0208D2
:10A538004FEAF52E2CEA050787EA08078EEAB51ECA
:10A54800DDF828808EEA756E774458F804EF49F8EC
:10A55800401C77440F4400994FEA733E394484EA1B
:10A568000607CDF828808EEAB30E07EA030704EA47
:10A5780006088EEAB35E87EA080777440F4401EBC2
:10A588000B0ECDF800C0B34622D1029939440160C0
:10A5980003991944049B416023448360059B334419
:10A5A800C360069B73440361079B2B444361089B6C
:10A5B80013448361099B6344C3611DB0BDE8F08FF8
:10A5C800B346CDF800C0264694461C462A4640E7C6
:10A5D800944626462A461C4675463B466CE700BF0D
:10A5E800F81702003418020010B50446C8B17022EA
:10A5F800002112F0BFFD0B4B0B4A0C49C4E90023A4
:10A608000B4B0C48C4E902130B4BC4E904030120AB
:10A618000A4BA36103F17453A3F52303A3F69243F2
:10A62800E36110BD85AE67BB67E6096A72F36E3CED
:10A638003AF54FA57F520E518C68059BABD9831F05
:10A6480037B505460C46C9B18B6810480093D1E967
:10A658000023452112F059FC636945210093D4E990
:10A6680003230B4812F051FC4521E269094812F016
:10A678004CFC4521A269084812F047FC21462846AF
:10A6880003B0BDE830400EF023B800BFFC24020040
:10A6980030250200642502007825020030BFFFF74C
:10A6A800FDBF00BF114B124A2DE9F041D518013DFD
:10A6B800B5FBF3F5DFF83C805D430F4B074608EB2D
:10A6C8000304013CB4FBF3F403FB04540E1B3046B3
:10A6D8000A4916F01EFC701942460021083E16F081
:10A6E8003FFC7E6704F10800BDE8F081010000002E
:10A6F800000000000800000004000000041502002B
:10A70800044B99685869884203D003494FF0805236
:10A718000A6070477099002004ED00E010B5244CE1
:10A728004521244812F0F1FBA36A99013ED522483D
:10A73800452112F0EAFB1E20A36ADA0104D51F485E
:10A74800452112F0E2FB1F20194CA36ADB0204D555
:10A758001B48452112F0D9FB0220A36A1C0304D52B
:10A768001848452112F0D1FB2120114CA36A590346
:10A7780004D51548452112F0C8FB2220A36A9A0384
:10A7880004D51248452112F0C0FB2320084CA36AC7
:10A79800DB0304D50E48452112F0B7FB2420A36A39
:10A7A8006FEA03436FEA1343A36210BD1D20C3E79A
:10A7B80000ED00E0AB250200C8250200E0250200FC
:10A7C800FF2502002E260200512602007B260200E9
:10A7D8009A26020070B5284C06460D4627484521A2
:10A7E80012F093FBA36AD9043BD52548452112F002
:10A7F8008CFB1720A36A1A0504D52248452112F0BC
:10A8080084FB18201C4CA36A9B0511D51E484521C2
:10A8180012F07BFBA26BA36A180408D545211B48DC
:10A8280012F073FB1EB1A36A23F40043A36219203C
:10A83800114CA36A590504D51548452112F065FB4A
:10A848001A20A36ADA050ED51248452112F05DFBDD
:10A858001B20094A936A43F47F43936200232B70B9
:10A8680070BD1620C6E7A36A9B04F2D50A484521A5
:10A8780012F04BFB1C20ECE700ED00E0CA260200BA
:10A88800E5260200FB2602001327020031270200FA
:10A898004B2702006B2702008827020070B5324C54
:10A8A80006460D463148452112F02FFBA36AD9060A
:10A8B80048D52F48452112F028FB1120A36A1A0712
:10A8C80004D52C48452112F020FB1220264CA36AFF
:10A8D8009B0711D54521284812F017FB626BA36A24
:10A8E800190608D54521254812F00FFB1EB1A36AA9
:10A8F80023F08003A36213201B4CA36ADA0704D554
:10A908001F48452112F001FB1420A36A9B0604D5B9
:10A918001C48452112F0F9FA1520134B9A6AD606FD
:10A9280002D49A6A94070FD59B6AD9060CD51649A2
:10A93800164840F2631211F097FE40F26311124874
:10A9480011F08BFE1020B9E7074B9A6A920642BFB6
:10A958005A6A22F400525A629A6A42F0FF029A62D4
:10A9680000232B7070BD00BF00ED00E0BC27020083
:10A97800D7270200FB2602000F2802002C2802001D
:10A9880047280200882702006B280200F8200200EE
:10A998002DE9F043714B0546D3F804900F4616464F
:10A9A80000238BB0C9F3080883F31188BFF36F8FB6
:10A9B80002F07F43B3F17F4F0AD069494FF48B62AD
:10A9C800684811F051FE4FF48B61654811F045FE5F
:10A9D80012F00104F1D1530603D4100707D401275C
:10A9E80007E04521604812F090FA710700D53D460E
:10A9F8000027002DE1D00026A8F103038DF8076099
:10AA0800092B00F29880DFE803F0058B8F76969685
:10AA1800969696934521554812F077FA8DF8076077
:10AA28004E4EF36A9A0704D54521514812F06DFA43
:10AA380033E0F36A002B02DA45214E48F6E7F36A61
:10AA48005B0064D545214C4812F05FFA7369AA6926
:10AA580043F480737361BFF34F8FBFF36F8F7369D4
:10AA680032F8022C23F480737361BFF34F8FBFF366
:10AA78006F8F4DF602739A4209D0B36ADBB263B3A3
:10AA880001200DF10701FFF709FF044605E0452104
:10AA98002A683A4812F039FA2C689DF80730CBB981
:10AAA80002AA05F12006134628686968083503C319
:10AAB800B5421A46F7D1099B002F49D0C3F30802C3
:10AAC80022B96FEA53236FEA43230993204602A968
:10AAD800FFF7B6FD0BB0BDE8F083B36A13F47F4F00
:10AAE80005D001200DF10701FFF774FECDE7B36A29
:10AAF800B3F5803F02D3FFF711FEC6E7184940F2CD
:10AB08002A32184811F0B0FD40F22A315DE71449A5
:10AB180040F22E32134811F0A7FD40F22E3154E7CF
:10AB280000200DF10701AEE700200DF10701DBE77A
:10AB3800452113487AE7134919F4F87F124A134854
:10AB480008BF0A46A8F11003452112F0DEF9A4E770
:10AB580023F4FF7323F00103B7E700BF00ED00E023
:10AB68006B280200F8200200CB280200F32802001C
:10AB78000F29020035290200482902006C29020029
:10AB88008D2902009D280200B2280200B629020081
:10AB9800044B5A6942F010025A615A6942F48062C1
:10ABA8005A61704700ED00E0EFF30880EFF3098188
:10ABB80001B57246FFF7ECFE01BD00BF002080F32F
:10ABC8001488BFF36F8F002080F30A8880F30B8806
:10ABD80000F0D4FC00200E490860BFF34F8F0D48E9
:10ABE80080F3088800F03EF8202080F311880A4896
:10ABF8004FF40061401880F30988EFF314800221B4
:10AC0800084380F31488BFF36F8F00F01DF900002C
:10AC180094ED00E050C2002010B10020BFF34F8F28
:10AC28000549064BCA6802F4E0621343CB60BFF3E0
:10AC38004F8F00BFFDE700BF00ED00E00400FA05FC
:10AC4800002318460649D1F89020C2F30722934200
:10AC580000DB7047C1F89830C1F8A0000133F6E76F
:10AC680000ED00E010B572B6002484F31388FFF7F6
:10AC7800E7FF23464FF0FF300C4A03F12001013370
:10AC8800102B42F82100F8D100234FF0FF30074A7B
:10AC980003F160010133102B42F82100F8D162B6AC
:10ACA800BFF34F8FBFF36F8F10BD00BF00E100E00F
:10ACB800084B9B6883420BD1EFF3058343B1064BE6
:10ACC8005A6842F080525A605A6A22F400425A6224
:10ACD80010F008B97099002000ED00E06FF00A014B
:10ACE800084A9368D967084998674B6843F08053C6
:10ACF8004B60002383F31188BFF36F8F9368D86F7D
:10AD0800704700BF7099002000ED00E018498A687C
:10AD180082F881E04FF030001044EFF3098C80E8AE
:10AD2800F01F202080F31288BFF36F8F114F4FF070
:10AD380000664A698A603E604FF0740414192068FE
:10AD48000D4C206092F981E0906F0023936780F3A7
:10AD5800118802F1300090E8F01F8CF3098802F1A5
:10AD6800000004B512F05EFEBDE804407047000024
:10AD78007099002004ED00E0B49400201EF0040F48
:10AD88000CBFEFF30880EFF30980816911F8021C0A
:10AD98000229FFD001B512F034FE01BD40B20028EF
:10ADA80007DB01234109034A00F01F00834042F8F2
:10ADB8002130704700E100E040B200280CDB01229E
:10ADC8000649430900F01F008240203341F8232040
:10ADD800BFF34F8FBFF36F8F704700BF00E100E0F4
:10ADE800054B420953F82220012300F01F0003FA03
:10ADF80000F01040704700BF00E100E00131072972
:10AE080008B508D90D490E48582211F02DFC5821D3
:10AE18000A4811F022FC40B20028ACBF00F16040A3
:10AE2800084B4FEA4111C9B2ABBF00F5614000F0D1
:10AE38000F0080F80013195408BD00BFCE29020086
:10AE4800F820020014ED00E00B4A08B50B4B22F085
:10AE58007F029A60BFF34F8FBFF36F8FD3F88820BC
:10AE680022F47002C3F888200DF0CEFC10F0EEF842
:10AE780000F07CF80DF012FD0080000000ED00E00D
:10AE880042F8203C009B0D4942F81C3C019B21F0F4
:10AE9800010142F8183C029B42F8081C42F8143C95
:10AEA8004FF0807342F8043C002383674FF43C431F
:10AEB800203A0265C0F88030704700BFAD880000B6
:10AEC8000A4B446F98600A4B1C60436E83F30B88EF
:10AED800104681F30988002163B681F31188BFF316
:10AEE8006F8F00220023FDF7DDFC00BF7099002062
:10AEF800B4940020014910220A60704710ED00E068
:10AF080072B6404080F31188BFF36F8F01B500F02F
:10AF1800EFFA00280AD0BFF34F8F30BF00BF00BF41
:10AF280000BF00BF00BF00BF00BF00BFBDE80140B9
:10AF380062B6BFF36F8F704772B6494081F31188CC
:10AF480001B500F0D5FA00280AD0BFF34F8F20BF13
:10AF580000BF00BF00BF00BF00BF00BF00BF00BFF1
:10AF6800BDE8014080F3118862B6704700232021B4
:10AF78000348C2180133452B82F80013F9D17047F2
:10AF880000E100E001B5EFF30580A0F110004FEA01
:10AF9800C0000449014409C99847BDE80140024975
:10AFA80008470000EC10020009A700001FB5094C73
:10AFB800094A23460121094800F006F900230393B2
:10AFC800074B0121E41A01A80193029400F016F935
:10AFD80004B010BD0000072000800020F81802000F
:10AFE8007888002010B50C7A0B6804F01F0223F053
:10AFF8001F031A43CB68640923F01F03054943EA7A
:10B00800440343F00103C1F89800C1F89C20C1F83B
:10B01800A03010BD00ED00E0072810B5044608D99F
:10B0280002464521044811F070FF6FF015042046D0
:10B0380010BDFFF7D7FFFAE7092A02002DE9F04F04
:10B048008946144606464FF00008514D85B0C8455C
:10B0580027DAD6F804A0BAF1000F44D0BAF11F0FCE
:10B0680018D91AF01F0F15D1D6F800B01BF01F0F12
:10B0780010D1584612F0DAFC07460AEB0B000138EB
:10B0880012F0D4FC874210D06FF015073A464521DC
:10B09800404802E0424645213F4811F036FF6FF034
:10B0A8001504204605B0BDE8F08F17F1160FEDD056
:10B0B800BC42EBDDC5F89870D5F89C10C5F89870BF
:10B0C800D5F8A03021F01F0143F01F0BD6E900325C
:10B0D8001A44994202F1FF3A1DD1D34507D13146AE
:10B0E800F8B212F0ACFC08F101080C36AFE73146B3
:10B0F800C5F89870D5F89C3022F01F0203F01F03A2
:10B108001343C5F89C30E0B212F099FC10F1160F09
:10B11800C5D0441CE7E7C5F89870D5F8A020013BD6
:10B1280023F01F0302F01F021343D3453146E0B258
:10B13800C5F8A030E8D012F082FC10F1160FAED09E
:10B14800C5F89870D5F89C209DF808300BF1FF3BA6
:10B1580062F304038DF80830D5F8A0309DF8082074
:10B168005B0863F347128DF80820D6E900321344D0
:10B17800009323F01F035B44A3EB0A03013023F081
:10B188001F036946C0B20393FFF746FFBEE700BF3F
:10B1980000ED00E05C2A0200342A02000522044B7C
:10B1A800C3F89420BFF34F8FBFF36F8F704700BF72
:10B1B80000ED00E0BFF35F8F0022024BC3F894203C
:10B1C800704700BF00ED00E010B5094C2278FFF78A
:10B1D80035FF207016300AD10649074840F26D1233
:10B1E80011F042FA40F26D11024811F036FA10BD22
:10B1F800E3990020842A0200F82002002DE9F74F85
:10B208002E4D8A4606464FF00008AB462C4FD045D7
:10B2180002DB03B0BDE8F08FD6F80490B9F1000F57
:10B2280047D031680846019112F000FC01990446A4
:10B2380009EB0100013812F0F9FB84424FF01402C7
:10B24800204B10D002FB08F36FF015024BF80320D7
:10B258001D491E4840F27D1211F006FA40F27D1198
:10B26800194811F0FAF914F1160F2C60F0D019787A
:10B27800A142EDDD02FB08B0C7F89840C7F8984036
:10B28800D7F89C4000F10801007B64F304000871C2
:10B29800D7F8A0000C79400860F347140C71D7F870
:10B2A8009C1021F01F016960D7F8A01021F01F0140
:10B2B800296108F1010814350C36A8E7B894002074
:10B2C80000ED00E0E3990020842A0200F820020043
:10B2D800F0B54E4D87B02C68082C0AD94C494FF46C
:10B2E800D2724C4811F0C0F94FF4D271484811F0AD
:10B2F800B4F90020FFF75EFF474B484AC3F8C02067
:10B3080084421BD1464D01A82C70FEF74FFD002446
:10B318000646444FA64218D1FFF740FF3E4BD3F8EC
:10B328009030C3F30723082B6DD0394940F213221C
:10B33800384811F099F940F21321D7E7696801EB11
:10B348000011FFF74FFE0130DAE7019A210102EB05
:10B358000413D3F80CC00CEA0700B0F5001F1FD087
:10B36800B0F5800F35D0B0F5801F3FD158685258DE
:10B378009B68CDE902022122013B20F01F010B440A
:10B3880023F01F038DF810200593287802A9FFF7F2
:10B3980043FE00282EDB2B78013401332B70B9E7EC
:10B3A800586852589B68CDE902024122013B20F0BF
:10B3B8001F010B4423F01F031CF0010F8DF8102010
:10B3C8000593E2D012497022124811F04DF970210C
:10B3D8008CE758689B685258013B20F01F010B44CA
:10B3E800CDE9020223F01F030222CBE745210E48D4
:10B3F80011F08BFD06494FF4E772064811F034F955
:10B408004FF4E77172E7002007B0F0BD041902009D
:10B41800842A0200F820020000ED00E0AAFF4400A0
:10B42800E39900200000F0FFB32A020008B5024BA0
:10B438001B689847002008BDCC940020034B044AA1
:10B448001860937843F0020393707047CC940020FF
:10B45800F081002008B5044810F0B8FE404080F3A1
:10B4680011884FF0020002DFE92A020008B50649F8
:10B47800064821F00701C1F1005202F5E022FDF76C
:10B48800E9FA002008BD00BF23E80020D09400207E
:10B4980007B50DF1070014F0FCFC114B98421CD1C4
:10B4A8004FF480620F4B1049C3F8B8254FF400627F
:10B4B800C3F83C259DF807000AF072FF0B499DF878
:10B4C80007000AF059FF01209DF8073098400AF05C
:10B4D8004DFF002003B05DF804FB6FF00B00F9E7A7
:10B4E8000000AD0B00A002402CA0024028A10240A1
:10B4F800052370B5144D154E2C780134B4FBF3F3C5
:10B5080003EB8303E41A14F051FC114A137823B1B6
:10B5180056F82430C01A072813D90E4BD3F8141143
:10B5280041B10021C3F81411D3F814312C700CB9AF
:10B53800012313702C7814F039FC46F824000120FC
:10B5480070BD0020FCE700BFE5990020DC940020D6
:10B55800E49900200050004048B1054B054A1B689B
:10B56800B3FBF2F35843044B43F001031847704709
:10B578009883002040420F001016020014F07ABC95
:10B5880007B501AA14F05DFC40B10A4916220A4821
:10B5980011F06AF81621074811F05FF8019B33B1E2
:10B5A80004491722044811F05FF81721F3E703B0A4
:10B5B8005DF804FB0B2B0200F8200200F8B5144BD1
:10B5C800D3F83021D3F83431072A1CD1023B032B9E
:10B5D80002D8104AD35CB3B1012600244FF050279B
:10B5E8000D4D0520C7F81866C5F8144614F044FC3C
:10B5F8003046C5F8146614F03FFCC5F81446C7F881
:10B6080018460020F8BD0022034BC3F81426F8E7BB
:10B6180000F00720452B0200005000400E4B402947
:10B6280028BF402170B51D460C4C4618B04203F1A6
:10B63800020304D1002305F81130074870BD0278D1
:10B648001209A25C03F8022C10F8012B02F00F0279
:10B65800A25C03F8012CE9E7049A0020C82B020039
:10B6680030B503788BB0044607AD032B21D8DFE84B
:10B6780003F0021A1C1E12492846FCF773FD0595B3
:10B6880063781E210493A3780E4A0393E3780E4847
:10B6980002932379019363790093A37910F02EFA2A
:10B6A80009480BB030BD0949E6E70949E4E709490B
:10B6B800E2E70A212846084A10F020FADFE700BF2F
:10B6C8007C2B0200A52B0200E6990020832B0200A8
:10B6D8008A2B0200942B02009E2B02002DE9F341D5
:10B6E8000446174698461E4DD5E8AF3FDA071BD5E6
:10B6F80030B945211B4811F008FC6FF0010014E037
:10B7080001A911F05DFC18490246204615F07DFBA1
:10B718000028F2D1D5E8AF3FC3F3C0061B0707D511
:10B728005721124811F0F1FB002002B0BDE8F0816A
:10B73800A5F1D404072221464046B847062809D86F
:10B7480045210B4811F0E1FB45F8D46CE671C4F8CB
:10B758000360E9E70723B0FBF3F0E071E4E700BF1B
:10B76800D4800020E02B0200912B0200062C02005E
:10B778002F2C02002DE9F04188B0DDF838809C7943
:10B788005D791E79DF7893F802C093F801E01B78A1
:10B79800B8F1000F0ED0CDE90638CDE904CE134636
:10B7A800CDE90267CDE90045084A10F0A7F908B0CD
:10B7B800BDE8F081CDE905E3CDE9037C1346CDE989
:10B7C8000156034A009410F099F9F0E7592C020049
:10B7D8007D2C020010B5FEF7B7FC044620B10246E6
:10B7E8004521024811F091FB204610BD9E2C020015
:10B7F80070B504461E4615468CB0A2B129B10A465A
:10B8080002A8042110F067FC02A900912B462246E9
:10B81800242103A8FFF7AEFF3146109A03A8FEF7CC
:10B8280023FB0CB070BD03462421044A03A810F082
:10B8380065F90028F0DA6FF01500F2E7C82C02006D
:10B8480007B50B4B0B48DA79C2EBC2020092002213
:10B858001146FFF7CDFF024630B14521064803B037
:10B868005DF804EB11F051BB03B05DF804FB00BFB9
:10B8780000800020912B0200CE2C020030B5044637
:10B8880015468DB092B129B10A4602A8042110F0DC
:10B8980022FC02A900912B462246242103A8FFF787
:10B8A80069FF03A811F064FB0DB030BD03462421E5
:10B8B800044A03A810F022F90028F2DA6FF0150004
:10B8C800F2E700BFC82C020007B5009313460A46EA
:10B8D80001460348FFF78CFF03B05DF804FB00BF87
:10B8E8003F4702000A4601460148FFF7C7BF00BFAD
:10B8F8003F47020007B5009313460A46014603482E
:10B90800FFF776FF03B05DF804FB00BF394702007C
:10B9180007B5009313460A4601460348FFF768FF38
:10B9280003B05DF804FB00BFE545020007B500223F
:10B938000346009103481146FFF75AFF03B05DF82C
:10B9480004FB00BF3147020008B502480EF08CF82E
:10B95800002008BD00820020F8B5184DD5E8AF3F9B
:10B9680013F0010F2E4627D015F8CD3CA5F1D407CA
:10B9780083B901F0C3FD044628B14521104811F0F0
:10B98800C4FA2046F8BDFB7923B901F00DFE044640
:10B998000028F2D1D5E8AF3F5A0701D401F0F8F9F1
:10B9A800D6E8EF3F23F48032C6E8E12F0029F7D12B
:10B9B800DB0301D5FFF7C8FF0024E2E7D4800020AD
:10B9C800EE2C020007B5009313460A4601460348C9
:10B9D800FFF70EFF03B05DF804FB00BF144D020033
:10B9E8000A4601460148FFF749BF00BF144D02004F
:10B9F80030B50024094D0A4B85B0284602930394BC
:10BA08000EF0AAF802AB284600934FF4A3620A236B
:10BA180004490EF0B7F8204605B030BDF08B002081
:10BA2800262D0200D09E0020014601480EF0A8B93C
:10BA3800F08B0020037830B5012B13D0022B27D0D0
:10BA48007BB90A46184B03F1100453F8045BA34270
:10BA580042F8045BF9D11B78137043884B731B0AB7
:10BA68008B7330BD0A46104B03F1100453F8045B86
:10BA7800A34242F8045BF9D11B7813704368C3F3FF
:10BA880007224B731B0CCB731B0A8A730B74E8E7F2
:10BA980000F1100350F8042B984241F8042BF9D117
:10BAA80003780B70DDE700BF2F2D020038B505467F
:10BAB800012D104619460CD0032D16D0052D14D093
:10BAC8000C490D483D2210F0CFFD3D21094810F0EA
:10BAD800C4FD0A4813F078FF044620B101210C3058
:10BAE80008F060F92576204638BD02460B46044822
:10BAF800F0E700BF402D0200F8200200A4870020D4
:10BB0800088700200246002070B50B460A49D1E894
:10BB1800EF4FC1E8E50F002DF9D124B9BDE8704019
:10BB28000120FFF7C3BF01212082217604F10C0018
:10BB380008F038F9204670BD4081002070B50446F1
:10BB48000F2C0D461046194605D80D2C0DD9BDE809
:10BB58007040FFF7D7BF132C07D10C4813F034FF00
:10BB6800044638B90024204670BD02460B4645B14C
:10BB78000748F3E701210C3008F014F90123237674
:10BB8800F1E70120BDE87040FFF790BF4088002032
:10BB980070870020C36857211A78014811F0B5B999
:10BBA800772D020038B5C368B3F801401B786BB92C
:10BBB8000F21204602F03EFE054640B9084B1A8880
:10BBC80022B96FEA04506FEA1050188038BD01217D
:10BBD80002F04CFD2846BDE8384002F01FBD00BF0A
:10BBE800C0990020F8B5C5682E78C6B9B5F80170B7
:10BBF8000F21384602F01EFE044630B93A46BDE829
:10BC0800F8404521064811F080B9EB7831460373B6
:10BC180002F02CFD2046BDE8F84002F0FFBCF8BD5C
:10BC2800A42D020010B5C3680121B3F801402046D5
:10BC380002F000FE30B92246BDE810404521034815
:10BC480011F063B9BDE8104002F0E8BCCF2D020046
:10BC580010B5C36801211C88204602F0EBFD30B9FD
:10BC68002246BDE810404521034811F04EB9BDE811
:10BC7800104002F0D3BC00BFCF2D0200012108B54F
:10BC88000C3008F0E1F8BDE8084002784521014889
:10BC980011F03BB9F82D0200014608B5074807F036
:10BCA80025FF0749074814F075FF021E05DABDE8AD
:10BCB80008404521044811F028B908BD44810020F6
:10BCC8004C820020208D00201F2E020010B5084C49
:10BCD8000146052294F86F0002F0D8FF38B994F8AD
:10BCE8006F000422BDE81040024902F0CFBF10BD2A
:10BCF80000800020622B020037B50546144608462E
:10BD080002EBC3039C420DD1048AC0682146FFF7A9
:10BD180085FC234600902A4657210E4811F0F5F875
:10BD280003B030BD224612F8081BA94210D1028A7E
:10BD38006378934207D92B464521074803B0BDE8ED
:10BD4800304011F0E2B8636803B0BDE830401847EE
:10BD58001446D7E7682E0200412E020070B53A4813
:10BD680007F018FF044600286DD0027E012A44D04F
:10BD7800032A65D1028A032A04D84521334811F0E1
:10BD8800C4F811E004210C3008F05EF8FF22438863
:10BD980006886276228AC6F30B009342608307D036
:10BDA80045212B4811F0B1F8204607F05BFF13E05E
:10BDB8000F2102F03FFD054618B94521628B254841
:10BDC800DDE702F06DFD21466076320B284602F071
:10BDD800EBFA284602F022FC1F4BD3F84431002B23
:10BDE80031D01E491E4814F0D5FE021E2BDABDE8DC
:10BDF800704045211B4811F088B8028A012A02D8F0
:10BE080045211948BBE702210C3008F01DF805460A
:10BE1800007811F025FF83070BD440F69B221349C5
:10BE2800134810F021FC404080F311884FF00300C4
:10BE380002DF062321460F4A2878FFF75DFFB3E7A4
:10BE480045210D489BE770BD448100208F2E0200DC
:10BE5800B52E0200DE2E0200008000204C82002059
:10BE6800208D00201F2E0200052F0200262F020021
:10BE7800F8200200CC1902005A2F020010B5012147
:10BE880004460C3007F0E0FF2146BDE810400A23C5
:10BE9800014A0078FFF730BFFC19020070B5C56889
:10BEA8000121B5F80160304602F0C4FC044630B9FF
:10BEB8003246BDE8704045210B4811F026B82B7872
:10BEC8003BB9D5F80330C0F8B530D5F80730C0F81D
:10BED800B930201D4FF4805111F0EDFE2046BDE829
:10BEE800704002F09BBB00BFCF2D02002DE9F3414B
:10BEF8000646907A0F46144607F006FD374D8542F0
:10BF08000ED0A47A204607F0FFFC2346CDE90005B1
:10BF180032465721324810F0F8FF02B0BDE8F081F0
:10BF2800204607F0F9FC4FF00C082E4D08FB005096
:10BF38004388B3420DD0204607F0EEFC3246572125
:10BF480008FB00504388284802B0BDE8F04110F0D3
:10BF5800DCBF264ED6F8400120B107F083FE00234F
:10BF6800C6F84031204607F0D7FC0C2606FB0050E7
:10BF780043689BB197B9204607F0CEFC012106FB28
:10BF880000504268D2E90003127A03F01F06B1405C
:10BF98005B09E2B100EB830011F08DFE204607F04B
:10BFA800BBFC0C2606FB00508368002BB5D020464E
:10BFB80007F0B2FC70432F54204607F0ADFC06FB97
:10BFC8000055A86802B0BDE8F0410DF0F3B9C943C7
:10BFD80000EB830011F086FEE0E700BF0C8800202C
:10BFE800732F0200F0940020AD2F02000080002083
:10BFF80038B5042104460C3007F026FF457801784F
:10C0080022464088FFF772FF25B1BDE83840024854
:10C018000DF0D0B938BD00BF2881002038B50446DE
:10C0280003210C3007F010FFE3680578197840F613
:10C038003543B0F80100984206D1BDE838400A46B9
:10C048000648572110F061BF2246FFF74FFF25B180
:10C05800BDE8384002480DF0ADB938BDE52F020003
:10C068002881002001232DE9F347C768018A3A781F
:10C0780003EB82038B426DD900913948452110F0BA
:10C0880044FF02B0BDE8F08752464521354810F01C
:10C098003CFF01353B789D42F3DA07EB8503B3F8A3
:10C0A80001A00F215046B3F8036002F0C3FB044619
:10C0B8000028E9D000F1280A0EB34FF02003EFF36F
:10C0C800118283F31288BFF36F8FE3696BB1013B71
:10C0D800E36182F31188BFF36F8F204602F0EAF81C
:10C0E800013E0DF067F9B6B2E6E763695BB982F322
:10C0F8001188BFF36F8F4521484610F006FF204690
:10C1080002F08CFAC5E7A16918688B42606108BF24
:10C11800A06182F31188BFF36F8F4FF02002EFF315
:10C12800118182F31288BFF36F8FDA68E261C3F876
:10C138000C80C3F80080626A4AB9C4E9083381F305
:10C148001188BFF36F8F50460DF08EFCC5E7136062
:10C158006362F4E70025DFF81090A8469AE700BF6D
:10C16800203002004F3002007030020073B5C568FD
:10C178000121B5F80160304602F05CFB044638B98D
:10C1880032464521284802B0BDE8704010F0BDBED7
:10C198002B78061D1A2B19D1C378012B2AD14FF4FD
:10C1A8008061304611F087FD42050FD4D4F8A830DD
:10C1B80069460093D4F8B0302046019303F016F88E
:10C1C800204602B0BDE8704002F028BA2B788BB93F
:10C1D800B5F80330A4F8A630B5F80530A4F8AC30AB
:10C1E800B5F80730A4F8AE306FF48071304611F01E
:10C1F80079FD14E0D6E8AF3FDB05F5D52B78202B89
:10C20800F2D194F8B430002BEED0013B84F8B4306E
:10C218004FF42032002304F160000DF013FE204695
:10C2280002F0C2FBCCE700BFCF2D020010B5C1E978
:10C2380000239DF808300C460B7207F06DFB0C22AA
:10C24800024B02FB00335C6010BD00BFF09400207D
:10C258002DE9F0474FF0FF3206464FF0FF331D48F7
:10C268000F4613F0B1FB044650B91B491B4840F276
:10C27800031210F0F9F940F20311174810F0EDF924
:10C288004FF0000800F10C0A0121504607F08AFD22
:10C29800204684F8188007F03FFB4FF00C09104D3A
:10C2A80009FB00504680204607F036FB09FB00508A
:10C2B800C0F80880204607F02FFB09FB0055032132
:10C2C8005046C5F8048007F0D9FD068087702046DF
:10C2D800BDE8F0870C880020262F0200F820020015
:10C2E800F0940020F0B5074615460C4687B021B9F2
:10C2F800FFF7AEFF0446002849D001220021684616
:10C3080014F0E1FB204607F007FB0C23234E03FB48
:10C318000060C0F808D0204607F0D0FC014620484D
:10C3280007F080FC4FF4A022002368460DF07CF84B
:10C3380058B140F24B121B491B4810F095F9404088
:10C3480080F311884FF0030002DF204607F0E4FA7B
:10C358000C235843365C96B133463A465721134866
:10C3680010F0D3FD204607F07DFC092E12D00D2ECB
:10C378000CBF6FF00B006FF0040007B0F0BD15B1F3
:10C388002C600020F9E7204607F06CFCF9E76FF015
:10C398006800F2E76FF06E00EFE700BFF09400204E
:10C3A8004C810020262F0200F82002008C30020069
:10C3B80073B506460D4642F22F00002101AAFFF789
:10C3C80091FF044630B14521084810F09EFD2046F3
:10C3D80002B070BD0198C368B3F801203280B3F889
:10C3E80003302B8007F03EFCF1E700BFAD300200C0
:10C3F800F7B5144B054693F99B300C46002B1DDA14
:10C4080014B9204603B0F0BD082C4FF0000142F2E9
:10C41800180001AA264628BF0826FFF763FF002850
:10C42800F0D1019F3246F9682846013114F071FDB8
:10C43800384607F017FC3544A41BE1E76FF0850088
:10C44800E0E700BF008000202DE9F0430546002604
:10C458008D4BB0F80190198849F47042914289B027
:10C4680004BF1E80012600F051FE2C7834B33C2C0A
:10C478001CD101F017FA6FF08001103011F032FC76
:10C488000020FFF723FC054630B945217F4809B055
:10C49800BDE8F04310F039BD0473002102F0E6F85E
:10C4A800284609B0BDE8F04302F0B8B82246572143
:10C4B800774809B0BDE8F04310F027BDEB782F1D91
:10C4C800012B08BF734B384608BF93F86F4011F033
:10C4D800C3FB3946E8B106A811F0B3FB05F1110119
:10C4E8000DF1110011F0F2FB01238DF81030EB78FB
:10C4F800012B1AD03846FFF7B3F8452102466648A3
:10C5080010F003FD1321484611F004FC09B0BDE802
:10C51800F083204611F024FD014606A811F0DBFB4C
:10C52800394604A811F0D7FBE1E706A8FFF7CEFBD0
:10C53800EB780446012B0AD101F0B4F980466FF07C
:10C548008001103011F0CEFB404611F02AFE002C7D
:10C55800D0D020460022B5F8013006A920F8903B3B
:10C5680011F0B9FBB5F81730A4F8A630B5F81930B2
:10C57800A4F8AC30B5F81B30A4F8AE30EB782273D1
:10C58800012BE37015D104A904F1970011F0A3FB66
:10C5980001F088F9217A3F4AC1EBC101114404F145
:10C5A8009E0011F098FBD2F8E4305D0601D501F049
:10C5B80023FB0721204602F059F81EB1012120462D
:10C5C80002F054F8204611F06FFE637B072B53D11D
:10C5D800231DD3E8AF3F13F4805F2E4E1FD1E378BD
:10C5E8001BB196F8D830180719D5022142F2160067
:10C5F800FFF72EFE0546002842D002210C3007F036
:10C608003DFC238800220380294642F21600FFF7EA
:10C6180069FE024618B14521204810F076FC96F8CC
:10C62800D930D9070CD50021022320461A4600919B
:10C6380011F0A9FB024618B14521194810F065FC14
:10C6480096F8D8309A0617D5D6F868319B689B07B4
:10C6580012D50DF10E0103A8FFF7AAFE60B9BDF8C7
:10C668000E202046BDF80C1011F06FFB024618B1E1
:10C6780045210C4810F049FC204601F0CFFF45E762
:10C688006FF06802C7E700BFC0990020D2300200EF
:10C69800F830020000800020163102003731020015
:10C6A8005D3102007931020000B5C16889B00B78AC
:10C6B80001A88DF80030B1F801300431ADF801302F
:10C6C80011F8013C8DF80330B1F80730ADF8173098
:10C6D800B1F80930ADF81930B1F80B30ADF81B30AE
:10C6E8004B7B8DF81D3011F0F6FA07490DF10B0060
:10C6F80011F0ECFA0DF1110011F0E8FA6846FFF7B5
:10C70800A3FE09B05DF804FB762B020029289ABF26
:10C71800014B185C09207047B035020070B5C3683A
:10C728000F21B3F801601D78304602F083F8044603
:10C7380030B93246BDE870404521164810F0E5BBD7
:10C7480065B12846FFF7E2FF29460246204602F077
:10C7580003FA2046BDE8704001F060BF8378012BE2
:10C76800EFD106F049FD204611F08CFA0028E8D1F7
:10C778000520FFF7CBFF05210246204602F0ECF921
:10C788004521054810F0C1FB0521204602F0D8F8E4
:10C79800DFE700BFA42D02009A310200F8B5C66891
:10C7A8000F21B6F801703578384602F043F8044690
:10C7B80030B93A46BDE8F84045211A4810F0A5BB03
:10C7C80065B12846FFF7A2FF29460246204602F037
:10C7D800C3F92046BDE8F84001F020BF8278F3781D
:10C7E800012AC37205D00020FFF790FF00210246FE
:10C7F800ECE70BB106F000FD204611F043FA0028E3
:10C80800F1D10520FFF782FF05210246204602F0FC
:10C81800A3F94521044810F078FB0521204602F0D1
:10C828008FF8D6E7A42D02009A31020070B58EB0B9
:10C838006C4606460A4D0D2E0FCD0FC40FCD0FC402
:10C848000FCD0FC495E8030084E803009DBF0EAB2D
:10C8580003EB860656F8380C02480EB070BD00BFD0
:10C8680058150200C5310200024BD3F868315B69E4
:10C87800184700BF0080002038B505460C4619B996
:10C88800FFF7E6FC0446C0B140F635439D420ED1A1
:10C898002046FFF7E9FF054668B1024645210848EA
:10C8A80010F033FB204607F0DDF9284638BD214655
:10C8B800044807F0B7F90025F7E76FF06805F4E7D3
:10C8C800CD3102004C810020F8B50446458B477EE7
:10C8D800807A07F019F86169064649B1637ADA0780
:10C8E80004D4C36A20461B689B6898470023636189
:10C8F8002146304614F0D9F8224B93F88A309B062B
:10C908003ED5384602F03EFB044630B93A46BDE80B
:10C91800F84057211C4810F0F8BA437B073B012B1D
:10C9280008D91A48572110F0F0FA2046BDE8F84017
:10C9380001F074BE01F072FE052140F63540FFF7A4
:10C9480087FC044628B9BDE8F8404521104810F096
:10C95800DCBA00F10C070121384607F08FFA0126EE
:10C9680004210670384607F089FA0023058086708E
:10C97800C3702146BDE8F84040F63540FFF77CBF5C
:10C98800F8BD00BF00800020F4310200223202000E
:10C9980053320200F0B5C56801212F8887B0BCB2B8
:10C9A800204601F047FF064638B92246452125486A
:10C9B80007B0BDE8F04010F0A8BA02ACD5F80220E4
:10C9C800D5F8063001946989009112F04BFE38B30E
:10C9D800122142F21A00FFF73BFC054640B94521F7
:10C9E800194810F092FA304601F018FE07B0F0BD71
:10C9F80012210C3007F042FA0346224623F8027B44
:10CA080006AF144603CCBC4218605960224603F1B5
:10CA18000803F6D1294642F21A00FFF72DFFE2E794
:10CA2800022142F21B00FFF713FC04460028D6D06F
:10CA380002210C3007F022FA2146078042F21B003F
:10CA4800EBE700BFCF2D02007B32020070B506462F
:10CA58000D4642F221000321FFF7FAFB044628B9EC
:10CA6800BDE870404521084810F04FBA03210C304A
:10CA780007F004FA068085702146BDE8704042F24E
:10CA88002100FFF7F9BE00BF9732020073B5C368F3
:10CA9800D9789A781E8842EA0122ADF8002059799F
:10CAA8001A79B4B242EA0122ADF80220D9799A790A
:10CAB800204642EA0122ADF804201A7A5B7A012165
:10CAC80042EA0323ADF8063001F0B4FE054650B93A
:10CAD80045211C48224610F018FA02212046FFF78B
:10CAE800B5FF02B070BD694601F0AEFF38B91E212E
:10CAF8002046FFF7ABFF284601F090FDF1E70E2135
:10CB080042F22000FFF7A4FB04460028F3D00E21D0
:10CB18000C3007F0B3F900230680C0F80A30BDF8DE
:10CB2800003021464380BDF802308380BDF80430D0
:10CB3800C380BDF80630038142F22000FFF79CFE57
:10CB4800D9E700BFCF2D02002DE9F84F454FDFF898
:10CB5800188107F11409FB6848466FF39433FB60AA
:10CB680001F0F0FC451C4FF0FF324FF0FF3329462F
:10CB78003C480EF017FE58B140F6183241463B4883
:10CB88000FF072FD404080F311884FF0030002DF80
:10CB9800344EDFF8DCA015B90EF070F8DBE7F26868
:10CBA800C2F38632022A4ED9042A56D1337B002B8F
:10CBB8004CD1002200232F4812F00BFF044658B92D
:10CBC80040F6AA22414629480FF04EFD404080F326
:10CBD80011884FF0030002DFDFF89CB04FF0FF33FD
:10CBE8004FF0FF3225480CF01FFCDBF8403153B101
:10CBF8004521234810F089F9DBF8400107F032F8A5
:10CC08000023CBF84031204607F058F8CBF8400114
:10CC18002046FFF729FE0246A8B14521194810F021
:10CC280074F916480CF0C6FB204606F075FE0C2277
:10CC3800154B1F2102FB003022464088FFF756F9AA
:10CC4800204607F00FF81436013DA4E7012BFAD16E
:10CC58003069383802F0FCF8F5E75721504610F0F3
:10CC680054F9F0E710820020262F0200F820020075
:10CC7800D63202004C81002000800020288100204C
:10CC8800B6320200CD310200F09400202DE9F041C7
:10CC9800044600F10C06304612F0ACFEB4F81080E1
:10CCA8000546B8F1010F09D842464521174810F04A
:10CCB8002CF92046BDE8F04106F0D4BF30460221E9
:10CCC80007F0C2F80746007810F0CAFFC207064608
:10CCD8000BD440F6CA620E490E480FF0C5FC40401E
:10CCE80080F311884FF0030002DF052321460A4A2A
:10CCF8003878FFF701F8B307DBD56369A4F810802B
:10CD080013FA85F5E560BDE8F08100BF052F020044
:10CD1800262F0200F8200200A419020038B5027E6E
:10CD28000446012A05D0032A11D1FEF7B5FF0020D9
:10CD380038BDC368187810F093FFC207054602D5BE
:10CD48002046FFF7A3FFAB07F1D52046EDE74521C5
:10CD5800044810F0DAF8204606F084FF6FF015005A
:10CD6800E6E700BFFC320200084A0346D2F8680131
:10CD780030B9D96839B1596929B1C2F868317047F1
:10CD88006FF0770070476FF0150070470080002043
:10CD9800F7B5234C0421234810F08DFF224DE2798A
:10CDA800224B2046012A88BF1D46FEF759FC2A4619
:10CDB800034649211E4810F0A8F8264601251D4FB4
:10CDC800E37907369D4220DB94F870502846FFF738
:10CDD8002DFDB4F8763002460193B4F8723049213B
:10CDE800009315482B4610F090F894F87150284697
:10CDF800FFF71CFDB4F874300246009349212B4616
:10CE08000E4810F082F803B0F0BD3046FEF728FC5B
:10CE18002A4603464921384610F077F80135CFE70E
:10CE280000800020D4800020FE4F0200153302004D
:10CE3800193302002D330200433302008633020007
:10CE480010B5FBF7A1F9034B1B6813B1BDE81040FF
:10CE5800184710BD6895002070B5354D0646D5F8C1
:10CE6800683188B043B94521324810F04EF86FF068
:10CE78001204204608B070BD6FF0020105F1D4001D
:10CE880010F030FF012110F016FFC3074DD4FEF754
:10CE9800A1FC04460028ECD1274B1E60012205F5B1
:10CEA8009470114613F00FFE05F5A67013F0E5FD1A
:10CEB80000220023CDE906236FF008034FF48062B7
:10CEC800CDE90243CDE900441C4B1D4904941D489B
:10CED8000BF078FF1C491B4813F0ADFD1B480CF004
:10CEE8003BFE6FF0070340F6980219491748009473
:10CEF8000CF048FE1749154813F09DFDD5F8683128
:10CF0800DB689847044628B10246452112480FF0CD
:10CF1800FCFFAEE726B908B0BDE87040FBF734B9AE
:10CF280005F1C4000CF0A0FDA3E76FF07704A0E7BB
:10CF3800008000205A3502006895002051CB00007F
:10CF4800E8A30020988C002078350200208D00206E
:10CF5800E8A700207E3502008435020000487047AB
:10CF6800A5350200F8B506460024094DEF79E3B26D
:10CF78009F4202D86FF0010007E02946304610F0C2
:10CF880059FF0735631C08B12046F8BD1C46EEE77B
:10CF98000080002037B504460D46B9B12846164929
:10CFA80010F048FF90B929461448C4EBC404204443
:10CFB80010F050FF124810F045FF430703D5FEF765
:10CFC800C3FC10F0E0FD002003B030BD684610F04F
:10CFD8002AFE0028F8D16846FFF7C4FF0028F5DAD2
:10CFE800064BC4EBC4006946184410F033FF002D0B
:10CFF800E0D001462846DBE7692B020000800020CC
:10D00800D480002038B506221149054613F0EDFEFC
:10D01800C8B1062142F20500FFF71AF90446A0B18B
:10D02800062229460C3012F0F1FC0022214642F279
:10D038000500FFF757F938B90548294610F005FFEC
:10D04800012300F8013C002038BD6FF06800FBE7C1
:10D05800698000202DE9F04104460E4686B051B99A
:10D0680028494FF4627228480FF0FEFA4FF46271B3
:10D0780024480FF0F2FA0D6845B9224940F2893286
:10D0880021480FF0F1FA40F28931F1E740B91D4922
:10D0980040F28A321C480FF0E7FA40F28A31E7E79B
:10D0A8002B7A5A0708D517494FF4637216480FF0C0
:10D0B800DBFA4FF46371DBE7D1F80480B8F1000FB5
:10D0C8001CD1037A5B0719D5411C681C10F0B2FE0D
:10D0D8002A35162241460746684613F041FF1022BA
:10D0E8006946284613F081FE30B11022284604F123
:10D0F8002A0113F07AFE00B107B1746006B0BDE8EA
:10D10800F08100BFDD360200F8200200084BD3E8AA
:10D11800EF2F22F40041C3E8E01F0028F7D11304E1
:10D1280004D500220220034906F060B9704700BF09
:10D13800D4800020C7DF0100002307B50549CDE9E9
:10D1480000036A46022006F051F9019803B05DF821
:10D1580004FB00BF5DD00000F7B5054670B14D4C2B
:10D1680094F8202194F821310AB19A4208D2013367
:10D1780084F821312B7A43F004032B7203B0F0BDFD
:10D1880000210622084601F081FD064688B1D43404
:10D19800D4E8EF3F43F40043C4E8E23F002AF7D164
:10D1A8002B7A43F001032B7203B0BDE8F04001F085
:10D1B80035BA0146384800F06FFB94F8213143B185
:10D1C800304610F08AFE20B1572134480FF09DFEFA
:10D1D8001CE094F8212194F820319A4220D157215B
:10D1E8002F480FF092FE002242F229001146FFF765
:10D1F80079F810B145212B48E8E794F8213101333B
:10D2080084F821312B7A43F004032B72012010F0AB
:10D2180064FE0021244803B0BDE8F04000F03CBBA8
:10D228002A466F1C394612F82A0B10F01AFE0646D9
:10D2380010B145211D48C9E794F82131013384F81C
:10D2480021312B7A43F004032B7294F8A7305B0743
:10D2580002D457211648B9E73946684610F0FAFD56
:10D268000123082142F24E008DF80730FEF7F0FF47
:10D27800044660B1082269460C3012F0C7FB3246FA
:10D28800214642F24E00FFF72DF80028BED0452176
:10D2980008489BE70080002039DF01000B370200B7
:10D2A800353702006B37020013DF010090370200A8
:10D2B800B5370200E43702002DE9F041054698B37E
:10D2C800444C94F8202194F82131D2B10132934290
:10D2D80023DC00210622084601F0D8FC064628B3C4
:10D2E800D434D4E8EF3F43F40043C4E8E23F002AD3
:10D2F800F7D12B7A43F002032B72BDE8F04101F01D
:10D308008DB953B93449354840F24F420FF0ACF962
:10D3180040F24F4130480FF0A0F9013B84F8213129
:10D328002B7A23F004032B72BDE8F08101462C48C8
:10D3380000F0B2FA304610F0D0FD064680B1024641
:10D34800452128480FF0E1FD94F8213113B101205F
:10D3580010F0C3FDBDE8F0410021234800F09CBA5D
:10D3680094F8213194F820219A420CD2013B84F898
:10D3780021312B7A024623F0040302201B492B7229
:10D3880006F034F8E0E7072142F22800FEF760FFD4
:10D3980005F10108074620B9452115480FF0B5FDEC
:10D3A800D2E707210C3006F069FD414610F052FD26
:10D3B8003246394642F22800FEF794FF0028EBD1A6
:10D3C80094F82131013B84F821312B7A23F00403AE
:10D3D8002B72B9E700800020DD360200F820020039
:10D3E80039DF01000438020013DF0100CDDE01003F
:10D3F8003638020070B50D460446B8B11F4910F022
:10D4080019FD98B92378012B04D1A37903F0C0033F
:10D41800C02B06D045211A480FF077FD6FF0150094
:10D4280070BD2046FFF79EFD002821DA002DF5D1BA
:10D43800144DEB79012B1ED005F1D40010F002FD3C
:10D44800C30707D4002CE9D020460C4910F0F2FCA1
:10D458000028E3D1EE792146731C3046EB71FFF7C3
:10D4680099FD08B93046DBE7EB79013BEB71D7E76B
:10D478006FF07700D4E76FF00B00D1E7692B02005B
:10D488006038020000800020F7B5044630B9572103
:10D4980016480FF03AFD002003B0F0BD002141F21C
:10D4A800090001AAFEF71EFF064610B157211048D1
:10D4B800EFE7019F0622FD680E490135284613F063
:10D4C80094FC28B1062228460B4913F08EFC18B9A3
:10D4D800384606F0C7FBDEE72946601C10F0B5FCAD
:10D4E8003846267006F0BEFB0120D5E793380200C7
:10D4F800B1380200762B0200702B020007B568468F
:10D50800FFF7C2FF044BD87118B169460020FFF736
:10D5180041FD03B05DF804FB00800020F7B51E4B09
:10D52800054693F8C2300E46DB0707D457211B483F
:10D538000FF0EBFC0024204603B0F0BD00214FF6AD
:10D54800094001AAFEF7CEFE034610B15721144840
:10D55800EEE701981627C26854780232B44228BF11
:10D5680034469C4208DC06F07DFB002CE3D15721B1
:10D578000C480FF0CAFCDEE7114607FB035602F120
:10D58800140C51F804EB614546F804EBF9D109880D
:10D59800013331801632E4E700800020D4380200DD
:10D5A800053902002A39020070B5154D88B0EC79AA
:10D5B8002CB9012102A8FFF7B1FFE871C0B9002119
:10D5C800084608B0BDE87040FFF714BF02AB06FB81
:10D5D80002310DF1010010F038FC012369461046B4
:10D5E8008DF80030FFF7D6FC013410B108B070BDDB
:10D5F8001626EB79E2B29342E8D80020F6E700BF9E
:10D60800008000202DE9F04190460E461D46024656
:10D6180048B143B13103047810D5730707D54521C4
:10D6280029480FF072FC6FF01500BDE8F08110F08A
:10D63800ABFC0028F9D101232B702EE0F7072ED57B
:10D64800224FB8F1000F13D0B0060AD4C4EBC403BC
:10D65800FB5C012B11D02B70B2061ED543F00203E0
:10D66800EAE797F8D8305906F0D46FF08500DCE780
:10D67800C4EBC403FB5C012BDED1072101FB047161
:10D688001046013110F078FC0028CED1C4EBC40458
:10D698003B5D2B70B8F1000FDED10020C5E77307A2
:10D6A8000ED50A4EC4EBC407F35D012BC4D1072184
:10D6B80011FB0431314410F05FFCF35D2B70B4E7CB
:10D6C80010F062FC0123F9E75839020000800020BD
:10D6D8002DE9F74F0C46202192460090FEF7B8FD41
:10D6E8000546002854D020210C3006F0C7FB202224
:10D6F8008146002113F034FC002609F1010B04EBEC
:10D70800CA0A0023D4F80080626893420CD3083414
:10D71800A245F6D100222946009889F8006003B096
:10D72800BDE8F04FFEF7DEBD98F80120B01C1118D7
:10D738001F2998F800C014D9BCF1090FC0F11F02C5
:10D7480001D1002A0BDC452113480FF0DEFB2846E7
:10D7580006F088FA6FF0150003B0BDE8F08F4FF0BF
:10D76800080CD7B2791C0BF80610711CC9B20BF85B
:10D7780001C0D8F804105BFA80F00193023713F067
:10D78800C8FB019B3744FEB2013308F10808BBE728
:10D798006FF06800E0E700BF82390200F8B545681D
:10D7A8000646690535D4046914B115F0010330D073
:10D7B800194F3078FB7983422BD9C0EBC000072280
:10D7C8001649384413F011FBA8B115F0010306D12E
:10D7D80097F87020082A02D8B2689F2A19D915F03C
:10D7E800300F09D0ACB1EA060AD405F46035B5F5B6
:10D7F800603018BF0120F8BDEB0601D4002CF4D12D
:10D80800D6E902239A4204D81F2A02D9B3F5804FD9
:10D81800EBD90020EFE700BF00800020692B020051
:10D82800072208B50349093013F0DFFA003818BF9A
:10D83800012008BD692B0200F8B5154B067804468F
:10D848000D4683F86F60FFF7EBFF70B9304611495A
:10D8580001F0C0F9044610B96FF00B00F8BD0421BF
:10D8680000F004FF00202C60F8E704F109073946AE
:10D87800304601F0E7F940B92078394601F0AAF9B5
:10D8880004460028E8D00521EAE76FF01500E5E72F
:10D8980000800020622B020003460148184700BFA1
:10D8A8001880002000487047188000202DE9F04FAC
:10D8B8009A460023D1F810908DB0B9EB03050646BF
:10D8C8008B4818BF01250592079310F099FB0C4669
:10D8D800410740F102812046FFF760FF28B96FF049
:10D8E800150B58460DB0BDE8F08F204610F063FBCD
:10D8F80080460028F3D006F11007384610F080FB68
:10D908000206C0F3C01300F1EB80CDE90933CDF86E
:10D918002B30A3686068ADF82030E3686FF40051DD
:10D92800ADF8223010F05DFB8DF82D00704810F036
:10D938006AFB23786F4A337082F86F3030462A4684
:10D9480061680DF12503FFF75DFE83460028C8D105
:10D9580006F10900B9F1000F13D0216910F05EFB40
:10D96800204610F0E7FB63680546D80716D49A05E9
:10D9780003D4169B0BB9022D51D102238DF8243004
:10D9880019E05D4910F04AFB204610F0D3FB6368AC
:10D998000546D907EBD58DF824900CE013F0100F4D
:10D9A8000CBF0123042321690DF126008DF82430D2
:10D9B800D84610F033FB0F2142F20600FEF748FC70
:10D9C8008346002800F08F800F2208A90C3012F03F
:10D9D8001DF80022594642F20600FEF783FC002893
:10D9E80040F08480B9F1000F1FD06368DB072AD4A8
:10D9F8003046012110F0AEFB079E8346002864D014
:10DA080045213E480FF081FA002E3FF46AAF3046B8
:10DA1800002100F02BFE304600F000FE61E70323F2
:10DA2800DDF858808DF82430C5E7179B52460093DF
:10DA38003046CDE90185169B059910F009FB834610
:10DA48000028D2D04DE7304607A9FFF7F5FE8346F8
:10DA58000028CDD010F10C0F7FF443AFB9F1000FBF
:10DA68007FF43FAF636898073FF53BAF626882F089
:10DA78000202C2F3400B0BF001020E21384610F0EF
:10DA8800D4FA6B1E5A425A410821384610F0CDFA92
:10DA9800A91E4A424A413846092110F0C6FA62686E
:10DAA8000A21384602F0010210F0BFFA42460B2163
:10DAB800384610F0BAFA62680D213846C2F380027F
:10DAC80010F0B3FA4FF0000B0BE716B1304600F038
